{
  "_format": "hh-sol-artifact-1",
  "contractName": "CryproPairPricePredictionFactory",
  "sourceName": "contracts/crypto-preidction.sol",
  "abi": [
    {
      "inputs": [
        {
          "internalType": "address",
          "name": "_owner",
          "type": "address"
        }
      ],
      "stateMutability": "nonpayable",
      "type": "constructor"
    },
    {
      "anonymous": false,
      "inputs": [
        {
          "indexed": false,
          "internalType": "uint256",
          "name": "pair",
          "type": "uint256"
        },
        {
          "indexed": false,
          "internalType": "uint256",
          "name": "amount",
          "type": "uint256"
        },
        {
          "indexed": false,
          "internalType": "enum CryproPairPricePredictionFactory.TokenSelection",
          "name": "tokenBetType",
          "type": "uint8"
        }
      ],
      "name": "Bet",
      "type": "event"
    },
    {
      "anonymous": false,
      "inputs": [
        {
          "indexed": false,
          "internalType": "uint256",
          "name": "amount",
          "type": "uint256"
        }
      ],
      "name": "Claim",
      "type": "event"
    },
    {
      "anonymous": false,
      "inputs": [
        {
          "indexed": false,
          "internalType": "uint256",
          "name": "pairRound",
          "type": "uint256"
        },
        {
          "indexed": false,
          "internalType": "uint256",
          "name": "pair",
          "type": "uint256"
        }
      ],
      "name": "EndRound",
      "type": "event"
    },
    {
      "anonymous": false,
      "inputs": [
        {
          "indexed": false,
          "internalType": "uint256",
          "name": "",
          "type": "uint256"
        }
      ],
      "name": "FeesChanged",
      "type": "event"
    },
    {
      "anonymous": false,
      "inputs": [
        {
          "indexed": false,
          "internalType": "uint256",
          "name": "roundNumber",
          "type": "uint256"
        }
      ],
      "name": "Pause",
      "type": "event"
    },
    {
      "anonymous": false,
      "inputs": [
        {
          "indexed": false,
          "internalType": "address",
          "name": "account",
          "type": "address"
        }
      ],
      "name": "Paused",
      "type": "event"
    },
    {
      "anonymous": false,
      "inputs": [
        {
          "indexed": false,
          "internalType": "int256",
          "name": "",
          "type": "int256"
        },
        {
          "indexed": false,
          "internalType": "int256",
          "name": "",
          "type": "int256"
        }
      ],
      "name": "PercentageTokenChanges",
      "type": "event"
    },
    {
      "anonymous": false,
      "inputs": [
        {
          "indexed": false,
          "internalType": "uint256",
          "name": "pair",
          "type": "uint256"
        }
      ],
      "name": "PerformUpKeepUpdated",
      "type": "event"
    },
    {
      "anonymous": false,
      "inputs": [
        {
          "indexed": false,
          "internalType": "address",
          "name": "",
          "type": "address"
        },
        {
          "indexed": false,
          "internalType": "uint256",
          "name": "",
          "type": "uint256"
        }
      ],
      "name": "Received",
      "type": "event"
    },
    {
      "anonymous": false,
      "inputs": [
        {
          "indexed": false,
          "internalType": "uint256",
          "name": "pair",
          "type": "uint256"
        },
        {
          "indexed": false,
          "internalType": "uint256",
          "name": "currentRound",
          "type": "uint256"
        },
        {
          "indexed": false,
          "internalType": "uint256",
          "name": "previousRound",
          "type": "uint256"
        },
        {
          "indexed": false,
          "internalType": "uint256",
          "name": "nextRound",
          "type": "uint256"
        }
      ],
      "name": "RoundExecution",
      "type": "event"
    },
    {
      "anonymous": false,
      "inputs": [
        {
          "indexed": false,
          "internalType": "uint256",
          "name": "pairRound",
          "type": "uint256"
        },
        {
          "indexed": false,
          "internalType": "uint256",
          "name": "pair",
          "type": "uint256"
        }
      ],
      "name": "StartRound",
      "type": "event"
    },
    {
      "anonymous": false,
      "inputs": [
        {
          "indexed": false,
          "internalType": "uint256",
          "name": "pairsActivated",
          "type": "uint256"
        }
      ],
      "name": "Unpause",
      "type": "event"
    },
    {
      "anonymous": false,
      "inputs": [
        {
          "indexed": false,
          "internalType": "address",
          "name": "account",
          "type": "address"
        }
      ],
      "name": "Unpaused",
      "type": "event"
    },
    {
      "inputs": [
        {
          "internalType": "address",
          "name": "to",
          "type": "address"
        },
        {
          "internalType": "uint256",
          "name": "value",
          "type": "uint256"
        }
      ],
      "name": "_safeTransfer",
      "outputs": [],
      "stateMutability": "nonpayable",
      "type": "function"
    },
    {
      "inputs": [],
      "name": "amountToBeTransfered",
      "outputs": [
        {
          "internalType": "uint256",
          "name": "",
          "type": "uint256"
        }
      ],
      "stateMutability": "view",
      "type": "function"
    },
    {
      "inputs": [
        {
          "internalType": "uint256",
          "name": "_fees",
          "type": "uint256"
        }
      ],
      "name": "changeFees",
      "outputs": [],
      "stateMutability": "nonpayable",
      "type": "function"
    },
    {
      "inputs": [
        {
          "internalType": "uint256",
          "name": "_minBet",
          "type": "uint256"
        }
      ],
      "name": "changeMinBet",
      "outputs": [],
      "stateMutability": "nonpayable",
      "type": "function"
    },
    {
      "inputs": [
        {
          "internalType": "uint256",
          "name": "_roundTime",
          "type": "uint256"
        }
      ],
      "name": "changeRoundTime",
      "outputs": [],
      "stateMutability": "nonpayable",
      "type": "function"
    },
    {
      "inputs": [
        {
          "internalType": "bytes",
          "name": "checkData",
          "type": "bytes"
        }
      ],
      "name": "checkUpkeep",
      "outputs": [
        {
          "internalType": "bool",
          "name": "upkeepNeeded",
          "type": "bool"
        },
        {
          "internalType": "bytes",
          "name": "performData",
          "type": "bytes"
        }
      ],
      "stateMutability": "view",
      "type": "function"
    },
    {
      "inputs": [
        {
          "internalType": "uint256",
          "name": "_pairRound",
          "type": "uint256"
        },
        {
          "internalType": "uint256",
          "name": "_pair",
          "type": "uint256"
        }
      ],
      "name": "claimReward",
      "outputs": [],
      "stateMutability": "payable",
      "type": "function"
    },
    {
      "inputs": [
        {
          "internalType": "address",
          "name": "firstToken",
          "type": "address"
        },
        {
          "internalType": "address",
          "name": "secondToken",
          "type": "address"
        }
      ],
      "name": "createPredictionPairs",
      "outputs": [],
      "stateMutability": "nonpayable",
      "type": "function"
    },
    {
      "inputs": [],
      "name": "fees",
      "outputs": [
        {
          "internalType": "uint256",
          "name": "",
          "type": "uint256"
        }
      ],
      "stateMutability": "view",
      "type": "function"
    },
    {
      "inputs": [
        {
          "internalType": "uint256",
          "name": "_pairRound",
          "type": "uint256"
        },
        {
          "internalType": "uint256",
          "name": "_pair",
          "type": "uint256"
        }
      ],
      "name": "firstTokenBet",
      "outputs": [],
      "stateMutability": "payable",
      "type": "function"
    },
    {
      "inputs": [],
      "name": "getBlockTimeStamp",
      "outputs": [
        {
          "internalType": "uint256",
          "name": "",
          "type": "uint256"
        }
      ],
      "stateMutability": "view",
      "type": "function"
    },
    {
      "inputs": [
        {
          "internalType": "contract AggregatorV3Interface[2]",
          "name": "token",
          "type": "address[2]"
        }
      ],
      "name": "getLatestPrice",
      "outputs": [
        {
          "internalType": "int256",
          "name": "",
          "type": "int256"
        },
        {
          "internalType": "int256",
          "name": "",
          "type": "int256"
        }
      ],
      "stateMutability": "view",
      "type": "function"
    },
    {
      "inputs": [],
      "name": "getPairCount",
      "outputs": [
        {
          "internalType": "uint256",
          "name": "",
          "type": "uint256"
        }
      ],
      "stateMutability": "view",
      "type": "function"
    },
    {
      "inputs": [
        {
          "internalType": "uint256",
          "name": "_pair",
          "type": "uint256"
        },
        {
          "internalType": "uint256",
          "name": "size",
          "type": "uint256"
        }
      ],
      "name": "getPairRounds",
      "outputs": [
        {
          "components": [
            {
              "internalType": "uint256",
              "name": "pairNumber",
              "type": "uint256"
            },
            {
              "internalType": "uint256",
              "name": "poolAmount",
              "type": "uint256"
            },
            {
              "internalType": "uint256",
              "name": "firstTokenPoolAmount",
              "type": "uint256"
            },
            {
              "internalType": "uint256",
              "name": "secondTokenPoolAmount",
              "type": "uint256"
            },
            {
              "internalType": "uint256",
              "name": "poolTokenRewardAmount",
              "type": "uint256"
            },
            {
              "internalType": "uint256",
              "name": "poolTokenBaseAmount",
              "type": "uint256"
            },
            {
              "internalType": "uint256",
              "name": "roundNumber",
              "type": "uint256"
            },
            {
              "internalType": "bool",
              "name": "roundStart",
              "type": "bool"
            },
            {
              "internalType": "bool",
              "name": "roundEnded",
              "type": "bool"
            },
            {
              "internalType": "bool",
              "name": "roundLock",
              "type": "bool"
            },
            {
              "internalType": "bool",
              "name": "gotPaused",
              "type": "bool"
            },
            {
              "internalType": "uint256",
              "name": "startTimeStamp",
              "type": "uint256"
            },
            {
              "internalType": "uint256",
              "name": "endTimeStamp",
              "type": "uint256"
            },
            {
              "internalType": "int256",
              "name": "firstTokenPriceChange",
              "type": "int256"
            },
            {
              "internalType": "int256",
              "name": "secondTokenPriceChange",
              "type": "int256"
            },
            {
              "internalType": "int256",
              "name": "firstTokenPrice",
              "type": "int256"
            },
            {
              "internalType": "int256",
              "name": "secondTokenPrice",
              "type": "int256"
            }
          ],
          "internalType": "struct CryproPairPricePredictionFactory.Rounds[]",
          "name": "",
          "type": "tuple[]"
        }
      ],
      "stateMutability": "view",
      "type": "function"
    },
    {
      "inputs": [
        {
          "internalType": "uint256",
          "name": "_pairRound",
          "type": "uint256"
        },
        {
          "internalType": "uint256",
          "name": "_pair",
          "type": "uint256"
        }
      ],
      "name": "getRoundInfo",
      "outputs": [
        {
          "components": [
            {
              "internalType": "uint256",
              "name": "pairNumber",
              "type": "uint256"
            },
            {
              "internalType": "uint256",
              "name": "poolAmount",
              "type": "uint256"
            },
            {
              "internalType": "uint256",
              "name": "firstTokenPoolAmount",
              "type": "uint256"
            },
            {
              "internalType": "uint256",
              "name": "secondTokenPoolAmount",
              "type": "uint256"
            },
            {
              "internalType": "uint256",
              "name": "poolTokenRewardAmount",
              "type": "uint256"
            },
            {
              "internalType": "uint256",
              "name": "poolTokenBaseAmount",
              "type": "uint256"
            },
            {
              "internalType": "uint256",
              "name": "roundNumber",
              "type": "uint256"
            },
            {
              "internalType": "bool",
              "name": "roundStart",
              "type": "bool"
            },
            {
              "internalType": "bool",
              "name": "roundEnded",
              "type": "bool"
            },
            {
              "internalType": "bool",
              "name": "roundLock",
              "type": "bool"
            },
            {
              "internalType": "bool",
              "name": "gotPaused",
              "type": "bool"
            },
            {
              "internalType": "uint256",
              "name": "startTimeStamp",
              "type": "uint256"
            },
            {
              "internalType": "uint256",
              "name": "endTimeStamp",
              "type": "uint256"
            },
            {
              "internalType": "int256",
              "name": "firstTokenPriceChange",
              "type": "int256"
            },
            {
              "internalType": "int256",
              "name": "secondTokenPriceChange",
              "type": "int256"
            },
            {
              "internalType": "int256",
              "name": "firstTokenPrice",
              "type": "int256"
            },
            {
              "internalType": "int256",
              "name": "secondTokenPrice",
              "type": "int256"
            }
          ],
          "internalType": "struct CryproPairPricePredictionFactory.Rounds",
          "name": "",
          "type": "tuple"
        }
      ],
      "stateMutability": "view",
      "type": "function"
    },
    {
      "inputs": [],
      "name": "getTreauryAmount",
      "outputs": [],
      "stateMutability": "nonpayable",
      "type": "function"
    },
    {
      "inputs": [
        {
          "internalType": "uint256",
          "name": "_pair",
          "type": "uint256"
        }
      ],
      "name": "getUserRounds",
      "outputs": [
        {
          "components": [
            {
              "internalType": "enum CryproPairPricePredictionFactory.TokenSelection",
              "name": "tokenselected",
              "type": "uint8"
            },
            {
              "internalType": "uint256",
              "name": "amount",
              "type": "uint256"
            },
            {
              "internalType": "bool",
              "name": "claim",
              "type": "bool"
            }
          ],
          "internalType": "struct CryproPairPricePredictionFactory.biddingInfo[]",
          "name": "",
          "type": "tuple[]"
        },
        {
          "internalType": "uint256[]",
          "name": "",
          "type": "uint256[]"
        }
      ],
      "stateMutability": "view",
      "type": "function"
    },
    {
      "inputs": [
        {
          "internalType": "uint256",
          "name": "_pairRound",
          "type": "uint256"
        },
        {
          "internalType": "uint256",
          "name": "_pair",
          "type": "uint256"
        }
      ],
      "name": "gettokenPriceChanges",
      "outputs": [
        {
          "internalType": "int256",
          "name": "",
          "type": "int256"
        },
        {
          "internalType": "int256",
          "name": "",
          "type": "int256"
        }
      ],
      "stateMutability": "nonpayable",
      "type": "function"
    },
    {
      "inputs": [],
      "name": "hasRoundEnded",
      "outputs": [
        {
          "internalType": "bool",
          "name": "",
          "type": "bool"
        }
      ],
      "stateMutability": "view",
      "type": "function"
    },
    {
      "inputs": [],
      "name": "maxBet",
      "outputs": [
        {
          "internalType": "uint256",
          "name": "",
          "type": "uint256"
        }
      ],
      "stateMutability": "view",
      "type": "function"
    },
    {
      "inputs": [],
      "name": "minBet",
      "outputs": [
        {
          "internalType": "uint256",
          "name": "",
          "type": "uint256"
        }
      ],
      "stateMutability": "view",
      "type": "function"
    },
    {
      "inputs": [
        {
          "internalType": "uint256",
          "name": "",
          "type": "uint256"
        }
      ],
      "name": "pairGenesisRound",
      "outputs": [
        {
          "internalType": "bool",
          "name": "",
          "type": "bool"
        }
      ],
      "stateMutability": "view",
      "type": "function"
    },
    {
      "inputs": [
        {
          "internalType": "uint256",
          "name": "",
          "type": "uint256"
        }
      ],
      "name": "pairRounds",
      "outputs": [
        {
          "internalType": "uint256",
          "name": "",
          "type": "uint256"
        }
      ],
      "stateMutability": "view",
      "type": "function"
    },
    {
      "inputs": [
        {
          "internalType": "uint256",
          "name": "",
          "type": "uint256"
        },
        {
          "internalType": "uint256",
          "name": "",
          "type": "uint256"
        }
      ],
      "name": "pairs",
      "outputs": [
        {
          "internalType": "contract AggregatorV3Interface",
          "name": "",
          "type": "address"
        }
      ],
      "stateMutability": "view",
      "type": "function"
    },
    {
      "inputs": [],
      "name": "pairsCount",
      "outputs": [
        {
          "internalType": "uint256",
          "name": "",
          "type": "uint256"
        }
      ],
      "stateMutability": "view",
      "type": "function"
    },
    {
      "inputs": [
        {
          "internalType": "uint256",
          "name": "pair",
          "type": "uint256"
        }
      ],
      "name": "pause",
      "outputs": [],
      "stateMutability": "nonpayable",
      "type": "function"
    },
    {
      "inputs": [],
      "name": "paused",
      "outputs": [
        {
          "internalType": "bool",
          "name": "",
          "type": "bool"
        }
      ],
      "stateMutability": "view",
      "type": "function"
    },
    {
      "inputs": [
        {
          "internalType": "bytes",
          "name": "performData",
          "type": "bytes"
        }
      ],
      "name": "performUpkeep",
      "outputs": [],
      "stateMutability": "nonpayable",
      "type": "function"
    },
    {
      "inputs": [
        {
          "internalType": "uint256",
          "name": "_pair",
          "type": "uint256"
        }
      ],
      "name": "roundExecution",
      "outputs": [],
      "stateMutability": "nonpayable",
      "type": "function"
    },
    {
      "inputs": [],
      "name": "roundTime",
      "outputs": [
        {
          "internalType": "uint256",
          "name": "",
          "type": "uint256"
        }
      ],
      "stateMutability": "view",
      "type": "function"
    },
    {
      "inputs": [
        {
          "internalType": "uint256",
          "name": "_pairRound",
          "type": "uint256"
        },
        {
          "internalType": "uint256",
          "name": "_pair",
          "type": "uint256"
        }
      ],
      "name": "secondTokenBet",
      "outputs": [],
      "stateMutability": "payable",
      "type": "function"
    },
    {
      "inputs": [
        {
          "internalType": "uint256",
          "name": "_pair",
          "type": "uint256"
        }
      ],
      "name": "startGenesisRoundForThePair",
      "outputs": [],
      "stateMutability": "nonpayable",
      "type": "function"
    },
    {
      "inputs": [],
      "name": "treasuryAmount",
      "outputs": [
        {
          "internalType": "uint256",
          "name": "",
          "type": "uint256"
        }
      ],
      "stateMutability": "view",
      "type": "function"
    },
    {
      "inputs": [],
      "name": "unpause",
      "outputs": [],
      "stateMutability": "nonpayable",
      "type": "function"
    },
    {
      "inputs": [
        {
          "internalType": "uint256",
          "name": "minDeposit",
          "type": "uint256"
        },
        {
          "internalType": "uint256",
          "name": "maxDeposit",
          "type": "uint256"
        }
      ],
      "name": "updateMinMaxDepositAmount",
      "outputs": [],
      "stateMutability": "nonpayable",
      "type": "function"
    },
    {
      "inputs": [
        {
          "internalType": "address",
          "name": "newOwner",
          "type": "address"
        }
      ],
      "name": "updateOwner",
      "outputs": [],
      "stateMutability": "nonpayable",
      "type": "function"
    },
    {
      "inputs": [
        {
          "internalType": "uint256",
          "name": "",
          "type": "uint256"
        },
        {
          "internalType": "address",
          "name": "",
          "type": "address"
        },
        {
          "internalType": "uint256",
          "name": "",
          "type": "uint256"
        }
      ],
      "name": "userPlayedRounds",
      "outputs": [
        {
          "internalType": "uint256",
          "name": "",
          "type": "uint256"
        }
      ],
      "stateMutability": "view",
      "type": "function"
    },
    {
      "inputs": [
        {
          "internalType": "uint256",
          "name": "",
          "type": "uint256"
        },
        {
          "internalType": "uint256",
          "name": "",
          "type": "uint256"
        },
        {
          "internalType": "address",
          "name": "",
          "type": "address"
        }
      ],
      "name": "userRoundBids",
      "outputs": [
        {
          "internalType": "enum CryproPairPricePredictionFactory.TokenSelection",
          "name": "tokenselected",
          "type": "uint8"
        },
        {
          "internalType": "uint256",
          "name": "amount",
          "type": "uint256"
        },
        {
          "internalType": "bool",
          "name": "claim",
          "type": "bool"
        }
      ],
      "stateMutability": "view",
      "type": "function"
    },
    {
      "stateMutability": "payable",
      "type": "receive"
    }
  ],
  "bytecode": "0x60806040523480156200001157600080fd5b50604051620060ac380380620060ac8339818101604052810190620000379190620000e4565b60008060006101000a81548160ff0219169083151502179055506001808190555080600260006101000a81548173ffffffffffffffffffffffffffffffffffffffff021916908373ffffffffffffffffffffffffffffffffffffffff16021790555060006003819055506000600681905550607860078190555061012c6008819055506402540be400600481905550506200015e565b600081519050620000de8162000144565b92915050565b600060208284031215620000f757600080fd5b60006200010784828501620000cd565b91505092915050565b60006200011d8262000124565b9050919050565b600073ffffffffffffffffffffffffffffffffffffffff82169050919050565b6200014f8162000110565b81146200015b57600080fd5b50565b615f3e806200016e6000396000f3fe6080604052600436106102295760003560e01c80638a9bb02a11610123578063ca49a543116100ab578063ee5f8c8f1161006f578063ee5f8c8f14610859578063f198f54e14610884578063f55267c6146108c1578063fa0b6211146108ea578063fa7af1f01461091557610269565b8063ca49a54314610761578063d411e8991461078c578063e6ae3389146107b5578063e8147a25146107f2578063e8bacbb41461081b57610269565b8063a468b7c1116100f2578063a468b7c114610688578063b81b2b71146106c6578063b933137f146106f1578063c34641fa1461070d578063c4f8210e1461073857610269565b80638a9bb02a146105ca5780639619367d146106075780639af1d35a146106325780639cf2ebf51461065d57610269565b80635c975abb116101b15780637197191011610175578063719719101461051c57806375dd50511461053357806377a0de4c1461055c57806386bb8f3714610585578063880cdc31146105a157610269565b80635c975abb14610424578063626a99a81461044f578063675b4ef1146104785780636cda375b146104b55780636e04ff0d146104de57610269565b806323462d0c116101f857806323462d0c146103515780632e5b21681461038e578063368acb09146103b95780633f4ba83a146103e45780634585e33b146103fb57610269565b80630364ad731461026e578063121e1908146102ad578063136439dd146102ea5780631ecc82b71461031357610269565b36610269577f88a5966d370b9919b20f3e2c13ff65706f196a4e32cc2c12bf57088f88525874333460405161025f929190614eff565b60405180910390a1005b600080fd5b34801561027a57600080fd5b50610295600480360381019061029091906145c6565b610931565b6040516102a493929190614fe7565b60405180910390f35b3480156102b957600080fd5b506102d460048036038101906102cf9190614512565b61098f565b6040516102e1919061531e565b60405180910390f35b3480156102f657600080fd5b50610311600480360381019061030c9190614512565b6109a7565b005b34801561031f57600080fd5b5061033a6004803603810190610335919061458a565b610c76565b60405161034892919061501e565b60405180910390f35b34801561035d57600080fd5b506103786004803603810190610373919061453b565b610dc1565b604051610385919061531e565b60405180910390f35b34801561039a57600080fd5b506103a3610dff565b6040516103b0919061531e565b60405180910390f35b3480156103c557600080fd5b506103ce610e05565b6040516103db919061531e565b60405180910390f35b3480156103f057600080fd5b506103f9610e0b565b005b34801561040757600080fd5b50610422600480360381019061041d91906144cd565b610f75565b005b34801561043057600080fd5b50610439610fbb565b6040516104469190614f81565b60405180910390f35b34801561045b57600080fd5b5061047660048036038101906104719190614512565b610fd1565b005b34801561048457600080fd5b5061049f600480360381019061049a919061458a565b61106b565b6040516104ac9190614fcc565b60405180910390f35b3480156104c157600080fd5b506104dc60048036038101906104d79190614512565b6110b0565b005b3480156104ea57600080fd5b50610505600480360381019061050091906144cd565b611183565b604051610513929190614f9c565b60405180910390f35b34801561052857600080fd5b50610531611228565b005b34801561053f57600080fd5b5061055a6004803603810190610555919061442c565b61131b565b005b34801561056857600080fd5b50610583600480360381019061057e919061458a565b6114e5565b005b61059f600480360381019061059a919061458a565b611587565b005b3480156105ad57600080fd5b506105c860048036038101906105c39190614403565b611ce7565b005b3480156105d657600080fd5b506105f160048036038101906105ec919061458a565b611dbb565b6040516105fe9190615302565b60405180910390f35b34801561061357600080fd5b5061061c611ee9565b604051610629919061531e565b60405180910390f35b34801561063e57600080fd5b50610647611eef565b604051610654919061531e565b60405180910390f35b34801561066957600080fd5b50610672611ef5565b60405161067f919061531e565b60405180910390f35b34801561069457600080fd5b506106af60048036038101906106aa91906144a4565b611eff565b6040516106bd92919061501e565b60405180910390f35b3480156106d257600080fd5b506106db612097565b6040516106e8919061531e565b60405180910390f35b61070b6004803603810190610706919061458a565b61209d565b005b34801561071957600080fd5b5061072261270b565b60405161072f919061531e565b60405180910390f35b34801561074457600080fd5b5061075f600480360381019061075a9190614468565b612711565b005b34801561076d57600080fd5b506107766127c2565b604051610783919061531e565b60405180910390f35b34801561079857600080fd5b506107b360048036038101906107ae9190614512565b6127ca565b005b3480156107c157600080fd5b506107dc60048036038101906107d7919061458a565b612981565b6040516107e99190614f28565b60405180910390f35b3480156107fe57600080fd5b5061081960048036038101906108149190614512565b612bc6565b005b34801561082757600080fd5b50610842600480360381019061083d9190614512565b612c60565b604051610850929190614f4a565b60405180910390f35b34801561086557600080fd5b5061086e612f53565b60405161087b919061531e565b60405180910390f35b34801561089057600080fd5b506108ab60048036038101906108a69190614512565b612f59565b6040516108b89190614f81565b60405180910390f35b3480156108cd57600080fd5b506108e860048036038101906108e39190614512565b612f79565b005b3480156108f657600080fd5b506108ff613164565b60405161090c9190614f81565b60405180910390f35b61092f600480360381019061092a919061458a565b6131bb565b005b600c60205282600052604060002060205281600052604060002060205280600052604060002060009250925050508060000160009054906101000a900460ff16908060010154908060020160009054906101000a900460ff16905083565b600a6020528060005260406000206000915090505481565b6109af610fbb565b156109ef576040517f08c379a00000000000000000000000000000000000000000000000000000000081526004016109e690615182565b60405180910390fd5b3373ffffffffffffffffffffffffffffffffffffffff16600260009054906101000a900473ffffffffffffffffffffffffffffffffffffffff1673ffffffffffffffffffffffffffffffffffffffff1614610a7f576040517f08c379a0000000000000000000000000000000000000000000000000000000008152600401610a7690615102565b60405180910390fd5b6000600190505b6003548111610c33576000600a60008381526020019081526020016000205490506001600e6000848152602001908152602001600020600083815260200190815260200160002060070160036101000a81548160ff0219169083151502179055506000600e60008481526020019081526020016000206000838152602001908152602001600020600901819055506001600e6000848152602001908152602001600020600083815260200190815260200160002060070160016101000a81548160ff021916908315150217905550600e60008381526020019081526020016000206000600183610b769190615802565b815260200190815260200160002060070160019054906101000a900460ff16610c1f576000600e60008481526020019081526020016000206000600184610bbd9190615802565b8152602001908152602001600020600901819055506001600e60008481526020019081526020016000206000600184610bf69190615802565b815260200190815260200160002060070160016101000a81548160ff0219169083151502179055505b508080610c2b90615999565b915050610a86565b50610c3c613829565b7f68b095021b1f40fe513109f513c66692f0b3219aee674a69f4efc57badb8201d81604051610c6b919061531e565b60405180910390a150565b600080600080610d0960096000878152602001908152602001600020600280602002604051908101604052809291908260028015610cff576020028201915b8160009054906101000a900473ffffffffffffffffffffffffffffffffffffffff1673ffffffffffffffffffffffffffffffffffffffff1681526020019060010190808311610cb5575b5050505050611eff565b915091506000610d40600e60008881526020019081526020016000206000898152602001908152602001600020600c0154846138cb565b90506000610d75600e600089815260200190815260200160002060008a8152602001908152602001600020600d0154846138cb565b90507fa4393d92bc1fa01e1edb65f571aba9ce960fcadf3ddc9493d63a31e43f532f2f8484604051610da892919061501e565b60405180910390a1818195509550505050509250929050565b600d6020528260005260406000206020528160005260406000208181548110610de957600080fd5b9060005260206000200160009250925050505481565b60055481565b60065481565b610e13610fbb565b610e52576040517f08c379a0000000000000000000000000000000000000000000000000000000008152600401610e4990615062565b60405180910390fd5b3373ffffffffffffffffffffffffffffffffffffffff16600260009054906101000a900473ffffffffffffffffffffffffffffffffffffffff1673ffffffffffffffffffffffffffffffffffffffff1614610ee2576040517f08c379a0000000000000000000000000000000000000000000000000000000008152600401610ed990615102565b60405180910390fd5b6000600190505b6003548111610f31576000600b600083815260200190815260200160002060006101000a81548160ff0219169083151502179055508080610f2990615999565b915050610ee9565b50610f3a613931565b7faaa520fdd7d2c83061d632fa017b0432407e798818af63ea908589fceda39ab7600354604051610f6b919061531e565b60405180910390a1565b610f7f60016127ca565b7f3566bc4681c58794a7a75f59d0a364e562b68c20c2b414857356c4137c8ad4956001604051610faf9190615047565b60405180910390a15050565b60008060009054906101000a900460ff16905090565b3373ffffffffffffffffffffffffffffffffffffffff16600260009054906101000a900473ffffffffffffffffffffffffffffffffffffffff1673ffffffffffffffffffffffffffffffffffffffff1614611061576040517f08c379a000000000000000000000000000000000000000000000000000000000815260040161105890615102565b60405180910390fd5b8060088190555050565b6009602052816000526040600020816002811061108757600080fd5b016000915091509054906101000a900473ffffffffffffffffffffffffffffffffffffffff1681565b3373ffffffffffffffffffffffffffffffffffffffff16600260009054906101000a900473ffffffffffffffffffffffffffffffffffffffff1673ffffffffffffffffffffffffffffffffffffffff1614611140576040517f08c379a000000000000000000000000000000000000000000000000000000000815260040161113790615102565b60405180910390fd5b806007819055507f3dda580d2b9d92da338ef46ec718e7b1dd0a2c505e3df4aa8d40360192a0f822600754604051611178919061531e565b60405180910390a150565b600060606000600e60006001815260200190815260200160002060006001600a600060018152602001908152602001600020546111c09190615802565b8152602001908152602001600020600901549050428110925084848080601f016020809104026020016040519081016040528093929190818152602001838380828437600081840152601f19601f820116905080830192505050505050509150509250929050565b3373ffffffffffffffffffffffffffffffffffffffff16600260009054906101000a900473ffffffffffffffffffffffffffffffffffffffff1673ffffffffffffffffffffffffffffffffffffffff16146112b8576040517f08c379a00000000000000000000000000000000000000000000000000000000081526004016112af90615102565b60405180910390fd5b600260015414156112fe576040517f08c379a00000000000000000000000000000000000000000000000000000000081526004016112f5906152e2565b60405180910390fd5b600260018190555061131233600654612711565b60018081905550565b3373ffffffffffffffffffffffffffffffffffffffff16600260009054906101000a900473ffffffffffffffffffffffffffffffffffffffff1673ffffffffffffffffffffffffffffffffffffffff16146113ab576040517f08c379a00000000000000000000000000000000000000000000000000000000081526004016113a290615102565b60405180910390fd5b6001600360008282546113be919061550c565b9250508190555081600960006003548152602001908152602001600020600060028110611414577f4e487b7100000000000000000000000000000000000000000000000000000000600052603260045260246000fd5b0160006101000a81548173ffffffffffffffffffffffffffffffffffffffff021916908373ffffffffffffffffffffffffffffffffffffffff160217905550806009600060035481526020019081526020016000206001600281106114a2577f4e487b7100000000000000000000000000000000000000000000000000000000600052603260045260246000fd5b0160006101000a81548173ffffffffffffffffffffffffffffffffffffffff021916908373ffffffffffffffffffffffffffffffffffffffff1602179055505050565b3373ffffffffffffffffffffffffffffffffffffffff16600260009054906101000a900473ffffffffffffffffffffffffffffffffffffffff1673ffffffffffffffffffffffffffffffffffffffff1614611575576040517f08c379a000000000000000000000000000000000000000000000000000000000815260040161156c90615102565b60405180910390fd5b81600481905550806005819055505050565b611590336139d2565b156115d0576040517f08c379a00000000000000000000000000000000000000000000000000000000081526004016115c7906150e2565b60405180910390fd5b3273ffffffffffffffffffffffffffffffffffffffff163373ffffffffffffffffffffffffffffffffffffffff161461163e576040517f08c379a0000000000000000000000000000000000000000000000000000000008152600401611635906151e2565b60405180910390fd5b60026001541415611684576040517f08c379a000000000000000000000000000000000000000000000000000000000815260040161167b906152e2565b60405180910390fd5b600260018190555060011515600e6000838152602001908152602001600020600084815260200190815260200160002060070160019054906101000a900460ff16151514611707576040517f08c379a00000000000000000000000000000000000000000000000000000000081526004016116fe90615162565b60405180910390fd5b6000600e600083815260200190815260200160002060008481526020019081526020016000206004015411611771576040517f08c379a000000000000000000000000000000000000000000000000000000000815260040161176890615282565b60405180910390fd5b60001515600c6000838152602001908152602001600020600084815260200190815260200160002060003373ffffffffffffffffffffffffffffffffffffffff1673ffffffffffffffffffffffffffffffffffffffff16815260200190815260200160002060020160009054906101000a900460ff16151514611829576040517f08c379a000000000000000000000000000000000000000000000000000000000815260040161182090615202565b60405180910390fd5b6000600e6000838152602001908152602001600020600084815260200190815260200160002060405180610220016040529081600082015481526020016001820154815260200160028201548152602001600382015481526020016004820154815260200160058201548152602001600682015481526020016007820160009054906101000a900460ff161515151581526020016007820160019054906101000a900460ff161515151581526020016007820160029054906101000a900460ff161515151581526020016007820160039054906101000a900460ff161515151581526020016008820154815260200160098201548152602001600a8201548152602001600b8201548152602001600c8201548152602001600d820154815250509050806101c00151816101a00151138015611a45575060006001811115611999577f4e487b7100000000000000000000000000000000000000000000000000000000600052602160045260246000fd5b600c6000848152602001908152602001600020600085815260200190815260200160002060003373ffffffffffffffffffffffffffffffffffffffff1673ffffffffffffffffffffffffffffffffffffffff16815260200190815260200160002060000160009054906101000a900460ff166001811115611a43577f4e487b7100000000000000000000000000000000000000000000000000000000600052602160045260246000fd5b145b80611b455750806101c00151816101a00151128015611b445750600180811115611a98577f4e487b7100000000000000000000000000000000000000000000000000000000600052602160045260246000fd5b600c6000848152602001908152602001600020600085815260200190815260200160002060003373ffffffffffffffffffffffffffffffffffffffff1673ffffffffffffffffffffffffffffffffffffffff16815260200190815260200160002060000160009054906101000a900460ff166001811115611b42577f4e487b7100000000000000000000000000000000000000000000000000000000600052602160045260246000fd5b145b5b611b84576040517f08c379a0000000000000000000000000000000000000000000000000000000008152600401611b7b90615242565b60405180910390fd5b8060a001518160800151600c6000858152602001908152602001600020600086815260200190815260200160002060003373ffffffffffffffffffffffffffffffffffffffff1673ffffffffffffffffffffffffffffffffffffffff16815260200190815260200160002060010154611bfd9190615714565b611c0791906155cc565b600f819055506001600c6000848152602001908152602001600020600085815260200190815260200160002060003373ffffffffffffffffffffffffffffffffffffffff1673ffffffffffffffffffffffffffffffffffffffff16815260200190815260200160002060020160006101000a81548160ff0219169083151502179055506000600f541115611cdb57611ca133600f54612711565b7f7bb2b3c10797baccb6f8c4791f1edd6ca2f0d028ee0eda64b01a9a57e3a653f7600f54604051611cd2919061531e565b60405180910390a15b50600180819055505050565b3373ffffffffffffffffffffffffffffffffffffffff16600260009054906101000a900473ffffffffffffffffffffffffffffffffffffffff1673ffffffffffffffffffffffffffffffffffffffff1614611d77576040517f08c379a0000000000000000000000000000000000000000000000000000000008152600401611d6e90615102565b60405180910390fd5b80600260006101000a81548173ffffffffffffffffffffffffffffffffffffffff021916908373ffffffffffffffffffffffffffffffffffffffff16021790555050565b611dc36141ca565b600e6000838152602001908152602001600020600084815260200190815260200160002060405180610220016040529081600082015481526020016001820154815260200160028201548152602001600382015481526020016004820154815260200160058201548152602001600682015481526020016007820160009054906101000a900460ff161515151581526020016007820160019054906101000a900460ff161515151581526020016007820160029054906101000a900460ff161515151581526020016007820160039054906101000a900460ff161515151581526020016008820154815260200160098201548152602001600a8201548152602001600b8201548152602001600c8201548152602001600d82015481525050905092915050565b60045481565b60075481565b6000600354905090565b600080600083600060028110611f3e577f4e487b7100000000000000000000000000000000000000000000000000000000600052603260045260246000fd5b602002015173ffffffffffffffffffffffffffffffffffffffff1663feaf968c6040518163ffffffff1660e01b815260040160a06040518083038186803b158015611f8857600080fd5b505afa158015611f9c573d6000803e3d6000fd5b505050506040513d601f19601f82011682018060405250810190611fc09190614615565b505050915050600084600160028110612002577f4e487b7100000000000000000000000000000000000000000000000000000000600052603260045260246000fd5b602002015173ffffffffffffffffffffffffffffffffffffffff1663feaf968c6040518163ffffffff1660e01b815260040160a06040518083038186803b15801561204c57600080fd5b505afa158015612060573d6000803e3d6000fd5b505050506040513d601f19601f820116820180604052508101906120849190614615565b5050509150508181935093505050915091565b60035481565b6120a5610fbb565b156120e5576040517f08c379a00000000000000000000000000000000000000000000000000000000081526004016120dc90615182565b60405180910390fd5b818160011515600e6000838152602001908152602001600020600084815260200190815260200160002060070160009054906101000a900460ff16151514612162576040517f08c379a0000000000000000000000000000000000000000000000000000000008152600401612159906152a2565b60405180910390fd5b60001515600e6000838152602001908152602001600020600084815260200190815260200160002060070160019054906101000a900460ff161515146121dd576040517f08c379a00000000000000000000000000000000000000000000000000000000081526004016121d490615162565b60405180910390fd5b60001515600e6000838152602001908152602001600020600084815260200190815260200160002060070160029054906101000a900460ff16151514612258576040517f08c379a000000000000000000000000000000000000000000000000000000000815260040161224f906151a2565b60405180910390fd5b60045434101561229d576040517f08c379a0000000000000000000000000000000000000000000000000000000008152600401612294906150c2565b60405180910390fd5b6000600c6000838152602001908152602001600020600084815260200190815260200160002060003373ffffffffffffffffffffffffffffffffffffffff1673ffffffffffffffffffffffffffffffffffffffff1681526020019081526020016000206001015414612344576040517f08c379a000000000000000000000000000000000000000000000000000000000815260040161233b906151c2565b60405180910390fd5b42600e600083815260200190815260200160002060008481526020019081526020016000206009015410156123ae576040517f08c379a00000000000000000000000000000000000000000000000000000000081526004016123a590615222565b60405180910390fd5b6123b7336139d2565b156123f7576040517f08c379a00000000000000000000000000000000000000000000000000000000081526004016123ee906150e2565b60405180910390fd5b3273ffffffffffffffffffffffffffffffffffffffff163373ffffffffffffffffffffffffffffffffffffffff1614612465576040517f08c379a000000000000000000000000000000000000000000000000000000000815260040161245c906151e2565b60405180910390fd5b600260015414156124ab576040517f08c379a00000000000000000000000000000000000000000000000000000000081526004016124a2906152e2565b60405180910390fd5b600260018190555034600c6000858152602001908152602001600020600086815260200190815260200160002060003373ffffffffffffffffffffffffffffffffffffffff1673ffffffffffffffffffffffffffffffffffffffff168152602001908152602001600020600101819055506000600c6000858152602001908152602001600020600086815260200190815260200160002060003373ffffffffffffffffffffffffffffffffffffffff1673ffffffffffffffffffffffffffffffffffffffff16815260200190815260200160002060000160006101000a81548160ff021916908360018111156125ca577f4e487b7100000000000000000000000000000000000000000000000000000000600052602160045260246000fd5b021790555034600e600085815260200190815260200160002060008681526020019081526020016000206001016000828254612606919061550c565b9250508190555034600e600085815260200190815260200160002060008681526020019081526020016000206002016000828254612644919061550c565b92505081905550600d600084815260200190815260200160002060003373ffffffffffffffffffffffffffffffffffffffff1673ffffffffffffffffffffffffffffffffffffffff1681526020019081526020016000208490806001815401808255809150506001900390600052602060002001600090919091909150557f56ea381aee88f7d7cedf22b5e448fc9586f8a198f6a3767b87a0ec31f7667d86833460006040516126f693929190615362565b60405180910390a16001808190555050505050565b600f5481565b60008273ffffffffffffffffffffffffffffffffffffffff168260405161273790614ecf565b60006040518083038185875af1925050503d8060008114612774576040519150601f19603f3d011682016040523d82523d6000602084013e612779565b606091505b50509050806127bd576040517f08c379a00000000000000000000000000000000000000000000000000000000081526004016127b490615082565b60405180910390fd5b505050565b600042905090565b6127d2610fbb565b15612812576040517f08c379a000000000000000000000000000000000000000000000000000000000815260040161280990615182565b60405180910390fd5b60011515600b600083815260200190815260200160002060009054906101000a900460ff16151514612879576040517f08c379a000000000000000000000000000000000000000000000000000000000815260040161287090615262565b60405180910390fd5b6000600a60008381526020019081526020016000205490506128a76001826128a19190615802565b836139e5565b6001600e6000848152602001908152602001600020600083815260200190815260200160002060070160026101000a81548160ff0219169083151502179055506128fd6001826128f7919061550c565b83613c7f565b6001600a60008481526020019081526020016000206000828254612921919061550c565b925050819055507fb352bf6cd71f52e0afa92233b39b67b5b88f33595d886578f9c323dbd6997dd782826001846129589190615802565b600185612965919061550c565b6040516129759493929190615399565b60405180910390a15050565b60606000600a60008581526020019081526020016000205490506000808467ffffffffffffffff8111156129de577f4e487b7100000000000000000000000000000000000000000000000000000000600052604160045260246000fd5b604051908082528060200260200182016040528015612a1757816020015b612a046141ca565b8152602001906001900390816129fc5790505b50905060008390505b6000811115612bb957858310612a3557612bb9565b600e6000888152602001908152602001600020600082815260200190815260200160002060405180610220016040529081600082015481526020016001820154815260200160028201548152602001600382015481526020016004820154815260200160058201548152602001600682015481526020016007820160009054906101000a900460ff161515151581526020016007820160019054906101000a900460ff161515151581526020016007820160029054906101000a900460ff161515151581526020016007820160039054906101000a900460ff161515151581526020016008820154815260200160098201548152602001600a8201548152602001600b8201548152602001600c8201548152602001600d82015481525050828481518110612b8c577f4e487b7100000000000000000000000000000000000000000000000000000000600052603260045260246000fd5b6020026020010181905250600183612ba4919061550c565b92508080612bb19061593e565b915050612a20565b5080935050505092915050565b3373ffffffffffffffffffffffffffffffffffffffff16600260009054906101000a900473ffffffffffffffffffffffffffffffffffffffff1673ffffffffffffffffffffffffffffffffffffffff1614612c56576040517f08c379a0000000000000000000000000000000000000000000000000000000008152600401612c4d90615102565b60405180910390fd5b8060048190555050565b6060806000600d600085815260200190815260200160002060003373ffffffffffffffffffffffffffffffffffffffff1673ffffffffffffffffffffffffffffffffffffffff168152602001908152602001600020805480602002602001604051908101604052809291908181526020018280548015612cff57602002820191906000526020600020905b815481526020019060010190808311612ceb575b5050505050905060008151905060008167ffffffffffffffff811115612d4e577f4e487b7100000000000000000000000000000000000000000000000000000000600052604160045260246000fd5b604051908082528060200260200182016040528015612d8757816020015b612d74614256565b815260200190600190039081612d6c5790505b50905060005b82811015612f4457600c60008881526020019081526020016000206000858381518110612de3577f4e487b7100000000000000000000000000000000000000000000000000000000600052603260045260246000fd5b6020026020010151815260200190815260200160002060003373ffffffffffffffffffffffffffffffffffffffff1673ffffffffffffffffffffffffffffffffffffffff1681526020019081526020016000206040518060600160405290816000820160009054906101000a900460ff166001811115612e8c577f4e487b7100000000000000000000000000000000000000000000000000000000600052602160045260246000fd5b6001811115612ec4577f4e487b7100000000000000000000000000000000000000000000000000000000600052602160045260246000fd5b8152602001600182015481526020016002820160009054906101000a900460ff161515151581525050828281518110612f26577f4e487b7100000000000000000000000000000000000000000000000000000000600052603260045260246000fd5b60200260200101819052508080612f3c90615999565b915050612d8d565b50808394509450505050915091565b60085481565b600b6020528060005260406000206000915054906101000a900460ff1681565b612f81610fbb565b15612fc1576040517f08c379a0000000000000000000000000000000000000000000000000000000008152600401612fb890615182565b60405180910390fd5b3373ffffffffffffffffffffffffffffffffffffffff16600260009054906101000a900473ffffffffffffffffffffffffffffffffffffffff1673ffffffffffffffffffffffffffffffffffffffff1614613051576040517f08c379a000000000000000000000000000000000000000000000000000000000815260040161304890615102565b60405180910390fd5b60001515600b600083815260200190815260200160002060009054906101000a900460ff161515146130b8576040517f08c379a00000000000000000000000000000000000000000000000000000000081526004016130af906152c2565b60405180910390fd5b60006001600a6000848152602001908152602001600020546130da919061550c565b90506130e68183613c7f565b6001600e6000848152602001908152602001600020600083815260200190815260200160002060070160026101000a81548160ff021916908315150217905550600181613133919061550c565b600a60008481526020019081526020016000208190555061316060018261315a919061550c565b83613c7f565b5050565b60008042600e60006001815260200190815260200160002060006001600a6000600181526020019081526020016000205461319f9190615802565b8152602001908152602001600020600901541090508091505090565b6131c3610fbb565b15613203576040517f08c379a00000000000000000000000000000000000000000000000000000000081526004016131fa90615182565b60405180910390fd5b818160011515600e6000838152602001908152602001600020600084815260200190815260200160002060070160009054906101000a900460ff16151514613280576040517f08c379a0000000000000000000000000000000000000000000000000000000008152600401613277906152a2565b60405180910390fd5b60001515600e6000838152602001908152602001600020600084815260200190815260200160002060070160019054906101000a900460ff161515146132fb576040517f08c379a00000000000000000000000000000000000000000000000000000000081526004016132f290615162565b60405180910390fd5b60001515600e6000838152602001908152602001600020600084815260200190815260200160002060070160029054906101000a900460ff16151514613376576040517f08c379a000000000000000000000000000000000000000000000000000000000815260040161336d906151a2565b60405180910390fd5b6004543410156133bb576040517f08c379a00000000000000000000000000000000000000000000000000000000081526004016133b2906150c2565b60405180910390fd5b6000600c6000838152602001908152602001600020600084815260200190815260200160002060003373ffffffffffffffffffffffffffffffffffffffff1673ffffffffffffffffffffffffffffffffffffffff1681526020019081526020016000206001015414613462576040517f08c379a0000000000000000000000000000000000000000000000000000000008152600401613459906151c2565b60405180910390fd5b42600e600083815260200190815260200160002060008481526020019081526020016000206009015410156134cc576040517f08c379a00000000000000000000000000000000000000000000000000000000081526004016134c390615222565b60405180910390fd5b6134d5336139d2565b15613515576040517f08c379a000000000000000000000000000000000000000000000000000000000815260040161350c906150e2565b60405180910390fd5b3273ffffffffffffffffffffffffffffffffffffffff163373ffffffffffffffffffffffffffffffffffffffff1614613583576040517f08c379a000000000000000000000000000000000000000000000000000000000815260040161357a906151e2565b60405180910390fd5b600260015414156135c9576040517f08c379a00000000000000000000000000000000000000000000000000000000081526004016135c0906152e2565b60405180910390fd5b600260018190555034600c6000858152602001908152602001600020600086815260200190815260200160002060003373ffffffffffffffffffffffffffffffffffffffff1673ffffffffffffffffffffffffffffffffffffffff168152602001908152602001600020600101819055506001600c6000858152602001908152602001600020600086815260200190815260200160002060003373ffffffffffffffffffffffffffffffffffffffff1673ffffffffffffffffffffffffffffffffffffffff16815260200190815260200160002060000160006101000a81548160ff021916908360018111156136e8577f4e487b7100000000000000000000000000000000000000000000000000000000600052602160045260246000fd5b021790555034600e600085815260200190815260200160002060008681526020019081526020016000206001016000828254613724919061550c565b9250508190555034600e600085815260200190815260200160002060008681526020019081526020016000206003016000828254613762919061550c565b92505081905550600d600084815260200190815260200160002060003373ffffffffffffffffffffffffffffffffffffffff1673ffffffffffffffffffffffffffffffffffffffff1681526020019081526020016000208490806001815401808255809150506001900390600052602060002001600090919091909150557f56ea381aee88f7d7cedf22b5e448fc9586f8a198f6a3767b87a0ec31f7667d868334600160405161381493929190615362565b60405180910390a16001808190555050505050565b613831610fbb565b15613871576040517f08c379a000000000000000000000000000000000000000000000000000000000815260040161386890615182565b60405180910390fd5b60016000806101000a81548160ff0219169083151502179055507f62e78cea01bee320cd4e420270b5ea74000d11b0c9f74754ebdbfc544b05a2586138b4613f1e565b6040516138c19190614ee4565b60405180910390a1565b60008183131561390257826305f5e10083856138e7919061576e565b6138f191906155fd565b6138fb9190615562565b905061392b565b826305f5e1008484613914919061576e565b61391e91906155fd565b6139289190615562565b90505b92915050565b613939610fbb565b613978576040517f08c379a000000000000000000000000000000000000000000000000000000000815260040161396f90615062565b60405180910390fd5b60008060006101000a81548160ff0219169083151502179055507f5db9ee0a495bf2e6ff9c91a7834c1ba4fdd244a5e8aa4e537bd38aeae4b073aa6139bb613f1e565b6040516139c89190614ee4565b60405180910390a1565b600080823b905060008111915050919050565b60011515600b600083815260200190815260200160002060009054906101000a900460ff16151514613a4c576040517f08c379a0000000000000000000000000000000000000000000000000000000008152600401613a4390615262565b60405180910390fd5b60001515600e6000838152602001908152602001600020600084815260200190815260200160002060070160019054906101000a900460ff16151514613ac7576040517f08c379a0000000000000000000000000000000000000000000000000000000008152600401613abe906150a2565b60405180910390fd5b6000600e600083815260200190815260200160002060008481526020019081526020016000206008015411613b31576040517f08c379a0000000000000000000000000000000000000000000000000000000008152600401613b28906152a2565b60405180910390fd5b42600e600083815260200190815260200160002060008481526020019081526020016000206009015410613b9a576040517f08c379a0000000000000000000000000000000000000000000000000000000008152600401613b9190615162565b60405180910390fd5b6001600e6000838152602001908152602001600020600084815260200190815260200160002060070160016101000a81548160ff021916908315150217905550620f82ee600e60008381526020019081526020016000206000848152602001908152602001600020600a01819055506213ee89600e60008381526020019081526020016000206000848152602001908152602001600020600b0181905550613c428282613f26565b7f3de62ea950fc2ed1ed823bb23086296729e73cdd05823251b76e36665ff267b58282604051613c73929190615339565b60405180910390a15050565b60001515600e6000838152602001908152602001600020600084815260200190815260200160002060070160009054906101000a900460ff16151514613cfa576040517f08c379a0000000000000000000000000000000000000000000000000000000008152600401613cf190615122565b60405180910390fd5b6001600e6000838152602001908152602001600020600084815260200190815260200160002060070160006101000a81548160ff021916908315150217905550600080613dca60096000858152602001908152602001600020600280602002604051908101604052809291908260028015613dc0576020028201915b8160009054906101000a900473ffffffffffffffffffffffffffffffffffffffff1673ffffffffffffffffffffffffffffffffffffffff1681526020019060010190808311613d76575b5050505050611eff565b9150915082600e600085815260200190815260200160002060008681526020019081526020016000206000018190555083600e600085815260200190815260200160002060008681526020019081526020016000206006018190555042600e6000858152602001908152602001600020600086815260200190815260200160002060080181905550613e5c8484614111565b600e600085815260200190815260200160002060008681526020019081526020016000206009018190555081600e60008581526020019081526020016000206000868152602001908152602001600020600c018190555080600e60008581526020019081526020016000206000868152602001908152602001600020600d01819055507f0e5543feb86a4cd302f2b88b26c42be2d1673013a34e1f98bd6d524dd3b4ab418484604051613f10929190615339565b60405180910390a150505050565b600033905090565b6000600e6000838152602001908152602001600020600084815260200190815260200160002060050154148015613f8457506000600e6000838152602001908152602001600020600084815260200190815260200160002060040154145b613fc3576040517f08c379a0000000000000000000000000000000000000000000000000000000008152600401613fba90615142565b60405180910390fd5b6000600e60008381526020019081526020016000206000848152602001908152602001600020905080600b015481600a0154131561406257600061271060075483600101546140129190615714565b61401c91906155cc565b90508160020154826005018190555080826001015461403b9190615802565b82600401819055508060066000828254614055919061550c565b925050819055505061410c565b80600b015481600a015412156140d957600061271060075483600101546140899190615714565b61409391906155cc565b9050816003015482600501819055508082600101546140b29190615802565b826004018190555080600660008282546140cc919061550c565b925050819055505061410b565b6000816005018190555060008160040181905550806001015460066000828254614103919061550c565b925050819055505b5b505050565b6000801515600b600084815260200190815260200160002060009054906101000a900460ff1615151415614180576001600b600084815260200190815260200160002060006101000a81548160ff02191690831515021790555060085442614179919061550c565b90506141c4565b600854600e600084815260200190815260200160002060006001866141a59190615802565b8152602001908152602001600020600901546141c1919061550c565b90505b92915050565b604051806102200160405280600081526020016000815260200160008152602001600081526020016000815260200160008152602001600081526020016000151581526020016000151581526020016000151581526020016000151581526020016000815260200160008152602001600081526020016000815260200160008152602001600081525090565b60405180606001604052806000600181111561429b577f4e487b7100000000000000000000000000000000000000000000000000000000600052602160045260246000fd5b8152602001600081526020016000151581525090565b60006142c46142bf84615403565b6153de565b905080828560208602820111156142da57600080fd5b60005b8581101561430a57816142f0888261439a565b8452602084019350602083019250506001810190506142dd565b5050509392505050565b60008135905061432381615e95565b92915050565b600082601f83011261433a57600080fd5b60026143478482856142b1565b91505092915050565b60008083601f84011261436257600080fd5b8235905067ffffffffffffffff81111561437b57600080fd5b60208301915083600182028301111561439357600080fd5b9250929050565b6000813590506143a981615eac565b92915050565b6000815190506143be81615ec3565b92915050565b6000813590506143d381615eda565b92915050565b6000815190506143e881615eda565b92915050565b6000815190506143fd81615ef1565b92915050565b60006020828403121561441557600080fd5b600061442384828501614314565b91505092915050565b6000806040838503121561443f57600080fd5b600061444d85828601614314565b925050602061445e85828601614314565b9150509250929050565b6000806040838503121561447b57600080fd5b600061448985828601614314565b925050602061449a858286016143c4565b9150509250929050565b6000604082840312156144b657600080fd5b60006144c484828501614329565b91505092915050565b600080602083850312156144e057600080fd5b600083013567ffffffffffffffff8111156144fa57600080fd5b61450685828601614350565b92509250509250929050565b60006020828403121561452457600080fd5b6000614532848285016143c4565b91505092915050565b60008060006060848603121561455057600080fd5b600061455e868287016143c4565b935050602061456f86828701614314565b9250506040614580868287016143c4565b9150509250925092565b6000806040838503121561459d57600080fd5b60006145ab858286016143c4565b92505060206145bc858286016143c4565b9150509250929050565b6000806000606084860312156145db57600080fd5b60006145e9868287016143c4565b93505060206145fa868287016143c4565b925050604061460b86828701614314565b9150509250925092565b600080600080600060a0868803121561462d57600080fd5b600061463b888289016143ee565b955050602061464c888289016143af565b945050604061465d888289016143d9565b935050606061466e888289016143d9565b925050608061467f888289016143ee565b9150509295509295909350565b60006146988383614bb1565b6102208301905092915050565b60006146b18383614e6f565b60608301905092915050565b60006146c98383614eb1565b60208301905092915050565b6146de81615836565b82525050565b60006146ef82615459565b6146f981856154ac565b935061470483615429565b8060005b8381101561473557815161471c888261468c565b975061472783615485565b925050600181019050614708565b5085935050505092915050565b600061474d82615464565b61475781856154bd565b935061476283615439565b8060005b8381101561479357815161477a88826146a5565b975061478583615492565b925050600181019050614766565b5085935050505092915050565b60006147ab8261546f565b6147b581856154ce565b93506147c083615449565b8060005b838110156147f15781516147d888826146bd565b97506147e38361549f565b9250506001810190506147c4565b5085935050505092915050565b61480781615848565b82525050565b61481681615848565b82525050565b60006148278261547a565b61483181856154df565b935061484181856020860161590b565b61484a81615a9e565b840191505092915050565b61485e816158c3565b82525050565b61486d816158e7565b82525050565b61487c816158e7565b82525050565b61488b81615879565b82525050565b61489a81615879565b82525050565b6148a9816158f9565b82525050565b60006148bc6014836154fb565b91506148c782615aaf565b602082019050919050565b60006148df600f836154fb565b91506148ea82615ad8565b602082019050919050565b60006149026017836154fb565b915061490d82615b01565b602082019050919050565b60006149256015836154fb565b915061493082615b2a565b602082019050919050565b60006149486014836154fb565b915061495382615b53565b602082019050919050565b600061496b600c836154fb565b915061497682615b7c565b602082019050919050565b600061498e601e836154fb565b915061499982615ba5565b602082019050919050565b60006149b16012836154fb565b91506149bc82615bce565b602082019050919050565b60006149d46013836154fb565b91506149df82615bf7565b602082019050919050565b60006149f76010836154fb565b9150614a0282615c20565b602082019050919050565b6000614a1a600f836154fb565b9150614a2582615c49565b602082019050919050565b6000614a3d601b836154fb565b9150614a4882615c72565b602082019050919050565b6000614a60601a836154fb565b9150614a6b82615c9b565b602082019050919050565b6000614a83600f836154fb565b9150614a8e82615cc4565b602082019050919050565b6000614aa66014836154fb565b9150614ab182615ced565b602082019050919050565b6000614ac9600c836154fb565b9150614ad482615d16565b602082019050919050565b6000614aec601d836154fb565b9150614af782615d3f565b602082019050919050565b6000614b0f6000836154f0565b9150614b1a82615d68565b600082019050919050565b6000614b326044836154fb565b9150614b3d82615d6b565b606082019050919050565b6000614b556015836154fb565b9150614b6082615de0565b602082019050919050565b6000614b786021836154fb565b9150614b8382615e09565b604082019050919050565b6000614b9b601f836154fb565b9150614ba682615e58565b602082019050919050565b61022082016000820151614bc86000850182614eb1565b506020820151614bdb6020850182614eb1565b506040820151614bee6040850182614eb1565b506060820151614c016060850182614eb1565b506080820151614c146080850182614eb1565b5060a0820151614c2760a0850182614eb1565b5060c0820151614c3a60c0850182614eb1565b5060e0820151614c4d60e08501826147fe565b50610100820151614c626101008501826147fe565b50610120820151614c776101208501826147fe565b50610140820151614c8c6101408501826147fe565b50610160820151614ca1610160850182614eb1565b50610180820151614cb6610180850182614eb1565b506101a0820151614ccb6101a0850182614882565b506101c0820151614ce06101c0850182614882565b506101e0820151614cf56101e0850182614882565b50610200820151614d0a610200850182614882565b50505050565b61022082016000820151614d276000850182614eb1565b506020820151614d3a6020850182614eb1565b506040820151614d4d6040850182614eb1565b506060820151614d606060850182614eb1565b506080820151614d736080850182614eb1565b5060a0820151614d8660a0850182614eb1565b5060c0820151614d9960c0850182614eb1565b5060e0820151614dac60e08501826147fe565b50610100820151614dc16101008501826147fe565b50610120820151614dd66101208501826147fe565b50610140820151614deb6101408501826147fe565b50610160820151614e00610160850182614eb1565b50610180820151614e15610180850182614eb1565b506101a0820151614e2a6101a0850182614882565b506101c0820151614e3f6101c0850182614882565b506101e0820151614e546101e0850182614882565b50610200820151614e69610200850182614882565b50505050565b606082016000820151614e856000850182614864565b506020820151614e986020850182614eb1565b506040820151614eab60408501826147fe565b50505050565b614eba816158a3565b82525050565b614ec9816158a3565b82525050565b6000614eda82614b02565b9150819050919050565b6000602082019050614ef960008301846146d5565b92915050565b6000604082019050614f1460008301856146d5565b614f216020830184614ec0565b9392505050565b60006020820190508181036000830152614f4281846146e4565b905092915050565b60006040820190508181036000830152614f648185614742565b90508181036020830152614f7881846147a0565b90509392505050565b6000602082019050614f96600083018461480d565b92915050565b6000604082019050614fb1600083018561480d565b8181036020830152614fc3818461481c565b90509392505050565b6000602082019050614fe16000830184614855565b92915050565b6000606082019050614ffc6000830186614873565b6150096020830185614ec0565b615016604083018461480d565b949350505050565b60006040820190506150336000830185614891565b6150406020830184614891565b9392505050565b600060208201905061505c60008301846148a0565b92915050565b6000602082019050818103600083015261507b816148af565b9050919050565b6000602082019050818103600083015261509b816148d2565b9050919050565b600060208201905081810360008301526150bb816148f5565b9050919050565b600060208201905081810360008301526150db81614918565b9050919050565b600060208201905081810360008301526150fb8161493b565b9050919050565b6000602082019050818103600083015261511b8161495e565b9050919050565b6000602082019050818103600083015261513b81614981565b9050919050565b6000602082019050818103600083015261515b816149a4565b9050919050565b6000602082019050818103600083015261517b816149c7565b9050919050565b6000602082019050818103600083015261519b816149ea565b9050919050565b600060208201905081810360008301526151bb81614a0d565b9050919050565b600060208201905081810360008301526151db81614a30565b9050919050565b600060208201905081810360008301526151fb81614a53565b9050919050565b6000602082019050818103600083015261521b81614a76565b9050919050565b6000602082019050818103600083015261523b81614a99565b9050919050565b6000602082019050818103600083015261525b81614abc565b9050919050565b6000602082019050818103600083015261527b81614adf565b9050919050565b6000602082019050818103600083015261529b81614b25565b9050919050565b600060208201905081810360008301526152bb81614b48565b9050919050565b600060208201905081810360008301526152db81614b6b565b9050919050565b600060208201905081810360008301526152fb81614b8e565b9050919050565b6000610220820190506153186000830184614d10565b92915050565b60006020820190506153336000830184614ec0565b92915050565b600060408201905061534e6000830185614ec0565b61535b6020830184614ec0565b9392505050565b60006060820190506153776000830186614ec0565b6153846020830185614ec0565b6153916040830184614873565b949350505050565b60006080820190506153ae6000830187614ec0565b6153bb6020830186614ec0565b6153c86040830185614ec0565b6153d56060830184614ec0565b95945050505050565b60006153e86153f9565b90506153f48282615968565b919050565b6000604051905090565b600067ffffffffffffffff82111561541e5761541d615a6f565b5b602082029050919050565b6000819050602082019050919050565b6000819050602082019050919050565b6000819050602082019050919050565b600081519050919050565b600081519050919050565b600081519050919050565b600081519050919050565b6000602082019050919050565b6000602082019050919050565b6000602082019050919050565b600082825260208201905092915050565b600082825260208201905092915050565b600082825260208201905092915050565b600082825260208201905092915050565b600081905092915050565b600082825260208201905092915050565b6000615517826158a3565b9150615522836158a3565b9250827fffffffffffffffffffffffffffffffffffffffffffffffffffffffffffffffff03821115615557576155566159e2565b5b828201905092915050565b600061556d82615879565b915061557883615879565b92508261558857615587615a11565b5b600160000383147f8000000000000000000000000000000000000000000000000000000000000000831416156155c1576155c06159e2565b5b828205905092915050565b60006155d7826158a3565b91506155e2836158a3565b9250826155f2576155f1615a11565b5b828204905092915050565b600061560882615879565b915061561383615879565b9250827f7fffffffffffffffffffffffffffffffffffffffffffffffffffffffffffffff0482116000841360008413161615615652576156516159e2565b5b817f8000000000000000000000000000000000000000000000000000000000000000058312600084126000841316161561568f5761568e6159e2565b5b827f800000000000000000000000000000000000000000000000000000000000000005821260008413600084121616156156cc576156cb6159e2565b5b827f7fffffffffffffffffffffffffffffffffffffffffffffffffffffffffffffff0582126000841260008412161615615709576157086159e2565b5b828202905092915050565b600061571f826158a3565b915061572a836158a3565b9250817fffffffffffffffffffffffffffffffffffffffffffffffffffffffffffffffff0483118215151615615763576157626159e2565b5b828202905092915050565b600061577982615879565b915061578483615879565b9250827f8000000000000000000000000000000000000000000000000000000000000000018212600084121516156157bf576157be6159e2565b5b827f7fffffffffffffffffffffffffffffffffffffffffffffffffffffffffffffff0182136000841216156157f7576157f66159e2565b5b828203905092915050565b600061580d826158a3565b9150615818836158a3565b92508282101561582b5761582a6159e2565b5b828203905092915050565b600061584182615883565b9050919050565b60008115159050919050565b600061585f82615836565b9050919050565b600081905061587482615e81565b919050565b6000819050919050565b600073ffffffffffffffffffffffffffffffffffffffff82169050919050565b6000819050919050565b600069ffffffffffffffffffff82169050919050565b60006158ce826158d5565b9050919050565b60006158e082615883565b9050919050565b60006158f282615866565b9050919050565b6000615904826158a3565b9050919050565b60005b8381101561592957808201518184015260208101905061590e565b83811115615938576000848401525b50505050565b6000615949826158a3565b9150600082141561595d5761595c6159e2565b5b600182039050919050565b61597182615a9e565b810181811067ffffffffffffffff821117156159905761598f615a6f565b5b80604052505050565b60006159a4826158a3565b91507fffffffffffffffffffffffffffffffffffffffffffffffffffffffffffffffff8214156159d7576159d66159e2565b5b600182019050919050565b7f4e487b7100000000000000000000000000000000000000000000000000000000600052601160045260246000fd5b7f4e487b7100000000000000000000000000000000000000000000000000000000600052601260045260246000fd5b7f4e487b7100000000000000000000000000000000000000000000000000000000600052602160045260246000fd5b7f4e487b7100000000000000000000000000000000000000000000000000000000600052604160045260246000fd5b6000601f19601f8301169050919050565b7f5061757361626c653a206e6f7420706175736564000000000000000000000000600082015250565b7f5472616e73666572206661696c65640000000000000000000000000000000000600082015250565b7f526f756e642068617320616c726561647920656e646564000000000000000000600082015250565b7f4d757374206d656574206d696e696d756d206265740000000000000000000000600082015250565b7f436f6e7472616374206e6f7420616c6c6f776564000000000000000000000000600082015250565b7f4e6f7420616e206f776e65720000000000000000000000000000000000000000600082015250565b7f526f756e642068617320616c7265616479206265656e20737461727465640000600082015250565b7f526577617264732063616c63756c617465640000000000000000000000000000600082015250565b7f526f756e6420686173206e6f7420656e64656400000000000000000000000000600082015250565b7f5061757361626c653a2070617573656400000000000000000000000000000000600082015250565b7f526f756e64206973206c6f636b65640000000000000000000000000000000000600082015250565b7f557365722063616e6e6f7420706c6163652062696420616761696e0000000000600082015250565b7f50726f787920636f6e7472616374206e6f7420616c6c6f776564000000000000600082015250565b7f416c726561647920636c61696d65640000000000000000000000000000000000600082015250565b7f42657474696e672074696d65206973206f766572000000000000000000000000600082015250565b7f43616e6e6f7420636c61696d0000000000000000000000000000000000000000600082015250565b7f67656e6573697320726f756e6420686173206e6f742073746172746564000000600082015250565b50565b7f416c6c2074686520726577617264732077656e7420746f20706f6f6c2061732060008201527f7072696365206368616e6765206f6620626f746820746f6b656e20617265206560208201527f7175616c00000000000000000000000000000000000000000000000000000000604082015250565b7f526f756e6420686173206e6f7420737461727465640000000000000000000000600082015250565b7f67656e6573697320726f756e642068617320616c72656164792073746172746560008201527f6400000000000000000000000000000000000000000000000000000000000000602082015250565b7f5265656e7472616e637947756172643a207265656e7472616e742063616c6c00600082015250565b60028110615e9257615e91615a40565b5b50565b615e9e81615836565b8114615ea957600080fd5b50565b615eb581615854565b8114615ec057600080fd5b50565b615ecc81615879565b8114615ed757600080fd5b50565b615ee3816158a3565b8114615eee57600080fd5b50565b615efa816158ad565b8114615f0557600080fd5b5056fea264697066735822122000863ecf48c694a5d64e1f63308246e266776f4c96ffff059ffd8aa600c9373b64736f6c63430008040033",
  "linkReferences": {},
  "deployedLinkReferences": {}
}