{
  "_format": "hh-sol-artifact-1",
  "contractName": "CryproPairPricePredictionFactory",
  "sourceName": "contracts/crypto-prediction.sol",
  "abi": [
    {
      "inputs": [
        {
          "internalType": "address",
          "name": "_owner",
          "type": "address"
        }
      ],
      "stateMutability": "nonpayable",
      "type": "constructor"
    },
    {
      "anonymous": false,
      "inputs": [
        {
          "indexed": false,
          "internalType": "address",
          "name": "account",
          "type": "address"
        }
      ],
      "name": "Paused",
      "type": "event"
    },
    {
      "anonymous": false,
      "inputs": [
        {
          "indexed": false,
          "internalType": "address",
          "name": "",
          "type": "address"
        },
        {
          "indexed": false,
          "internalType": "uint256",
          "name": "",
          "type": "uint256"
        }
      ],
      "name": "Received",
      "type": "event"
    },
    {
      "anonymous": false,
      "inputs": [
        {
          "indexed": false,
          "internalType": "address",
          "name": "account",
          "type": "address"
        }
      ],
      "name": "Unpaused",
      "type": "event"
    },
    {
      "anonymous": false,
      "inputs": [
        {
          "indexed": false,
          "internalType": "uint256",
          "name": "",
          "type": "uint256"
        }
      ],
      "name": "feesChanged",
      "type": "event"
    },
    {
      "anonymous": false,
      "inputs": [
        {
          "indexed": false,
          "internalType": "int256",
          "name": "",
          "type": "int256"
        },
        {
          "indexed": false,
          "internalType": "int256",
          "name": "",
          "type": "int256"
        }
      ],
      "name": "percentageTokenChanges",
      "type": "event"
    },
    {
      "inputs": [
        {
          "internalType": "address",
          "name": "to",
          "type": "address"
        },
        {
          "internalType": "uint256",
          "name": "value",
          "type": "uint256"
        }
      ],
      "name": "_safeTransfer",
      "outputs": [],
      "stateMutability": "nonpayable",
      "type": "function"
    },
    {
      "inputs": [],
      "name": "amountToBeTransfered",
      "outputs": [
        {
          "internalType": "uint256",
          "name": "",
          "type": "uint256"
        }
      ],
      "stateMutability": "view",
      "type": "function"
    },
    {
      "inputs": [
        {
          "internalType": "uint256",
          "name": "_fees",
          "type": "uint256"
        }
      ],
      "name": "changeFees",
      "outputs": [],
      "stateMutability": "nonpayable",
      "type": "function"
    },
    {
      "inputs": [
        {
          "internalType": "uint256",
          "name": "_minBet",
          "type": "uint256"
        }
      ],
      "name": "changeMinBet",
      "outputs": [],
      "stateMutability": "nonpayable",
      "type": "function"
    },
    {
      "inputs": [
        {
          "internalType": "bytes",
          "name": "checkData",
          "type": "bytes"
        }
      ],
      "name": "checkUpkeep",
      "outputs": [
        {
          "internalType": "bool",
          "name": "upkeepNeeded",
          "type": "bool"
        },
        {
          "internalType": "bytes",
          "name": "performData",
          "type": "bytes"
        }
      ],
      "stateMutability": "view",
      "type": "function"
    },
    {
      "inputs": [
        {
          "internalType": "uint256",
          "name": "_pairRound",
          "type": "uint256"
        },
        {
          "internalType": "uint256",
          "name": "_pair",
          "type": "uint256"
        }
      ],
      "name": "claimReward",
      "outputs": [],
      "stateMutability": "payable",
      "type": "function"
    },
    {
      "inputs": [
        {
          "internalType": "address",
          "name": "firstToken",
          "type": "address"
        },
        {
          "internalType": "address",
          "name": "secondToken",
          "type": "address"
        }
      ],
      "name": "createPredictionPairs",
      "outputs": [],
      "stateMutability": "nonpayable",
      "type": "function"
    },
    {
      "inputs": [],
      "name": "fees",
      "outputs": [
        {
          "internalType": "uint256",
          "name": "",
          "type": "uint256"
        }
      ],
      "stateMutability": "view",
      "type": "function"
    },
    {
      "inputs": [
        {
          "internalType": "uint256",
          "name": "_pairRound",
          "type": "uint256"
        },
        {
          "internalType": "uint256",
          "name": "_pair",
          "type": "uint256"
        }
      ],
      "name": "firstTokenBet",
      "outputs": [],
      "stateMutability": "payable",
      "type": "function"
    },
    {
      "inputs": [],
      "name": "getBlockTimeStamp",
      "outputs": [
        {
          "internalType": "uint256",
          "name": "",
          "type": "uint256"
        }
      ],
      "stateMutability": "view",
      "type": "function"
    },
    {
      "inputs": [
        {
          "internalType": "contract AggregatorV3Interface[2]",
          "name": "token",
          "type": "address[2]"
        }
      ],
      "name": "getLatestPrice",
      "outputs": [
        {
          "internalType": "int256",
          "name": "",
          "type": "int256"
        },
        {
          "internalType": "int256",
          "name": "",
          "type": "int256"
        }
      ],
      "stateMutability": "view",
      "type": "function"
    },
    {
      "inputs": [
        {
          "internalType": "uint256",
          "name": "_pair",
          "type": "uint256"
        }
      ],
      "name": "getPairRounds",
      "outputs": [
        {
          "components": [
            {
              "internalType": "uint256",
              "name": "pairNumber",
              "type": "uint256"
            },
            {
              "internalType": "uint256",
              "name": "poolAmount",
              "type": "uint256"
            },
            {
              "internalType": "uint256",
              "name": "firstTokenPoolAmount",
              "type": "uint256"
            },
            {
              "internalType": "uint256",
              "name": "secondTokenPoolAmount",
              "type": "uint256"
            },
            {
              "internalType": "uint256",
              "name": "poolTokenRewardAmount",
              "type": "uint256"
            },
            {
              "internalType": "uint256",
              "name": "poolTokenBaseAmount",
              "type": "uint256"
            },
            {
              "internalType": "uint256",
              "name": "roundNumber",
              "type": "uint256"
            },
            {
              "internalType": "bool",
              "name": "roundStart",
              "type": "bool"
            },
            {
              "internalType": "bool",
              "name": "roundEnded",
              "type": "bool"
            },
            {
              "internalType": "bool",
              "name": "roundLock",
              "type": "bool"
            },
            {
              "internalType": "uint256",
              "name": "startTimeStamp",
              "type": "uint256"
            },
            {
              "internalType": "uint256",
              "name": "endTimeStamp",
              "type": "uint256"
            },
            {
              "internalType": "int256",
              "name": "firstTokenPriceChange",
              "type": "int256"
            },
            {
              "internalType": "int256",
              "name": "secondTokenPriceChange",
              "type": "int256"
            },
            {
              "internalType": "int256",
              "name": "firstTokenPrice",
              "type": "int256"
            },
            {
              "internalType": "int256",
              "name": "secondTokenPrice",
              "type": "int256"
            }
          ],
          "internalType": "struct CryproPairPricePredictionFactory.Rounds[]",
          "name": "",
          "type": "tuple[]"
        }
      ],
      "stateMutability": "view",
      "type": "function"
    },
    {
      "inputs": [
        {
          "internalType": "uint256",
          "name": "_pairRound",
          "type": "uint256"
        },
        {
          "internalType": "uint256",
          "name": "_pair",
          "type": "uint256"
        }
      ],
      "name": "getRoundInfo",
      "outputs": [
        {
          "components": [
            {
              "internalType": "uint256",
              "name": "pairNumber",
              "type": "uint256"
            },
            {
              "internalType": "uint256",
              "name": "poolAmount",
              "type": "uint256"
            },
            {
              "internalType": "uint256",
              "name": "firstTokenPoolAmount",
              "type": "uint256"
            },
            {
              "internalType": "uint256",
              "name": "secondTokenPoolAmount",
              "type": "uint256"
            },
            {
              "internalType": "uint256",
              "name": "poolTokenRewardAmount",
              "type": "uint256"
            },
            {
              "internalType": "uint256",
              "name": "poolTokenBaseAmount",
              "type": "uint256"
            },
            {
              "internalType": "uint256",
              "name": "roundNumber",
              "type": "uint256"
            },
            {
              "internalType": "bool",
              "name": "roundStart",
              "type": "bool"
            },
            {
              "internalType": "bool",
              "name": "roundEnded",
              "type": "bool"
            },
            {
              "internalType": "bool",
              "name": "roundLock",
              "type": "bool"
            },
            {
              "internalType": "uint256",
              "name": "startTimeStamp",
              "type": "uint256"
            },
            {
              "internalType": "uint256",
              "name": "endTimeStamp",
              "type": "uint256"
            },
            {
              "internalType": "int256",
              "name": "firstTokenPriceChange",
              "type": "int256"
            },
            {
              "internalType": "int256",
              "name": "secondTokenPriceChange",
              "type": "int256"
            },
            {
              "internalType": "int256",
              "name": "firstTokenPrice",
              "type": "int256"
            },
            {
              "internalType": "int256",
              "name": "secondTokenPrice",
              "type": "int256"
            }
          ],
          "internalType": "struct CryproPairPricePredictionFactory.Rounds",
          "name": "",
          "type": "tuple"
        }
      ],
      "stateMutability": "view",
      "type": "function"
    },
    {
      "inputs": [
        {
          "internalType": "uint256",
          "name": "_pair",
          "type": "uint256"
        }
      ],
      "name": "getUserRounds",
      "outputs": [
        {
          "components": [
            {
              "internalType": "enum CryproPairPricePredictionFactory.TokenSelection",
              "name": "tokenselected",
              "type": "uint8"
            },
            {
              "internalType": "uint256",
              "name": "amount",
              "type": "uint256"
            },
            {
              "internalType": "bool",
              "name": "claim",
              "type": "bool"
            }
          ],
          "internalType": "struct CryproPairPricePredictionFactory.biddingInfo[]",
          "name": "",
          "type": "tuple[]"
        }
      ],
      "stateMutability": "view",
      "type": "function"
    },
    {
      "inputs": [
        {
          "internalType": "uint256",
          "name": "_pairRound",
          "type": "uint256"
        },
        {
          "internalType": "uint256",
          "name": "_pair",
          "type": "uint256"
        }
      ],
      "name": "gettokenPriceChanges",
      "outputs": [
        {
          "internalType": "int256",
          "name": "",
          "type": "int256"
        },
        {
          "internalType": "int256",
          "name": "",
          "type": "int256"
        }
      ],
      "stateMutability": "nonpayable",
      "type": "function"
    },
    {
      "inputs": [],
      "name": "hasRoundEnded",
      "outputs": [
        {
          "internalType": "bool",
          "name": "",
          "type": "bool"
        }
      ],
      "stateMutability": "view",
      "type": "function"
    },
    {
      "inputs": [],
      "name": "maxBet",
      "outputs": [
        {
          "internalType": "uint256",
          "name": "",
          "type": "uint256"
        }
      ],
      "stateMutability": "view",
      "type": "function"
    },
    {
      "inputs": [],
      "name": "minBet",
      "outputs": [
        {
          "internalType": "uint256",
          "name": "",
          "type": "uint256"
        }
      ],
      "stateMutability": "view",
      "type": "function"
    },
    {
      "inputs": [
        {
          "internalType": "uint256",
          "name": "",
          "type": "uint256"
        }
      ],
      "name": "pairGenesisRound",
      "outputs": [
        {
          "internalType": "bool",
          "name": "",
          "type": "bool"
        }
      ],
      "stateMutability": "view",
      "type": "function"
    },
    {
      "inputs": [
        {
          "internalType": "uint256",
          "name": "",
          "type": "uint256"
        }
      ],
      "name": "pairRounds",
      "outputs": [
        {
          "internalType": "uint256",
          "name": "",
          "type": "uint256"
        }
      ],
      "stateMutability": "view",
      "type": "function"
    },
    {
      "inputs": [
        {
          "internalType": "uint256",
          "name": "",
          "type": "uint256"
        },
        {
          "internalType": "uint256",
          "name": "",
          "type": "uint256"
        }
      ],
      "name": "pairs",
      "outputs": [
        {
          "internalType": "contract AggregatorV3Interface",
          "name": "",
          "type": "address"
        }
      ],
      "stateMutability": "view",
      "type": "function"
    },
    {
      "inputs": [],
      "name": "pairsCount",
      "outputs": [
        {
          "internalType": "uint256",
          "name": "",
          "type": "uint256"
        }
      ],
      "stateMutability": "view",
      "type": "function"
    },
    {
      "inputs": [],
      "name": "paused",
      "outputs": [
        {
          "internalType": "bool",
          "name": "",
          "type": "bool"
        }
      ],
      "stateMutability": "view",
      "type": "function"
    },
    {
      "inputs": [
        {
          "internalType": "bytes",
          "name": "performData",
          "type": "bytes"
        }
      ],
      "name": "performUpkeep",
      "outputs": [],
      "stateMutability": "nonpayable",
      "type": "function"
    },
    {
      "inputs": [
        {
          "internalType": "uint256",
          "name": "_pair",
          "type": "uint256"
        }
      ],
      "name": "roundExecution",
      "outputs": [],
      "stateMutability": "nonpayable",
      "type": "function"
    },
    {
      "inputs": [],
      "name": "roundTime",
      "outputs": [
        {
          "internalType": "uint256",
          "name": "",
          "type": "uint256"
        }
      ],
      "stateMutability": "view",
      "type": "function"
    },
    {
      "inputs": [
        {
          "internalType": "uint256",
          "name": "_pairRound",
          "type": "uint256"
        },
        {
          "internalType": "uint256",
          "name": "_pair",
          "type": "uint256"
        }
      ],
      "name": "secondTokenBet",
      "outputs": [],
      "stateMutability": "payable",
      "type": "function"
    },
    {
      "inputs": [
        {
          "internalType": "uint256",
          "name": "_pair",
          "type": "uint256"
        }
      ],
      "name": "startGenesisRoundForThePair",
      "outputs": [],
      "stateMutability": "nonpayable",
      "type": "function"
    },
    {
      "inputs": [],
      "name": "treasuryAmount",
      "outputs": [
        {
          "internalType": "uint256",
          "name": "",
          "type": "uint256"
        }
      ],
      "stateMutability": "view",
      "type": "function"
    },
    {
      "inputs": [
        {
          "internalType": "uint256",
          "name": "minDeposit",
          "type": "uint256"
        },
        {
          "internalType": "uint256",
          "name": "maxDeposit",
          "type": "uint256"
        }
      ],
      "name": "updateMinMaxDepositAmount",
      "outputs": [],
      "stateMutability": "nonpayable",
      "type": "function"
    },
    {
      "inputs": [
        {
          "internalType": "address",
          "name": "newOwner",
          "type": "address"
        }
      ],
      "name": "updateOwner",
      "outputs": [],
      "stateMutability": "nonpayable",
      "type": "function"
    },
    {
      "inputs": [
        {
          "internalType": "uint256",
          "name": "",
          "type": "uint256"
        },
        {
          "internalType": "address",
          "name": "",
          "type": "address"
        },
        {
          "internalType": "uint256",
          "name": "",
          "type": "uint256"
        }
      ],
      "name": "userPlayedRounds",
      "outputs": [
        {
          "internalType": "uint256",
          "name": "",
          "type": "uint256"
        }
      ],
      "stateMutability": "view",
      "type": "function"
    },
    {
      "inputs": [
        {
          "internalType": "uint256",
          "name": "",
          "type": "uint256"
        },
        {
          "internalType": "uint256",
          "name": "",
          "type": "uint256"
        },
        {
          "internalType": "address",
          "name": "",
          "type": "address"
        }
      ],
      "name": "userRoundBids",
      "outputs": [
        {
          "internalType": "enum CryproPairPricePredictionFactory.TokenSelection",
          "name": "tokenselected",
          "type": "uint8"
        },
        {
          "internalType": "uint256",
          "name": "amount",
          "type": "uint256"
        },
        {
          "internalType": "bool",
          "name": "claim",
          "type": "bool"
        }
      ],
      "stateMutability": "view",
      "type": "function"
    },
    {
      "stateMutability": "payable",
      "type": "receive"
    }
  ],
  "bytecode": "0x60806040523480156200001157600080fd5b5060405162005211380380620052118339818101604052810190620000379190620000e4565b60008060006101000a81548160ff0219169083151502179055506001808190555080600260006101000a81548173ffffffffffffffffffffffffffffffffffffffff021916908373ffffffffffffffffffffffffffffffffffffffff16021790555060006003819055506000600681905550607860078190555061012c6008819055506402540be400600481905550506200015e565b600081519050620000de8162000144565b92915050565b600060208284031215620000f757600080fd5b60006200010784828501620000cd565b91505092915050565b60006200011d8262000124565b9050919050565b600073ffffffffffffffffffffffffffffffffffffffff82169050919050565b6200014f8162000110565b81146200015b57600080fd5b50565b6150a3806200016e6000396000f3fe6080604052600436106101f25760003560e01c80638a9bb02a1161010d578063ca49a543116100a0578063ee5f8c8f1161006f578063ee5f8c8f14610776578063f198f54e146107a1578063f55267c6146107de578063fa0b621114610807578063fa7af1f01461083257610232565b8063ca49a543146106bc578063d411e899146106e7578063e8147a2514610710578063e8bacbb41461073957610232565b8063b81b2b71116100dc578063b81b2b7114610621578063b933137f1461064c578063c34641fa14610668578063c4f8210e1461069357610232565b80638a9bb02a146105505780639619367d1461058d5780639af1d35a146105b8578063a468b7c1146105e357610232565b80635c975abb1161018557806375dd50511161015457806375dd5051146104b957806377a0de4c146104e257806386bb8f371461050b578063880cdc311461052757610232565b80635c975abb146103ea578063675b4ef1146104155780636cda375b146104525780636e04ff0d1461047b57610232565b80632e5b2168116101c15780632e5b21681461032e578063368acb09146103595780634585e33b14610384578063580cb78d146103ad57610232565b80630364ad7314610237578063121e1908146102765780631ecc82b7146102b357806323462d0c146102f157610232565b36610232577f88a5966d370b9919b20f3e2c13ff65706f196a4e32cc2c12bf57088f885258743334604051610228929190614240565b60405180910390a1005b600080fd5b34801561024357600080fd5b5061025e60048036038101906102599190613a17565b61084e565b60405161026d93929190614313565b60405180910390f35b34801561028257600080fd5b5061029d60048036038101906102989190613963565b6108ac565b6040516102aa91906145ef565b60405180910390f35b3480156102bf57600080fd5b506102da60048036038101906102d591906139db565b6108c4565b6040516102e892919061434a565b60405180910390f35b3480156102fd57600080fd5b506103186004803603810190610313919061398c565b610a0f565b60405161032591906145ef565b60405180910390f35b34801561033a57600080fd5b50610343610a4d565b60405161035091906145ef565b60405180910390f35b34801561036557600080fd5b5061036e610a53565b60405161037b91906145ef565b60405180910390f35b34801561039057600080fd5b506103ab60048036038101906103a6919061391e565b610a59565b005b3480156103b957600080fd5b506103d460048036038101906103cf9190613963565b610a67565b6040516103e19190614269565b60405180910390f35b3480156103f657600080fd5b506103ff610c6f565b60405161040c91906142ad565b60405180910390f35b34801561042157600080fd5b5061043c600480360381019061043791906139db565b610c85565b60405161044991906142f8565b60405180910390f35b34801561045e57600080fd5b5061047960048036038101906104749190613963565b610cca565b005b34801561048757600080fd5b506104a2600480360381019061049d919061391e565b610d9d565b6040516104b09291906142c8565b60405180910390f35b3480156104c557600080fd5b506104e060048036038101906104db919061387d565b610e42565b005b3480156104ee57600080fd5b50610509600480360381019061050491906139db565b61100c565b005b610525600480360381019061052091906139db565b6110ae565b005b34801561053357600080fd5b5061054e60048036038101906105499190613854565b6117ba565b005b34801561055c57600080fd5b50610577600480360381019061057291906139db565b61188e565b60405161058491906145d3565b60405180910390f35b34801561059957600080fd5b506105a26119a1565b6040516105af91906145ef565b60405180910390f35b3480156105c457600080fd5b506105cd6119a7565b6040516105da91906145ef565b60405180910390f35b3480156105ef57600080fd5b5061060a600480360381019061060591906138f5565b6119ad565b60405161061892919061434a565b60405180910390f35b34801561062d57600080fd5b50610636611b45565b60405161064391906145ef565b60405180910390f35b610666600480360381019061066191906139db565b611b4b565b005b34801561067457600080fd5b5061067d612135565b60405161068a91906145ef565b60405180910390f35b34801561069f57600080fd5b506106ba60048036038101906106b591906138b9565b61213b565b005b3480156106c857600080fd5b506106d16121ec565b6040516106de91906145ef565b60405180910390f35b3480156106f357600080fd5b5061070e60048036038101906107099190613963565b6121f4565b005b34801561071c57600080fd5b5061073760048036038101906107329190613963565b61230e565b005b34801561074557600080fd5b50610760600480360381019061075b9190613963565b6123a8565b60405161076d919061428b565b60405180910390f35b34801561078257600080fd5b5061078b612657565b60405161079891906145ef565b60405180910390f35b3480156107ad57600080fd5b506107c860048036038101906107c39190613963565b61265d565b6040516107d591906142ad565b60405180910390f35b3480156107ea57600080fd5b5061080560048036038101906108009190613963565b61267d565b005b34801561081357600080fd5b5061081c61284c565b60405161082991906142ad565b60405180910390f35b61084c600480360381019061084791906139db565b6128a3565b005b600c60205282600052604060002060205281600052604060002060205280600052604060002060009250925050508060000160009054906101000a900460ff16908060010154908060020160009054906101000a900460ff16905083565b600a6020528060005260406000206000915090505481565b6000806000806109576009600087815260200190815260200160002060028060200260405190810160405280929190826002801561094d576020028201915b8160009054906101000a900473ffffffffffffffffffffffffffffffffffffffff1673ffffffffffffffffffffffffffffffffffffffff1681526020019060010190808311610903575b50505050506119ad565b91509150600061098e600e60008881526020019081526020016000206000898152602001908152602001600020600c015484612e8d565b905060006109c3600e600089815260200190815260200160002060008a8152602001908152602001600020600d015484612e8d565b90507f58ea0c772cfdd828fd5a7a51cc90329761111ce83afe388e1c2aae787384152484846040516109f692919061434a565b60405180910390a1818195509550505050509250929050565b600d6020528260005260406000206020528160005260406000208181548110610a3757600080fd5b9060005260206000200160009250925050505481565b60055481565b60065481565b610a6360016121f4565b5050565b60606000600a600084815260200190815260200160002054905060008167ffffffffffffffff811115610ac3577f4e487b7100000000000000000000000000000000000000000000000000000000600052604160045260246000fd5b604051908082528060200260200182016040528015610afc57816020015b610ae9613624565b815260200190600190039081610ae15790505b50905060005b82811015610c6457600e6000868152602001908152602001600020600082815260200190815260200160002060405180610200016040529081600082015481526020016001820154815260200160028201548152602001600382015481526020016004820154815260200160058201548152602001600682015481526020016007820160009054906101000a900460ff161515151581526020016007820160019054906101000a900460ff161515151581526020016007820160029054906101000a900460ff161515151581526020016008820154815260200160098201548152602001600a8201548152602001600b8201548152602001600c8201548152602001600d82015481525050828281518110610c46577f4e487b7100000000000000000000000000000000000000000000000000000000600052603260045260246000fd5b60200260200101819052508080610c5c90614b50565b915050610b02565b508092505050919050565b60008060009054906101000a900460ff16905090565b60096020528160005260406000208160028110610ca157600080fd5b016000915091509054906101000a900473ffffffffffffffffffffffffffffffffffffffff1681565b3373ffffffffffffffffffffffffffffffffffffffff16600260009054906101000a900473ffffffffffffffffffffffffffffffffffffffff1673ffffffffffffffffffffffffffffffffffffffff1614610d5a576040517f08c379a0000000000000000000000000000000000000000000000000000000008152600401610d51906143f3565b60405180910390fd5b806007819055507f97d527bfc74a1098d388ba76ba4ec49354d1b8457215dc3975cf16d0eae2d6ef600754604051610d9291906145ef565b60405180910390a150565b600060606000600e60006001815260200190815260200160002060006001600a60006001815260200190815260200160002054610dda91906149f5565b8152602001908152602001600020600901549050428110925084848080601f016020809104026020016040519081016040528093929190818152602001838380828437600081840152601f19601f820116905080830192505050505050509150509250929050565b3373ffffffffffffffffffffffffffffffffffffffff16600260009054906101000a900473ffffffffffffffffffffffffffffffffffffffff1673ffffffffffffffffffffffffffffffffffffffff1614610ed2576040517f08c379a0000000000000000000000000000000000000000000000000000000008152600401610ec9906143f3565b60405180910390fd5b600160036000828254610ee591906146ff565b9250508190555081600960006003548152602001908152602001600020600060028110610f3b577f4e487b7100000000000000000000000000000000000000000000000000000000600052603260045260246000fd5b0160006101000a81548173ffffffffffffffffffffffffffffffffffffffff021916908373ffffffffffffffffffffffffffffffffffffffff16021790555080600960006003548152602001908152602001600020600160028110610fc9577f4e487b7100000000000000000000000000000000000000000000000000000000600052603260045260246000fd5b0160006101000a81548173ffffffffffffffffffffffffffffffffffffffff021916908373ffffffffffffffffffffffffffffffffffffffff1602179055505050565b3373ffffffffffffffffffffffffffffffffffffffff16600260009054906101000a900473ffffffffffffffffffffffffffffffffffffffff1673ffffffffffffffffffffffffffffffffffffffff161461109c576040517f08c379a0000000000000000000000000000000000000000000000000000000008152600401611093906143f3565b60405180910390fd5b81600481905550806005819055505050565b6110b733612ef3565b156110f7576040517f08c379a00000000000000000000000000000000000000000000000000000000081526004016110ee906143d3565b60405180910390fd5b3273ffffffffffffffffffffffffffffffffffffffff163373ffffffffffffffffffffffffffffffffffffffff1614611165576040517f08c379a000000000000000000000000000000000000000000000000000000000815260040161115c90614493565b60405180910390fd5b600260015414156111ab576040517f08c379a00000000000000000000000000000000000000000000000000000000081526004016111a2906145b3565b60405180910390fd5b600260018190555060011515600e6000838152602001908152602001600020600084815260200190815260200160002060070160019054906101000a900460ff1615151461122e576040517f08c379a000000000000000000000000000000000000000000000000000000000815260040161122590614433565b60405180910390fd5b6000600e600083815260200190815260200160002060008481526020019081526020016000206004015411611298576040517f08c379a000000000000000000000000000000000000000000000000000000000815260040161128f90614553565b60405180910390fd5b60001515600c6000838152602001908152602001600020600084815260200190815260200160002060003373ffffffffffffffffffffffffffffffffffffffff1673ffffffffffffffffffffffffffffffffffffffff16815260200190815260200160002060020160009054906101000a900460ff16151514611350576040517f08c379a0000000000000000000000000000000000000000000000000000000008152600401611347906144b3565b60405180910390fd5b6000600e6000838152602001908152602001600020600084815260200190815260200160002060405180610200016040529081600082015481526020016001820154815260200160028201548152602001600382015481526020016004820154815260200160058201548152602001600682015481526020016007820160009054906101000a900460ff161515151581526020016007820160019054906101000a900460ff161515151581526020016007820160029054906101000a900460ff161515151581526020016008820154815260200160098201548152602001600a8201548152602001600b8201548152602001600c8201548152602001600d820154815250509050806101a001518161018001511380156115515750600060018111156114a5577f4e487b7100000000000000000000000000000000000000000000000000000000600052602160045260246000fd5b600c6000848152602001908152602001600020600085815260200190815260200160002060003373ffffffffffffffffffffffffffffffffffffffff1673ffffffffffffffffffffffffffffffffffffffff16815260200190815260200160002060000160009054906101000a900460ff16600181111561154f577f4e487b7100000000000000000000000000000000000000000000000000000000600052602160045260246000fd5b145b806116515750806101a0015181610180015112801561165057506001808111156115a4577f4e487b7100000000000000000000000000000000000000000000000000000000600052602160045260246000fd5b600c6000848152602001908152602001600020600085815260200190815260200160002060003373ffffffffffffffffffffffffffffffffffffffff1673ffffffffffffffffffffffffffffffffffffffff16815260200190815260200160002060000160009054906101000a900460ff16600181111561164e577f4e487b7100000000000000000000000000000000000000000000000000000000600052602160045260246000fd5b145b5b611690576040517f08c379a0000000000000000000000000000000000000000000000000000000008152600401611687906144f3565b60405180910390fd5b8060a001518160800151600c6000858152602001908152602001600020600086815260200190815260200160002060003373ffffffffffffffffffffffffffffffffffffffff1673ffffffffffffffffffffffffffffffffffffffff168152602001908152602001600020600101546117099190614907565b61171391906147bf565b600f819055506001600c6000848152602001908152602001600020600085815260200190815260200160002060003373ffffffffffffffffffffffffffffffffffffffff1673ffffffffffffffffffffffffffffffffffffffff16815260200190815260200160002060020160006101000a81548160ff0219169083151502179055506000600f5411156117ae576117ad33600f5461213b565b5b50600180819055505050565b3373ffffffffffffffffffffffffffffffffffffffff16600260009054906101000a900473ffffffffffffffffffffffffffffffffffffffff1673ffffffffffffffffffffffffffffffffffffffff161461184a576040517f08c379a0000000000000000000000000000000000000000000000000000000008152600401611841906143f3565b60405180910390fd5b80600260006101000a81548173ffffffffffffffffffffffffffffffffffffffff021916908373ffffffffffffffffffffffffffffffffffffffff16021790555050565b611896613624565b600e6000838152602001908152602001600020600084815260200190815260200160002060405180610200016040529081600082015481526020016001820154815260200160028201548152602001600382015481526020016004820154815260200160058201548152602001600682015481526020016007820160009054906101000a900460ff161515151581526020016007820160019054906101000a900460ff161515151581526020016007820160029054906101000a900460ff161515151581526020016008820154815260200160098201548152602001600a8201548152602001600b8201548152602001600c8201548152602001600d82015481525050905092915050565b60045481565b60075481565b6000806000836000600281106119ec577f4e487b7100000000000000000000000000000000000000000000000000000000600052603260045260246000fd5b602002015173ffffffffffffffffffffffffffffffffffffffff1663feaf968c6040518163ffffffff1660e01b815260040160a06040518083038186803b158015611a3657600080fd5b505afa158015611a4a573d6000803e3d6000fd5b505050506040513d601f19601f82011682018060405250810190611a6e9190613a66565b505050915050600084600160028110611ab0577f4e487b7100000000000000000000000000000000000000000000000000000000600052603260045260246000fd5b602002015173ffffffffffffffffffffffffffffffffffffffff1663feaf968c6040518163ffffffff1660e01b815260040160a06040518083038186803b158015611afa57600080fd5b505afa158015611b0e573d6000803e3d6000fd5b505050506040513d601f19601f82011682018060405250810190611b329190613a66565b5050509150508181935093505050915091565b60035481565b818160011515600e6000838152602001908152602001600020600084815260200190815260200160002060070160009054906101000a900460ff16151514611bc8576040517f08c379a0000000000000000000000000000000000000000000000000000000008152600401611bbf90614573565b60405180910390fd5b60001515600e6000838152602001908152602001600020600084815260200190815260200160002060070160019054906101000a900460ff16151514611c43576040517f08c379a0000000000000000000000000000000000000000000000000000000008152600401611c3a90614433565b60405180910390fd5b60001515600e6000838152602001908152602001600020600084815260200190815260200160002060070160029054906101000a900460ff16151514611cbe576040517f08c379a0000000000000000000000000000000000000000000000000000000008152600401611cb590614453565b60405180910390fd5b600454341015611d03576040517f08c379a0000000000000000000000000000000000000000000000000000000008152600401611cfa906143b3565b60405180910390fd5b6000600c6000838152602001908152602001600020600084815260200190815260200160002060003373ffffffffffffffffffffffffffffffffffffffff1673ffffffffffffffffffffffffffffffffffffffff1681526020019081526020016000206001015414611daa576040517f08c379a0000000000000000000000000000000000000000000000000000000008152600401611da190614473565b60405180910390fd5b42600e60008381526020019081526020016000206000848152602001908152602001600020600901541015611e14576040517f08c379a0000000000000000000000000000000000000000000000000000000008152600401611e0b906144d3565b60405180910390fd5b611e1d33612ef3565b15611e5d576040517f08c379a0000000000000000000000000000000000000000000000000000000008152600401611e54906143d3565b60405180910390fd5b3273ffffffffffffffffffffffffffffffffffffffff163373ffffffffffffffffffffffffffffffffffffffff1614611ecb576040517f08c379a0000000000000000000000000000000000000000000000000000000008152600401611ec290614493565b60405180910390fd5b60026001541415611f11576040517f08c379a0000000000000000000000000000000000000000000000000000000008152600401611f08906145b3565b60405180910390fd5b600260018190555034600c6000858152602001908152602001600020600086815260200190815260200160002060003373ffffffffffffffffffffffffffffffffffffffff1673ffffffffffffffffffffffffffffffffffffffff168152602001908152602001600020600101819055506000600c6000858152602001908152602001600020600086815260200190815260200160002060003373ffffffffffffffffffffffffffffffffffffffff1673ffffffffffffffffffffffffffffffffffffffff16815260200190815260200160002060000160006101000a81548160ff02191690836001811115612030577f4e487b7100000000000000000000000000000000000000000000000000000000600052602160045260246000fd5b021790555034600e60008581526020019081526020016000206000868152602001908152602001600020600101600082825461206c91906146ff565b9250508190555034600e6000858152602001908152602001600020600086815260200190815260200160002060020160008282546120aa91906146ff565b92505081905550600d600084815260200190815260200160002060003373ffffffffffffffffffffffffffffffffffffffff1673ffffffffffffffffffffffffffffffffffffffff1681526020019081526020016000208490806001815401808255809150506001900390600052602060002001600090919091909150556001808190555050505050565b600f5481565b60008273ffffffffffffffffffffffffffffffffffffffff16826040516121619061422b565b60006040518083038185875af1925050503d806000811461219e576040519150601f19603f3d011682016040523d82523d6000602084013e6121a3565b606091505b50509050806121e7576040517f08c379a00000000000000000000000000000000000000000000000000000000081526004016121de90614373565b60405180910390fd5b505050565b600042905090565b60011515600b600083815260200190815260200160002060009054906101000a900460ff1615151461225b576040517f08c379a000000000000000000000000000000000000000000000000000000000815260040161225290614533565b60405180910390fd5b6000600a600083815260200190815260200160002054905061228960018261228391906149f5565b83612f06565b6001600e6000848152602001908152602001600020600083815260200190815260200160002060070160026101000a81548160ff0219169083151502179055506122df6001826122d991906146ff565b83613167565b6001600a6000848152602001908152602001600020600082825461230391906146ff565b925050819055505050565b3373ffffffffffffffffffffffffffffffffffffffff16600260009054906101000a900473ffffffffffffffffffffffffffffffffffffffff1673ffffffffffffffffffffffffffffffffffffffff161461239e576040517f08c379a0000000000000000000000000000000000000000000000000000000008152600401612395906143f3565b60405180910390fd5b8060048190555050565b60606000600d600084815260200190815260200160002060003373ffffffffffffffffffffffffffffffffffffffff1673ffffffffffffffffffffffffffffffffffffffff16815260200190815260200160002080548060200260200160405190810160405280929190818152602001828054801561244657602002820191906000526020600020905b815481526020019060010190808311612432575b5050505050905060008151905060008167ffffffffffffffff811115612495577f4e487b7100000000000000000000000000000000000000000000000000000000600052604160045260246000fd5b6040519080825280602002602001820160405280156124ce57816020015b6124bb6136a7565b8152602001906001900390816124b35790505b50905060005b8281101561264b57600c6000878152602001908152602001600020600082815260200190815260200160002060003373ffffffffffffffffffffffffffffffffffffffff1673ffffffffffffffffffffffffffffffffffffffff1681526020019081526020016000206040518060600160405290816000820160009054906101000a900460ff166001811115612593577f4e487b7100000000000000000000000000000000000000000000000000000000600052602160045260246000fd5b60018111156125cb577f4e487b7100000000000000000000000000000000000000000000000000000000600052602160045260246000fd5b8152602001600182015481526020016002820160009054906101000a900460ff16151515158152505082828151811061262d577f4e487b7100000000000000000000000000000000000000000000000000000000600052603260045260246000fd5b6020026020010181905250808061264390614b50565b9150506124d4565b50809350505050919050565b60085481565b600b6020528060005260406000206000915054906101000a900460ff1681565b3373ffffffffffffffffffffffffffffffffffffffff16600260009054906101000a900473ffffffffffffffffffffffffffffffffffffffff1673ffffffffffffffffffffffffffffffffffffffff161461270d576040517f08c379a0000000000000000000000000000000000000000000000000000000008152600401612704906143f3565b60405180910390fd5b60001515600b600083815260200190815260200160002060009054906101000a900460ff16151514612774576040517f08c379a000000000000000000000000000000000000000000000000000000000815260040161276b90614593565b60405180910390fd5b6001600b600083815260200190815260200160002060006101000a81548160ff02191690831515021790555060006001600a6000848152602001908152602001600020546127c291906146ff565b90506127ce8183613167565b6001600e6000848152602001908152602001600020600083815260200190815260200160002060070160026101000a81548160ff02191690831515021790555060018161281b91906146ff565b600a60008481526020019081526020016000208190555061284860018261284291906146ff565b83613167565b5050565b60008042600e60006001815260200190815260200160002060006001600a6000600181526020019081526020016000205461288791906149f5565b8152602001908152602001600020600901541090508091505090565b818160011515600e6000838152602001908152602001600020600084815260200190815260200160002060070160009054906101000a900460ff16151514612920576040517f08c379a000000000000000000000000000000000000000000000000000000000815260040161291790614573565b60405180910390fd5b60001515600e6000838152602001908152602001600020600084815260200190815260200160002060070160019054906101000a900460ff1615151461299b576040517f08c379a000000000000000000000000000000000000000000000000000000000815260040161299290614433565b60405180910390fd5b60001515600e6000838152602001908152602001600020600084815260200190815260200160002060070160029054906101000a900460ff16151514612a16576040517f08c379a0000000000000000000000000000000000000000000000000000000008152600401612a0d90614453565b60405180910390fd5b600454341015612a5b576040517f08c379a0000000000000000000000000000000000000000000000000000000008152600401612a52906143b3565b60405180910390fd5b6000600c6000838152602001908152602001600020600084815260200190815260200160002060003373ffffffffffffffffffffffffffffffffffffffff1673ffffffffffffffffffffffffffffffffffffffff1681526020019081526020016000206001015414612b02576040517f08c379a0000000000000000000000000000000000000000000000000000000008152600401612af990614473565b60405180910390fd5b42600e60008381526020019081526020016000206000848152602001908152602001600020600901541015612b6c576040517f08c379a0000000000000000000000000000000000000000000000000000000008152600401612b63906144d3565b60405180910390fd5b612b7533612ef3565b15612bb5576040517f08c379a0000000000000000000000000000000000000000000000000000000008152600401612bac906143d3565b60405180910390fd5b3273ffffffffffffffffffffffffffffffffffffffff163373ffffffffffffffffffffffffffffffffffffffff1614612c23576040517f08c379a0000000000000000000000000000000000000000000000000000000008152600401612c1a90614493565b60405180910390fd5b60026001541415612c69576040517f08c379a0000000000000000000000000000000000000000000000000000000008152600401612c60906145b3565b60405180910390fd5b600260018190555034600c6000858152602001908152602001600020600086815260200190815260200160002060003373ffffffffffffffffffffffffffffffffffffffff1673ffffffffffffffffffffffffffffffffffffffff168152602001908152602001600020600101819055506001600c6000858152602001908152602001600020600086815260200190815260200160002060003373ffffffffffffffffffffffffffffffffffffffff1673ffffffffffffffffffffffffffffffffffffffff16815260200190815260200160002060000160006101000a81548160ff02191690836001811115612d88577f4e487b7100000000000000000000000000000000000000000000000000000000600052602160045260246000fd5b021790555034600e600085815260200190815260200160002060008681526020019081526020016000206001016000828254612dc491906146ff565b9250508190555034600e600085815260200190815260200160002060008681526020019081526020016000206003016000828254612e0291906146ff565b92505081905550600d600084815260200190815260200160002060003373ffffffffffffffffffffffffffffffffffffffff1673ffffffffffffffffffffffffffffffffffffffff1681526020019081526020016000208490806001815401808255809150506001900390600052602060002001600090919091909150556001808190555050505050565b600081831315612ec457826305f5e1008385612ea99190614961565b612eb391906147f0565b612ebd9190614755565b9050612eed565b826305f5e1008484612ed69190614961565b612ee091906147f0565b612eea9190614755565b90505b92915050565b600080823b905060008111915050919050565b60011515600b600083815260200190815260200160002060009054906101000a900460ff16151514612f6d576040517f08c379a0000000000000000000000000000000000000000000000000000000008152600401612f6490614533565b60405180910390fd5b60001515600e6000838152602001908152602001600020600084815260200190815260200160002060070160019054906101000a900460ff16151514612fe8576040517f08c379a0000000000000000000000000000000000000000000000000000000008152600401612fdf90614393565b60405180910390fd5b6000600e600083815260200190815260200160002060008481526020019081526020016000206008015411613052576040517f08c379a000000000000000000000000000000000000000000000000000000000815260040161304990614573565b60405180910390fd5b42600e6000838152602001908152602001600020600084815260200190815260200160002060090154106130bb576040517f08c379a00000000000000000000000000000000000000000000000000000000081526004016130b290614433565b60405180910390fd5b6001600e6000838152602001908152602001600020600084815260200190815260200160002060070160016101000a81548160ff021916908315150217905550620f82ee600e60008381526020019081526020016000206000848152602001908152602001600020600a01819055506213ee89600e60008381526020019081526020016000206000848152602001908152602001600020600b01819055506131638282613439565b5050565b60001515600e6000838152602001908152602001600020600084815260200190815260200160002060070160009054906101000a900460ff161515146131e2576040517f08c379a00000000000000000000000000000000000000000000000000000000081526004016131d990614513565b60405180910390fd5b6001600e6000838152602001908152602001600020600084815260200190815260200160002060070160006101000a81548160ff0219169083151502179055506000806132b2600960008581526020019081526020016000206002806020026040519081016040528092919082600280156132a8576020028201915b8160009054906101000a900473ffffffffffffffffffffffffffffffffffffffff1673ffffffffffffffffffffffffffffffffffffffff168152602001906001019080831161325e575b50505050506119ad565b9150915082600e6000858152602001908152602001600020600086815260200190815260200160002060000181905550600a600084815260200190815260200160002054600e600085815260200190815260200160002060008681526020019081526020016000206006018190555042600e600085815260200190815260200160002060008681526020019081526020016000206008018190555060028414156133a1576008546008544261336791906146ff565b61337191906146ff565b600e60008581526020019081526020016000206000868152602001908152602001600020600901819055506133db565b600854426133af91906146ff565b600e60008581526020019081526020016000206000868152602001908152602001600020600901819055505b81600e60008581526020019081526020016000206000868152602001908152602001600020600c018190555080600e60008581526020019081526020016000206000868152602001908152602001600020600d018190555050505050565b6000600e600083815260200190815260200160002060008481526020019081526020016000206005015414801561349757506000600e6000838152602001908152602001600020600084815260200190815260200160002060040154145b6134d6576040517f08c379a00000000000000000000000000000000000000000000000000000000081526004016134cd90614413565b60405180910390fd5b6000600e60008381526020019081526020016000206000848152602001908152602001600020905080600b015481600a0154131561357557600061271060075483600101546135259190614907565b61352f91906147bf565b90508160020154826005018190555080826001015461354e91906149f5565b8260040181905550806006600082825461356891906146ff565b925050819055505061361f565b80600b015481600a015412156135ec576000612710600754836001015461359c9190614907565b6135a691906147bf565b9050816003015482600501819055508082600101546135c591906149f5565b826004018190555080600660008282546135df91906146ff565b925050819055505061361e565b600081600501819055506000816004018190555080600101546006600082825461361691906146ff565b925050819055505b5b505050565b604051806102000160405280600081526020016000815260200160008152602001600081526020016000815260200160008152602001600081526020016000151581526020016000151581526020016000151581526020016000815260200160008152602001600081526020016000815260200160008152602001600081525090565b6040518060600160405280600060018111156136ec577f4e487b7100000000000000000000000000000000000000000000000000000000600052602160045260246000fd5b8152602001600081526020016000151581525090565b60006137156137108461462f565b61460a565b9050808285602086028201111561372b57600080fd5b60005b8581101561375b578161374188826137eb565b84526020840193506020830192505060018101905061372e565b5050509392505050565b60008135905061377481614ffa565b92915050565b600082601f83011261378b57600080fd5b6002613798848285613702565b91505092915050565b60008083601f8401126137b357600080fd5b8235905067ffffffffffffffff8111156137cc57600080fd5b6020830191508360018202830111156137e457600080fd5b9250929050565b6000813590506137fa81615011565b92915050565b60008151905061380f81615028565b92915050565b6000813590506138248161503f565b92915050565b6000815190506138398161503f565b92915050565b60008151905061384e81615056565b92915050565b60006020828403121561386657600080fd5b600061387484828501613765565b91505092915050565b6000806040838503121561389057600080fd5b600061389e85828601613765565b92505060206138af85828601613765565b9150509250929050565b600080604083850312156138cc57600080fd5b60006138da85828601613765565b92505060206138eb85828601613815565b9150509250929050565b60006040828403121561390757600080fd5b60006139158482850161377a565b91505092915050565b6000806020838503121561393157600080fd5b600083013567ffffffffffffffff81111561394b57600080fd5b613957858286016137a1565b92509250509250929050565b60006020828403121561397557600080fd5b600061398384828501613815565b91505092915050565b6000806000606084860312156139a157600080fd5b60006139af86828701613815565b93505060206139c086828701613765565b92505060406139d186828701613815565b9150509250925092565b600080604083850312156139ee57600080fd5b60006139fc85828601613815565b9250506020613a0d85828601613815565b9150509250929050565b600080600060608486031215613a2c57600080fd5b6000613a3a86828701613815565b9350506020613a4b86828701613815565b9250506040613a5c86828701613765565b9150509250925092565b600080600080600060a08688031215613a7e57600080fd5b6000613a8c8882890161383f565b9550506020613a9d88828901613800565b9450506040613aae8882890161382a565b9350506060613abf8882890161382a565b9250506080613ad08882890161383f565b9150509295509295909350565b6000613ae98383613f37565b6102008301905092915050565b6000613b0283836141cb565b60608301905092915050565b613b1781614a29565b82525050565b6000613b2882614675565b613b3281856146b0565b9350613b3d83614655565b8060005b83811015613b6e578151613b558882613add565b9750613b6083614696565b925050600181019050613b41565b5085935050505092915050565b6000613b8682614680565b613b9081856146c1565b9350613b9b83614665565b8060005b83811015613bcc578151613bb38882613af6565b9750613bbe836146a3565b925050600181019050613b9f565b5085935050505092915050565b613be281614a3b565b82525050565b613bf181614a3b565b82525050565b6000613c028261468b565b613c0c81856146d2565b9350613c1c818560208601614aec565b613c2581614c55565b840191505092915050565b613c3981614ab6565b82525050565b613c4881614ada565b82525050565b613c5781614ada565b82525050565b613c6681614a6c565b82525050565b613c7581614a6c565b82525050565b6000613c88600f836146ee565b9150613c9382614c66565b602082019050919050565b6000613cab6017836146ee565b9150613cb682614c8f565b602082019050919050565b6000613cce6015836146ee565b9150613cd982614cb8565b602082019050919050565b6000613cf16014836146ee565b9150613cfc82614ce1565b602082019050919050565b6000613d14600c836146ee565b9150613d1f82614d0a565b602082019050919050565b6000613d376012836146ee565b9150613d4282614d33565b602082019050919050565b6000613d5a6013836146ee565b9150613d6582614d5c565b602082019050919050565b6000613d7d600f836146ee565b9150613d8882614d85565b602082019050919050565b6000613da0601b836146ee565b9150613dab82614dae565b602082019050919050565b6000613dc3601a836146ee565b9150613dce82614dd7565b602082019050919050565b6000613de6600f836146ee565b9150613df182614e00565b602082019050919050565b6000613e096014836146ee565b9150613e1482614e29565b602082019050919050565b6000613e2c600c836146ee565b9150613e3782614e52565b602082019050919050565b6000613e4f6019836146ee565b9150613e5a82614e7b565b602082019050919050565b6000613e72601d836146ee565b9150613e7d82614ea4565b602082019050919050565b6000613e956000836146e3565b9150613ea082614ecd565b600082019050919050565b6000613eb86044836146ee565b9150613ec382614ed0565b606082019050919050565b6000613edb6015836146ee565b9150613ee682614f45565b602082019050919050565b6000613efe6021836146ee565b9150613f0982614f6e565b604082019050919050565b6000613f21601f836146ee565b9150613f2c82614fbd565b602082019050919050565b61020082016000820151613f4e600085018261420d565b506020820151613f61602085018261420d565b506040820151613f74604085018261420d565b506060820151613f87606085018261420d565b506080820151613f9a608085018261420d565b5060a0820151613fad60a085018261420d565b5060c0820151613fc060c085018261420d565b5060e0820151613fd360e0850182613bd9565b50610100820151613fe8610100850182613bd9565b50610120820151613ffd610120850182613bd9565b5061014082015161401261014085018261420d565b5061016082015161402761016085018261420d565b5061018082015161403c610180850182613c5d565b506101a08201516140516101a0850182613c5d565b506101c08201516140666101c0850182613c5d565b506101e082015161407b6101e0850182613c5d565b50505050565b61020082016000820151614098600085018261420d565b5060208201516140ab602085018261420d565b5060408201516140be604085018261420d565b5060608201516140d1606085018261420d565b5060808201516140e4608085018261420d565b5060a08201516140f760a085018261420d565b5060c082015161410a60c085018261420d565b5060e082015161411d60e0850182613bd9565b50610100820151614132610100850182613bd9565b50610120820151614147610120850182613bd9565b5061014082015161415c61014085018261420d565b5061016082015161417161016085018261420d565b50610180820151614186610180850182613c5d565b506101a082015161419b6101a0850182613c5d565b506101c08201516141b06101c0850182613c5d565b506101e08201516141c56101e0850182613c5d565b50505050565b6060820160008201516141e16000850182613c3f565b5060208201516141f4602085018261420d565b5060408201516142076040850182613bd9565b50505050565b61421681614a96565b82525050565b61422581614a96565b82525050565b600061423682613e88565b9150819050919050565b60006040820190506142556000830185613b0e565b614262602083018461421c565b9392505050565b600060208201905081810360008301526142838184613b1d565b905092915050565b600060208201905081810360008301526142a58184613b7b565b905092915050565b60006020820190506142c26000830184613be8565b92915050565b60006040820190506142dd6000830185613be8565b81810360208301526142ef8184613bf7565b90509392505050565b600060208201905061430d6000830184613c30565b92915050565b60006060820190506143286000830186613c4e565b614335602083018561421c565b6143426040830184613be8565b949350505050565b600060408201905061435f6000830185613c6c565b61436c6020830184613c6c565b9392505050565b6000602082019050818103600083015261438c81613c7b565b9050919050565b600060208201905081810360008301526143ac81613c9e565b9050919050565b600060208201905081810360008301526143cc81613cc1565b9050919050565b600060208201905081810360008301526143ec81613ce4565b9050919050565b6000602082019050818103600083015261440c81613d07565b9050919050565b6000602082019050818103600083015261442c81613d2a565b9050919050565b6000602082019050818103600083015261444c81613d4d565b9050919050565b6000602082019050818103600083015261446c81613d70565b9050919050565b6000602082019050818103600083015261448c81613d93565b9050919050565b600060208201905081810360008301526144ac81613db6565b9050919050565b600060208201905081810360008301526144cc81613dd9565b9050919050565b600060208201905081810360008301526144ec81613dfc565b9050919050565b6000602082019050818103600083015261450c81613e1f565b9050919050565b6000602082019050818103600083015261452c81613e42565b9050919050565b6000602082019050818103600083015261454c81613e65565b9050919050565b6000602082019050818103600083015261456c81613eab565b9050919050565b6000602082019050818103600083015261458c81613ece565b9050919050565b600060208201905081810360008301526145ac81613ef1565b9050919050565b600060208201905081810360008301526145cc81613f14565b9050919050565b6000610200820190506145e96000830184614081565b92915050565b6000602082019050614604600083018461421c565b92915050565b6000614614614625565b90506146208282614b1f565b919050565b6000604051905090565b600067ffffffffffffffff82111561464a57614649614c26565b5b602082029050919050565b6000819050602082019050919050565b6000819050602082019050919050565b600081519050919050565b600081519050919050565b600081519050919050565b6000602082019050919050565b6000602082019050919050565b600082825260208201905092915050565b600082825260208201905092915050565b600082825260208201905092915050565b600081905092915050565b600082825260208201905092915050565b600061470a82614a96565b915061471583614a96565b9250827fffffffffffffffffffffffffffffffffffffffffffffffffffffffffffffffff0382111561474a57614749614b99565b5b828201905092915050565b600061476082614a6c565b915061476b83614a6c565b92508261477b5761477a614bc8565b5b600160000383147f8000000000000000000000000000000000000000000000000000000000000000831416156147b4576147b3614b99565b5b828205905092915050565b60006147ca82614a96565b91506147d583614a96565b9250826147e5576147e4614bc8565b5b828204905092915050565b60006147fb82614a6c565b915061480683614a6c565b9250827f7fffffffffffffffffffffffffffffffffffffffffffffffffffffffffffffff048211600084136000841316161561484557614844614b99565b5b817f8000000000000000000000000000000000000000000000000000000000000000058312600084126000841316161561488257614881614b99565b5b827f800000000000000000000000000000000000000000000000000000000000000005821260008413600084121616156148bf576148be614b99565b5b827f7fffffffffffffffffffffffffffffffffffffffffffffffffffffffffffffff05821260008412600084121616156148fc576148fb614b99565b5b828202905092915050565b600061491282614a96565b915061491d83614a96565b9250817fffffffffffffffffffffffffffffffffffffffffffffffffffffffffffffffff048311821515161561495657614955614b99565b5b828202905092915050565b600061496c82614a6c565b915061497783614a6c565b9250827f8000000000000000000000000000000000000000000000000000000000000000018212600084121516156149b2576149b1614b99565b5b827f7fffffffffffffffffffffffffffffffffffffffffffffffffffffffffffffff0182136000841216156149ea576149e9614b99565b5b828203905092915050565b6000614a0082614a96565b9150614a0b83614a96565b925082821015614a1e57614a1d614b99565b5b828203905092915050565b6000614a3482614a76565b9050919050565b60008115159050919050565b6000614a5282614a29565b9050919050565b6000819050614a6782614fe6565b919050565b6000819050919050565b600073ffffffffffffffffffffffffffffffffffffffff82169050919050565b6000819050919050565b600069ffffffffffffffffffff82169050919050565b6000614ac182614ac8565b9050919050565b6000614ad382614a76565b9050919050565b6000614ae582614a59565b9050919050565b60005b83811015614b0a578082015181840152602081019050614aef565b83811115614b19576000848401525b50505050565b614b2882614c55565b810181811067ffffffffffffffff82111715614b4757614b46614c26565b5b80604052505050565b6000614b5b82614a96565b91507fffffffffffffffffffffffffffffffffffffffffffffffffffffffffffffffff821415614b8e57614b8d614b99565b5b600182019050919050565b7f4e487b7100000000000000000000000000000000000000000000000000000000600052601160045260246000fd5b7f4e487b7100000000000000000000000000000000000000000000000000000000600052601260045260246000fd5b7f4e487b7100000000000000000000000000000000000000000000000000000000600052602160045260246000fd5b7f4e487b7100000000000000000000000000000000000000000000000000000000600052604160045260246000fd5b6000601f19601f8301169050919050565b7f5472616e73666572206661696c65640000000000000000000000000000000000600082015250565b7f526f756e642068617320616c726561647920656e646564000000000000000000600082015250565b7f4d757374206d656574206d696e696d756d206265740000000000000000000000600082015250565b7f436f6e7472616374206e6f7420616c6c6f776564000000000000000000000000600082015250565b7f4e6f7420616e206f776e65720000000000000000000000000000000000000000600082015250565b7f526577617264732063616c63756c617465640000000000000000000000000000600082015250565b7f526f756e6420686173206e6f7420656e64656400000000000000000000000000600082015250565b7f526f756e64206973206c6f636b65640000000000000000000000000000000000600082015250565b7f557365722063616e6e6f7420706c6163652062696420616761696e0000000000600082015250565b7f50726f787920636f6e7472616374206e6f7420616c6c6f776564000000000000600082015250565b7f416c726561647920636c61696d65640000000000000000000000000000000000600082015250565b7f42657474696e672074696d65206973206f766572000000000000000000000000600082015250565b7f43616e6e6f7420636c61696d0000000000000000000000000000000000000000600082015250565b7f526f756e642068617320616c7265616479207374617274656400000000000000600082015250565b7f67656e6573697320726f756e6420686173206e6f742073746172746564000000600082015250565b50565b7f416c6c2074686520726577617264732077656e7420746f20706f6f6c2061732060008201527f7072696365206368616e6765206f6620626f746820746f6b656e20617265206560208201527f7175616c00000000000000000000000000000000000000000000000000000000604082015250565b7f526f756e6420686173206e6f7420737461727465640000000000000000000000600082015250565b7f67656e6573697320726f756e642068617320616c72656164792073746172746560008201527f6400000000000000000000000000000000000000000000000000000000000000602082015250565b7f5265656e7472616e637947756172643a207265656e7472616e742063616c6c00600082015250565b60028110614ff757614ff6614bf7565b5b50565b61500381614a29565b811461500e57600080fd5b50565b61501a81614a47565b811461502557600080fd5b50565b61503181614a6c565b811461503c57600080fd5b50565b61504881614a96565b811461505357600080fd5b50565b61505f81614aa0565b811461506a57600080fd5b5056fea26469706673582212205fac01c49975abd8f54f13cdcaaa9f08d766cdba542d7174aac8a0e652ca5d0d64736f6c63430008040033",
  "linkReferences": {},
  "deployedLinkReferences": {}
}