{
  "_format": "hh-sol-artifact-1",
  "contractName": "CryproPairPricePredictionFactory",
  "sourceName": "contracts/crypto-preidction.sol",
  "abi": [
    {
      "inputs": [
        {
          "internalType": "address",
          "name": "_owner",
          "type": "address"
        }
      ],
      "stateMutability": "nonpayable",
      "type": "constructor"
    },
    {
      "anonymous": false,
      "inputs": [
        {
          "indexed": false,
          "internalType": "uint256",
          "name": "pair",
          "type": "uint256"
        },
        {
          "indexed": false,
          "internalType": "uint256",
          "name": "amount",
          "type": "uint256"
        },
        {
          "indexed": false,
          "internalType": "enum CryproPairPricePredictionFactory.TokenSelection",
          "name": "tokenBetType",
          "type": "uint8"
        }
      ],
      "name": "Bet",
      "type": "event"
    },
    {
      "anonymous": false,
      "inputs": [
        {
          "indexed": false,
          "internalType": "uint256",
          "name": "amount",
          "type": "uint256"
        }
      ],
      "name": "Claim",
      "type": "event"
    },
    {
      "anonymous": false,
      "inputs": [
        {
          "indexed": false,
          "internalType": "uint256",
          "name": "pairRound",
          "type": "uint256"
        },
        {
          "indexed": false,
          "internalType": "uint256",
          "name": "pair",
          "type": "uint256"
        }
      ],
      "name": "EndRound",
      "type": "event"
    },
    {
      "anonymous": false,
      "inputs": [
        {
          "indexed": false,
          "internalType": "uint256",
          "name": "",
          "type": "uint256"
        }
      ],
      "name": "FeesChanged",
      "type": "event"
    },
    {
      "anonymous": false,
      "inputs": [
        {
          "indexed": false,
          "internalType": "uint256",
          "name": "roundNumber",
          "type": "uint256"
        }
      ],
      "name": "Pause",
      "type": "event"
    },
    {
      "anonymous": false,
      "inputs": [
        {
          "indexed": false,
          "internalType": "address",
          "name": "account",
          "type": "address"
        }
      ],
      "name": "Paused",
      "type": "event"
    },
    {
      "anonymous": false,
      "inputs": [
        {
          "indexed": false,
          "internalType": "int256",
          "name": "",
          "type": "int256"
        },
        {
          "indexed": false,
          "internalType": "int256",
          "name": "",
          "type": "int256"
        }
      ],
      "name": "PercentageTokenChanges",
      "type": "event"
    },
    {
      "anonymous": false,
      "inputs": [
        {
          "indexed": false,
          "internalType": "uint256",
          "name": "pair",
          "type": "uint256"
        }
      ],
      "name": "PerformUpKeepUpdated",
      "type": "event"
    },
    {
      "anonymous": false,
      "inputs": [
        {
          "indexed": false,
          "internalType": "address",
          "name": "",
          "type": "address"
        },
        {
          "indexed": false,
          "internalType": "uint256",
          "name": "",
          "type": "uint256"
        }
      ],
      "name": "Received",
      "type": "event"
    },
    {
      "anonymous": false,
      "inputs": [
        {
          "indexed": false,
          "internalType": "uint256",
          "name": "pair",
          "type": "uint256"
        },
        {
          "indexed": false,
          "internalType": "uint256",
          "name": "currentRound",
          "type": "uint256"
        },
        {
          "indexed": false,
          "internalType": "uint256",
          "name": "previousRound",
          "type": "uint256"
        },
        {
          "indexed": false,
          "internalType": "uint256",
          "name": "nextRound",
          "type": "uint256"
        }
      ],
      "name": "RoundExecution",
      "type": "event"
    },
    {
      "anonymous": false,
      "inputs": [
        {
          "indexed": false,
          "internalType": "uint256",
          "name": "pairRound",
          "type": "uint256"
        },
        {
          "indexed": false,
          "internalType": "uint256",
          "name": "pair",
          "type": "uint256"
        }
      ],
      "name": "StartRound",
      "type": "event"
    },
    {
      "anonymous": false,
      "inputs": [
        {
          "indexed": false,
          "internalType": "uint256",
          "name": "pairsActivated",
          "type": "uint256"
        }
      ],
      "name": "Unpause",
      "type": "event"
    },
    {
      "anonymous": false,
      "inputs": [
        {
          "indexed": false,
          "internalType": "address",
          "name": "account",
          "type": "address"
        }
      ],
      "name": "Unpaused",
      "type": "event"
    },
    {
      "inputs": [
        {
          "internalType": "address",
          "name": "to",
          "type": "address"
        },
        {
          "internalType": "uint256",
          "name": "value",
          "type": "uint256"
        }
      ],
      "name": "_safeTransfer",
      "outputs": [],
      "stateMutability": "nonpayable",
      "type": "function"
    },
    {
      "inputs": [
        {
          "internalType": "uint256",
          "name": "_fees",
          "type": "uint256"
        }
      ],
      "name": "changeFees",
      "outputs": [],
      "stateMutability": "nonpayable",
      "type": "function"
    },
    {
      "inputs": [
        {
          "internalType": "uint256",
          "name": "_minBet",
          "type": "uint256"
        }
      ],
      "name": "changeMinBet",
      "outputs": [],
      "stateMutability": "nonpayable",
      "type": "function"
    },
    {
      "inputs": [
        {
          "internalType": "uint256",
          "name": "_roundTime",
          "type": "uint256"
        }
      ],
      "name": "changeRoundTime",
      "outputs": [],
      "stateMutability": "nonpayable",
      "type": "function"
    },
    {
      "inputs": [
        {
          "internalType": "bytes",
          "name": "",
          "type": "bytes"
        }
      ],
      "name": "checkUpkeep",
      "outputs": [
        {
          "internalType": "bool",
          "name": "upkeepNeeded",
          "type": "bool"
        },
        {
          "internalType": "bytes",
          "name": "performData",
          "type": "bytes"
        }
      ],
      "stateMutability": "view",
      "type": "function"
    },
    {
      "inputs": [
        {
          "internalType": "uint256",
          "name": "_pairRound",
          "type": "uint256"
        },
        {
          "internalType": "uint256",
          "name": "_pair",
          "type": "uint256"
        }
      ],
      "name": "claimReward",
      "outputs": [],
      "stateMutability": "payable",
      "type": "function"
    },
    {
      "inputs": [
        {
          "internalType": "address",
          "name": "firstToken",
          "type": "address"
        },
        {
          "internalType": "address",
          "name": "secondToken",
          "type": "address"
        }
      ],
      "name": "createPredictionPairs",
      "outputs": [],
      "stateMutability": "nonpayable",
      "type": "function"
    },
    {
      "inputs": [
        {
          "internalType": "uint256",
          "name": "_pairRound",
          "type": "uint256"
        },
        {
          "internalType": "uint256",
          "name": "_pair",
          "type": "uint256"
        }
      ],
      "name": "firstTokenBet",
      "outputs": [],
      "stateMutability": "payable",
      "type": "function"
    },
    {
      "inputs": [],
      "name": "getBlockTimeStamp",
      "outputs": [
        {
          "internalType": "uint256",
          "name": "",
          "type": "uint256"
        }
      ],
      "stateMutability": "view",
      "type": "function"
    },
    {
      "inputs": [
        {
          "internalType": "contract AggregatorV3Interface[2]",
          "name": "token",
          "type": "address[2]"
        }
      ],
      "name": "getLatestPrice",
      "outputs": [
        {
          "internalType": "int256",
          "name": "",
          "type": "int256"
        },
        {
          "internalType": "int256",
          "name": "",
          "type": "int256"
        }
      ],
      "stateMutability": "view",
      "type": "function"
    },
    {
      "inputs": [],
      "name": "getPairCount",
      "outputs": [
        {
          "internalType": "uint256",
          "name": "",
          "type": "uint256"
        }
      ],
      "stateMutability": "view",
      "type": "function"
    },
    {
      "inputs": [
        {
          "internalType": "uint256",
          "name": "_pair",
          "type": "uint256"
        },
        {
          "internalType": "uint256",
          "name": "size",
          "type": "uint256"
        }
      ],
      "name": "getPairRounds",
      "outputs": [
        {
          "components": [
            {
              "internalType": "uint256",
              "name": "pairNumber",
              "type": "uint256"
            },
            {
              "internalType": "uint256",
              "name": "poolAmount",
              "type": "uint256"
            },
            {
              "internalType": "uint256",
              "name": "firstTokenPoolAmount",
              "type": "uint256"
            },
            {
              "internalType": "uint256",
              "name": "secondTokenPoolAmount",
              "type": "uint256"
            },
            {
              "internalType": "uint256",
              "name": "poolTokenRewardAmount",
              "type": "uint256"
            },
            {
              "internalType": "uint256",
              "name": "poolTokenBaseAmount",
              "type": "uint256"
            },
            {
              "internalType": "uint256",
              "name": "roundNumber",
              "type": "uint256"
            },
            {
              "internalType": "bool",
              "name": "roundStart",
              "type": "bool"
            },
            {
              "internalType": "bool",
              "name": "roundEnded",
              "type": "bool"
            },
            {
              "internalType": "bool",
              "name": "roundLock",
              "type": "bool"
            },
            {
              "internalType": "bool",
              "name": "gotPaused",
              "type": "bool"
            },
            {
              "internalType": "uint256",
              "name": "startTimeStamp",
              "type": "uint256"
            },
            {
              "internalType": "uint256",
              "name": "endTimeStamp",
              "type": "uint256"
            },
            {
              "internalType": "int256",
              "name": "firstTokenPriceChange",
              "type": "int256"
            },
            {
              "internalType": "int256",
              "name": "secondTokenPriceChange",
              "type": "int256"
            },
            {
              "internalType": "int256",
              "name": "firstTokenPrice",
              "type": "int256"
            },
            {
              "internalType": "int256",
              "name": "secondTokenPrice",
              "type": "int256"
            }
          ],
          "internalType": "struct CryproPairPricePredictionFactory.Rounds[]",
          "name": "",
          "type": "tuple[]"
        }
      ],
      "stateMutability": "view",
      "type": "function"
    },
    {
      "inputs": [
        {
          "internalType": "uint256",
          "name": "_pairRound",
          "type": "uint256"
        },
        {
          "internalType": "uint256",
          "name": "_pair",
          "type": "uint256"
        }
      ],
      "name": "getRoundInfo",
      "outputs": [
        {
          "components": [
            {
              "internalType": "uint256",
              "name": "pairNumber",
              "type": "uint256"
            },
            {
              "internalType": "uint256",
              "name": "poolAmount",
              "type": "uint256"
            },
            {
              "internalType": "uint256",
              "name": "firstTokenPoolAmount",
              "type": "uint256"
            },
            {
              "internalType": "uint256",
              "name": "secondTokenPoolAmount",
              "type": "uint256"
            },
            {
              "internalType": "uint256",
              "name": "poolTokenRewardAmount",
              "type": "uint256"
            },
            {
              "internalType": "uint256",
              "name": "poolTokenBaseAmount",
              "type": "uint256"
            },
            {
              "internalType": "uint256",
              "name": "roundNumber",
              "type": "uint256"
            },
            {
              "internalType": "bool",
              "name": "roundStart",
              "type": "bool"
            },
            {
              "internalType": "bool",
              "name": "roundEnded",
              "type": "bool"
            },
            {
              "internalType": "bool",
              "name": "roundLock",
              "type": "bool"
            },
            {
              "internalType": "bool",
              "name": "gotPaused",
              "type": "bool"
            },
            {
              "internalType": "uint256",
              "name": "startTimeStamp",
              "type": "uint256"
            },
            {
              "internalType": "uint256",
              "name": "endTimeStamp",
              "type": "uint256"
            },
            {
              "internalType": "int256",
              "name": "firstTokenPriceChange",
              "type": "int256"
            },
            {
              "internalType": "int256",
              "name": "secondTokenPriceChange",
              "type": "int256"
            },
            {
              "internalType": "int256",
              "name": "firstTokenPrice",
              "type": "int256"
            },
            {
              "internalType": "int256",
              "name": "secondTokenPrice",
              "type": "int256"
            }
          ],
          "internalType": "struct CryproPairPricePredictionFactory.Rounds",
          "name": "",
          "type": "tuple"
        }
      ],
      "stateMutability": "view",
      "type": "function"
    },
    {
      "inputs": [],
      "name": "getTreauryAmount",
      "outputs": [],
      "stateMutability": "nonpayable",
      "type": "function"
    },
    {
      "inputs": [
        {
          "internalType": "uint256",
          "name": "_pair",
          "type": "uint256"
        }
      ],
      "name": "getUserRounds",
      "outputs": [
        {
          "components": [
            {
              "internalType": "enum CryproPairPricePredictionFactory.TokenSelection",
              "name": "tokenselected",
              "type": "uint8"
            },
            {
              "internalType": "uint256",
              "name": "amount",
              "type": "uint256"
            },
            {
              "internalType": "bool",
              "name": "claim",
              "type": "bool"
            }
          ],
          "internalType": "struct CryproPairPricePredictionFactory.biddingInfo[]",
          "name": "",
          "type": "tuple[]"
        },
        {
          "internalType": "uint256[]",
          "name": "",
          "type": "uint256[]"
        }
      ],
      "stateMutability": "view",
      "type": "function"
    },
    {
      "inputs": [
        {
          "internalType": "uint256",
          "name": "_pairRound",
          "type": "uint256"
        },
        {
          "internalType": "uint256",
          "name": "_pair",
          "type": "uint256"
        }
      ],
      "name": "gettokenPriceChanges",
      "outputs": [
        {
          "internalType": "int256",
          "name": "",
          "type": "int256"
        },
        {
          "internalType": "int256",
          "name": "",
          "type": "int256"
        }
      ],
      "stateMutability": "nonpayable",
      "type": "function"
    },
    {
      "inputs": [],
      "name": "hasRoundEnded",
      "outputs": [
        {
          "internalType": "bool",
          "name": "",
          "type": "bool"
        }
      ],
      "stateMutability": "view",
      "type": "function"
    },
    {
      "inputs": [
        {
          "internalType": "uint256",
          "name": "",
          "type": "uint256"
        }
      ],
      "name": "pairRounds",
      "outputs": [
        {
          "internalType": "uint256",
          "name": "",
          "type": "uint256"
        }
      ],
      "stateMutability": "view",
      "type": "function"
    },
    {
      "inputs": [
        {
          "internalType": "uint256",
          "name": "",
          "type": "uint256"
        },
        {
          "internalType": "uint256",
          "name": "",
          "type": "uint256"
        }
      ],
      "name": "pairs",
      "outputs": [
        {
          "internalType": "contract AggregatorV3Interface",
          "name": "",
          "type": "address"
        }
      ],
      "stateMutability": "view",
      "type": "function"
    },
    {
      "inputs": [
        {
          "internalType": "uint256",
          "name": "pair",
          "type": "uint256"
        }
      ],
      "name": "pause",
      "outputs": [],
      "stateMutability": "nonpayable",
      "type": "function"
    },
    {
      "inputs": [],
      "name": "paused",
      "outputs": [
        {
          "internalType": "bool",
          "name": "",
          "type": "bool"
        }
      ],
      "stateMutability": "view",
      "type": "function"
    },
    {
      "inputs": [
        {
          "internalType": "bytes",
          "name": "performData",
          "type": "bytes"
        }
      ],
      "name": "performUpkeep",
      "outputs": [],
      "stateMutability": "nonpayable",
      "type": "function"
    },
    {
      "inputs": [
        {
          "internalType": "uint256",
          "name": "_pair",
          "type": "uint256"
        }
      ],
      "name": "roundExecution",
      "outputs": [],
      "stateMutability": "nonpayable",
      "type": "function"
    },
    {
      "inputs": [],
      "name": "roundTime",
      "outputs": [
        {
          "internalType": "uint256",
          "name": "",
          "type": "uint256"
        }
      ],
      "stateMutability": "view",
      "type": "function"
    },
    {
      "inputs": [
        {
          "internalType": "uint256",
          "name": "_pairRound",
          "type": "uint256"
        },
        {
          "internalType": "uint256",
          "name": "_pair",
          "type": "uint256"
        }
      ],
      "name": "secondTokenBet",
      "outputs": [],
      "stateMutability": "payable",
      "type": "function"
    },
    {
      "inputs": [
        {
          "internalType": "uint256",
          "name": "_pair",
          "type": "uint256"
        }
      ],
      "name": "startGenesisRoundForThePair",
      "outputs": [],
      "stateMutability": "nonpayable",
      "type": "function"
    },
    {
      "inputs": [],
      "name": "unpause",
      "outputs": [],
      "stateMutability": "nonpayable",
      "type": "function"
    },
    {
      "inputs": [
        {
          "internalType": "uint256",
          "name": "minDeposit",
          "type": "uint256"
        },
        {
          "internalType": "uint256",
          "name": "maxDeposit",
          "type": "uint256"
        }
      ],
      "name": "updateMinMaxDepositAmount",
      "outputs": [],
      "stateMutability": "nonpayable",
      "type": "function"
    },
    {
      "inputs": [
        {
          "internalType": "address",
          "name": "newOwner",
          "type": "address"
        }
      ],
      "name": "updateOwner",
      "outputs": [],
      "stateMutability": "nonpayable",
      "type": "function"
    },
    {
      "inputs": [
        {
          "internalType": "uint256",
          "name": "",
          "type": "uint256"
        },
        {
          "internalType": "uint256",
          "name": "",
          "type": "uint256"
        },
        {
          "internalType": "address",
          "name": "",
          "type": "address"
        }
      ],
      "name": "userRoundBids",
      "outputs": [
        {
          "internalType": "enum CryproPairPricePredictionFactory.TokenSelection",
          "name": "tokenselected",
          "type": "uint8"
        },
        {
          "internalType": "uint256",
          "name": "amount",
          "type": "uint256"
        },
        {
          "internalType": "bool",
          "name": "claim",
          "type": "bool"
        }
      ],
      "stateMutability": "view",
      "type": "function"
    },
    {
      "stateMutability": "payable",
      "type": "receive"
    }
  ],
  "bytecode": "0x60806040523480156200001157600080fd5b506040516200616d3803806200616d8339818101604052810190620000379190620000e4565b60008060006101000a81548160ff0219169083151502179055506001808190555080600260006101000a81548173ffffffffffffffffffffffffffffffffffffffff021916908373ffffffffffffffffffffffffffffffffffffffff16021790555060006003819055506000600681905550607860078190555061012c6008819055506402540be400600481905550506200015e565b600081519050620000de8162000144565b92915050565b600060208284031215620000f757600080fd5b60006200010784828501620000cd565b91505092915050565b60006200011d8262000124565b9050919050565b600073ffffffffffffffffffffffffffffffffffffffff82169050919050565b6200014f8162000110565b81146200015b57600080fd5b50565b615fff806200016e6000396000f3fe6080604052600436106101d15760003560e01c8063880cdc31116100f7578063d411e89911610095578063ee5f8c8f11610064578063ee5f8c8f146106c2578063f55267c6146106ed578063fa0b621114610716578063fa7af1f01461074157610211565b8063d411e899146105f5578063e6ae33891461061e578063e8147a251461065b578063e8bacbb41461068457610211565b8063a468b7c1116100d1578063a468b7c114610547578063b933137f14610585578063c4f8210e146105a1578063ca49a543146105ca57610211565b8063880cdc31146104b65780638a9bb02a146104df5780639cf2ebf51461051c57610211565b8063626a99a81161016f578063719719101161013e578063719719101461043157806375dd50511461044857806377a0de4c1461047157806386bb8f371461049a57610211565b8063626a99a814610364578063675b4ef11461038d5780636cda375b146103ca5780636e04ff0d146103f357610211565b80631ecc82b7116101ab5780631ecc82b7146102bb5780633f4ba83a146102f95780634585e33b146103105780635c975abb1461033957610211565b80630364ad7314610216578063121e190814610255578063136439dd1461029257610211565b36610211577f88a5966d370b9919b20f3e2c13ff65706f196a4e32cc2c12bf57088f885258743334604051610207929190614f4f565b60405180910390a1005b600080fd5b34801561022257600080fd5b5061023d600480360381019061023891906145af565b61075d565b60405161024c93929190615059565b60405180910390f35b34801561026157600080fd5b5061027c6004803603810190610277919061454a565b6107bb565b6040516102899190615375565b60405180910390f35b34801561029e57600080fd5b506102b960048036038101906102b4919061454a565b6107d3565b005b3480156102c757600080fd5b506102e260048036038101906102dd9190614573565b610aa2565b6040516102f0929190615090565b60405180910390f35b34801561030557600080fd5b5061030e610bed565b005b34801561031c57600080fd5b5061033760048036038101906103329190614505565b610d57565b005b34801561034557600080fd5b5061034e610e22565b60405161035b9190614ff3565b60405180910390f35b34801561037057600080fd5b5061038b6004803603810190610386919061454a565b610e38565b005b34801561039957600080fd5b506103b460048036038101906103af9190614573565b610ed2565b6040516103c1919061503e565b60405180910390f35b3480156103d657600080fd5b506103f160048036038101906103ec919061454a565b610f17565b005b3480156103ff57600080fd5b5061041a60048036038101906104159190614505565b610fea565b60405161042892919061500e565b60405180910390f35b34801561043d57600080fd5b506104466111ac565b005b34801561045457600080fd5b5061046f600480360381019061046a9190614423565b61129f565b005b34801561047d57600080fd5b5061049860048036038101906104939190614573565b611469565b005b6104b460048036038101906104af9190614573565b61150b565b005b3480156104c257600080fd5b506104dd60048036038101906104d891906143fa565b611c6b565b005b3480156104eb57600080fd5b5061050660048036038101906105019190614573565b611d3f565b6040516105139190615359565b60405180910390f35b34801561052857600080fd5b50610531611e6d565b60405161053e9190615375565b60405180910390f35b34801561055357600080fd5b5061056e600480360381019061056991906144dc565b611e77565b60405161057c929190615090565b60405180910390f35b61059f600480360381019061059a9190614573565b61200f565b005b3480156105ad57600080fd5b506105c860048036038101906105c3919061445f565b61267d565b005b3480156105d657600080fd5b506105df61272e565b6040516105ec9190615375565b60405180910390f35b34801561060157600080fd5b5061061c6004803603810190610617919061454a565b612736565b005b34801561062a57600080fd5b5061064560048036038101906106409190614573565b6128ed565b6040516106529190614f9a565b60405180910390f35b34801561066757600080fd5b50610682600480360381019061067d919061454a565b612b32565b005b34801561069057600080fd5b506106ab60048036038101906106a6919061454a565b612bcc565b6040516106b9929190614fbc565b60405180910390f35b3480156106ce57600080fd5b506106d7612ebf565b6040516106e49190615375565b60405180910390f35b3480156106f957600080fd5b50610714600480360381019061070f919061454a565b612ec5565b005b34801561072257600080fd5b5061072b6130b0565b6040516107389190614ff3565b60405180910390f35b61075b60048036038101906107569190614573565b613107565b005b600c60205282600052604060002060205281600052604060002060205280600052604060002060009250925050508060000160009054906101000a900460ff16908060010154908060020160009054906101000a900460ff16905083565b600a6020528060005260406000206000915090505481565b6107db610e22565b1561081b576040517f08c379a0000000000000000000000000000000000000000000000000000000008152600401610812906151d9565b60405180910390fd5b3373ffffffffffffffffffffffffffffffffffffffff16600260009054906101000a900473ffffffffffffffffffffffffffffffffffffffff1673ffffffffffffffffffffffffffffffffffffffff16146108ab576040517f08c379a00000000000000000000000000000000000000000000000000000000081526004016108a290615159565b60405180910390fd5b6000600190505b6003548111610a5f576000600a60008381526020019081526020016000205490506001600e6000848152602001908152602001600020600083815260200190815260200160002060070160036101000a81548160ff0219169083151502179055506000600e60008481526020019081526020016000206000838152602001908152602001600020600901819055506001600e6000848152602001908152602001600020600083815260200190815260200160002060070160016101000a81548160ff021916908315150217905550600e600083815260200190815260200160002060006001836109a291906158be565b815260200190815260200160002060070160019054906101000a900460ff16610a4b576000600e600084815260200190815260200160002060006001846109e991906158be565b8152602001908152602001600020600901819055506001600e60008481526020019081526020016000206000600184610a2291906158be565b815260200190815260200160002060070160016101000a81548160ff0219169083151502179055505b508080610a5790615a43565b9150506108b2565b50610a68613775565b7f68b095021b1f40fe513109f513c66692f0b3219aee674a69f4efc57badb8201d81604051610a979190615375565b60405180910390a150565b600080600080610b3560096000878152602001908152602001600020600280602002604051908101604052809291908260028015610b2b576020028201915b8160009054906101000a900473ffffffffffffffffffffffffffffffffffffffff1673ffffffffffffffffffffffffffffffffffffffff1681526020019060010190808311610ae1575b5050505050611e77565b915091506000610b6c600e60008881526020019081526020016000206000898152602001908152602001600020600c015484613817565b90506000610ba1600e600089815260200190815260200160002060008a8152602001908152602001600020600d015484613817565b90507fa4393d92bc1fa01e1edb65f571aba9ce960fcadf3ddc9493d63a31e43f532f2f8484604051610bd4929190615090565b60405180910390a1818195509550505050509250929050565b610bf5610e22565b610c34576040517f08c379a0000000000000000000000000000000000000000000000000000000008152600401610c2b906150b9565b60405180910390fd5b3373ffffffffffffffffffffffffffffffffffffffff16600260009054906101000a900473ffffffffffffffffffffffffffffffffffffffff1673ffffffffffffffffffffffffffffffffffffffff1614610cc4576040517f08c379a0000000000000000000000000000000000000000000000000000000008152600401610cbb90615159565b60405180910390fd5b6000600190505b6003548111610d13576000600b600083815260200190815260200160002060006101000a81548160ff0219169083151502179055508080610d0b90615a43565b915050610ccb565b50610d1c61387d565b7faaa520fdd7d2c83061d632fa017b0432407e798818af63ea908589fceda39ab7600354604051610d4d9190615375565b60405180910390a1565b60008282810190610d68919061449b565b905060005b8151811015610e1c57818181518110610daf577f4e487b7100000000000000000000000000000000000000000000000000000000600052603260045260246000fd5b602002602001015115610e0957610dd1600182610dcc91906155c8565b612736565b7f3566bc4681c58794a7a75f59d0a364e562b68c20c2b414857356c4137c8ad49581604051610e009190615375565b60405180910390a15b8080610e1490615a43565b915050610d6d565b50505050565b60008060009054906101000a900460ff16905090565b3373ffffffffffffffffffffffffffffffffffffffff16600260009054906101000a900473ffffffffffffffffffffffffffffffffffffffff1673ffffffffffffffffffffffffffffffffffffffff1614610ec8576040517f08c379a0000000000000000000000000000000000000000000000000000000008152600401610ebf90615159565b60405180910390fd5b8060088190555050565b60096020528160005260406000208160028110610eee57600080fd5b016000915091509054906101000a900473ffffffffffffffffffffffffffffffffffffffff1681565b3373ffffffffffffffffffffffffffffffffffffffff16600260009054906101000a900473ffffffffffffffffffffffffffffffffffffffff1673ffffffffffffffffffffffffffffffffffffffff1614610fa7576040517f08c379a0000000000000000000000000000000000000000000000000000000008152600401610f9e90615159565b60405180910390fd5b806007819055507f3dda580d2b9d92da338ef46ec718e7b1dd0a2c505e3df4aa8d40360192a0f822600754604051610fdf9190615375565b60405180910390a150565b60006060600060035467ffffffffffffffff811115611032577f4e487b7100000000000000000000000000000000000000000000000000000000600052604160045260246000fd5b6040519080825280602002602001820160405280156110605781602001602082028036833780820191505090505b50905060005b6003548110156111815742600e600060018461108291906155c8565b815260200190815260200160002060006001600a60006001876110a591906155c8565b8152602001908152602001600020546110be91906158be565b8152602001908152602001600020600901541082828151811061110a577f4e487b7100000000000000000000000000000000000000000000000000000000600052603260045260246000fd5b60200260200101901515908115158152505060011515828281518110611159577f4e487b7100000000000000000000000000000000000000000000000000000000600052603260045260246000fd5b60200260200101511515141561116e57600193505b808061117990615a43565b915050611066565b50806040516020016111939190614f78565b6040516020818303038152906040529150509250929050565b3373ffffffffffffffffffffffffffffffffffffffff16600260009054906101000a900473ffffffffffffffffffffffffffffffffffffffff1673ffffffffffffffffffffffffffffffffffffffff161461123c576040517f08c379a000000000000000000000000000000000000000000000000000000000815260040161123390615159565b60405180910390fd5b60026001541415611282576040517f08c379a000000000000000000000000000000000000000000000000000000000815260040161127990615339565b60405180910390fd5b60026001819055506112963360065461267d565b60018081905550565b3373ffffffffffffffffffffffffffffffffffffffff16600260009054906101000a900473ffffffffffffffffffffffffffffffffffffffff1673ffffffffffffffffffffffffffffffffffffffff161461132f576040517f08c379a000000000000000000000000000000000000000000000000000000000815260040161132690615159565b60405180910390fd5b60016003600082825461134291906155c8565b9250508190555081600960006003548152602001908152602001600020600060028110611398577f4e487b7100000000000000000000000000000000000000000000000000000000600052603260045260246000fd5b0160006101000a81548173ffffffffffffffffffffffffffffffffffffffff021916908373ffffffffffffffffffffffffffffffffffffffff16021790555080600960006003548152602001908152602001600020600160028110611426577f4e487b7100000000000000000000000000000000000000000000000000000000600052603260045260246000fd5b0160006101000a81548173ffffffffffffffffffffffffffffffffffffffff021916908373ffffffffffffffffffffffffffffffffffffffff1602179055505050565b3373ffffffffffffffffffffffffffffffffffffffff16600260009054906101000a900473ffffffffffffffffffffffffffffffffffffffff1673ffffffffffffffffffffffffffffffffffffffff16146114f9576040517f08c379a00000000000000000000000000000000000000000000000000000000081526004016114f090615159565b60405180910390fd5b81600481905550806005819055505050565b6115143361391e565b15611554576040517f08c379a000000000000000000000000000000000000000000000000000000000815260040161154b90615139565b60405180910390fd5b3273ffffffffffffffffffffffffffffffffffffffff163373ffffffffffffffffffffffffffffffffffffffff16146115c2576040517f08c379a00000000000000000000000000000000000000000000000000000000081526004016115b990615239565b60405180910390fd5b60026001541415611608576040517f08c379a00000000000000000000000000000000000000000000000000000000081526004016115ff90615339565b60405180910390fd5b600260018190555060011515600e6000838152602001908152602001600020600084815260200190815260200160002060070160019054906101000a900460ff1615151461168b576040517f08c379a0000000000000000000000000000000000000000000000000000000008152600401611682906151b9565b60405180910390fd5b6000600e6000838152602001908152602001600020600084815260200190815260200160002060040154116116f5576040517f08c379a00000000000000000000000000000000000000000000000000000000081526004016116ec906152d9565b60405180910390fd5b60001515600c6000838152602001908152602001600020600084815260200190815260200160002060003373ffffffffffffffffffffffffffffffffffffffff1673ffffffffffffffffffffffffffffffffffffffff16815260200190815260200160002060020160009054906101000a900460ff161515146117ad576040517f08c379a00000000000000000000000000000000000000000000000000000000081526004016117a490615259565b60405180910390fd5b6000600e6000838152602001908152602001600020600084815260200190815260200160002060405180610220016040529081600082015481526020016001820154815260200160028201548152602001600382015481526020016004820154815260200160058201548152602001600682015481526020016007820160009054906101000a900460ff161515151581526020016007820160019054906101000a900460ff161515151581526020016007820160029054906101000a900460ff161515151581526020016007820160039054906101000a900460ff161515151581526020016008820154815260200160098201548152602001600a8201548152602001600b8201548152602001600c8201548152602001600d820154815250509050806101c00151816101a001511380156119c957506000600181111561191d577f4e487b7100000000000000000000000000000000000000000000000000000000600052602160045260246000fd5b600c6000848152602001908152602001600020600085815260200190815260200160002060003373ffffffffffffffffffffffffffffffffffffffff1673ffffffffffffffffffffffffffffffffffffffff16815260200190815260200160002060000160009054906101000a900460ff1660018111156119c7577f4e487b7100000000000000000000000000000000000000000000000000000000600052602160045260246000fd5b145b80611ac95750806101c00151816101a00151128015611ac85750600180811115611a1c577f4e487b7100000000000000000000000000000000000000000000000000000000600052602160045260246000fd5b600c6000848152602001908152602001600020600085815260200190815260200160002060003373ffffffffffffffffffffffffffffffffffffffff1673ffffffffffffffffffffffffffffffffffffffff16815260200190815260200160002060000160009054906101000a900460ff166001811115611ac6577f4e487b7100000000000000000000000000000000000000000000000000000000600052602160045260246000fd5b145b5b611b08576040517f08c379a0000000000000000000000000000000000000000000000000000000008152600401611aff90615299565b60405180910390fd5b8060a001518160800151600c6000858152602001908152602001600020600086815260200190815260200160002060003373ffffffffffffffffffffffffffffffffffffffff1673ffffffffffffffffffffffffffffffffffffffff16815260200190815260200160002060010154611b8191906157d0565b611b8b9190615688565b600f819055506001600c6000848152602001908152602001600020600085815260200190815260200160002060003373ffffffffffffffffffffffffffffffffffffffff1673ffffffffffffffffffffffffffffffffffffffff16815260200190815260200160002060020160006101000a81548160ff0219169083151502179055506000600f541115611c5f57611c2533600f5461267d565b7f7bb2b3c10797baccb6f8c4791f1edd6ca2f0d028ee0eda64b01a9a57e3a653f7600f54604051611c569190615375565b60405180910390a15b50600180819055505050565b3373ffffffffffffffffffffffffffffffffffffffff16600260009054906101000a900473ffffffffffffffffffffffffffffffffffffffff1673ffffffffffffffffffffffffffffffffffffffff1614611cfb576040517f08c379a0000000000000000000000000000000000000000000000000000000008152600401611cf290615159565b60405180910390fd5b80600260006101000a81548173ffffffffffffffffffffffffffffffffffffffff021916908373ffffffffffffffffffffffffffffffffffffffff16021790555050565b611d47614116565b600e6000838152602001908152602001600020600084815260200190815260200160002060405180610220016040529081600082015481526020016001820154815260200160028201548152602001600382015481526020016004820154815260200160058201548152602001600682015481526020016007820160009054906101000a900460ff161515151581526020016007820160019054906101000a900460ff161515151581526020016007820160029054906101000a900460ff161515151581526020016007820160039054906101000a900460ff161515151581526020016008820154815260200160098201548152602001600a8201548152602001600b8201548152602001600c8201548152602001600d82015481525050905092915050565b6000600354905090565b600080600083600060028110611eb6577f4e487b7100000000000000000000000000000000000000000000000000000000600052603260045260246000fd5b602002015173ffffffffffffffffffffffffffffffffffffffff1663feaf968c6040518163ffffffff1660e01b815260040160a06040518083038186803b158015611f0057600080fd5b505afa158015611f14573d6000803e3d6000fd5b505050506040513d601f19601f82011682018060405250810190611f3891906145fe565b505050915050600084600160028110611f7a577f4e487b7100000000000000000000000000000000000000000000000000000000600052603260045260246000fd5b602002015173ffffffffffffffffffffffffffffffffffffffff1663feaf968c6040518163ffffffff1660e01b815260040160a06040518083038186803b158015611fc457600080fd5b505afa158015611fd8573d6000803e3d6000fd5b505050506040513d601f19601f82011682018060405250810190611ffc91906145fe565b5050509150508181935093505050915091565b612017610e22565b15612057576040517f08c379a000000000000000000000000000000000000000000000000000000000815260040161204e906151d9565b60405180910390fd5b818160011515600e6000838152602001908152602001600020600084815260200190815260200160002060070160009054906101000a900460ff161515146120d4576040517f08c379a00000000000000000000000000000000000000000000000000000000081526004016120cb906152f9565b60405180910390fd5b60001515600e6000838152602001908152602001600020600084815260200190815260200160002060070160019054906101000a900460ff1615151461214f576040517f08c379a0000000000000000000000000000000000000000000000000000000008152600401612146906151b9565b60405180910390fd5b60001515600e6000838152602001908152602001600020600084815260200190815260200160002060070160029054906101000a900460ff161515146121ca576040517f08c379a00000000000000000000000000000000000000000000000000000000081526004016121c1906151f9565b60405180910390fd5b60045434101561220f576040517f08c379a000000000000000000000000000000000000000000000000000000000815260040161220690615119565b60405180910390fd5b6000600c6000838152602001908152602001600020600084815260200190815260200160002060003373ffffffffffffffffffffffffffffffffffffffff1673ffffffffffffffffffffffffffffffffffffffff16815260200190815260200160002060010154146122b6576040517f08c379a00000000000000000000000000000000000000000000000000000000081526004016122ad90615219565b60405180910390fd5b42600e60008381526020019081526020016000206000848152602001908152602001600020600901541015612320576040517f08c379a000000000000000000000000000000000000000000000000000000000815260040161231790615279565b60405180910390fd5b6123293361391e565b15612369576040517f08c379a000000000000000000000000000000000000000000000000000000000815260040161236090615139565b60405180910390fd5b3273ffffffffffffffffffffffffffffffffffffffff163373ffffffffffffffffffffffffffffffffffffffff16146123d7576040517f08c379a00000000000000000000000000000000000000000000000000000000081526004016123ce90615239565b60405180910390fd5b6002600154141561241d576040517f08c379a000000000000000000000000000000000000000000000000000000000815260040161241490615339565b60405180910390fd5b600260018190555034600c6000858152602001908152602001600020600086815260200190815260200160002060003373ffffffffffffffffffffffffffffffffffffffff1673ffffffffffffffffffffffffffffffffffffffff168152602001908152602001600020600101819055506000600c6000858152602001908152602001600020600086815260200190815260200160002060003373ffffffffffffffffffffffffffffffffffffffff1673ffffffffffffffffffffffffffffffffffffffff16815260200190815260200160002060000160006101000a81548160ff0219169083600181111561253c577f4e487b7100000000000000000000000000000000000000000000000000000000600052602160045260246000fd5b021790555034600e60008581526020019081526020016000206000868152602001908152602001600020600101600082825461257891906155c8565b9250508190555034600e6000858152602001908152602001600020600086815260200190815260200160002060020160008282546125b691906155c8565b92505081905550600d600084815260200190815260200160002060003373ffffffffffffffffffffffffffffffffffffffff1673ffffffffffffffffffffffffffffffffffffffff1681526020019081526020016000208490806001815401808255809150506001900390600052602060002001600090919091909150557f56ea381aee88f7d7cedf22b5e448fc9586f8a198f6a3767b87a0ec31f7667d8683346000604051612668939291906153b9565b60405180910390a16001808190555050505050565b60008273ffffffffffffffffffffffffffffffffffffffff16826040516126a390614f1f565b60006040518083038185875af1925050503d80600081146126e0576040519150601f19603f3d011682016040523d82523d6000602084013e6126e5565b606091505b5050905080612729576040517f08c379a0000000000000000000000000000000000000000000000000000000008152600401612720906150d9565b60405180910390fd5b505050565b600042905090565b61273e610e22565b1561277e576040517f08c379a0000000000000000000000000000000000000000000000000000000008152600401612775906151d9565b60405180910390fd5b60011515600b600083815260200190815260200160002060009054906101000a900460ff161515146127e5576040517f08c379a00000000000000000000000000000000000000000000000000000000081526004016127dc906152b9565b60405180910390fd5b6000600a600083815260200190815260200160002054905061281360018261280d91906158be565b83613931565b6001600e6000848152602001908152602001600020600083815260200190815260200160002060070160026101000a81548160ff02191690831515021790555061286960018261286391906155c8565b83613bcb565b6001600a6000848152602001908152602001600020600082825461288d91906155c8565b925050819055507fb352bf6cd71f52e0afa92233b39b67b5b88f33595d886578f9c323dbd6997dd782826001846128c491906158be565b6001856128d191906155c8565b6040516128e194939291906153f0565b60405180910390a15050565b60606000600a60008581526020019081526020016000205490506000808467ffffffffffffffff81111561294a577f4e487b7100000000000000000000000000000000000000000000000000000000600052604160045260246000fd5b60405190808252806020026020018201604052801561298357816020015b612970614116565b8152602001906001900390816129685790505b50905060008390505b6000811115612b25578583106129a157612b25565b600e6000888152602001908152602001600020600082815260200190815260200160002060405180610220016040529081600082015481526020016001820154815260200160028201548152602001600382015481526020016004820154815260200160058201548152602001600682015481526020016007820160009054906101000a900460ff161515151581526020016007820160019054906101000a900460ff161515151581526020016007820160029054906101000a900460ff161515151581526020016007820160039054906101000a900460ff161515151581526020016008820154815260200160098201548152602001600a8201548152602001600b8201548152602001600c8201548152602001600d82015481525050828481518110612af8577f4e487b7100000000000000000000000000000000000000000000000000000000600052603260045260246000fd5b6020026020010181905250600183612b1091906155c8565b92508080612b1d906159e8565b91505061298c565b5080935050505092915050565b3373ffffffffffffffffffffffffffffffffffffffff16600260009054906101000a900473ffffffffffffffffffffffffffffffffffffffff1673ffffffffffffffffffffffffffffffffffffffff1614612bc2576040517f08c379a0000000000000000000000000000000000000000000000000000000008152600401612bb990615159565b60405180910390fd5b8060048190555050565b6060806000600d600085815260200190815260200160002060003373ffffffffffffffffffffffffffffffffffffffff1673ffffffffffffffffffffffffffffffffffffffff168152602001908152602001600020805480602002602001604051908101604052809291908181526020018280548015612c6b57602002820191906000526020600020905b815481526020019060010190808311612c57575b5050505050905060008151905060008167ffffffffffffffff811115612cba577f4e487b7100000000000000000000000000000000000000000000000000000000600052604160045260246000fd5b604051908082528060200260200182016040528015612cf357816020015b612ce06141a2565b815260200190600190039081612cd85790505b50905060005b82811015612eb057600c60008881526020019081526020016000206000858381518110612d4f577f4e487b7100000000000000000000000000000000000000000000000000000000600052603260045260246000fd5b6020026020010151815260200190815260200160002060003373ffffffffffffffffffffffffffffffffffffffff1673ffffffffffffffffffffffffffffffffffffffff1681526020019081526020016000206040518060600160405290816000820160009054906101000a900460ff166001811115612df8577f4e487b7100000000000000000000000000000000000000000000000000000000600052602160045260246000fd5b6001811115612e30577f4e487b7100000000000000000000000000000000000000000000000000000000600052602160045260246000fd5b8152602001600182015481526020016002820160009054906101000a900460ff161515151581525050828281518110612e92577f4e487b7100000000000000000000000000000000000000000000000000000000600052603260045260246000fd5b60200260200101819052508080612ea890615a43565b915050612cf9565b50808394509450505050915091565b60085481565b612ecd610e22565b15612f0d576040517f08c379a0000000000000000000000000000000000000000000000000000000008152600401612f04906151d9565b60405180910390fd5b3373ffffffffffffffffffffffffffffffffffffffff16600260009054906101000a900473ffffffffffffffffffffffffffffffffffffffff1673ffffffffffffffffffffffffffffffffffffffff1614612f9d576040517f08c379a0000000000000000000000000000000000000000000000000000000008152600401612f9490615159565b60405180910390fd5b60001515600b600083815260200190815260200160002060009054906101000a900460ff16151514613004576040517f08c379a0000000000000000000000000000000000000000000000000000000008152600401612ffb90615319565b60405180910390fd5b60006001600a60008481526020019081526020016000205461302691906155c8565b90506130328183613bcb565b6001600e6000848152602001908152602001600020600083815260200190815260200160002060070160026101000a81548160ff02191690831515021790555060018161307f91906155c8565b600a6000848152602001908152602001600020819055506130ac6001826130a691906155c8565b83613bcb565b5050565b60008042600e60006001815260200190815260200160002060006001600a600060018152602001908152602001600020546130eb91906158be565b8152602001908152602001600020600901541090508091505090565b61310f610e22565b1561314f576040517f08c379a0000000000000000000000000000000000000000000000000000000008152600401613146906151d9565b60405180910390fd5b818160011515600e6000838152602001908152602001600020600084815260200190815260200160002060070160009054906101000a900460ff161515146131cc576040517f08c379a00000000000000000000000000000000000000000000000000000000081526004016131c3906152f9565b60405180910390fd5b60001515600e6000838152602001908152602001600020600084815260200190815260200160002060070160019054906101000a900460ff16151514613247576040517f08c379a000000000000000000000000000000000000000000000000000000000815260040161323e906151b9565b60405180910390fd5b60001515600e6000838152602001908152602001600020600084815260200190815260200160002060070160029054906101000a900460ff161515146132c2576040517f08c379a00000000000000000000000000000000000000000000000000000000081526004016132b9906151f9565b60405180910390fd5b600454341015613307576040517f08c379a00000000000000000000000000000000000000000000000000000000081526004016132fe90615119565b60405180910390fd5b6000600c6000838152602001908152602001600020600084815260200190815260200160002060003373ffffffffffffffffffffffffffffffffffffffff1673ffffffffffffffffffffffffffffffffffffffff16815260200190815260200160002060010154146133ae576040517f08c379a00000000000000000000000000000000000000000000000000000000081526004016133a590615219565b60405180910390fd5b42600e60008381526020019081526020016000206000848152602001908152602001600020600901541015613418576040517f08c379a000000000000000000000000000000000000000000000000000000000815260040161340f90615279565b60405180910390fd5b6134213361391e565b15613461576040517f08c379a000000000000000000000000000000000000000000000000000000000815260040161345890615139565b60405180910390fd5b3273ffffffffffffffffffffffffffffffffffffffff163373ffffffffffffffffffffffffffffffffffffffff16146134cf576040517f08c379a00000000000000000000000000000000000000000000000000000000081526004016134c690615239565b60405180910390fd5b60026001541415613515576040517f08c379a000000000000000000000000000000000000000000000000000000000815260040161350c90615339565b60405180910390fd5b600260018190555034600c6000858152602001908152602001600020600086815260200190815260200160002060003373ffffffffffffffffffffffffffffffffffffffff1673ffffffffffffffffffffffffffffffffffffffff168152602001908152602001600020600101819055506001600c6000858152602001908152602001600020600086815260200190815260200160002060003373ffffffffffffffffffffffffffffffffffffffff1673ffffffffffffffffffffffffffffffffffffffff16815260200190815260200160002060000160006101000a81548160ff02191690836001811115613634577f4e487b7100000000000000000000000000000000000000000000000000000000600052602160045260246000fd5b021790555034600e60008581526020019081526020016000206000868152602001908152602001600020600101600082825461367091906155c8565b9250508190555034600e6000858152602001908152602001600020600086815260200190815260200160002060030160008282546136ae91906155c8565b92505081905550600d600084815260200190815260200160002060003373ffffffffffffffffffffffffffffffffffffffff1673ffffffffffffffffffffffffffffffffffffffff1681526020019081526020016000208490806001815401808255809150506001900390600052602060002001600090919091909150557f56ea381aee88f7d7cedf22b5e448fc9586f8a198f6a3767b87a0ec31f7667d8683346001604051613760939291906153b9565b60405180910390a16001808190555050505050565b61377d610e22565b156137bd576040517f08c379a00000000000000000000000000000000000000000000000000000000081526004016137b4906151d9565b60405180910390fd5b60016000806101000a81548160ff0219169083151502179055507f62e78cea01bee320cd4e420270b5ea74000d11b0c9f74754ebdbfc544b05a258613800613e6a565b60405161380d9190614f34565b60405180910390a1565b60008183131561384e57826305f5e1008385613833919061582a565b61383d91906156b9565b613847919061561e565b9050613877565b826305f5e1008484613860919061582a565b61386a91906156b9565b613874919061561e565b90505b92915050565b613885610e22565b6138c4576040517f08c379a00000000000000000000000000000000000000000000000000000000081526004016138bb906150b9565b60405180910390fd5b60008060006101000a81548160ff0219169083151502179055507f5db9ee0a495bf2e6ff9c91a7834c1ba4fdd244a5e8aa4e537bd38aeae4b073aa613907613e6a565b6040516139149190614f34565b60405180910390a1565b600080823b905060008111915050919050565b60011515600b600083815260200190815260200160002060009054906101000a900460ff16151514613998576040517f08c379a000000000000000000000000000000000000000000000000000000000815260040161398f906152b9565b60405180910390fd5b60001515600e6000838152602001908152602001600020600084815260200190815260200160002060070160019054906101000a900460ff16151514613a13576040517f08c379a0000000000000000000000000000000000000000000000000000000008152600401613a0a906150f9565b60405180910390fd5b6000600e600083815260200190815260200160002060008481526020019081526020016000206008015411613a7d576040517f08c379a0000000000000000000000000000000000000000000000000000000008152600401613a74906152f9565b60405180910390fd5b42600e600083815260200190815260200160002060008481526020019081526020016000206009015410613ae6576040517f08c379a0000000000000000000000000000000000000000000000000000000008152600401613add906151b9565b60405180910390fd5b6001600e6000838152602001908152602001600020600084815260200190815260200160002060070160016101000a81548160ff021916908315150217905550620f82ee600e60008381526020019081526020016000206000848152602001908152602001600020600a01819055506213ee89600e60008381526020019081526020016000206000848152602001908152602001600020600b0181905550613b8e8282613e72565b7f3de62ea950fc2ed1ed823bb23086296729e73cdd05823251b76e36665ff267b58282604051613bbf929190615390565b60405180910390a15050565b60001515600e6000838152602001908152602001600020600084815260200190815260200160002060070160009054906101000a900460ff16151514613c46576040517f08c379a0000000000000000000000000000000000000000000000000000000008152600401613c3d90615179565b60405180910390fd5b6001600e6000838152602001908152602001600020600084815260200190815260200160002060070160006101000a81548160ff021916908315150217905550600080613d1660096000858152602001908152602001600020600280602002604051908101604052809291908260028015613d0c576020028201915b8160009054906101000a900473ffffffffffffffffffffffffffffffffffffffff1673ffffffffffffffffffffffffffffffffffffffff1681526020019060010190808311613cc2575b5050505050611e77565b9150915082600e600085815260200190815260200160002060008681526020019081526020016000206000018190555083600e600085815260200190815260200160002060008681526020019081526020016000206006018190555042600e6000858152602001908152602001600020600086815260200190815260200160002060080181905550613da8848461405d565b600e600085815260200190815260200160002060008681526020019081526020016000206009018190555081600e60008581526020019081526020016000206000868152602001908152602001600020600c018190555080600e60008581526020019081526020016000206000868152602001908152602001600020600d01819055507f0e5543feb86a4cd302f2b88b26c42be2d1673013a34e1f98bd6d524dd3b4ab418484604051613e5c929190615390565b60405180910390a150505050565b600033905090565b6000600e6000838152602001908152602001600020600084815260200190815260200160002060050154148015613ed057506000600e6000838152602001908152602001600020600084815260200190815260200160002060040154145b613f0f576040517f08c379a0000000000000000000000000000000000000000000000000000000008152600401613f0690615199565b60405180910390fd5b6000600e60008381526020019081526020016000206000848152602001908152602001600020905080600b015481600a01541315613fae5760006127106007548360010154613f5e91906157d0565b613f689190615688565b905081600201548260050181905550808260010154613f8791906158be565b82600401819055508060066000828254613fa191906155c8565b9250508190555050614058565b80600b015481600a015412156140255760006127106007548360010154613fd591906157d0565b613fdf9190615688565b905081600301548260050181905550808260010154613ffe91906158be565b8260040181905550806006600082825461401891906155c8565b9250508190555050614057565b600081600501819055506000816004018190555080600101546006600082825461404f91906155c8565b925050819055505b5b505050565b6000801515600b600084815260200190815260200160002060009054906101000a900460ff16151514156140cc576001600b600084815260200190815260200160002060006101000a81548160ff021916908315150217905550600854426140c591906155c8565b9050614110565b600854600e600084815260200190815260200160002060006001866140f191906158be565b81526020019081526020016000206009015461410d91906155c8565b90505b92915050565b604051806102200160405280600081526020016000815260200160008152602001600081526020016000815260200160008152602001600081526020016000151581526020016000151581526020016000151581526020016000151581526020016000815260200160008152602001600081526020016000815260200160008152602001600081525090565b6040518060600160405280600060018111156141e7577f4e487b7100000000000000000000000000000000000000000000000000000000600052602160045260246000fd5b8152602001600081526020016000151581525090565b600061421061420b8461545a565b615435565b9050808382526020820190508285602086028201111561422f57600080fd5b60005b8581101561425f57816142458882614332565b845260208401935060208301925050600181019050614232565b5050509392505050565b600061427c61427784615486565b615435565b9050808285602086028201111561429257600080fd5b60005b858110156142c257816142a88882614391565b845260208401935060208301925050600181019050614295565b5050509392505050565b6000813590506142db81615f3f565b92915050565b600082601f8301126142f257600080fd5b81356143028482602086016141fd565b91505092915050565b600082601f83011261431c57600080fd5b6002614329848285614269565b91505092915050565b60008135905061434181615f56565b92915050565b60008083601f84011261435957600080fd5b8235905067ffffffffffffffff81111561437257600080fd5b60208301915083600182028301111561438a57600080fd5b9250929050565b6000813590506143a081615f6d565b92915050565b6000815190506143b581615f84565b92915050565b6000813590506143ca81615f9b565b92915050565b6000815190506143df81615f9b565b92915050565b6000815190506143f481615fb2565b92915050565b60006020828403121561440c57600080fd5b600061441a848285016142cc565b91505092915050565b6000806040838503121561443657600080fd5b6000614444858286016142cc565b9250506020614455858286016142cc565b9150509250929050565b6000806040838503121561447257600080fd5b6000614480858286016142cc565b9250506020614491858286016143bb565b9150509250929050565b6000602082840312156144ad57600080fd5b600082013567ffffffffffffffff8111156144c757600080fd5b6144d3848285016142e1565b91505092915050565b6000604082840312156144ee57600080fd5b60006144fc8482850161430b565b91505092915050565b6000806020838503121561451857600080fd5b600083013567ffffffffffffffff81111561453257600080fd5b61453e85828601614347565b92509250509250929050565b60006020828403121561455c57600080fd5b600061456a848285016143bb565b91505092915050565b6000806040838503121561458657600080fd5b6000614594858286016143bb565b92505060206145a5858286016143bb565b9150509250929050565b6000806000606084860312156145c457600080fd5b60006145d2868287016143bb565b93505060206145e3868287016143bb565b92505060406145f4868287016142cc565b9150509250925092565b600080600080600060a0868803121561461657600080fd5b6000614624888289016143e5565b9550506020614635888289016143a6565b9450506040614646888289016143d0565b9350506060614657888289016143d0565b9250506080614668888289016143e5565b9150509295509295909350565b6000614681838361485d565b60208301905092915050565b60006146998383614c01565b6102208301905092915050565b60006146b28383614ebf565b60608301905092915050565b60006146ca8383614f01565b60208301905092915050565b6146df816158f2565b82525050565b60006146f0826154ec565b6146fa8185615557565b9350614705836154ac565b8060005b8381101561473657815161471d8882614675565b975061472883615523565b925050600181019050614709565b5085935050505092915050565b600061474e826154f7565b6147588185615568565b9350614763836154bc565b8060005b8381101561479457815161477b888261468d565b975061478683615530565b925050600181019050614767565b5085935050505092915050565b60006147ac82615502565b6147b68185615579565b93506147c1836154cc565b8060005b838110156147f25781516147d988826146a6565b97506147e48361553d565b9250506001810190506147c5565b5085935050505092915050565b600061480a8261550d565b614814818561558a565b935061481f836154dc565b8060005b8381101561485057815161483788826146be565b97506148428361554a565b925050600181019050614823565b5085935050505092915050565b61486681615904565b82525050565b61487581615904565b82525050565b600061488682615518565b614890818561559b565b93506148a08185602086016159b5565b6148a981615b48565b840191505092915050565b6148bd8161597f565b82525050565b6148cc816159a3565b82525050565b6148db816159a3565b82525050565b6148ea81615935565b82525050565b6148f981615935565b82525050565b600061490c6014836155b7565b915061491782615b59565b602082019050919050565b600061492f600f836155b7565b915061493a82615b82565b602082019050919050565b60006149526017836155b7565b915061495d82615bab565b602082019050919050565b60006149756015836155b7565b915061498082615bd4565b602082019050919050565b60006149986014836155b7565b91506149a382615bfd565b602082019050919050565b60006149bb600c836155b7565b91506149c682615c26565b602082019050919050565b60006149de601e836155b7565b91506149e982615c4f565b602082019050919050565b6000614a016012836155b7565b9150614a0c82615c78565b602082019050919050565b6000614a246013836155b7565b9150614a2f82615ca1565b602082019050919050565b6000614a476010836155b7565b9150614a5282615cca565b602082019050919050565b6000614a6a600f836155b7565b9150614a7582615cf3565b602082019050919050565b6000614a8d601b836155b7565b9150614a9882615d1c565b602082019050919050565b6000614ab0601a836155b7565b9150614abb82615d45565b602082019050919050565b6000614ad3600f836155b7565b9150614ade82615d6e565b602082019050919050565b6000614af66014836155b7565b9150614b0182615d97565b602082019050919050565b6000614b19600c836155b7565b9150614b2482615dc0565b602082019050919050565b6000614b3c601d836155b7565b9150614b4782615de9565b602082019050919050565b6000614b5f6000836155ac565b9150614b6a82615e12565b600082019050919050565b6000614b826044836155b7565b9150614b8d82615e15565b606082019050919050565b6000614ba56015836155b7565b9150614bb082615e8a565b602082019050919050565b6000614bc86021836155b7565b9150614bd382615eb3565b604082019050919050565b6000614beb601f836155b7565b9150614bf682615f02565b602082019050919050565b61022082016000820151614c186000850182614f01565b506020820151614c2b6020850182614f01565b506040820151614c3e6040850182614f01565b506060820151614c516060850182614f01565b506080820151614c646080850182614f01565b5060a0820151614c7760a0850182614f01565b5060c0820151614c8a60c0850182614f01565b5060e0820151614c9d60e085018261485d565b50610100820151614cb261010085018261485d565b50610120820151614cc761012085018261485d565b50610140820151614cdc61014085018261485d565b50610160820151614cf1610160850182614f01565b50610180820151614d06610180850182614f01565b506101a0820151614d1b6101a08501826148e1565b506101c0820151614d306101c08501826148e1565b506101e0820151614d456101e08501826148e1565b50610200820151614d5a6102008501826148e1565b50505050565b61022082016000820151614d776000850182614f01565b506020820151614d8a6020850182614f01565b506040820151614d9d6040850182614f01565b506060820151614db06060850182614f01565b506080820151614dc36080850182614f01565b5060a0820151614dd660a0850182614f01565b5060c0820151614de960c0850182614f01565b5060e0820151614dfc60e085018261485d565b50610100820151614e1161010085018261485d565b50610120820151614e2661012085018261485d565b50610140820151614e3b61014085018261485d565b50610160820151614e50610160850182614f01565b50610180820151614e65610180850182614f01565b506101a0820151614e7a6101a08501826148e1565b506101c0820151614e8f6101c08501826148e1565b506101e0820151614ea46101e08501826148e1565b50610200820151614eb96102008501826148e1565b50505050565b606082016000820151614ed560008501826148c3565b506020820151614ee86020850182614f01565b506040820151614efb604085018261485d565b50505050565b614f0a8161595f565b82525050565b614f198161595f565b82525050565b6000614f2a82614b52565b9150819050919050565b6000602082019050614f4960008301846146d6565b92915050565b6000604082019050614f6460008301856146d6565b614f716020830184614f10565b9392505050565b60006020820190508181036000830152614f9281846146e5565b905092915050565b60006020820190508181036000830152614fb48184614743565b905092915050565b60006040820190508181036000830152614fd681856147a1565b90508181036020830152614fea81846147ff565b90509392505050565b6000602082019050615008600083018461486c565b92915050565b6000604082019050615023600083018561486c565b8181036020830152615035818461487b565b90509392505050565b600060208201905061505360008301846148b4565b92915050565b600060608201905061506e60008301866148d2565b61507b6020830185614f10565b615088604083018461486c565b949350505050565b60006040820190506150a560008301856148f0565b6150b260208301846148f0565b9392505050565b600060208201905081810360008301526150d2816148ff565b9050919050565b600060208201905081810360008301526150f281614922565b9050919050565b6000602082019050818103600083015261511281614945565b9050919050565b6000602082019050818103600083015261513281614968565b9050919050565b600060208201905081810360008301526151528161498b565b9050919050565b60006020820190508181036000830152615172816149ae565b9050919050565b60006020820190508181036000830152615192816149d1565b9050919050565b600060208201905081810360008301526151b2816149f4565b9050919050565b600060208201905081810360008301526151d281614a17565b9050919050565b600060208201905081810360008301526151f281614a3a565b9050919050565b6000602082019050818103600083015261521281614a5d565b9050919050565b6000602082019050818103600083015261523281614a80565b9050919050565b6000602082019050818103600083015261525281614aa3565b9050919050565b6000602082019050818103600083015261527281614ac6565b9050919050565b6000602082019050818103600083015261529281614ae9565b9050919050565b600060208201905081810360008301526152b281614b0c565b9050919050565b600060208201905081810360008301526152d281614b2f565b9050919050565b600060208201905081810360008301526152f281614b75565b9050919050565b6000602082019050818103600083015261531281614b98565b9050919050565b6000602082019050818103600083015261533281614bbb565b9050919050565b6000602082019050818103600083015261535281614bde565b9050919050565b60006102208201905061536f6000830184614d60565b92915050565b600060208201905061538a6000830184614f10565b92915050565b60006040820190506153a56000830185614f10565b6153b26020830184614f10565b9392505050565b60006060820190506153ce6000830186614f10565b6153db6020830185614f10565b6153e860408301846148d2565b949350505050565b60006080820190506154056000830187614f10565b6154126020830186614f10565b61541f6040830185614f10565b61542c6060830184614f10565b95945050505050565b600061543f615450565b905061544b8282615a12565b919050565b6000604051905090565b600067ffffffffffffffff82111561547557615474615b19565b5b602082029050602081019050919050565b600067ffffffffffffffff8211156154a1576154a0615b19565b5b602082029050919050565b6000819050602082019050919050565b6000819050602082019050919050565b6000819050602082019050919050565b6000819050602082019050919050565b600081519050919050565b600081519050919050565b600081519050919050565b600081519050919050565b600081519050919050565b6000602082019050919050565b6000602082019050919050565b6000602082019050919050565b6000602082019050919050565b600082825260208201905092915050565b600082825260208201905092915050565b600082825260208201905092915050565b600082825260208201905092915050565b600082825260208201905092915050565b600081905092915050565b600082825260208201905092915050565b60006155d38261595f565b91506155de8361595f565b9250827fffffffffffffffffffffffffffffffffffffffffffffffffffffffffffffffff0382111561561357615612615a8c565b5b828201905092915050565b600061562982615935565b915061563483615935565b92508261564457615643615abb565b5b600160000383147f80000000000000000000000000000000000000000000000000000000000000008314161561567d5761567c615a8c565b5b828205905092915050565b60006156938261595f565b915061569e8361595f565b9250826156ae576156ad615abb565b5b828204905092915050565b60006156c482615935565b91506156cf83615935565b9250827f7fffffffffffffffffffffffffffffffffffffffffffffffffffffffffffffff048211600084136000841316161561570e5761570d615a8c565b5b817f8000000000000000000000000000000000000000000000000000000000000000058312600084126000841316161561574b5761574a615a8c565b5b827f8000000000000000000000000000000000000000000000000000000000000000058212600084136000841216161561578857615787615a8c565b5b827f7fffffffffffffffffffffffffffffffffffffffffffffffffffffffffffffff05821260008412600084121616156157c5576157c4615a8c565b5b828202905092915050565b60006157db8261595f565b91506157e68361595f565b9250817fffffffffffffffffffffffffffffffffffffffffffffffffffffffffffffffff048311821515161561581f5761581e615a8c565b5b828202905092915050565b600061583582615935565b915061584083615935565b9250827f80000000000000000000000000000000000000000000000000000000000000000182126000841215161561587b5761587a615a8c565b5b827f7fffffffffffffffffffffffffffffffffffffffffffffffffffffffffffffff0182136000841216156158b3576158b2615a8c565b5b828203905092915050565b60006158c98261595f565b91506158d48361595f565b9250828210156158e7576158e6615a8c565b5b828203905092915050565b60006158fd8261593f565b9050919050565b60008115159050919050565b600061591b826158f2565b9050919050565b600081905061593082615f2b565b919050565b6000819050919050565b600073ffffffffffffffffffffffffffffffffffffffff82169050919050565b6000819050919050565b600069ffffffffffffffffffff82169050919050565b600061598a82615991565b9050919050565b600061599c8261593f565b9050919050565b60006159ae82615922565b9050919050565b60005b838110156159d35780820151818401526020810190506159b8565b838111156159e2576000848401525b50505050565b60006159f38261595f565b91506000821415615a0757615a06615a8c565b5b600182039050919050565b615a1b82615b48565b810181811067ffffffffffffffff82111715615a3a57615a39615b19565b5b80604052505050565b6000615a4e8261595f565b91507fffffffffffffffffffffffffffffffffffffffffffffffffffffffffffffffff821415615a8157615a80615a8c565b5b600182019050919050565b7f4e487b7100000000000000000000000000000000000000000000000000000000600052601160045260246000fd5b7f4e487b7100000000000000000000000000000000000000000000000000000000600052601260045260246000fd5b7f4e487b7100000000000000000000000000000000000000000000000000000000600052602160045260246000fd5b7f4e487b7100000000000000000000000000000000000000000000000000000000600052604160045260246000fd5b6000601f19601f8301169050919050565b7f5061757361626c653a206e6f7420706175736564000000000000000000000000600082015250565b7f5472616e73666572206661696c65640000000000000000000000000000000000600082015250565b7f526f756e642068617320616c726561647920656e646564000000000000000000600082015250565b7f4d757374206d656574206d696e696d756d206265740000000000000000000000600082015250565b7f436f6e7472616374206e6f7420616c6c6f776564000000000000000000000000600082015250565b7f4e6f7420616e206f776e65720000000000000000000000000000000000000000600082015250565b7f526f756e642068617320616c7265616479206265656e20737461727465640000600082015250565b7f526577617264732063616c63756c617465640000000000000000000000000000600082015250565b7f526f756e6420686173206e6f7420656e64656400000000000000000000000000600082015250565b7f5061757361626c653a2070617573656400000000000000000000000000000000600082015250565b7f526f756e64206973206c6f636b65640000000000000000000000000000000000600082015250565b7f557365722063616e6e6f7420706c6163652062696420616761696e0000000000600082015250565b7f50726f787920636f6e7472616374206e6f7420616c6c6f776564000000000000600082015250565b7f416c726561647920636c61696d65640000000000000000000000000000000000600082015250565b7f42657474696e672074696d65206973206f766572000000000000000000000000600082015250565b7f43616e6e6f7420636c61696d0000000000000000000000000000000000000000600082015250565b7f67656e6573697320726f756e6420686173206e6f742073746172746564000000600082015250565b50565b7f416c6c2074686520726577617264732077656e7420746f20706f6f6c2061732060008201527f7072696365206368616e6765206f6620626f746820746f6b656e20617265206560208201527f7175616c00000000000000000000000000000000000000000000000000000000604082015250565b7f526f756e6420686173206e6f7420737461727465640000000000000000000000600082015250565b7f67656e6573697320726f756e642068617320616c72656164792073746172746560008201527f6400000000000000000000000000000000000000000000000000000000000000602082015250565b7f5265656e7472616e637947756172643a207265656e7472616e742063616c6c00600082015250565b60028110615f3c57615f3b615aea565b5b50565b615f48816158f2565b8114615f5357600080fd5b50565b615f5f81615904565b8114615f6a57600080fd5b50565b615f7681615910565b8114615f8157600080fd5b50565b615f8d81615935565b8114615f9857600080fd5b50565b615fa48161595f565b8114615faf57600080fd5b50565b615fbb81615969565b8114615fc657600080fd5b5056fea264697066735822122079abadd9205a7e75093ba16ebc5f0c3f02140ddbb71538a94983b12d66f5ed8d64736f6c63430008040033",
  "linkReferences": {},
  "deployedLinkReferences": {}
}