{
  "_format": "hh-sol-artifact-1",
  "contractName": "CryproPairPricePredictionFactory",
  "sourceName": "contracts/crypto-prediction.sol",
  "abi": [
    {
      "inputs": [
        {
          "internalType": "address",
          "name": "_owner",
          "type": "address"
        }
      ],
      "stateMutability": "nonpayable",
      "type": "constructor"
    },
    {
      "anonymous": false,
      "inputs": [
        {
          "indexed": false,
          "internalType": "uint256",
          "name": "pair",
          "type": "uint256"
        },
        {
          "indexed": false,
          "internalType": "uint256",
          "name": "amount",
          "type": "uint256"
        },
        {
          "indexed": false,
          "internalType": "enum CryproPairPricePredictionFactory.TokenSelection",
          "name": "tokenBetType",
          "type": "uint8"
        }
      ],
      "name": "Bet",
      "type": "event"
    },
    {
      "anonymous": false,
      "inputs": [
        {
          "indexed": false,
          "internalType": "uint256",
          "name": "amount",
          "type": "uint256"
        }
      ],
      "name": "Claim",
      "type": "event"
    },
    {
      "anonymous": false,
      "inputs": [
        {
          "indexed": false,
          "internalType": "uint256",
          "name": "pairRound",
          "type": "uint256"
        },
        {
          "indexed": false,
          "internalType": "uint256",
          "name": "pair",
          "type": "uint256"
        }
      ],
      "name": "EndRound",
      "type": "event"
    },
    {
      "anonymous": false,
      "inputs": [
        {
          "indexed": false,
          "internalType": "uint256",
          "name": "",
          "type": "uint256"
        }
      ],
      "name": "FeesChanged",
      "type": "event"
    },
    {
      "anonymous": false,
      "inputs": [
        {
          "indexed": false,
          "internalType": "uint256",
          "name": "roundNumber",
          "type": "uint256"
        }
      ],
      "name": "Pause",
      "type": "event"
    },
    {
      "anonymous": false,
      "inputs": [
        {
          "indexed": false,
          "internalType": "address",
          "name": "account",
          "type": "address"
        }
      ],
      "name": "Paused",
      "type": "event"
    },
    {
      "anonymous": false,
      "inputs": [
        {
          "indexed": false,
          "internalType": "int256",
          "name": "",
          "type": "int256"
        },
        {
          "indexed": false,
          "internalType": "int256",
          "name": "",
          "type": "int256"
        }
      ],
      "name": "PercentageTokenChanges",
      "type": "event"
    },
    {
      "anonymous": false,
      "inputs": [
        {
          "indexed": false,
          "internalType": "uint256",
          "name": "pair",
          "type": "uint256"
        }
      ],
      "name": "PerformUpKeepUpdated",
      "type": "event"
    },
    {
      "anonymous": false,
      "inputs": [
        {
          "indexed": false,
          "internalType": "address",
          "name": "",
          "type": "address"
        },
        {
          "indexed": false,
          "internalType": "uint256",
          "name": "",
          "type": "uint256"
        }
      ],
      "name": "Received",
      "type": "event"
    },
    {
      "anonymous": false,
      "inputs": [
        {
          "indexed": false,
          "internalType": "uint256",
          "name": "pair",
          "type": "uint256"
        },
        {
          "indexed": false,
          "internalType": "uint256",
          "name": "currentRound",
          "type": "uint256"
        },
        {
          "indexed": false,
          "internalType": "uint256",
          "name": "previousRound",
          "type": "uint256"
        },
        {
          "indexed": false,
          "internalType": "uint256",
          "name": "nextRound",
          "type": "uint256"
        }
      ],
      "name": "RoundExecution",
      "type": "event"
    },
    {
      "anonymous": false,
      "inputs": [
        {
          "indexed": false,
          "internalType": "uint256",
          "name": "pairRound",
          "type": "uint256"
        },
        {
          "indexed": false,
          "internalType": "uint256",
          "name": "pair",
          "type": "uint256"
        }
      ],
      "name": "StartRound",
      "type": "event"
    },
    {
      "anonymous": false,
      "inputs": [
        {
          "indexed": false,
          "internalType": "uint256",
          "name": "pairsActivated",
          "type": "uint256"
        }
      ],
      "name": "Unpause",
      "type": "event"
    },
    {
      "anonymous": false,
      "inputs": [
        {
          "indexed": false,
          "internalType": "address",
          "name": "account",
          "type": "address"
        }
      ],
      "name": "Unpaused",
      "type": "event"
    },
    {
      "inputs": [
        {
          "internalType": "address",
          "name": "to",
          "type": "address"
        },
        {
          "internalType": "uint256",
          "name": "value",
          "type": "uint256"
        }
      ],
      "name": "_safeTransfer",
      "outputs": [],
      "stateMutability": "nonpayable",
      "type": "function"
    },
    {
      "inputs": [],
      "name": "amountToBeTransfered",
      "outputs": [
        {
          "internalType": "uint256",
          "name": "",
          "type": "uint256"
        }
      ],
      "stateMutability": "view",
      "type": "function"
    },
    {
      "inputs": [
        {
          "internalType": "uint256",
          "name": "_fees",
          "type": "uint256"
        }
      ],
      "name": "changeFees",
      "outputs": [],
      "stateMutability": "nonpayable",
      "type": "function"
    },
    {
      "inputs": [
        {
          "internalType": "uint256",
          "name": "_minBet",
          "type": "uint256"
        }
      ],
      "name": "changeMinBet",
      "outputs": [],
      "stateMutability": "nonpayable",
      "type": "function"
    },
    {
      "inputs": [
        {
          "internalType": "bytes",
          "name": "checkData",
          "type": "bytes"
        }
      ],
      "name": "checkUpkeep",
      "outputs": [
        {
          "internalType": "bool",
          "name": "upkeepNeeded",
          "type": "bool"
        },
        {
          "internalType": "bytes",
          "name": "performData",
          "type": "bytes"
        }
      ],
      "stateMutability": "view",
      "type": "function"
    },
    {
      "inputs": [
        {
          "internalType": "uint256",
          "name": "_pairRound",
          "type": "uint256"
        },
        {
          "internalType": "uint256",
          "name": "_pair",
          "type": "uint256"
        }
      ],
      "name": "claimReward",
      "outputs": [],
      "stateMutability": "payable",
      "type": "function"
    },
    {
      "inputs": [
        {
          "internalType": "address",
          "name": "firstToken",
          "type": "address"
        },
        {
          "internalType": "address",
          "name": "secondToken",
          "type": "address"
        }
      ],
      "name": "createPredictionPairs",
      "outputs": [],
      "stateMutability": "nonpayable",
      "type": "function"
    },
    {
      "inputs": [],
      "name": "fees",
      "outputs": [
        {
          "internalType": "uint256",
          "name": "",
          "type": "uint256"
        }
      ],
      "stateMutability": "view",
      "type": "function"
    },
    {
      "inputs": [
        {
          "internalType": "uint256",
          "name": "_pairRound",
          "type": "uint256"
        },
        {
          "internalType": "uint256",
          "name": "_pair",
          "type": "uint256"
        }
      ],
      "name": "firstTokenBet",
      "outputs": [],
      "stateMutability": "payable",
      "type": "function"
    },
    {
      "inputs": [],
      "name": "getBlockTimeStamp",
      "outputs": [
        {
          "internalType": "uint256",
          "name": "",
          "type": "uint256"
        }
      ],
      "stateMutability": "view",
      "type": "function"
    },
    {
      "inputs": [
        {
          "internalType": "contract AggregatorV3Interface[2]",
          "name": "token",
          "type": "address[2]"
        }
      ],
      "name": "getLatestPrice",
      "outputs": [
        {
          "internalType": "int256",
          "name": "",
          "type": "int256"
        },
        {
          "internalType": "int256",
          "name": "",
          "type": "int256"
        }
      ],
      "stateMutability": "view",
      "type": "function"
    },
    {
      "inputs": [
        {
          "internalType": "uint256",
          "name": "_pair",
          "type": "uint256"
        },
        {
          "internalType": "uint256",
          "name": "size",
          "type": "uint256"
        }
      ],
      "name": "getPairRounds",
      "outputs": [
        {
          "components": [
            {
              "internalType": "uint256",
              "name": "pairNumber",
              "type": "uint256"
            },
            {
              "internalType": "uint256",
              "name": "poolAmount",
              "type": "uint256"
            },
            {
              "internalType": "uint256",
              "name": "firstTokenPoolAmount",
              "type": "uint256"
            },
            {
              "internalType": "uint256",
              "name": "secondTokenPoolAmount",
              "type": "uint256"
            },
            {
              "internalType": "uint256",
              "name": "poolTokenRewardAmount",
              "type": "uint256"
            },
            {
              "internalType": "uint256",
              "name": "poolTokenBaseAmount",
              "type": "uint256"
            },
            {
              "internalType": "uint256",
              "name": "roundNumber",
              "type": "uint256"
            },
            {
              "internalType": "bool",
              "name": "roundStart",
              "type": "bool"
            },
            {
              "internalType": "bool",
              "name": "roundEnded",
              "type": "bool"
            },
            {
              "internalType": "bool",
              "name": "roundLock",
              "type": "bool"
            },
            {
              "internalType": "bool",
              "name": "gotPaused",
              "type": "bool"
            },
            {
              "internalType": "uint256",
              "name": "startTimeStamp",
              "type": "uint256"
            },
            {
              "internalType": "uint256",
              "name": "endTimeStamp",
              "type": "uint256"
            },
            {
              "internalType": "int256",
              "name": "firstTokenPriceChange",
              "type": "int256"
            },
            {
              "internalType": "int256",
              "name": "secondTokenPriceChange",
              "type": "int256"
            },
            {
              "internalType": "int256",
              "name": "firstTokenPrice",
              "type": "int256"
            },
            {
              "internalType": "int256",
              "name": "secondTokenPrice",
              "type": "int256"
            }
          ],
          "internalType": "struct CryproPairPricePredictionFactory.Rounds[]",
          "name": "",
          "type": "tuple[]"
        }
      ],
      "stateMutability": "view",
      "type": "function"
    },
    {
      "inputs": [
        {
          "internalType": "uint256",
          "name": "_pairRound",
          "type": "uint256"
        },
        {
          "internalType": "uint256",
          "name": "_pair",
          "type": "uint256"
        }
      ],
      "name": "getRoundInfo",
      "outputs": [
        {
          "components": [
            {
              "internalType": "uint256",
              "name": "pairNumber",
              "type": "uint256"
            },
            {
              "internalType": "uint256",
              "name": "poolAmount",
              "type": "uint256"
            },
            {
              "internalType": "uint256",
              "name": "firstTokenPoolAmount",
              "type": "uint256"
            },
            {
              "internalType": "uint256",
              "name": "secondTokenPoolAmount",
              "type": "uint256"
            },
            {
              "internalType": "uint256",
              "name": "poolTokenRewardAmount",
              "type": "uint256"
            },
            {
              "internalType": "uint256",
              "name": "poolTokenBaseAmount",
              "type": "uint256"
            },
            {
              "internalType": "uint256",
              "name": "roundNumber",
              "type": "uint256"
            },
            {
              "internalType": "bool",
              "name": "roundStart",
              "type": "bool"
            },
            {
              "internalType": "bool",
              "name": "roundEnded",
              "type": "bool"
            },
            {
              "internalType": "bool",
              "name": "roundLock",
              "type": "bool"
            },
            {
              "internalType": "bool",
              "name": "gotPaused",
              "type": "bool"
            },
            {
              "internalType": "uint256",
              "name": "startTimeStamp",
              "type": "uint256"
            },
            {
              "internalType": "uint256",
              "name": "endTimeStamp",
              "type": "uint256"
            },
            {
              "internalType": "int256",
              "name": "firstTokenPriceChange",
              "type": "int256"
            },
            {
              "internalType": "int256",
              "name": "secondTokenPriceChange",
              "type": "int256"
            },
            {
              "internalType": "int256",
              "name": "firstTokenPrice",
              "type": "int256"
            },
            {
              "internalType": "int256",
              "name": "secondTokenPrice",
              "type": "int256"
            }
          ],
          "internalType": "struct CryproPairPricePredictionFactory.Rounds",
          "name": "",
          "type": "tuple"
        }
      ],
      "stateMutability": "view",
      "type": "function"
    },
    {
      "inputs": [],
      "name": "getTreauryAmount",
      "outputs": [],
      "stateMutability": "nonpayable",
      "type": "function"
    },
    {
      "inputs": [
        {
          "internalType": "uint256",
          "name": "_pair",
          "type": "uint256"
        }
      ],
      "name": "getUserRounds",
      "outputs": [
        {
          "components": [
            {
              "internalType": "enum CryproPairPricePredictionFactory.TokenSelection",
              "name": "tokenselected",
              "type": "uint8"
            },
            {
              "internalType": "uint256",
              "name": "amount",
              "type": "uint256"
            },
            {
              "internalType": "bool",
              "name": "claim",
              "type": "bool"
            }
          ],
          "internalType": "struct CryproPairPricePredictionFactory.biddingInfo[]",
          "name": "",
          "type": "tuple[]"
        },
        {
          "internalType": "uint256[]",
          "name": "",
          "type": "uint256[]"
        }
      ],
      "stateMutability": "view",
      "type": "function"
    },
    {
      "inputs": [
        {
          "internalType": "uint256",
          "name": "_pairRound",
          "type": "uint256"
        },
        {
          "internalType": "uint256",
          "name": "_pair",
          "type": "uint256"
        }
      ],
      "name": "gettokenPriceChanges",
      "outputs": [
        {
          "internalType": "int256",
          "name": "",
          "type": "int256"
        },
        {
          "internalType": "int256",
          "name": "",
          "type": "int256"
        }
      ],
      "stateMutability": "nonpayable",
      "type": "function"
    },
    {
      "inputs": [],
      "name": "hasRoundEnded",
      "outputs": [
        {
          "internalType": "bool",
          "name": "",
          "type": "bool"
        }
      ],
      "stateMutability": "view",
      "type": "function"
    },
    {
      "inputs": [],
      "name": "maxBet",
      "outputs": [
        {
          "internalType": "uint256",
          "name": "",
          "type": "uint256"
        }
      ],
      "stateMutability": "view",
      "type": "function"
    },
    {
      "inputs": [],
      "name": "minBet",
      "outputs": [
        {
          "internalType": "uint256",
          "name": "",
          "type": "uint256"
        }
      ],
      "stateMutability": "view",
      "type": "function"
    },
    {
      "inputs": [
        {
          "internalType": "uint256",
          "name": "",
          "type": "uint256"
        }
      ],
      "name": "pairGenesisRound",
      "outputs": [
        {
          "internalType": "bool",
          "name": "",
          "type": "bool"
        }
      ],
      "stateMutability": "view",
      "type": "function"
    },
    {
      "inputs": [
        {
          "internalType": "uint256",
          "name": "",
          "type": "uint256"
        }
      ],
      "name": "pairRounds",
      "outputs": [
        {
          "internalType": "uint256",
          "name": "",
          "type": "uint256"
        }
      ],
      "stateMutability": "view",
      "type": "function"
    },
    {
      "inputs": [
        {
          "internalType": "uint256",
          "name": "",
          "type": "uint256"
        },
        {
          "internalType": "uint256",
          "name": "",
          "type": "uint256"
        }
      ],
      "name": "pairs",
      "outputs": [
        {
          "internalType": "contract AggregatorV3Interface",
          "name": "",
          "type": "address"
        }
      ],
      "stateMutability": "view",
      "type": "function"
    },
    {
      "inputs": [],
      "name": "pairsCount",
      "outputs": [
        {
          "internalType": "uint256",
          "name": "",
          "type": "uint256"
        }
      ],
      "stateMutability": "view",
      "type": "function"
    },
    {
      "inputs": [
        {
          "internalType": "uint256",
          "name": "pair",
          "type": "uint256"
        }
      ],
      "name": "pause",
      "outputs": [],
      "stateMutability": "nonpayable",
      "type": "function"
    },
    {
      "inputs": [],
      "name": "paused",
      "outputs": [
        {
          "internalType": "bool",
          "name": "",
          "type": "bool"
        }
      ],
      "stateMutability": "view",
      "type": "function"
    },
    {
      "inputs": [
        {
          "internalType": "bytes",
          "name": "performData",
          "type": "bytes"
        }
      ],
      "name": "performUpkeep",
      "outputs": [],
      "stateMutability": "nonpayable",
      "type": "function"
    },
    {
      "inputs": [
        {
          "internalType": "uint256",
          "name": "_pair",
          "type": "uint256"
        }
      ],
      "name": "roundExecution",
      "outputs": [],
      "stateMutability": "nonpayable",
      "type": "function"
    },
    {
      "inputs": [],
      "name": "roundTime",
      "outputs": [
        {
          "internalType": "uint256",
          "name": "",
          "type": "uint256"
        }
      ],
      "stateMutability": "view",
      "type": "function"
    },
    {
      "inputs": [
        {
          "internalType": "uint256",
          "name": "_pairRound",
          "type": "uint256"
        },
        {
          "internalType": "uint256",
          "name": "_pair",
          "type": "uint256"
        }
      ],
      "name": "secondTokenBet",
      "outputs": [],
      "stateMutability": "payable",
      "type": "function"
    },
    {
      "inputs": [
        {
          "internalType": "uint256",
          "name": "_pair",
          "type": "uint256"
        }
      ],
      "name": "startGenesisRoundForThePair",
      "outputs": [],
      "stateMutability": "nonpayable",
      "type": "function"
    },
    {
      "inputs": [],
      "name": "treasuryAmount",
      "outputs": [
        {
          "internalType": "uint256",
          "name": "",
          "type": "uint256"
        }
      ],
      "stateMutability": "view",
      "type": "function"
    },
    {
      "inputs": [],
      "name": "unpause",
      "outputs": [],
      "stateMutability": "nonpayable",
      "type": "function"
    },
    {
      "inputs": [
        {
          "internalType": "uint256",
          "name": "minDeposit",
          "type": "uint256"
        },
        {
          "internalType": "uint256",
          "name": "maxDeposit",
          "type": "uint256"
        }
      ],
      "name": "updateMinMaxDepositAmount",
      "outputs": [],
      "stateMutability": "nonpayable",
      "type": "function"
    },
    {
      "inputs": [
        {
          "internalType": "address",
          "name": "newOwner",
          "type": "address"
        }
      ],
      "name": "updateOwner",
      "outputs": [],
      "stateMutability": "nonpayable",
      "type": "function"
    },
    {
      "inputs": [
        {
          "internalType": "uint256",
          "name": "",
          "type": "uint256"
        },
        {
          "internalType": "address",
          "name": "",
          "type": "address"
        },
        {
          "internalType": "uint256",
          "name": "",
          "type": "uint256"
        }
      ],
      "name": "userPlayedRounds",
      "outputs": [
        {
          "internalType": "uint256",
          "name": "",
          "type": "uint256"
        }
      ],
      "stateMutability": "view",
      "type": "function"
    },
    {
      "inputs": [
        {
          "internalType": "uint256",
          "name": "",
          "type": "uint256"
        },
        {
          "internalType": "uint256",
          "name": "",
          "type": "uint256"
        },
        {
          "internalType": "address",
          "name": "",
          "type": "address"
        }
      ],
      "name": "userRoundBids",
      "outputs": [
        {
          "internalType": "enum CryproPairPricePredictionFactory.TokenSelection",
          "name": "tokenselected",
          "type": "uint8"
        },
        {
          "internalType": "uint256",
          "name": "amount",
          "type": "uint256"
        },
        {
          "internalType": "bool",
          "name": "claim",
          "type": "bool"
        }
      ],
      "stateMutability": "view",
      "type": "function"
    },
    {
      "stateMutability": "payable",
      "type": "receive"
    }
  ],
  "bytecode": "0x60806040523480156200001157600080fd5b5060405162005f9e38038062005f9e8339818101604052810190620000379190620000e4565b60008060006101000a81548160ff0219169083151502179055506001808190555080600260006101000a81548173ffffffffffffffffffffffffffffffffffffffff021916908373ffffffffffffffffffffffffffffffffffffffff16021790555060006003819055506000600681905550607860078190555061012c6008819055506402540be400600481905550506200015e565b600081519050620000de8162000144565b92915050565b600060208284031215620000f757600080fd5b60006200010784828501620000cd565b91505092915050565b60006200011d8262000124565b9050919050565b600073ffffffffffffffffffffffffffffffffffffffff82169050919050565b6200014f8162000110565b81146200015b57600080fd5b50565b615e30806200016e6000396000f3fe6080604052600436106102135760003560e01c80638a9bb02a11610118578063d411e899116100a0578063ee5f8c8f1161006f578063ee5f8c8f146107ef578063f198f54e1461081a578063f55267c614610857578063fa0b621114610880578063fa7af1f0146108ab57610253565b8063d411e89914610722578063e6ae33891461074b578063e8147a2514610788578063e8bacbb4146107b157610253565b8063b81b2b71116100e7578063b81b2b711461065c578063b933137f14610687578063c34641fa146106a3578063c4f8210e146106ce578063ca49a543146106f757610253565b80638a9bb02a1461058b5780639619367d146105c85780639af1d35a146105f3578063a468b7c11461061e57610253565b80635c975abb1161019b578063719719101161016a57806371971910146104dd57806375dd5051146104f457806377a0de4c1461051d57806386bb8f3714610546578063880cdc311461056257610253565b80635c975abb1461040e578063675b4ef1146104395780636cda375b146104765780636e04ff0d1461049f57610253565b806323462d0c116101e257806323462d0c1461033b5780632e5b216814610378578063368acb09146103a35780633f4ba83a146103ce5780634585e33b146103e557610253565b80630364ad7314610258578063121e190814610297578063136439dd146102d45780631ecc82b7146102fd57610253565b36610253577f88a5966d370b9919b20f3e2c13ff65706f196a4e32cc2c12bf57088f885258743334604051610249929190614df1565b60405180910390a1005b600080fd5b34801561026457600080fd5b5061027f600480360381019061027a91906144b8565b6108c7565b60405161028e93929190614ed9565b60405180910390f35b3480156102a357600080fd5b506102be60048036038101906102b99190614404565b610925565b6040516102cb9190615210565b60405180910390f35b3480156102e057600080fd5b506102fb60048036038101906102f69190614404565b61093d565b005b34801561030957600080fd5b50610324600480360381019061031f919061447c565b610c0c565b604051610332929190614f10565b60405180910390f35b34801561034757600080fd5b50610362600480360381019061035d919061442d565b610d57565b60405161036f9190615210565b60405180910390f35b34801561038457600080fd5b5061038d610d95565b60405161039a9190615210565b60405180910390f35b3480156103af57600080fd5b506103b8610d9b565b6040516103c59190615210565b60405180910390f35b3480156103da57600080fd5b506103e3610da1565b005b3480156103f157600080fd5b5061040c600480360381019061040791906143bf565b610f0b565b005b34801561041a57600080fd5b50610423610f51565b6040516104309190614e73565b60405180910390f35b34801561044557600080fd5b50610460600480360381019061045b919061447c565b610f67565b60405161046d9190614ebe565b60405180910390f35b34801561048257600080fd5b5061049d60048036038101906104989190614404565b610fac565b005b3480156104ab57600080fd5b506104c660048036038101906104c191906143bf565b61107f565b6040516104d4929190614e8e565b60405180910390f35b3480156104e957600080fd5b506104f2611124565b005b34801561050057600080fd5b5061051b6004803603810190610516919061431e565b611217565b005b34801561052957600080fd5b50610544600480360381019061053f919061447c565b6113e1565b005b610560600480360381019061055b919061447c565b611483565b005b34801561056e57600080fd5b50610589600480360381019061058491906142f5565b611be3565b005b34801561059757600080fd5b506105b260048036038101906105ad919061447c565b611cb7565b6040516105bf91906151f4565b60405180910390f35b3480156105d457600080fd5b506105dd611de5565b6040516105ea9190615210565b60405180910390f35b3480156105ff57600080fd5b50610608611deb565b6040516106159190615210565b60405180910390f35b34801561062a57600080fd5b5061064560048036038101906106409190614396565b611df1565b604051610653929190614f10565b60405180910390f35b34801561066857600080fd5b50610671611f89565b60405161067e9190615210565b60405180910390f35b6106a1600480360381019061069c919061447c565b611f8f565b005b3480156106af57600080fd5b506106b86125fd565b6040516106c59190615210565b60405180910390f35b3480156106da57600080fd5b506106f560048036038101906106f0919061435a565b612603565b005b34801561070357600080fd5b5061070c6126b4565b6040516107199190615210565b60405180910390f35b34801561072e57600080fd5b5061074960048036038101906107449190614404565b6126bc565b005b34801561075757600080fd5b50610772600480360381019061076d919061447c565b612873565b60405161077f9190614e1a565b60405180910390f35b34801561079457600080fd5b506107af60048036038101906107aa9190614404565b612ab8565b005b3480156107bd57600080fd5b506107d860048036038101906107d39190614404565b612b52565b6040516107e6929190614e3c565b60405180910390f35b3480156107fb57600080fd5b50610804612e45565b6040516108119190615210565b60405180910390f35b34801561082657600080fd5b50610841600480360381019061083c9190614404565b612e4b565b60405161084e9190614e73565b60405180910390f35b34801561086357600080fd5b5061087e60048036038101906108799190614404565b612e6b565b005b34801561088c57600080fd5b50610895613056565b6040516108a29190614e73565b60405180910390f35b6108c560048036038101906108c0919061447c565b6130ad565b005b600c60205282600052604060002060205281600052604060002060205280600052604060002060009250925050508060000160009054906101000a900460ff16908060010154908060020160009054906101000a900460ff16905083565b600a6020528060005260406000206000915090505481565b610945610f51565b15610985576040517f08c379a000000000000000000000000000000000000000000000000000000000815260040161097c90615074565b60405180910390fd5b3373ffffffffffffffffffffffffffffffffffffffff16600260009054906101000a900473ffffffffffffffffffffffffffffffffffffffff1673ffffffffffffffffffffffffffffffffffffffff1614610a15576040517f08c379a0000000000000000000000000000000000000000000000000000000008152600401610a0c90614ff4565b60405180910390fd5b6000600190505b6003548111610bc9576000600a60008381526020019081526020016000205490506001600e6000848152602001908152602001600020600083815260200190815260200160002060070160036101000a81548160ff0219169083151502179055506000600e60008481526020019081526020016000206000838152602001908152602001600020600901819055506001600e6000848152602001908152602001600020600083815260200190815260200160002060070160016101000a81548160ff021916908315150217905550600e60008381526020019081526020016000206000600183610b0c91906156f4565b815260200190815260200160002060070160019054906101000a900460ff16610bb5576000600e60008481526020019081526020016000206000600184610b5391906156f4565b8152602001908152602001600020600901819055506001600e60008481526020019081526020016000206000600184610b8c91906156f4565b815260200190815260200160002060070160016101000a81548160ff0219169083151502179055505b508080610bc19061588b565b915050610a1c565b50610bd261371b565b7f68b095021b1f40fe513109f513c66692f0b3219aee674a69f4efc57badb8201d81604051610c019190615210565b60405180910390a150565b600080600080610c9f60096000878152602001908152602001600020600280602002604051908101604052809291908260028015610c95576020028201915b8160009054906101000a900473ffffffffffffffffffffffffffffffffffffffff1673ffffffffffffffffffffffffffffffffffffffff1681526020019060010190808311610c4b575b5050505050611df1565b915091506000610cd6600e60008881526020019081526020016000206000898152602001908152602001600020600c0154846137bd565b90506000610d0b600e600089815260200190815260200160002060008a8152602001908152602001600020600d0154846137bd565b90507fa4393d92bc1fa01e1edb65f571aba9ce960fcadf3ddc9493d63a31e43f532f2f8484604051610d3e929190614f10565b60405180910390a1818195509550505050509250929050565b600d6020528260005260406000206020528160005260406000208181548110610d7f57600080fd5b9060005260206000200160009250925050505481565b60055481565b60065481565b610da9610f51565b610de8576040517f08c379a0000000000000000000000000000000000000000000000000000000008152600401610ddf90614f54565b60405180910390fd5b3373ffffffffffffffffffffffffffffffffffffffff16600260009054906101000a900473ffffffffffffffffffffffffffffffffffffffff1673ffffffffffffffffffffffffffffffffffffffff1614610e78576040517f08c379a0000000000000000000000000000000000000000000000000000000008152600401610e6f90614ff4565b60405180910390fd5b6000600190505b6003548111610ec7576000600b600083815260200190815260200160002060006101000a81548160ff0219169083151502179055508080610ebf9061588b565b915050610e7f565b50610ed0613823565b7faaa520fdd7d2c83061d632fa017b0432407e798818af63ea908589fceda39ab7600354604051610f019190615210565b60405180910390a1565b610f1560016126bc565b7f3566bc4681c58794a7a75f59d0a364e562b68c20c2b414857356c4137c8ad4956001604051610f459190614f39565b60405180910390a15050565b60008060009054906101000a900460ff16905090565b60096020528160005260406000208160028110610f8357600080fd5b016000915091509054906101000a900473ffffffffffffffffffffffffffffffffffffffff1681565b3373ffffffffffffffffffffffffffffffffffffffff16600260009054906101000a900473ffffffffffffffffffffffffffffffffffffffff1673ffffffffffffffffffffffffffffffffffffffff161461103c576040517f08c379a000000000000000000000000000000000000000000000000000000000815260040161103390614ff4565b60405180910390fd5b806007819055507f3dda580d2b9d92da338ef46ec718e7b1dd0a2c505e3df4aa8d40360192a0f8226007546040516110749190615210565b60405180910390a150565b600060606000600e60006001815260200190815260200160002060006001600a600060018152602001908152602001600020546110bc91906156f4565b8152602001908152602001600020600901549050428110925084848080601f016020809104026020016040519081016040528093929190818152602001838380828437600081840152601f19601f820116905080830192505050505050509150509250929050565b3373ffffffffffffffffffffffffffffffffffffffff16600260009054906101000a900473ffffffffffffffffffffffffffffffffffffffff1673ffffffffffffffffffffffffffffffffffffffff16146111b4576040517f08c379a00000000000000000000000000000000000000000000000000000000081526004016111ab90614ff4565b60405180910390fd5b600260015414156111fa576040517f08c379a00000000000000000000000000000000000000000000000000000000081526004016111f1906151d4565b60405180910390fd5b600260018190555061120e33600654612603565b60018081905550565b3373ffffffffffffffffffffffffffffffffffffffff16600260009054906101000a900473ffffffffffffffffffffffffffffffffffffffff1673ffffffffffffffffffffffffffffffffffffffff16146112a7576040517f08c379a000000000000000000000000000000000000000000000000000000000815260040161129e90614ff4565b60405180910390fd5b6001600360008282546112ba91906153fe565b9250508190555081600960006003548152602001908152602001600020600060028110611310577f4e487b7100000000000000000000000000000000000000000000000000000000600052603260045260246000fd5b0160006101000a81548173ffffffffffffffffffffffffffffffffffffffff021916908373ffffffffffffffffffffffffffffffffffffffff1602179055508060096000600354815260200190815260200160002060016002811061139e577f4e487b7100000000000000000000000000000000000000000000000000000000600052603260045260246000fd5b0160006101000a81548173ffffffffffffffffffffffffffffffffffffffff021916908373ffffffffffffffffffffffffffffffffffffffff1602179055505050565b3373ffffffffffffffffffffffffffffffffffffffff16600260009054906101000a900473ffffffffffffffffffffffffffffffffffffffff1673ffffffffffffffffffffffffffffffffffffffff1614611471576040517f08c379a000000000000000000000000000000000000000000000000000000000815260040161146890614ff4565b60405180910390fd5b81600481905550806005819055505050565b61148c336138c4565b156114cc576040517f08c379a00000000000000000000000000000000000000000000000000000000081526004016114c390614fd4565b60405180910390fd5b3273ffffffffffffffffffffffffffffffffffffffff163373ffffffffffffffffffffffffffffffffffffffff161461153a576040517f08c379a0000000000000000000000000000000000000000000000000000000008152600401611531906150d4565b60405180910390fd5b60026001541415611580576040517f08c379a0000000000000000000000000000000000000000000000000000000008152600401611577906151d4565b60405180910390fd5b600260018190555060011515600e6000838152602001908152602001600020600084815260200190815260200160002060070160019054906101000a900460ff16151514611603576040517f08c379a00000000000000000000000000000000000000000000000000000000081526004016115fa90615054565b60405180910390fd5b6000600e60008381526020019081526020016000206000848152602001908152602001600020600401541161166d576040517f08c379a000000000000000000000000000000000000000000000000000000000815260040161166490615174565b60405180910390fd5b60001515600c6000838152602001908152602001600020600084815260200190815260200160002060003373ffffffffffffffffffffffffffffffffffffffff1673ffffffffffffffffffffffffffffffffffffffff16815260200190815260200160002060020160009054906101000a900460ff16151514611725576040517f08c379a000000000000000000000000000000000000000000000000000000000815260040161171c906150f4565b60405180910390fd5b6000600e6000838152602001908152602001600020600084815260200190815260200160002060405180610220016040529081600082015481526020016001820154815260200160028201548152602001600382015481526020016004820154815260200160058201548152602001600682015481526020016007820160009054906101000a900460ff161515151581526020016007820160019054906101000a900460ff161515151581526020016007820160029054906101000a900460ff161515151581526020016007820160039054906101000a900460ff161515151581526020016008820154815260200160098201548152602001600a8201548152602001600b8201548152602001600c8201548152602001600d820154815250509050806101c00151816101a00151138015611941575060006001811115611895577f4e487b7100000000000000000000000000000000000000000000000000000000600052602160045260246000fd5b600c6000848152602001908152602001600020600085815260200190815260200160002060003373ffffffffffffffffffffffffffffffffffffffff1673ffffffffffffffffffffffffffffffffffffffff16815260200190815260200160002060000160009054906101000a900460ff16600181111561193f577f4e487b7100000000000000000000000000000000000000000000000000000000600052602160045260246000fd5b145b80611a415750806101c00151816101a00151128015611a405750600180811115611994577f4e487b7100000000000000000000000000000000000000000000000000000000600052602160045260246000fd5b600c6000848152602001908152602001600020600085815260200190815260200160002060003373ffffffffffffffffffffffffffffffffffffffff1673ffffffffffffffffffffffffffffffffffffffff16815260200190815260200160002060000160009054906101000a900460ff166001811115611a3e577f4e487b7100000000000000000000000000000000000000000000000000000000600052602160045260246000fd5b145b5b611a80576040517f08c379a0000000000000000000000000000000000000000000000000000000008152600401611a7790615134565b60405180910390fd5b8060a001518160800151600c6000858152602001908152602001600020600086815260200190815260200160002060003373ffffffffffffffffffffffffffffffffffffffff1673ffffffffffffffffffffffffffffffffffffffff16815260200190815260200160002060010154611af99190615606565b611b0391906154be565b600f819055506001600c6000848152602001908152602001600020600085815260200190815260200160002060003373ffffffffffffffffffffffffffffffffffffffff1673ffffffffffffffffffffffffffffffffffffffff16815260200190815260200160002060020160006101000a81548160ff0219169083151502179055506000600f541115611bd757611b9d33600f54612603565b7f7bb2b3c10797baccb6f8c4791f1edd6ca2f0d028ee0eda64b01a9a57e3a653f7600f54604051611bce9190615210565b60405180910390a15b50600180819055505050565b3373ffffffffffffffffffffffffffffffffffffffff16600260009054906101000a900473ffffffffffffffffffffffffffffffffffffffff1673ffffffffffffffffffffffffffffffffffffffff1614611c73576040517f08c379a0000000000000000000000000000000000000000000000000000000008152600401611c6a90614ff4565b60405180910390fd5b80600260006101000a81548173ffffffffffffffffffffffffffffffffffffffff021916908373ffffffffffffffffffffffffffffffffffffffff16021790555050565b611cbf6140bc565b600e6000838152602001908152602001600020600084815260200190815260200160002060405180610220016040529081600082015481526020016001820154815260200160028201548152602001600382015481526020016004820154815260200160058201548152602001600682015481526020016007820160009054906101000a900460ff161515151581526020016007820160019054906101000a900460ff161515151581526020016007820160029054906101000a900460ff161515151581526020016007820160039054906101000a900460ff161515151581526020016008820154815260200160098201548152602001600a8201548152602001600b8201548152602001600c8201548152602001600d82015481525050905092915050565b60045481565b60075481565b600080600083600060028110611e30577f4e487b7100000000000000000000000000000000000000000000000000000000600052603260045260246000fd5b602002015173ffffffffffffffffffffffffffffffffffffffff1663feaf968c6040518163ffffffff1660e01b815260040160a06040518083038186803b158015611e7a57600080fd5b505afa158015611e8e573d6000803e3d6000fd5b505050506040513d601f19601f82011682018060405250810190611eb29190614507565b505050915050600084600160028110611ef4577f4e487b7100000000000000000000000000000000000000000000000000000000600052603260045260246000fd5b602002015173ffffffffffffffffffffffffffffffffffffffff1663feaf968c6040518163ffffffff1660e01b815260040160a06040518083038186803b158015611f3e57600080fd5b505afa158015611f52573d6000803e3d6000fd5b505050506040513d601f19601f82011682018060405250810190611f769190614507565b5050509150508181935093505050915091565b60035481565b611f97610f51565b15611fd7576040517f08c379a0000000000000000000000000000000000000000000000000000000008152600401611fce90615074565b60405180910390fd5b818160011515600e6000838152602001908152602001600020600084815260200190815260200160002060070160009054906101000a900460ff16151514612054576040517f08c379a000000000000000000000000000000000000000000000000000000000815260040161204b90615194565b60405180910390fd5b60001515600e6000838152602001908152602001600020600084815260200190815260200160002060070160019054906101000a900460ff161515146120cf576040517f08c379a00000000000000000000000000000000000000000000000000000000081526004016120c690615054565b60405180910390fd5b60001515600e6000838152602001908152602001600020600084815260200190815260200160002060070160029054906101000a900460ff1615151461214a576040517f08c379a000000000000000000000000000000000000000000000000000000000815260040161214190615094565b60405180910390fd5b60045434101561218f576040517f08c379a000000000000000000000000000000000000000000000000000000000815260040161218690614fb4565b60405180910390fd5b6000600c6000838152602001908152602001600020600084815260200190815260200160002060003373ffffffffffffffffffffffffffffffffffffffff1673ffffffffffffffffffffffffffffffffffffffff1681526020019081526020016000206001015414612236576040517f08c379a000000000000000000000000000000000000000000000000000000000815260040161222d906150b4565b60405180910390fd5b42600e600083815260200190815260200160002060008481526020019081526020016000206009015410156122a0576040517f08c379a000000000000000000000000000000000000000000000000000000000815260040161229790615114565b60405180910390fd5b6122a9336138c4565b156122e9576040517f08c379a00000000000000000000000000000000000000000000000000000000081526004016122e090614fd4565b60405180910390fd5b3273ffffffffffffffffffffffffffffffffffffffff163373ffffffffffffffffffffffffffffffffffffffff1614612357576040517f08c379a000000000000000000000000000000000000000000000000000000000815260040161234e906150d4565b60405180910390fd5b6002600154141561239d576040517f08c379a0000000000000000000000000000000000000000000000000000000008152600401612394906151d4565b60405180910390fd5b600260018190555034600c6000858152602001908152602001600020600086815260200190815260200160002060003373ffffffffffffffffffffffffffffffffffffffff1673ffffffffffffffffffffffffffffffffffffffff168152602001908152602001600020600101819055506000600c6000858152602001908152602001600020600086815260200190815260200160002060003373ffffffffffffffffffffffffffffffffffffffff1673ffffffffffffffffffffffffffffffffffffffff16815260200190815260200160002060000160006101000a81548160ff021916908360018111156124bc577f4e487b7100000000000000000000000000000000000000000000000000000000600052602160045260246000fd5b021790555034600e6000858152602001908152602001600020600086815260200190815260200160002060010160008282546124f891906153fe565b9250508190555034600e60008581526020019081526020016000206000868152602001908152602001600020600201600082825461253691906153fe565b92505081905550600d600084815260200190815260200160002060003373ffffffffffffffffffffffffffffffffffffffff1673ffffffffffffffffffffffffffffffffffffffff1681526020019081526020016000208490806001815401808255809150506001900390600052602060002001600090919091909150557f56ea381aee88f7d7cedf22b5e448fc9586f8a198f6a3767b87a0ec31f7667d86833460006040516125e893929190615254565b60405180910390a16001808190555050505050565b600f5481565b60008273ffffffffffffffffffffffffffffffffffffffff168260405161262990614dc1565b60006040518083038185875af1925050503d8060008114612666576040519150601f19603f3d011682016040523d82523d6000602084013e61266b565b606091505b50509050806126af576040517f08c379a00000000000000000000000000000000000000000000000000000000081526004016126a690614f74565b60405180910390fd5b505050565b600042905090565b6126c4610f51565b15612704576040517f08c379a00000000000000000000000000000000000000000000000000000000081526004016126fb90615074565b60405180910390fd5b60011515600b600083815260200190815260200160002060009054906101000a900460ff1615151461276b576040517f08c379a000000000000000000000000000000000000000000000000000000000815260040161276290615154565b60405180910390fd5b6000600a600083815260200190815260200160002054905061279960018261279391906156f4565b836138d7565b6001600e6000848152602001908152602001600020600083815260200190815260200160002060070160026101000a81548160ff0219169083151502179055506127ef6001826127e991906153fe565b83613b71565b6001600a6000848152602001908152602001600020600082825461281391906153fe565b925050819055507fb352bf6cd71f52e0afa92233b39b67b5b88f33595d886578f9c323dbd6997dd7828260018461284a91906156f4565b60018561285791906153fe565b604051612867949392919061528b565b60405180910390a15050565b60606000600a60008581526020019081526020016000205490506000808467ffffffffffffffff8111156128d0577f4e487b7100000000000000000000000000000000000000000000000000000000600052604160045260246000fd5b60405190808252806020026020018201604052801561290957816020015b6128f66140bc565b8152602001906001900390816128ee5790505b50905060008390505b6000811115612aab5785831061292757612aab565b600e6000888152602001908152602001600020600082815260200190815260200160002060405180610220016040529081600082015481526020016001820154815260200160028201548152602001600382015481526020016004820154815260200160058201548152602001600682015481526020016007820160009054906101000a900460ff161515151581526020016007820160019054906101000a900460ff161515151581526020016007820160029054906101000a900460ff161515151581526020016007820160039054906101000a900460ff161515151581526020016008820154815260200160098201548152602001600a8201548152602001600b8201548152602001600c8201548152602001600d82015481525050828481518110612a7e577f4e487b7100000000000000000000000000000000000000000000000000000000600052603260045260246000fd5b6020026020010181905250600183612a9691906153fe565b92508080612aa390615830565b915050612912565b5080935050505092915050565b3373ffffffffffffffffffffffffffffffffffffffff16600260009054906101000a900473ffffffffffffffffffffffffffffffffffffffff1673ffffffffffffffffffffffffffffffffffffffff1614612b48576040517f08c379a0000000000000000000000000000000000000000000000000000000008152600401612b3f90614ff4565b60405180910390fd5b8060048190555050565b6060806000600d600085815260200190815260200160002060003373ffffffffffffffffffffffffffffffffffffffff1673ffffffffffffffffffffffffffffffffffffffff168152602001908152602001600020805480602002602001604051908101604052809291908181526020018280548015612bf157602002820191906000526020600020905b815481526020019060010190808311612bdd575b5050505050905060008151905060008167ffffffffffffffff811115612c40577f4e487b7100000000000000000000000000000000000000000000000000000000600052604160045260246000fd5b604051908082528060200260200182016040528015612c7957816020015b612c66614148565b815260200190600190039081612c5e5790505b50905060005b82811015612e3657600c60008881526020019081526020016000206000858381518110612cd5577f4e487b7100000000000000000000000000000000000000000000000000000000600052603260045260246000fd5b6020026020010151815260200190815260200160002060003373ffffffffffffffffffffffffffffffffffffffff1673ffffffffffffffffffffffffffffffffffffffff1681526020019081526020016000206040518060600160405290816000820160009054906101000a900460ff166001811115612d7e577f4e487b7100000000000000000000000000000000000000000000000000000000600052602160045260246000fd5b6001811115612db6577f4e487b7100000000000000000000000000000000000000000000000000000000600052602160045260246000fd5b8152602001600182015481526020016002820160009054906101000a900460ff161515151581525050828281518110612e18577f4e487b7100000000000000000000000000000000000000000000000000000000600052603260045260246000fd5b60200260200101819052508080612e2e9061588b565b915050612c7f565b50808394509450505050915091565b60085481565b600b6020528060005260406000206000915054906101000a900460ff1681565b612e73610f51565b15612eb3576040517f08c379a0000000000000000000000000000000000000000000000000000000008152600401612eaa90615074565b60405180910390fd5b3373ffffffffffffffffffffffffffffffffffffffff16600260009054906101000a900473ffffffffffffffffffffffffffffffffffffffff1673ffffffffffffffffffffffffffffffffffffffff1614612f43576040517f08c379a0000000000000000000000000000000000000000000000000000000008152600401612f3a90614ff4565b60405180910390fd5b60001515600b600083815260200190815260200160002060009054906101000a900460ff16151514612faa576040517f08c379a0000000000000000000000000000000000000000000000000000000008152600401612fa1906151b4565b60405180910390fd5b60006001600a600084815260200190815260200160002054612fcc91906153fe565b9050612fd88183613b71565b6001600e6000848152602001908152602001600020600083815260200190815260200160002060070160026101000a81548160ff02191690831515021790555060018161302591906153fe565b600a60008481526020019081526020016000208190555061305260018261304c91906153fe565b83613b71565b5050565b60008042600e60006001815260200190815260200160002060006001600a6000600181526020019081526020016000205461309191906156f4565b8152602001908152602001600020600901541090508091505090565b6130b5610f51565b156130f5576040517f08c379a00000000000000000000000000000000000000000000000000000000081526004016130ec90615074565b60405180910390fd5b818160011515600e6000838152602001908152602001600020600084815260200190815260200160002060070160009054906101000a900460ff16151514613172576040517f08c379a000000000000000000000000000000000000000000000000000000000815260040161316990615194565b60405180910390fd5b60001515600e6000838152602001908152602001600020600084815260200190815260200160002060070160019054906101000a900460ff161515146131ed576040517f08c379a00000000000000000000000000000000000000000000000000000000081526004016131e490615054565b60405180910390fd5b60001515600e6000838152602001908152602001600020600084815260200190815260200160002060070160029054906101000a900460ff16151514613268576040517f08c379a000000000000000000000000000000000000000000000000000000000815260040161325f90615094565b60405180910390fd5b6004543410156132ad576040517f08c379a00000000000000000000000000000000000000000000000000000000081526004016132a490614fb4565b60405180910390fd5b6000600c6000838152602001908152602001600020600084815260200190815260200160002060003373ffffffffffffffffffffffffffffffffffffffff1673ffffffffffffffffffffffffffffffffffffffff1681526020019081526020016000206001015414613354576040517f08c379a000000000000000000000000000000000000000000000000000000000815260040161334b906150b4565b60405180910390fd5b42600e600083815260200190815260200160002060008481526020019081526020016000206009015410156133be576040517f08c379a00000000000000000000000000000000000000000000000000000000081526004016133b590615114565b60405180910390fd5b6133c7336138c4565b15613407576040517f08c379a00000000000000000000000000000000000000000000000000000000081526004016133fe90614fd4565b60405180910390fd5b3273ffffffffffffffffffffffffffffffffffffffff163373ffffffffffffffffffffffffffffffffffffffff1614613475576040517f08c379a000000000000000000000000000000000000000000000000000000000815260040161346c906150d4565b60405180910390fd5b600260015414156134bb576040517f08c379a00000000000000000000000000000000000000000000000000000000081526004016134b2906151d4565b60405180910390fd5b600260018190555034600c6000858152602001908152602001600020600086815260200190815260200160002060003373ffffffffffffffffffffffffffffffffffffffff1673ffffffffffffffffffffffffffffffffffffffff168152602001908152602001600020600101819055506001600c6000858152602001908152602001600020600086815260200190815260200160002060003373ffffffffffffffffffffffffffffffffffffffff1673ffffffffffffffffffffffffffffffffffffffff16815260200190815260200160002060000160006101000a81548160ff021916908360018111156135da577f4e487b7100000000000000000000000000000000000000000000000000000000600052602160045260246000fd5b021790555034600e60008581526020019081526020016000206000868152602001908152602001600020600101600082825461361691906153fe565b9250508190555034600e60008581526020019081526020016000206000868152602001908152602001600020600301600082825461365491906153fe565b92505081905550600d600084815260200190815260200160002060003373ffffffffffffffffffffffffffffffffffffffff1673ffffffffffffffffffffffffffffffffffffffff1681526020019081526020016000208490806001815401808255809150506001900390600052602060002001600090919091909150557f56ea381aee88f7d7cedf22b5e448fc9586f8a198f6a3767b87a0ec31f7667d868334600160405161370693929190615254565b60405180910390a16001808190555050505050565b613723610f51565b15613763576040517f08c379a000000000000000000000000000000000000000000000000000000000815260040161375a90615074565b60405180910390fd5b60016000806101000a81548160ff0219169083151502179055507f62e78cea01bee320cd4e420270b5ea74000d11b0c9f74754ebdbfc544b05a2586137a6613e10565b6040516137b39190614dd6565b60405180910390a1565b6000818313156137f457826305f5e10083856137d99190615660565b6137e391906154ef565b6137ed9190615454565b905061381d565b826305f5e10084846138069190615660565b61381091906154ef565b61381a9190615454565b90505b92915050565b61382b610f51565b61386a576040517f08c379a000000000000000000000000000000000000000000000000000000000815260040161386190614f54565b60405180910390fd5b60008060006101000a81548160ff0219169083151502179055507f5db9ee0a495bf2e6ff9c91a7834c1ba4fdd244a5e8aa4e537bd38aeae4b073aa6138ad613e10565b6040516138ba9190614dd6565b60405180910390a1565b600080823b905060008111915050919050565b60011515600b600083815260200190815260200160002060009054906101000a900460ff1615151461393e576040517f08c379a000000000000000000000000000000000000000000000000000000000815260040161393590615154565b60405180910390fd5b60001515600e6000838152602001908152602001600020600084815260200190815260200160002060070160019054906101000a900460ff161515146139b9576040517f08c379a00000000000000000000000000000000000000000000000000000000081526004016139b090614f94565b60405180910390fd5b6000600e600083815260200190815260200160002060008481526020019081526020016000206008015411613a23576040517f08c379a0000000000000000000000000000000000000000000000000000000008152600401613a1a90615194565b60405180910390fd5b42600e600083815260200190815260200160002060008481526020019081526020016000206009015410613a8c576040517f08c379a0000000000000000000000000000000000000000000000000000000008152600401613a8390615054565b60405180910390fd5b6001600e6000838152602001908152602001600020600084815260200190815260200160002060070160016101000a81548160ff021916908315150217905550620f82ee600e60008381526020019081526020016000206000848152602001908152602001600020600a01819055506213ee89600e60008381526020019081526020016000206000848152602001908152602001600020600b0181905550613b348282613e18565b7f3de62ea950fc2ed1ed823bb23086296729e73cdd05823251b76e36665ff267b58282604051613b6592919061522b565b60405180910390a15050565b60001515600e6000838152602001908152602001600020600084815260200190815260200160002060070160009054906101000a900460ff16151514613bec576040517f08c379a0000000000000000000000000000000000000000000000000000000008152600401613be390615014565b60405180910390fd5b6001600e6000838152602001908152602001600020600084815260200190815260200160002060070160006101000a81548160ff021916908315150217905550600080613cbc60096000858152602001908152602001600020600280602002604051908101604052809291908260028015613cb2576020028201915b8160009054906101000a900473ffffffffffffffffffffffffffffffffffffffff1673ffffffffffffffffffffffffffffffffffffffff1681526020019060010190808311613c68575b5050505050611df1565b9150915082600e600085815260200190815260200160002060008681526020019081526020016000206000018190555083600e600085815260200190815260200160002060008681526020019081526020016000206006018190555042600e6000858152602001908152602001600020600086815260200190815260200160002060080181905550613d4e8484614003565b600e600085815260200190815260200160002060008681526020019081526020016000206009018190555081600e60008581526020019081526020016000206000868152602001908152602001600020600c018190555080600e60008581526020019081526020016000206000868152602001908152602001600020600d01819055507f0e5543feb86a4cd302f2b88b26c42be2d1673013a34e1f98bd6d524dd3b4ab418484604051613e0292919061522b565b60405180910390a150505050565b600033905090565b6000600e6000838152602001908152602001600020600084815260200190815260200160002060050154148015613e7657506000600e6000838152602001908152602001600020600084815260200190815260200160002060040154145b613eb5576040517f08c379a0000000000000000000000000000000000000000000000000000000008152600401613eac90615034565b60405180910390fd5b6000600e60008381526020019081526020016000206000848152602001908152602001600020905080600b015481600a01541315613f545760006127106007548360010154613f049190615606565b613f0e91906154be565b905081600201548260050181905550808260010154613f2d91906156f4565b82600401819055508060066000828254613f4791906153fe565b9250508190555050613ffe565b80600b015481600a01541215613fcb5760006127106007548360010154613f7b9190615606565b613f8591906154be565b905081600301548260050181905550808260010154613fa491906156f4565b82600401819055508060066000828254613fbe91906153fe565b9250508190555050613ffd565b6000816005018190555060008160040181905550806001015460066000828254613ff591906153fe565b925050819055505b5b505050565b6000801515600b600084815260200190815260200160002060009054906101000a900460ff1615151415614072576001600b600084815260200190815260200160002060006101000a81548160ff0219169083151502179055506008544261406b91906153fe565b90506140b6565b600854600e6000848152602001908152602001600020600060018661409791906156f4565b8152602001908152602001600020600901546140b391906153fe565b90505b92915050565b604051806102200160405280600081526020016000815260200160008152602001600081526020016000815260200160008152602001600081526020016000151581526020016000151581526020016000151581526020016000151581526020016000815260200160008152602001600081526020016000815260200160008152602001600081525090565b60405180606001604052806000600181111561418d577f4e487b7100000000000000000000000000000000000000000000000000000000600052602160045260246000fd5b8152602001600081526020016000151581525090565b60006141b66141b1846152f5565b6152d0565b905080828560208602820111156141cc57600080fd5b60005b858110156141fc57816141e2888261428c565b8452602084019350602083019250506001810190506141cf565b5050509392505050565b60008135905061421581615d87565b92915050565b600082601f83011261422c57600080fd5b60026142398482856141a3565b91505092915050565b60008083601f84011261425457600080fd5b8235905067ffffffffffffffff81111561426d57600080fd5b60208301915083600182028301111561428557600080fd5b9250929050565b60008135905061429b81615d9e565b92915050565b6000815190506142b081615db5565b92915050565b6000813590506142c581615dcc565b92915050565b6000815190506142da81615dcc565b92915050565b6000815190506142ef81615de3565b92915050565b60006020828403121561430757600080fd5b600061431584828501614206565b91505092915050565b6000806040838503121561433157600080fd5b600061433f85828601614206565b925050602061435085828601614206565b9150509250929050565b6000806040838503121561436d57600080fd5b600061437b85828601614206565b925050602061438c858286016142b6565b9150509250929050565b6000604082840312156143a857600080fd5b60006143b68482850161421b565b91505092915050565b600080602083850312156143d257600080fd5b600083013567ffffffffffffffff8111156143ec57600080fd5b6143f885828601614242565b92509250509250929050565b60006020828403121561441657600080fd5b6000614424848285016142b6565b91505092915050565b60008060006060848603121561444257600080fd5b6000614450868287016142b6565b935050602061446186828701614206565b9250506040614472868287016142b6565b9150509250925092565b6000806040838503121561448f57600080fd5b600061449d858286016142b6565b92505060206144ae858286016142b6565b9150509250929050565b6000806000606084860312156144cd57600080fd5b60006144db868287016142b6565b93505060206144ec868287016142b6565b92505060406144fd86828701614206565b9150509250925092565b600080600080600060a0868803121561451f57600080fd5b600061452d888289016142e0565b955050602061453e888289016142a1565b945050604061454f888289016142cb565b9350506060614560888289016142cb565b9250506080614571888289016142e0565b9150509295509295909350565b600061458a8383614aa3565b6102208301905092915050565b60006145a38383614d61565b60608301905092915050565b60006145bb8383614da3565b60208301905092915050565b6145d081615728565b82525050565b60006145e18261534b565b6145eb818561539e565b93506145f68361531b565b8060005b8381101561462757815161460e888261457e565b975061461983615377565b9250506001810190506145fa565b5085935050505092915050565b600061463f82615356565b61464981856153af565b93506146548361532b565b8060005b8381101561468557815161466c8882614597565b975061467783615384565b925050600181019050614658565b5085935050505092915050565b600061469d82615361565b6146a781856153c0565b93506146b28361533b565b8060005b838110156146e35781516146ca88826145af565b97506146d583615391565b9250506001810190506146b6565b5085935050505092915050565b6146f98161573a565b82525050565b6147088161573a565b82525050565b60006147198261536c565b61472381856153d1565b93506147338185602086016157fd565b61473c81615990565b840191505092915050565b614750816157b5565b82525050565b61475f816157d9565b82525050565b61476e816157d9565b82525050565b61477d8161576b565b82525050565b61478c8161576b565b82525050565b61479b816157eb565b82525050565b60006147ae6014836153ed565b91506147b9826159a1565b602082019050919050565b60006147d1600f836153ed565b91506147dc826159ca565b602082019050919050565b60006147f46017836153ed565b91506147ff826159f3565b602082019050919050565b60006148176015836153ed565b915061482282615a1c565b602082019050919050565b600061483a6014836153ed565b915061484582615a45565b602082019050919050565b600061485d600c836153ed565b915061486882615a6e565b602082019050919050565b6000614880601e836153ed565b915061488b82615a97565b602082019050919050565b60006148a36012836153ed565b91506148ae82615ac0565b602082019050919050565b60006148c66013836153ed565b91506148d182615ae9565b602082019050919050565b60006148e96010836153ed565b91506148f482615b12565b602082019050919050565b600061490c600f836153ed565b915061491782615b3b565b602082019050919050565b600061492f601b836153ed565b915061493a82615b64565b602082019050919050565b6000614952601a836153ed565b915061495d82615b8d565b602082019050919050565b6000614975600f836153ed565b915061498082615bb6565b602082019050919050565b60006149986014836153ed565b91506149a382615bdf565b602082019050919050565b60006149bb600c836153ed565b91506149c682615c08565b602082019050919050565b60006149de601d836153ed565b91506149e982615c31565b602082019050919050565b6000614a016000836153e2565b9150614a0c82615c5a565b600082019050919050565b6000614a246044836153ed565b9150614a2f82615c5d565b606082019050919050565b6000614a476015836153ed565b9150614a5282615cd2565b602082019050919050565b6000614a6a6021836153ed565b9150614a7582615cfb565b604082019050919050565b6000614a8d601f836153ed565b9150614a9882615d4a565b602082019050919050565b61022082016000820151614aba6000850182614da3565b506020820151614acd6020850182614da3565b506040820151614ae06040850182614da3565b506060820151614af36060850182614da3565b506080820151614b066080850182614da3565b5060a0820151614b1960a0850182614da3565b5060c0820151614b2c60c0850182614da3565b5060e0820151614b3f60e08501826146f0565b50610100820151614b546101008501826146f0565b50610120820151614b696101208501826146f0565b50610140820151614b7e6101408501826146f0565b50610160820151614b93610160850182614da3565b50610180820151614ba8610180850182614da3565b506101a0820151614bbd6101a0850182614774565b506101c0820151614bd26101c0850182614774565b506101e0820151614be76101e0850182614774565b50610200820151614bfc610200850182614774565b50505050565b61022082016000820151614c196000850182614da3565b506020820151614c2c6020850182614da3565b506040820151614c3f6040850182614da3565b506060820151614c526060850182614da3565b506080820151614c656080850182614da3565b5060a0820151614c7860a0850182614da3565b5060c0820151614c8b60c0850182614da3565b5060e0820151614c9e60e08501826146f0565b50610100820151614cb36101008501826146f0565b50610120820151614cc86101208501826146f0565b50610140820151614cdd6101408501826146f0565b50610160820151614cf2610160850182614da3565b50610180820151614d07610180850182614da3565b506101a0820151614d1c6101a0850182614774565b506101c0820151614d316101c0850182614774565b506101e0820151614d466101e0850182614774565b50610200820151614d5b610200850182614774565b50505050565b606082016000820151614d776000850182614756565b506020820151614d8a6020850182614da3565b506040820151614d9d60408501826146f0565b50505050565b614dac81615795565b82525050565b614dbb81615795565b82525050565b6000614dcc826149f4565b9150819050919050565b6000602082019050614deb60008301846145c7565b92915050565b6000604082019050614e0660008301856145c7565b614e136020830184614db2565b9392505050565b60006020820190508181036000830152614e3481846145d6565b905092915050565b60006040820190508181036000830152614e568185614634565b90508181036020830152614e6a8184614692565b90509392505050565b6000602082019050614e8860008301846146ff565b92915050565b6000604082019050614ea360008301856146ff565b8181036020830152614eb5818461470e565b90509392505050565b6000602082019050614ed36000830184614747565b92915050565b6000606082019050614eee6000830186614765565b614efb6020830185614db2565b614f0860408301846146ff565b949350505050565b6000604082019050614f256000830185614783565b614f326020830184614783565b9392505050565b6000602082019050614f4e6000830184614792565b92915050565b60006020820190508181036000830152614f6d816147a1565b9050919050565b60006020820190508181036000830152614f8d816147c4565b9050919050565b60006020820190508181036000830152614fad816147e7565b9050919050565b60006020820190508181036000830152614fcd8161480a565b9050919050565b60006020820190508181036000830152614fed8161482d565b9050919050565b6000602082019050818103600083015261500d81614850565b9050919050565b6000602082019050818103600083015261502d81614873565b9050919050565b6000602082019050818103600083015261504d81614896565b9050919050565b6000602082019050818103600083015261506d816148b9565b9050919050565b6000602082019050818103600083015261508d816148dc565b9050919050565b600060208201905081810360008301526150ad816148ff565b9050919050565b600060208201905081810360008301526150cd81614922565b9050919050565b600060208201905081810360008301526150ed81614945565b9050919050565b6000602082019050818103600083015261510d81614968565b9050919050565b6000602082019050818103600083015261512d8161498b565b9050919050565b6000602082019050818103600083015261514d816149ae565b9050919050565b6000602082019050818103600083015261516d816149d1565b9050919050565b6000602082019050818103600083015261518d81614a17565b9050919050565b600060208201905081810360008301526151ad81614a3a565b9050919050565b600060208201905081810360008301526151cd81614a5d565b9050919050565b600060208201905081810360008301526151ed81614a80565b9050919050565b60006102208201905061520a6000830184614c02565b92915050565b60006020820190506152256000830184614db2565b92915050565b60006040820190506152406000830185614db2565b61524d6020830184614db2565b9392505050565b60006060820190506152696000830186614db2565b6152766020830185614db2565b6152836040830184614765565b949350505050565b60006080820190506152a06000830187614db2565b6152ad6020830186614db2565b6152ba6040830185614db2565b6152c76060830184614db2565b95945050505050565b60006152da6152eb565b90506152e6828261585a565b919050565b6000604051905090565b600067ffffffffffffffff8211156153105761530f615961565b5b602082029050919050565b6000819050602082019050919050565b6000819050602082019050919050565b6000819050602082019050919050565b600081519050919050565b600081519050919050565b600081519050919050565b600081519050919050565b6000602082019050919050565b6000602082019050919050565b6000602082019050919050565b600082825260208201905092915050565b600082825260208201905092915050565b600082825260208201905092915050565b600082825260208201905092915050565b600081905092915050565b600082825260208201905092915050565b600061540982615795565b915061541483615795565b9250827fffffffffffffffffffffffffffffffffffffffffffffffffffffffffffffffff03821115615449576154486158d4565b5b828201905092915050565b600061545f8261576b565b915061546a8361576b565b92508261547a57615479615903565b5b600160000383147f8000000000000000000000000000000000000000000000000000000000000000831416156154b3576154b26158d4565b5b828205905092915050565b60006154c982615795565b91506154d483615795565b9250826154e4576154e3615903565b5b828204905092915050565b60006154fa8261576b565b91506155058361576b565b9250827f7fffffffffffffffffffffffffffffffffffffffffffffffffffffffffffffff0482116000841360008413161615615544576155436158d4565b5b817f80000000000000000000000000000000000000000000000000000000000000000583126000841260008413161615615581576155806158d4565b5b827f800000000000000000000000000000000000000000000000000000000000000005821260008413600084121616156155be576155bd6158d4565b5b827f7fffffffffffffffffffffffffffffffffffffffffffffffffffffffffffffff05821260008412600084121616156155fb576155fa6158d4565b5b828202905092915050565b600061561182615795565b915061561c83615795565b9250817fffffffffffffffffffffffffffffffffffffffffffffffffffffffffffffffff0483118215151615615655576156546158d4565b5b828202905092915050565b600061566b8261576b565b91506156768361576b565b9250827f8000000000000000000000000000000000000000000000000000000000000000018212600084121516156156b1576156b06158d4565b5b827f7fffffffffffffffffffffffffffffffffffffffffffffffffffffffffffffff0182136000841216156156e9576156e86158d4565b5b828203905092915050565b60006156ff82615795565b915061570a83615795565b92508282101561571d5761571c6158d4565b5b828203905092915050565b600061573382615775565b9050919050565b60008115159050919050565b600061575182615728565b9050919050565b600081905061576682615d73565b919050565b6000819050919050565b600073ffffffffffffffffffffffffffffffffffffffff82169050919050565b6000819050919050565b600069ffffffffffffffffffff82169050919050565b60006157c0826157c7565b9050919050565b60006157d282615775565b9050919050565b60006157e482615758565b9050919050565b60006157f682615795565b9050919050565b60005b8381101561581b578082015181840152602081019050615800565b8381111561582a576000848401525b50505050565b600061583b82615795565b9150600082141561584f5761584e6158d4565b5b600182039050919050565b61586382615990565b810181811067ffffffffffffffff8211171561588257615881615961565b5b80604052505050565b600061589682615795565b91507fffffffffffffffffffffffffffffffffffffffffffffffffffffffffffffffff8214156158c9576158c86158d4565b5b600182019050919050565b7f4e487b7100000000000000000000000000000000000000000000000000000000600052601160045260246000fd5b7f4e487b7100000000000000000000000000000000000000000000000000000000600052601260045260246000fd5b7f4e487b7100000000000000000000000000000000000000000000000000000000600052602160045260246000fd5b7f4e487b7100000000000000000000000000000000000000000000000000000000600052604160045260246000fd5b6000601f19601f8301169050919050565b7f5061757361626c653a206e6f7420706175736564000000000000000000000000600082015250565b7f5472616e73666572206661696c65640000000000000000000000000000000000600082015250565b7f526f756e642068617320616c726561647920656e646564000000000000000000600082015250565b7f4d757374206d656574206d696e696d756d206265740000000000000000000000600082015250565b7f436f6e7472616374206e6f7420616c6c6f776564000000000000000000000000600082015250565b7f4e6f7420616e206f776e65720000000000000000000000000000000000000000600082015250565b7f526f756e642068617320616c7265616479206265656e20737461727465640000600082015250565b7f526577617264732063616c63756c617465640000000000000000000000000000600082015250565b7f526f756e6420686173206e6f7420656e64656400000000000000000000000000600082015250565b7f5061757361626c653a2070617573656400000000000000000000000000000000600082015250565b7f526f756e64206973206c6f636b65640000000000000000000000000000000000600082015250565b7f557365722063616e6e6f7420706c6163652062696420616761696e0000000000600082015250565b7f50726f787920636f6e7472616374206e6f7420616c6c6f776564000000000000600082015250565b7f416c726561647920636c61696d65640000000000000000000000000000000000600082015250565b7f42657474696e672074696d65206973206f766572000000000000000000000000600082015250565b7f43616e6e6f7420636c61696d0000000000000000000000000000000000000000600082015250565b7f67656e6573697320726f756e6420686173206e6f742073746172746564000000600082015250565b50565b7f416c6c2074686520726577617264732077656e7420746f20706f6f6c2061732060008201527f7072696365206368616e6765206f6620626f746820746f6b656e20617265206560208201527f7175616c00000000000000000000000000000000000000000000000000000000604082015250565b7f526f756e6420686173206e6f7420737461727465640000000000000000000000600082015250565b7f67656e6573697320726f756e642068617320616c72656164792073746172746560008201527f6400000000000000000000000000000000000000000000000000000000000000602082015250565b7f5265656e7472616e637947756172643a207265656e7472616e742063616c6c00600082015250565b60028110615d8457615d83615932565b5b50565b615d9081615728565b8114615d9b57600080fd5b50565b615da781615746565b8114615db257600080fd5b50565b615dbe8161576b565b8114615dc957600080fd5b50565b615dd581615795565b8114615de057600080fd5b50565b615dec8161579f565b8114615df757600080fd5b5056fea26469706673582212207d20a1631a120f73066ba37c655b40e00a270aeaff585c2b2cffd65ac531f4e364736f6c63430008040033",
  "linkReferences": {},
  "deployedLinkReferences": {}
}