{
  "_format": "hh-sol-artifact-1",
  "contractName": "CryproPairPricePredictionFactory",
  "sourceName": "contracts/crypto-prediction.sol",
  "abi": [
    {
      "inputs": [
        {
          "internalType": "address",
          "name": "_owner",
          "type": "address"
        }
      ],
      "stateMutability": "nonpayable",
      "type": "constructor"
    },
    {
      "anonymous": false,
      "inputs": [
        {
          "indexed": false,
          "internalType": "uint256",
          "name": "pair",
          "type": "uint256"
        },
        {
          "indexed": false,
          "internalType": "uint256",
          "name": "amount",
          "type": "uint256"
        },
        {
          "indexed": false,
          "internalType": "enum CryproPairPricePredictionFactory.TokenSelection",
          "name": "tokenBetType",
          "type": "uint8"
        }
      ],
      "name": "Bet",
      "type": "event"
    },
    {
      "anonymous": false,
      "inputs": [
        {
          "indexed": false,
          "internalType": "uint256",
          "name": "amount",
          "type": "uint256"
        }
      ],
      "name": "Claim",
      "type": "event"
    },
    {
      "anonymous": false,
      "inputs": [
        {
          "indexed": false,
          "internalType": "uint256",
          "name": "pairRound",
          "type": "uint256"
        },
        {
          "indexed": false,
          "internalType": "uint256",
          "name": "pair",
          "type": "uint256"
        }
      ],
      "name": "EndRound",
      "type": "event"
    },
    {
      "anonymous": false,
      "inputs": [
        {
          "indexed": false,
          "internalType": "uint256",
          "name": "",
          "type": "uint256"
        }
      ],
      "name": "FeesChanged",
      "type": "event"
    },
    {
      "anonymous": false,
      "inputs": [
        {
          "indexed": false,
          "internalType": "uint256",
          "name": "roundNumber",
          "type": "uint256"
        }
      ],
      "name": "Pause",
      "type": "event"
    },
    {
      "anonymous": false,
      "inputs": [
        {
          "indexed": false,
          "internalType": "address",
          "name": "account",
          "type": "address"
        }
      ],
      "name": "Paused",
      "type": "event"
    },
    {
      "anonymous": false,
      "inputs": [
        {
          "indexed": false,
          "internalType": "int256",
          "name": "",
          "type": "int256"
        },
        {
          "indexed": false,
          "internalType": "int256",
          "name": "",
          "type": "int256"
        }
      ],
      "name": "PercentageTokenChanges",
      "type": "event"
    },
    {
      "anonymous": false,
      "inputs": [
        {
          "indexed": false,
          "internalType": "uint256",
          "name": "pair",
          "type": "uint256"
        }
      ],
      "name": "PerformUpKeepUpdated",
      "type": "event"
    },
    {
      "anonymous": false,
      "inputs": [
        {
          "indexed": false,
          "internalType": "address",
          "name": "",
          "type": "address"
        },
        {
          "indexed": false,
          "internalType": "uint256",
          "name": "",
          "type": "uint256"
        }
      ],
      "name": "Received",
      "type": "event"
    },
    {
      "anonymous": false,
      "inputs": [
        {
          "indexed": false,
          "internalType": "uint256",
          "name": "pair",
          "type": "uint256"
        },
        {
          "indexed": false,
          "internalType": "uint256",
          "name": "currentRound",
          "type": "uint256"
        },
        {
          "indexed": false,
          "internalType": "uint256",
          "name": "previousRound",
          "type": "uint256"
        },
        {
          "indexed": false,
          "internalType": "uint256",
          "name": "nextRound",
          "type": "uint256"
        }
      ],
      "name": "RoundExecution",
      "type": "event"
    },
    {
      "anonymous": false,
      "inputs": [
        {
          "indexed": false,
          "internalType": "uint256",
          "name": "pairRound",
          "type": "uint256"
        },
        {
          "indexed": false,
          "internalType": "uint256",
          "name": "pair",
          "type": "uint256"
        }
      ],
      "name": "StartRound",
      "type": "event"
    },
    {
      "anonymous": false,
      "inputs": [
        {
          "indexed": false,
          "internalType": "uint256",
          "name": "pairsActivated",
          "type": "uint256"
        }
      ],
      "name": "Unpause",
      "type": "event"
    },
    {
      "anonymous": false,
      "inputs": [
        {
          "indexed": false,
          "internalType": "address",
          "name": "account",
          "type": "address"
        }
      ],
      "name": "Unpaused",
      "type": "event"
    },
    {
      "inputs": [
        {
          "internalType": "address",
          "name": "to",
          "type": "address"
        },
        {
          "internalType": "uint256",
          "name": "value",
          "type": "uint256"
        }
      ],
      "name": "_safeTransfer",
      "outputs": [],
      "stateMutability": "nonpayable",
      "type": "function"
    },
    {
      "inputs": [],
      "name": "amountToBeTransfered",
      "outputs": [
        {
          "internalType": "uint256",
          "name": "",
          "type": "uint256"
        }
      ],
      "stateMutability": "view",
      "type": "function"
    },
    {
      "inputs": [
        {
          "internalType": "uint256",
          "name": "_fees",
          "type": "uint256"
        }
      ],
      "name": "changeFees",
      "outputs": [],
      "stateMutability": "nonpayable",
      "type": "function"
    },
    {
      "inputs": [
        {
          "internalType": "uint256",
          "name": "_minBet",
          "type": "uint256"
        }
      ],
      "name": "changeMinBet",
      "outputs": [],
      "stateMutability": "nonpayable",
      "type": "function"
    },
    {
      "inputs": [
        {
          "internalType": "bytes",
          "name": "checkData",
          "type": "bytes"
        }
      ],
      "name": "checkUpkeep",
      "outputs": [
        {
          "internalType": "bool",
          "name": "upkeepNeeded",
          "type": "bool"
        },
        {
          "internalType": "bytes",
          "name": "performData",
          "type": "bytes"
        }
      ],
      "stateMutability": "view",
      "type": "function"
    },
    {
      "inputs": [
        {
          "internalType": "uint256",
          "name": "_pairRound",
          "type": "uint256"
        },
        {
          "internalType": "uint256",
          "name": "_pair",
          "type": "uint256"
        }
      ],
      "name": "claimReward",
      "outputs": [],
      "stateMutability": "payable",
      "type": "function"
    },
    {
      "inputs": [
        {
          "internalType": "address",
          "name": "firstToken",
          "type": "address"
        },
        {
          "internalType": "address",
          "name": "secondToken",
          "type": "address"
        }
      ],
      "name": "createPredictionPairs",
      "outputs": [],
      "stateMutability": "nonpayable",
      "type": "function"
    },
    {
      "inputs": [],
      "name": "fees",
      "outputs": [
        {
          "internalType": "uint256",
          "name": "",
          "type": "uint256"
        }
      ],
      "stateMutability": "view",
      "type": "function"
    },
    {
      "inputs": [
        {
          "internalType": "uint256",
          "name": "_pairRound",
          "type": "uint256"
        },
        {
          "internalType": "uint256",
          "name": "_pair",
          "type": "uint256"
        }
      ],
      "name": "firstTokenBet",
      "outputs": [],
      "stateMutability": "payable",
      "type": "function"
    },
    {
      "inputs": [],
      "name": "getBlockTimeStamp",
      "outputs": [
        {
          "internalType": "uint256",
          "name": "",
          "type": "uint256"
        }
      ],
      "stateMutability": "view",
      "type": "function"
    },
    {
      "inputs": [
        {
          "internalType": "contract AggregatorV3Interface[2]",
          "name": "token",
          "type": "address[2]"
        }
      ],
      "name": "getLatestPrice",
      "outputs": [
        {
          "internalType": "int256",
          "name": "",
          "type": "int256"
        },
        {
          "internalType": "int256",
          "name": "",
          "type": "int256"
        }
      ],
      "stateMutability": "view",
      "type": "function"
    },
    {
      "inputs": [
        {
          "internalType": "uint256",
          "name": "_pair",
          "type": "uint256"
        }
      ],
      "name": "getPairRounds",
      "outputs": [
        {
          "components": [
            {
              "internalType": "uint256",
              "name": "pairNumber",
              "type": "uint256"
            },
            {
              "internalType": "uint256",
              "name": "poolAmount",
              "type": "uint256"
            },
            {
              "internalType": "uint256",
              "name": "firstTokenPoolAmount",
              "type": "uint256"
            },
            {
              "internalType": "uint256",
              "name": "secondTokenPoolAmount",
              "type": "uint256"
            },
            {
              "internalType": "uint256",
              "name": "poolTokenRewardAmount",
              "type": "uint256"
            },
            {
              "internalType": "uint256",
              "name": "poolTokenBaseAmount",
              "type": "uint256"
            },
            {
              "internalType": "uint256",
              "name": "roundNumber",
              "type": "uint256"
            },
            {
              "internalType": "bool",
              "name": "roundStart",
              "type": "bool"
            },
            {
              "internalType": "bool",
              "name": "roundEnded",
              "type": "bool"
            },
            {
              "internalType": "bool",
              "name": "roundLock",
              "type": "bool"
            },
            {
              "internalType": "bool",
              "name": "gotPaused",
              "type": "bool"
            },
            {
              "internalType": "uint256",
              "name": "startTimeStamp",
              "type": "uint256"
            },
            {
              "internalType": "uint256",
              "name": "endTimeStamp",
              "type": "uint256"
            },
            {
              "internalType": "int256",
              "name": "firstTokenPriceChange",
              "type": "int256"
            },
            {
              "internalType": "int256",
              "name": "secondTokenPriceChange",
              "type": "int256"
            },
            {
              "internalType": "int256",
              "name": "firstTokenPrice",
              "type": "int256"
            },
            {
              "internalType": "int256",
              "name": "secondTokenPrice",
              "type": "int256"
            }
          ],
          "internalType": "struct CryproPairPricePredictionFactory.Rounds[]",
          "name": "",
          "type": "tuple[]"
        }
      ],
      "stateMutability": "view",
      "type": "function"
    },
    {
      "inputs": [
        {
          "internalType": "uint256",
          "name": "_pairRound",
          "type": "uint256"
        },
        {
          "internalType": "uint256",
          "name": "_pair",
          "type": "uint256"
        }
      ],
      "name": "getRoundInfo",
      "outputs": [
        {
          "components": [
            {
              "internalType": "uint256",
              "name": "pairNumber",
              "type": "uint256"
            },
            {
              "internalType": "uint256",
              "name": "poolAmount",
              "type": "uint256"
            },
            {
              "internalType": "uint256",
              "name": "firstTokenPoolAmount",
              "type": "uint256"
            },
            {
              "internalType": "uint256",
              "name": "secondTokenPoolAmount",
              "type": "uint256"
            },
            {
              "internalType": "uint256",
              "name": "poolTokenRewardAmount",
              "type": "uint256"
            },
            {
              "internalType": "uint256",
              "name": "poolTokenBaseAmount",
              "type": "uint256"
            },
            {
              "internalType": "uint256",
              "name": "roundNumber",
              "type": "uint256"
            },
            {
              "internalType": "bool",
              "name": "roundStart",
              "type": "bool"
            },
            {
              "internalType": "bool",
              "name": "roundEnded",
              "type": "bool"
            },
            {
              "internalType": "bool",
              "name": "roundLock",
              "type": "bool"
            },
            {
              "internalType": "bool",
              "name": "gotPaused",
              "type": "bool"
            },
            {
              "internalType": "uint256",
              "name": "startTimeStamp",
              "type": "uint256"
            },
            {
              "internalType": "uint256",
              "name": "endTimeStamp",
              "type": "uint256"
            },
            {
              "internalType": "int256",
              "name": "firstTokenPriceChange",
              "type": "int256"
            },
            {
              "internalType": "int256",
              "name": "secondTokenPriceChange",
              "type": "int256"
            },
            {
              "internalType": "int256",
              "name": "firstTokenPrice",
              "type": "int256"
            },
            {
              "internalType": "int256",
              "name": "secondTokenPrice",
              "type": "int256"
            }
          ],
          "internalType": "struct CryproPairPricePredictionFactory.Rounds",
          "name": "",
          "type": "tuple"
        }
      ],
      "stateMutability": "view",
      "type": "function"
    },
    {
      "inputs": [],
      "name": "getTreauryAmount",
      "outputs": [],
      "stateMutability": "nonpayable",
      "type": "function"
    },
    {
      "inputs": [
        {
          "internalType": "uint256",
          "name": "_pair",
          "type": "uint256"
        }
      ],
      "name": "getUserRounds",
      "outputs": [
        {
          "components": [
            {
              "internalType": "enum CryproPairPricePredictionFactory.TokenSelection",
              "name": "tokenselected",
              "type": "uint8"
            },
            {
              "internalType": "uint256",
              "name": "amount",
              "type": "uint256"
            },
            {
              "internalType": "bool",
              "name": "claim",
              "type": "bool"
            }
          ],
          "internalType": "struct CryproPairPricePredictionFactory.biddingInfo[]",
          "name": "",
          "type": "tuple[]"
        },
        {
          "internalType": "uint256[]",
          "name": "",
          "type": "uint256[]"
        }
      ],
      "stateMutability": "view",
      "type": "function"
    },
    {
      "inputs": [
        {
          "internalType": "uint256",
          "name": "_pairRound",
          "type": "uint256"
        },
        {
          "internalType": "uint256",
          "name": "_pair",
          "type": "uint256"
        }
      ],
      "name": "gettokenPriceChanges",
      "outputs": [
        {
          "internalType": "int256",
          "name": "",
          "type": "int256"
        },
        {
          "internalType": "int256",
          "name": "",
          "type": "int256"
        }
      ],
      "stateMutability": "nonpayable",
      "type": "function"
    },
    {
      "inputs": [],
      "name": "hasRoundEnded",
      "outputs": [
        {
          "internalType": "bool",
          "name": "",
          "type": "bool"
        }
      ],
      "stateMutability": "view",
      "type": "function"
    },
    {
      "inputs": [],
      "name": "maxBet",
      "outputs": [
        {
          "internalType": "uint256",
          "name": "",
          "type": "uint256"
        }
      ],
      "stateMutability": "view",
      "type": "function"
    },
    {
      "inputs": [],
      "name": "minBet",
      "outputs": [
        {
          "internalType": "uint256",
          "name": "",
          "type": "uint256"
        }
      ],
      "stateMutability": "view",
      "type": "function"
    },
    {
      "inputs": [
        {
          "internalType": "uint256",
          "name": "",
          "type": "uint256"
        }
      ],
      "name": "pairGenesisRound",
      "outputs": [
        {
          "internalType": "bool",
          "name": "",
          "type": "bool"
        }
      ],
      "stateMutability": "view",
      "type": "function"
    },
    {
      "inputs": [
        {
          "internalType": "uint256",
          "name": "",
          "type": "uint256"
        }
      ],
      "name": "pairRounds",
      "outputs": [
        {
          "internalType": "uint256",
          "name": "",
          "type": "uint256"
        }
      ],
      "stateMutability": "view",
      "type": "function"
    },
    {
      "inputs": [
        {
          "internalType": "uint256",
          "name": "",
          "type": "uint256"
        },
        {
          "internalType": "uint256",
          "name": "",
          "type": "uint256"
        }
      ],
      "name": "pairs",
      "outputs": [
        {
          "internalType": "contract AggregatorV3Interface",
          "name": "",
          "type": "address"
        }
      ],
      "stateMutability": "view",
      "type": "function"
    },
    {
      "inputs": [],
      "name": "pairsCount",
      "outputs": [
        {
          "internalType": "uint256",
          "name": "",
          "type": "uint256"
        }
      ],
      "stateMutability": "view",
      "type": "function"
    },
    {
      "inputs": [
        {
          "internalType": "uint256",
          "name": "pair",
          "type": "uint256"
        }
      ],
      "name": "pause",
      "outputs": [],
      "stateMutability": "nonpayable",
      "type": "function"
    },
    {
      "inputs": [],
      "name": "paused",
      "outputs": [
        {
          "internalType": "bool",
          "name": "",
          "type": "bool"
        }
      ],
      "stateMutability": "view",
      "type": "function"
    },
    {
      "inputs": [
        {
          "internalType": "bytes",
          "name": "performData",
          "type": "bytes"
        }
      ],
      "name": "performUpkeep",
      "outputs": [],
      "stateMutability": "nonpayable",
      "type": "function"
    },
    {
      "inputs": [
        {
          "internalType": "uint256",
          "name": "_pair",
          "type": "uint256"
        }
      ],
      "name": "roundExecution",
      "outputs": [],
      "stateMutability": "nonpayable",
      "type": "function"
    },
    {
      "inputs": [],
      "name": "roundTime",
      "outputs": [
        {
          "internalType": "uint256",
          "name": "",
          "type": "uint256"
        }
      ],
      "stateMutability": "view",
      "type": "function"
    },
    {
      "inputs": [
        {
          "internalType": "uint256",
          "name": "_pairRound",
          "type": "uint256"
        },
        {
          "internalType": "uint256",
          "name": "_pair",
          "type": "uint256"
        }
      ],
      "name": "secondTokenBet",
      "outputs": [],
      "stateMutability": "payable",
      "type": "function"
    },
    {
      "inputs": [
        {
          "internalType": "uint256",
          "name": "_pair",
          "type": "uint256"
        }
      ],
      "name": "startGenesisRoundForThePair",
      "outputs": [],
      "stateMutability": "nonpayable",
      "type": "function"
    },
    {
      "inputs": [],
      "name": "treasuryAmount",
      "outputs": [
        {
          "internalType": "uint256",
          "name": "",
          "type": "uint256"
        }
      ],
      "stateMutability": "view",
      "type": "function"
    },
    {
      "inputs": [],
      "name": "unpause",
      "outputs": [],
      "stateMutability": "nonpayable",
      "type": "function"
    },
    {
      "inputs": [
        {
          "internalType": "uint256",
          "name": "minDeposit",
          "type": "uint256"
        },
        {
          "internalType": "uint256",
          "name": "maxDeposit",
          "type": "uint256"
        }
      ],
      "name": "updateMinMaxDepositAmount",
      "outputs": [],
      "stateMutability": "nonpayable",
      "type": "function"
    },
    {
      "inputs": [
        {
          "internalType": "address",
          "name": "newOwner",
          "type": "address"
        }
      ],
      "name": "updateOwner",
      "outputs": [],
      "stateMutability": "nonpayable",
      "type": "function"
    },
    {
      "inputs": [
        {
          "internalType": "uint256",
          "name": "",
          "type": "uint256"
        },
        {
          "internalType": "address",
          "name": "",
          "type": "address"
        },
        {
          "internalType": "uint256",
          "name": "",
          "type": "uint256"
        }
      ],
      "name": "userPlayedRounds",
      "outputs": [
        {
          "internalType": "uint256",
          "name": "",
          "type": "uint256"
        }
      ],
      "stateMutability": "view",
      "type": "function"
    },
    {
      "inputs": [
        {
          "internalType": "uint256",
          "name": "",
          "type": "uint256"
        },
        {
          "internalType": "uint256",
          "name": "",
          "type": "uint256"
        },
        {
          "internalType": "address",
          "name": "",
          "type": "address"
        }
      ],
      "name": "userRoundBids",
      "outputs": [
        {
          "internalType": "enum CryproPairPricePredictionFactory.TokenSelection",
          "name": "tokenselected",
          "type": "uint8"
        },
        {
          "internalType": "uint256",
          "name": "amount",
          "type": "uint256"
        },
        {
          "internalType": "bool",
          "name": "claim",
          "type": "bool"
        }
      ],
      "stateMutability": "view",
      "type": "function"
    },
    {
      "stateMutability": "payable",
      "type": "receive"
    }
  ],
  "bytecode": "0x60806040523480156200001157600080fd5b5060405162005f6138038062005f618339818101604052810190620000379190620000e4565b60008060006101000a81548160ff0219169083151502179055506001808190555080600260006101000a81548173ffffffffffffffffffffffffffffffffffffffff021916908373ffffffffffffffffffffffffffffffffffffffff16021790555060006003819055506000600681905550607860078190555061012c6008819055506402540be400600481905550506200015e565b600081519050620000de8162000144565b92915050565b600060208284031215620000f757600080fd5b60006200010784828501620000cd565b91505092915050565b60006200011d8262000124565b9050919050565b600073ffffffffffffffffffffffffffffffffffffffff82169050919050565b6200014f8162000110565b81146200015b57600080fd5b50565b615df3806200016e6000396000f3fe6080604052600436106102135760003560e01c8063880cdc3111610118578063ca49a543116100a0578063ee5f8c8f1161006f578063ee5f8c8f146107ef578063f198f54e1461081a578063f55267c614610857578063fa0b621114610880578063fa7af1f0146108ab57610253565b8063ca49a54314610734578063d411e8991461075f578063e8147a2514610788578063e8bacbb4146107b157610253565b8063a468b7c1116100e7578063a468b7c11461065b578063b81b2b7114610699578063b933137f146106c4578063c34641fa146106e0578063c4f8210e1461070b57610253565b8063880cdc311461059f5780638a9bb02a146105c85780639619367d146106055780639af1d35a1461063057610253565b8063580cb78d1161019b5780636e04ff0d1161016a5780636e04ff0d146104dc578063719719101461051a57806375dd50511461053157806377a0de4c1461055a57806386bb8f371461058357610253565b8063580cb78d1461040e5780635c975abb1461044b578063675b4ef1146104765780636cda375b146104b357610253565b806323462d0c116101e257806323462d0c1461033b5780632e5b216814610378578063368acb09146103a35780633f4ba83a146103ce5780634585e33b146103e557610253565b80630364ad7314610258578063121e190814610297578063136439dd146102d45780631ecc82b7146102fd57610253565b36610253577f88a5966d370b9919b20f3e2c13ff65706f196a4e32cc2c12bf57088f885258743334604051610249929190614dde565b60405180910390a1005b600080fd5b34801561026457600080fd5b5061027f600480360381019061027a91906144a5565b6108c7565b60405161028e93929190614ec6565b60405180910390f35b3480156102a357600080fd5b506102be60048036038101906102b991906143f1565b610925565b6040516102cb91906151fd565b60405180910390f35b3480156102e057600080fd5b506102fb60048036038101906102f691906143f1565b61093d565b005b34801561030957600080fd5b50610324600480360381019061031f9190614469565b610c0c565b604051610332929190614efd565b60405180910390f35b34801561034757600080fd5b50610362600480360381019061035d919061441a565b610d57565b60405161036f91906151fd565b60405180910390f35b34801561038457600080fd5b5061038d610d95565b60405161039a91906151fd565b60405180910390f35b3480156103af57600080fd5b506103b8610d9b565b6040516103c591906151fd565b60405180910390f35b3480156103da57600080fd5b506103e3610da1565b005b3480156103f157600080fd5b5061040c600480360381019061040791906143ac565b610f0b565b005b34801561041a57600080fd5b50610435600480360381019061043091906143f1565b610f51565b6040516104429190614e07565b60405180910390f35b34801561045757600080fd5b50610460611183565b60405161046d9190614e60565b60405180910390f35b34801561048257600080fd5b5061049d60048036038101906104989190614469565b611199565b6040516104aa9190614eab565b60405180910390f35b3480156104bf57600080fd5b506104da60048036038101906104d591906143f1565b6111de565b005b3480156104e857600080fd5b5061050360048036038101906104fe91906143ac565b6112b1565b604051610511929190614e7b565b60405180910390f35b34801561052657600080fd5b5061052f611356565b005b34801561053d57600080fd5b506105586004803603810190610553919061430b565b611449565b005b34801561056657600080fd5b50610581600480360381019061057c9190614469565b611613565b005b61059d60048036038101906105989190614469565b6116b5565b005b3480156105ab57600080fd5b506105c660048036038101906105c191906142e2565b611e15565b005b3480156105d457600080fd5b506105ef60048036038101906105ea9190614469565b611ee9565b6040516105fc91906151e1565b60405180910390f35b34801561061157600080fd5b5061061a612017565b60405161062791906151fd565b60405180910390f35b34801561063c57600080fd5b5061064561201d565b60405161065291906151fd565b60405180910390f35b34801561066757600080fd5b50610682600480360381019061067d9190614383565b612023565b604051610690929190614efd565b60405180910390f35b3480156106a557600080fd5b506106ae6121bb565b6040516106bb91906151fd565b60405180910390f35b6106de60048036038101906106d99190614469565b6121c1565b005b3480156106ec57600080fd5b506106f561282f565b60405161070291906151fd565b60405180910390f35b34801561071757600080fd5b50610732600480360381019061072d9190614347565b612835565b005b34801561074057600080fd5b506107496128e6565b60405161075691906151fd565b60405180910390f35b34801561076b57600080fd5b50610786600480360381019061078191906143f1565b6128ee565b005b34801561079457600080fd5b506107af60048036038101906107aa91906143f1565b612aa5565b005b3480156107bd57600080fd5b506107d860048036038101906107d391906143f1565b612b3f565b6040516107e6929190614e29565b60405180910390f35b3480156107fb57600080fd5b50610804612e32565b60405161081191906151fd565b60405180910390f35b34801561082657600080fd5b50610841600480360381019061083c91906143f1565b612e38565b60405161084e9190614e60565b60405180910390f35b34801561086357600080fd5b5061087e600480360381019061087991906143f1565b612e58565b005b34801561088c57600080fd5b50610895613043565b6040516108a29190614e60565b60405180910390f35b6108c560048036038101906108c09190614469565b61309a565b005b600c60205282600052604060002060205281600052604060002060205280600052604060002060009250925050508060000160009054906101000a900460ff16908060010154908060020160009054906101000a900460ff16905083565b600a6020528060005260406000206000915090505481565b610945611183565b15610985576040517f08c379a000000000000000000000000000000000000000000000000000000000815260040161097c90615061565b60405180910390fd5b3373ffffffffffffffffffffffffffffffffffffffff16600260009054906101000a900473ffffffffffffffffffffffffffffffffffffffff1673ffffffffffffffffffffffffffffffffffffffff1614610a15576040517f08c379a0000000000000000000000000000000000000000000000000000000008152600401610a0c90614fe1565b60405180910390fd5b6000600190505b6003548111610bc9576000600a60008381526020019081526020016000205490506001600e6000848152602001908152602001600020600083815260200190815260200160002060070160036101000a81548160ff0219169083151502179055506000600e60008481526020019081526020016000206000838152602001908152602001600020600901819055506001600e6000848152602001908152602001600020600083815260200190815260200160002060070160016101000a81548160ff021916908315150217905550600e60008381526020019081526020016000206000600183610b0c91906156e1565b815260200190815260200160002060070160019054906101000a900460ff16610bb5576000600e60008481526020019081526020016000206000600184610b5391906156e1565b8152602001908152602001600020600901819055506001600e60008481526020019081526020016000206000600184610b8c91906156e1565b815260200190815260200160002060070160016101000a81548160ff0219169083151502179055505b508080610bc19061584e565b915050610a1c565b50610bd2613708565b7f68b095021b1f40fe513109f513c66692f0b3219aee674a69f4efc57badb8201d81604051610c0191906151fd565b60405180910390a150565b600080600080610c9f60096000878152602001908152602001600020600280602002604051908101604052809291908260028015610c95576020028201915b8160009054906101000a900473ffffffffffffffffffffffffffffffffffffffff1673ffffffffffffffffffffffffffffffffffffffff1681526020019060010190808311610c4b575b5050505050612023565b915091506000610cd6600e60008881526020019081526020016000206000898152602001908152602001600020600c0154846137aa565b90506000610d0b600e600089815260200190815260200160002060008a8152602001908152602001600020600d0154846137aa565b90507fa4393d92bc1fa01e1edb65f571aba9ce960fcadf3ddc9493d63a31e43f532f2f8484604051610d3e929190614efd565b60405180910390a1818195509550505050509250929050565b600d6020528260005260406000206020528160005260406000208181548110610d7f57600080fd5b9060005260206000200160009250925050505481565b60055481565b60065481565b610da9611183565b610de8576040517f08c379a0000000000000000000000000000000000000000000000000000000008152600401610ddf90614f41565b60405180910390fd5b3373ffffffffffffffffffffffffffffffffffffffff16600260009054906101000a900473ffffffffffffffffffffffffffffffffffffffff1673ffffffffffffffffffffffffffffffffffffffff1614610e78576040517f08c379a0000000000000000000000000000000000000000000000000000000008152600401610e6f90614fe1565b60405180910390fd5b6000600190505b6003548111610ec7576000600b600083815260200190815260200160002060006101000a81548160ff0219169083151502179055508080610ebf9061584e565b915050610e7f565b50610ed0613810565b7faaa520fdd7d2c83061d632fa017b0432407e798818af63ea908589fceda39ab7600354604051610f0191906151fd565b60405180910390a1565b610f1560016128ee565b7f3566bc4681c58794a7a75f59d0a364e562b68c20c2b414857356c4137c8ad4956001604051610f459190614f26565b60405180910390a15050565b60606000600a600084815260200190815260200160002054905060008167ffffffffffffffff811115610fad577f4e487b7100000000000000000000000000000000000000000000000000000000600052604160045260246000fd5b604051908082528060200260200182016040528015610fe657816020015b610fd36140a9565b815260200190600190039081610fcb5790505b5090506000600190505b82811161117857600e6000868152602001908152602001600020600082815260200190815260200160002060405180610220016040529081600082015481526020016001820154815260200160028201548152602001600382015481526020016004820154815260200160058201548152602001600682015481526020016007820160009054906101000a900460ff161515151581526020016007820160019054906101000a900460ff161515151581526020016007820160029054906101000a900460ff161515151581526020016007820160039054906101000a900460ff161515151581526020016008820154815260200160098201548152602001600a8201548152602001600b8201548152602001600c8201548152602001600d820154815250508260018361112391906156e1565b8151811061115a577f4e487b7100000000000000000000000000000000000000000000000000000000600052603260045260246000fd5b602002602001018190525080806111709061584e565b915050610ff0565b508092505050919050565b60008060009054906101000a900460ff16905090565b600960205281600052604060002081600281106111b557600080fd5b016000915091509054906101000a900473ffffffffffffffffffffffffffffffffffffffff1681565b3373ffffffffffffffffffffffffffffffffffffffff16600260009054906101000a900473ffffffffffffffffffffffffffffffffffffffff1673ffffffffffffffffffffffffffffffffffffffff161461126e576040517f08c379a000000000000000000000000000000000000000000000000000000000815260040161126590614fe1565b60405180910390fd5b806007819055507f3dda580d2b9d92da338ef46ec718e7b1dd0a2c505e3df4aa8d40360192a0f8226007546040516112a691906151fd565b60405180910390a150565b600060606000600e60006001815260200190815260200160002060006001600a600060018152602001908152602001600020546112ee91906156e1565b8152602001908152602001600020600901549050428110925084848080601f016020809104026020016040519081016040528093929190818152602001838380828437600081840152601f19601f820116905080830192505050505050509150509250929050565b3373ffffffffffffffffffffffffffffffffffffffff16600260009054906101000a900473ffffffffffffffffffffffffffffffffffffffff1673ffffffffffffffffffffffffffffffffffffffff16146113e6576040517f08c379a00000000000000000000000000000000000000000000000000000000081526004016113dd90614fe1565b60405180910390fd5b6002600154141561142c576040517f08c379a0000000000000000000000000000000000000000000000000000000008152600401611423906151c1565b60405180910390fd5b600260018190555061144033600654612835565b60018081905550565b3373ffffffffffffffffffffffffffffffffffffffff16600260009054906101000a900473ffffffffffffffffffffffffffffffffffffffff1673ffffffffffffffffffffffffffffffffffffffff16146114d9576040517f08c379a00000000000000000000000000000000000000000000000000000000081526004016114d090614fe1565b60405180910390fd5b6001600360008282546114ec91906153eb565b9250508190555081600960006003548152602001908152602001600020600060028110611542577f4e487b7100000000000000000000000000000000000000000000000000000000600052603260045260246000fd5b0160006101000a81548173ffffffffffffffffffffffffffffffffffffffff021916908373ffffffffffffffffffffffffffffffffffffffff160217905550806009600060035481526020019081526020016000206001600281106115d0577f4e487b7100000000000000000000000000000000000000000000000000000000600052603260045260246000fd5b0160006101000a81548173ffffffffffffffffffffffffffffffffffffffff021916908373ffffffffffffffffffffffffffffffffffffffff1602179055505050565b3373ffffffffffffffffffffffffffffffffffffffff16600260009054906101000a900473ffffffffffffffffffffffffffffffffffffffff1673ffffffffffffffffffffffffffffffffffffffff16146116a3576040517f08c379a000000000000000000000000000000000000000000000000000000000815260040161169a90614fe1565b60405180910390fd5b81600481905550806005819055505050565b6116be336138b1565b156116fe576040517f08c379a00000000000000000000000000000000000000000000000000000000081526004016116f590614fc1565b60405180910390fd5b3273ffffffffffffffffffffffffffffffffffffffff163373ffffffffffffffffffffffffffffffffffffffff161461176c576040517f08c379a0000000000000000000000000000000000000000000000000000000008152600401611763906150c1565b60405180910390fd5b600260015414156117b2576040517f08c379a00000000000000000000000000000000000000000000000000000000081526004016117a9906151c1565b60405180910390fd5b600260018190555060011515600e6000838152602001908152602001600020600084815260200190815260200160002060070160019054906101000a900460ff16151514611835576040517f08c379a000000000000000000000000000000000000000000000000000000000815260040161182c90615041565b60405180910390fd5b6000600e60008381526020019081526020016000206000848152602001908152602001600020600401541161189f576040517f08c379a000000000000000000000000000000000000000000000000000000000815260040161189690615161565b60405180910390fd5b60001515600c6000838152602001908152602001600020600084815260200190815260200160002060003373ffffffffffffffffffffffffffffffffffffffff1673ffffffffffffffffffffffffffffffffffffffff16815260200190815260200160002060020160009054906101000a900460ff16151514611957576040517f08c379a000000000000000000000000000000000000000000000000000000000815260040161194e906150e1565b60405180910390fd5b6000600e6000838152602001908152602001600020600084815260200190815260200160002060405180610220016040529081600082015481526020016001820154815260200160028201548152602001600382015481526020016004820154815260200160058201548152602001600682015481526020016007820160009054906101000a900460ff161515151581526020016007820160019054906101000a900460ff161515151581526020016007820160029054906101000a900460ff161515151581526020016007820160039054906101000a900460ff161515151581526020016008820154815260200160098201548152602001600a8201548152602001600b8201548152602001600c8201548152602001600d820154815250509050806101c00151816101a00151138015611b73575060006001811115611ac7577f4e487b7100000000000000000000000000000000000000000000000000000000600052602160045260246000fd5b600c6000848152602001908152602001600020600085815260200190815260200160002060003373ffffffffffffffffffffffffffffffffffffffff1673ffffffffffffffffffffffffffffffffffffffff16815260200190815260200160002060000160009054906101000a900460ff166001811115611b71577f4e487b7100000000000000000000000000000000000000000000000000000000600052602160045260246000fd5b145b80611c735750806101c00151816101a00151128015611c725750600180811115611bc6577f4e487b7100000000000000000000000000000000000000000000000000000000600052602160045260246000fd5b600c6000848152602001908152602001600020600085815260200190815260200160002060003373ffffffffffffffffffffffffffffffffffffffff1673ffffffffffffffffffffffffffffffffffffffff16815260200190815260200160002060000160009054906101000a900460ff166001811115611c70577f4e487b7100000000000000000000000000000000000000000000000000000000600052602160045260246000fd5b145b5b611cb2576040517f08c379a0000000000000000000000000000000000000000000000000000000008152600401611ca990615121565b60405180910390fd5b8060a001518160800151600c6000858152602001908152602001600020600086815260200190815260200160002060003373ffffffffffffffffffffffffffffffffffffffff1673ffffffffffffffffffffffffffffffffffffffff16815260200190815260200160002060010154611d2b91906155f3565b611d3591906154ab565b600f819055506001600c6000848152602001908152602001600020600085815260200190815260200160002060003373ffffffffffffffffffffffffffffffffffffffff1673ffffffffffffffffffffffffffffffffffffffff16815260200190815260200160002060020160006101000a81548160ff0219169083151502179055506000600f541115611e0957611dcf33600f54612835565b7f7bb2b3c10797baccb6f8c4791f1edd6ca2f0d028ee0eda64b01a9a57e3a653f7600f54604051611e0091906151fd565b60405180910390a15b50600180819055505050565b3373ffffffffffffffffffffffffffffffffffffffff16600260009054906101000a900473ffffffffffffffffffffffffffffffffffffffff1673ffffffffffffffffffffffffffffffffffffffff1614611ea5576040517f08c379a0000000000000000000000000000000000000000000000000000000008152600401611e9c90614fe1565b60405180910390fd5b80600260006101000a81548173ffffffffffffffffffffffffffffffffffffffff021916908373ffffffffffffffffffffffffffffffffffffffff16021790555050565b611ef16140a9565b600e6000838152602001908152602001600020600084815260200190815260200160002060405180610220016040529081600082015481526020016001820154815260200160028201548152602001600382015481526020016004820154815260200160058201548152602001600682015481526020016007820160009054906101000a900460ff161515151581526020016007820160019054906101000a900460ff161515151581526020016007820160029054906101000a900460ff161515151581526020016007820160039054906101000a900460ff161515151581526020016008820154815260200160098201548152602001600a8201548152602001600b8201548152602001600c8201548152602001600d82015481525050905092915050565b60045481565b60075481565b600080600083600060028110612062577f4e487b7100000000000000000000000000000000000000000000000000000000600052603260045260246000fd5b602002015173ffffffffffffffffffffffffffffffffffffffff1663feaf968c6040518163ffffffff1660e01b815260040160a06040518083038186803b1580156120ac57600080fd5b505afa1580156120c0573d6000803e3d6000fd5b505050506040513d601f19601f820116820180604052508101906120e491906144f4565b505050915050600084600160028110612126577f4e487b7100000000000000000000000000000000000000000000000000000000600052603260045260246000fd5b602002015173ffffffffffffffffffffffffffffffffffffffff1663feaf968c6040518163ffffffff1660e01b815260040160a06040518083038186803b15801561217057600080fd5b505afa158015612184573d6000803e3d6000fd5b505050506040513d601f19601f820116820180604052508101906121a891906144f4565b5050509150508181935093505050915091565b60035481565b6121c9611183565b15612209576040517f08c379a000000000000000000000000000000000000000000000000000000000815260040161220090615061565b60405180910390fd5b818160011515600e6000838152602001908152602001600020600084815260200190815260200160002060070160009054906101000a900460ff16151514612286576040517f08c379a000000000000000000000000000000000000000000000000000000000815260040161227d90615181565b60405180910390fd5b60001515600e6000838152602001908152602001600020600084815260200190815260200160002060070160019054906101000a900460ff16151514612301576040517f08c379a00000000000000000000000000000000000000000000000000000000081526004016122f890615041565b60405180910390fd5b60001515600e6000838152602001908152602001600020600084815260200190815260200160002060070160029054906101000a900460ff1615151461237c576040517f08c379a000000000000000000000000000000000000000000000000000000000815260040161237390615081565b60405180910390fd5b6004543410156123c1576040517f08c379a00000000000000000000000000000000000000000000000000000000081526004016123b890614fa1565b60405180910390fd5b6000600c6000838152602001908152602001600020600084815260200190815260200160002060003373ffffffffffffffffffffffffffffffffffffffff1673ffffffffffffffffffffffffffffffffffffffff1681526020019081526020016000206001015414612468576040517f08c379a000000000000000000000000000000000000000000000000000000000815260040161245f906150a1565b60405180910390fd5b42600e600083815260200190815260200160002060008481526020019081526020016000206009015410156124d2576040517f08c379a00000000000000000000000000000000000000000000000000000000081526004016124c990615101565b60405180910390fd5b6124db336138b1565b1561251b576040517f08c379a000000000000000000000000000000000000000000000000000000000815260040161251290614fc1565b60405180910390fd5b3273ffffffffffffffffffffffffffffffffffffffff163373ffffffffffffffffffffffffffffffffffffffff1614612589576040517f08c379a0000000000000000000000000000000000000000000000000000000008152600401612580906150c1565b60405180910390fd5b600260015414156125cf576040517f08c379a00000000000000000000000000000000000000000000000000000000081526004016125c6906151c1565b60405180910390fd5b600260018190555034600c6000858152602001908152602001600020600086815260200190815260200160002060003373ffffffffffffffffffffffffffffffffffffffff1673ffffffffffffffffffffffffffffffffffffffff168152602001908152602001600020600101819055506000600c6000858152602001908152602001600020600086815260200190815260200160002060003373ffffffffffffffffffffffffffffffffffffffff1673ffffffffffffffffffffffffffffffffffffffff16815260200190815260200160002060000160006101000a81548160ff021916908360018111156126ee577f4e487b7100000000000000000000000000000000000000000000000000000000600052602160045260246000fd5b021790555034600e60008581526020019081526020016000206000868152602001908152602001600020600101600082825461272a91906153eb565b9250508190555034600e60008581526020019081526020016000206000868152602001908152602001600020600201600082825461276891906153eb565b92505081905550600d600084815260200190815260200160002060003373ffffffffffffffffffffffffffffffffffffffff1673ffffffffffffffffffffffffffffffffffffffff1681526020019081526020016000208490806001815401808255809150506001900390600052602060002001600090919091909150557f56ea381aee88f7d7cedf22b5e448fc9586f8a198f6a3767b87a0ec31f7667d868334600060405161281a93929190615241565b60405180910390a16001808190555050505050565b600f5481565b60008273ffffffffffffffffffffffffffffffffffffffff168260405161285b90614dae565b60006040518083038185875af1925050503d8060008114612898576040519150601f19603f3d011682016040523d82523d6000602084013e61289d565b606091505b50509050806128e1576040517f08c379a00000000000000000000000000000000000000000000000000000000081526004016128d890614f61565b60405180910390fd5b505050565b600042905090565b6128f6611183565b15612936576040517f08c379a000000000000000000000000000000000000000000000000000000000815260040161292d90615061565b60405180910390fd5b60011515600b600083815260200190815260200160002060009054906101000a900460ff1615151461299d576040517f08c379a000000000000000000000000000000000000000000000000000000000815260040161299490615141565b60405180910390fd5b6000600a60008381526020019081526020016000205490506129cb6001826129c591906156e1565b836138c4565b6001600e6000848152602001908152602001600020600083815260200190815260200160002060070160026101000a81548160ff021916908315150217905550612a21600182612a1b91906153eb565b83613b5e565b6001600a60008481526020019081526020016000206000828254612a4591906153eb565b925050819055507fb352bf6cd71f52e0afa92233b39b67b5b88f33595d886578f9c323dbd6997dd78282600184612a7c91906156e1565b600185612a8991906153eb565b604051612a999493929190615278565b60405180910390a15050565b3373ffffffffffffffffffffffffffffffffffffffff16600260009054906101000a900473ffffffffffffffffffffffffffffffffffffffff1673ffffffffffffffffffffffffffffffffffffffff1614612b35576040517f08c379a0000000000000000000000000000000000000000000000000000000008152600401612b2c90614fe1565b60405180910390fd5b8060048190555050565b6060806000600d600085815260200190815260200160002060003373ffffffffffffffffffffffffffffffffffffffff1673ffffffffffffffffffffffffffffffffffffffff168152602001908152602001600020805480602002602001604051908101604052809291908181526020018280548015612bde57602002820191906000526020600020905b815481526020019060010190808311612bca575b5050505050905060008151905060008167ffffffffffffffff811115612c2d577f4e487b7100000000000000000000000000000000000000000000000000000000600052604160045260246000fd5b604051908082528060200260200182016040528015612c6657816020015b612c53614135565b815260200190600190039081612c4b5790505b50905060005b82811015612e2357600c60008881526020019081526020016000206000858381518110612cc2577f4e487b7100000000000000000000000000000000000000000000000000000000600052603260045260246000fd5b6020026020010151815260200190815260200160002060003373ffffffffffffffffffffffffffffffffffffffff1673ffffffffffffffffffffffffffffffffffffffff1681526020019081526020016000206040518060600160405290816000820160009054906101000a900460ff166001811115612d6b577f4e487b7100000000000000000000000000000000000000000000000000000000600052602160045260246000fd5b6001811115612da3577f4e487b7100000000000000000000000000000000000000000000000000000000600052602160045260246000fd5b8152602001600182015481526020016002820160009054906101000a900460ff161515151581525050828281518110612e05577f4e487b7100000000000000000000000000000000000000000000000000000000600052603260045260246000fd5b60200260200101819052508080612e1b9061584e565b915050612c6c565b50808394509450505050915091565b60085481565b600b6020528060005260406000206000915054906101000a900460ff1681565b612e60611183565b15612ea0576040517f08c379a0000000000000000000000000000000000000000000000000000000008152600401612e9790615061565b60405180910390fd5b3373ffffffffffffffffffffffffffffffffffffffff16600260009054906101000a900473ffffffffffffffffffffffffffffffffffffffff1673ffffffffffffffffffffffffffffffffffffffff1614612f30576040517f08c379a0000000000000000000000000000000000000000000000000000000008152600401612f2790614fe1565b60405180910390fd5b60001515600b600083815260200190815260200160002060009054906101000a900460ff16151514612f97576040517f08c379a0000000000000000000000000000000000000000000000000000000008152600401612f8e906151a1565b60405180910390fd5b60006001600a600084815260200190815260200160002054612fb991906153eb565b9050612fc58183613b5e565b6001600e6000848152602001908152602001600020600083815260200190815260200160002060070160026101000a81548160ff02191690831515021790555060018161301291906153eb565b600a60008481526020019081526020016000208190555061303f60018261303991906153eb565b83613b5e565b5050565b60008042600e60006001815260200190815260200160002060006001600a6000600181526020019081526020016000205461307e91906156e1565b8152602001908152602001600020600901541090508091505090565b6130a2611183565b156130e2576040517f08c379a00000000000000000000000000000000000000000000000000000000081526004016130d990615061565b60405180910390fd5b818160011515600e6000838152602001908152602001600020600084815260200190815260200160002060070160009054906101000a900460ff1615151461315f576040517f08c379a000000000000000000000000000000000000000000000000000000000815260040161315690615181565b60405180910390fd5b60001515600e6000838152602001908152602001600020600084815260200190815260200160002060070160019054906101000a900460ff161515146131da576040517f08c379a00000000000000000000000000000000000000000000000000000000081526004016131d190615041565b60405180910390fd5b60001515600e6000838152602001908152602001600020600084815260200190815260200160002060070160029054906101000a900460ff16151514613255576040517f08c379a000000000000000000000000000000000000000000000000000000000815260040161324c90615081565b60405180910390fd5b60045434101561329a576040517f08c379a000000000000000000000000000000000000000000000000000000000815260040161329190614fa1565b60405180910390fd5b6000600c6000838152602001908152602001600020600084815260200190815260200160002060003373ffffffffffffffffffffffffffffffffffffffff1673ffffffffffffffffffffffffffffffffffffffff1681526020019081526020016000206001015414613341576040517f08c379a0000000000000000000000000000000000000000000000000000000008152600401613338906150a1565b60405180910390fd5b42600e600083815260200190815260200160002060008481526020019081526020016000206009015410156133ab576040517f08c379a00000000000000000000000000000000000000000000000000000000081526004016133a290615101565b60405180910390fd5b6133b4336138b1565b156133f4576040517f08c379a00000000000000000000000000000000000000000000000000000000081526004016133eb90614fc1565b60405180910390fd5b3273ffffffffffffffffffffffffffffffffffffffff163373ffffffffffffffffffffffffffffffffffffffff1614613462576040517f08c379a0000000000000000000000000000000000000000000000000000000008152600401613459906150c1565b60405180910390fd5b600260015414156134a8576040517f08c379a000000000000000000000000000000000000000000000000000000000815260040161349f906151c1565b60405180910390fd5b600260018190555034600c6000858152602001908152602001600020600086815260200190815260200160002060003373ffffffffffffffffffffffffffffffffffffffff1673ffffffffffffffffffffffffffffffffffffffff168152602001908152602001600020600101819055506001600c6000858152602001908152602001600020600086815260200190815260200160002060003373ffffffffffffffffffffffffffffffffffffffff1673ffffffffffffffffffffffffffffffffffffffff16815260200190815260200160002060000160006101000a81548160ff021916908360018111156135c7577f4e487b7100000000000000000000000000000000000000000000000000000000600052602160045260246000fd5b021790555034600e60008581526020019081526020016000206000868152602001908152602001600020600101600082825461360391906153eb565b9250508190555034600e60008581526020019081526020016000206000868152602001908152602001600020600301600082825461364191906153eb565b92505081905550600d600084815260200190815260200160002060003373ffffffffffffffffffffffffffffffffffffffff1673ffffffffffffffffffffffffffffffffffffffff1681526020019081526020016000208490806001815401808255809150506001900390600052602060002001600090919091909150557f56ea381aee88f7d7cedf22b5e448fc9586f8a198f6a3767b87a0ec31f7667d86833460016040516136f393929190615241565b60405180910390a16001808190555050505050565b613710611183565b15613750576040517f08c379a000000000000000000000000000000000000000000000000000000000815260040161374790615061565b60405180910390fd5b60016000806101000a81548160ff0219169083151502179055507f62e78cea01bee320cd4e420270b5ea74000d11b0c9f74754ebdbfc544b05a258613793613dfd565b6040516137a09190614dc3565b60405180910390a1565b6000818313156137e157826305f5e10083856137c6919061564d565b6137d091906154dc565b6137da9190615441565b905061380a565b826305f5e10084846137f3919061564d565b6137fd91906154dc565b6138079190615441565b90505b92915050565b613818611183565b613857576040517f08c379a000000000000000000000000000000000000000000000000000000000815260040161384e90614f41565b60405180910390fd5b60008060006101000a81548160ff0219169083151502179055507f5db9ee0a495bf2e6ff9c91a7834c1ba4fdd244a5e8aa4e537bd38aeae4b073aa61389a613dfd565b6040516138a79190614dc3565b60405180910390a1565b600080823b905060008111915050919050565b60011515600b600083815260200190815260200160002060009054906101000a900460ff1615151461392b576040517f08c379a000000000000000000000000000000000000000000000000000000000815260040161392290615141565b60405180910390fd5b60001515600e6000838152602001908152602001600020600084815260200190815260200160002060070160019054906101000a900460ff161515146139a6576040517f08c379a000000000000000000000000000000000000000000000000000000000815260040161399d90614f81565b60405180910390fd5b6000600e600083815260200190815260200160002060008481526020019081526020016000206008015411613a10576040517f08c379a0000000000000000000000000000000000000000000000000000000008152600401613a0790615181565b60405180910390fd5b42600e600083815260200190815260200160002060008481526020019081526020016000206009015410613a79576040517f08c379a0000000000000000000000000000000000000000000000000000000008152600401613a7090615041565b60405180910390fd5b6001600e6000838152602001908152602001600020600084815260200190815260200160002060070160016101000a81548160ff021916908315150217905550620f82ee600e60008381526020019081526020016000206000848152602001908152602001600020600a01819055506213ee89600e60008381526020019081526020016000206000848152602001908152602001600020600b0181905550613b218282613e05565b7f3de62ea950fc2ed1ed823bb23086296729e73cdd05823251b76e36665ff267b58282604051613b52929190615218565b60405180910390a15050565b60001515600e6000838152602001908152602001600020600084815260200190815260200160002060070160009054906101000a900460ff16151514613bd9576040517f08c379a0000000000000000000000000000000000000000000000000000000008152600401613bd090615001565b60405180910390fd5b6001600e6000838152602001908152602001600020600084815260200190815260200160002060070160006101000a81548160ff021916908315150217905550600080613ca960096000858152602001908152602001600020600280602002604051908101604052809291908260028015613c9f576020028201915b8160009054906101000a900473ffffffffffffffffffffffffffffffffffffffff1673ffffffffffffffffffffffffffffffffffffffff1681526020019060010190808311613c55575b5050505050612023565b9150915082600e600085815260200190815260200160002060008681526020019081526020016000206000018190555083600e600085815260200190815260200160002060008681526020019081526020016000206006018190555042600e6000858152602001908152602001600020600086815260200190815260200160002060080181905550613d3b8484613ff0565b600e600085815260200190815260200160002060008681526020019081526020016000206009018190555081600e60008581526020019081526020016000206000868152602001908152602001600020600c018190555080600e60008581526020019081526020016000206000868152602001908152602001600020600d01819055507f0e5543feb86a4cd302f2b88b26c42be2d1673013a34e1f98bd6d524dd3b4ab418484604051613def929190615218565b60405180910390a150505050565b600033905090565b6000600e6000838152602001908152602001600020600084815260200190815260200160002060050154148015613e6357506000600e6000838152602001908152602001600020600084815260200190815260200160002060040154145b613ea2576040517f08c379a0000000000000000000000000000000000000000000000000000000008152600401613e9990615021565b60405180910390fd5b6000600e60008381526020019081526020016000206000848152602001908152602001600020905080600b015481600a01541315613f415760006127106007548360010154613ef191906155f3565b613efb91906154ab565b905081600201548260050181905550808260010154613f1a91906156e1565b82600401819055508060066000828254613f3491906153eb565b9250508190555050613feb565b80600b015481600a01541215613fb85760006127106007548360010154613f6891906155f3565b613f7291906154ab565b905081600301548260050181905550808260010154613f9191906156e1565b82600401819055508060066000828254613fab91906153eb565b9250508190555050613fea565b6000816005018190555060008160040181905550806001015460066000828254613fe291906153eb565b925050819055505b5b505050565b6000801515600b600084815260200190815260200160002060009054906101000a900460ff161515141561405f576001600b600084815260200190815260200160002060006101000a81548160ff0219169083151502179055506008544261405891906153eb565b90506140a3565b600854600e6000848152602001908152602001600020600060018661408491906156e1565b8152602001908152602001600020600901546140a091906153eb565b90505b92915050565b604051806102200160405280600081526020016000815260200160008152602001600081526020016000815260200160008152602001600081526020016000151581526020016000151581526020016000151581526020016000151581526020016000815260200160008152602001600081526020016000815260200160008152602001600081525090565b60405180606001604052806000600181111561417a577f4e487b7100000000000000000000000000000000000000000000000000000000600052602160045260246000fd5b8152602001600081526020016000151581525090565b60006141a361419e846152e2565b6152bd565b905080828560208602820111156141b957600080fd5b60005b858110156141e957816141cf8882614279565b8452602084019350602083019250506001810190506141bc565b5050509392505050565b60008135905061420281615d4a565b92915050565b600082601f83011261421957600080fd5b6002614226848285614190565b91505092915050565b60008083601f84011261424157600080fd5b8235905067ffffffffffffffff81111561425a57600080fd5b60208301915083600182028301111561427257600080fd5b9250929050565b60008135905061428881615d61565b92915050565b60008151905061429d81615d78565b92915050565b6000813590506142b281615d8f565b92915050565b6000815190506142c781615d8f565b92915050565b6000815190506142dc81615da6565b92915050565b6000602082840312156142f457600080fd5b6000614302848285016141f3565b91505092915050565b6000806040838503121561431e57600080fd5b600061432c858286016141f3565b925050602061433d858286016141f3565b9150509250929050565b6000806040838503121561435a57600080fd5b6000614368858286016141f3565b9250506020614379858286016142a3565b9150509250929050565b60006040828403121561439557600080fd5b60006143a384828501614208565b91505092915050565b600080602083850312156143bf57600080fd5b600083013567ffffffffffffffff8111156143d957600080fd5b6143e58582860161422f565b92509250509250929050565b60006020828403121561440357600080fd5b6000614411848285016142a3565b91505092915050565b60008060006060848603121561442f57600080fd5b600061443d868287016142a3565b935050602061444e868287016141f3565b925050604061445f868287016142a3565b9150509250925092565b6000806040838503121561447c57600080fd5b600061448a858286016142a3565b925050602061449b858286016142a3565b9150509250929050565b6000806000606084860312156144ba57600080fd5b60006144c8868287016142a3565b93505060206144d9868287016142a3565b92505060406144ea868287016141f3565b9150509250925092565b600080600080600060a0868803121561450c57600080fd5b600061451a888289016142cd565b955050602061452b8882890161428e565b945050604061453c888289016142b8565b935050606061454d888289016142b8565b925050608061455e888289016142cd565b9150509295509295909350565b60006145778383614a90565b6102208301905092915050565b60006145908383614d4e565b60608301905092915050565b60006145a88383614d90565b60208301905092915050565b6145bd81615715565b82525050565b60006145ce82615338565b6145d8818561538b565b93506145e383615308565b8060005b838110156146145781516145fb888261456b565b975061460683615364565b9250506001810190506145e7565b5085935050505092915050565b600061462c82615343565b614636818561539c565b935061464183615318565b8060005b838110156146725781516146598882614584565b975061466483615371565b925050600181019050614645565b5085935050505092915050565b600061468a8261534e565b61469481856153ad565b935061469f83615328565b8060005b838110156146d05781516146b7888261459c565b97506146c28361537e565b9250506001810190506146a3565b5085935050505092915050565b6146e681615727565b82525050565b6146f581615727565b82525050565b600061470682615359565b61471081856153be565b93506147208185602086016157ea565b61472981615953565b840191505092915050565b61473d816157a2565b82525050565b61474c816157c6565b82525050565b61475b816157c6565b82525050565b61476a81615758565b82525050565b61477981615758565b82525050565b614788816157d8565b82525050565b600061479b6014836153da565b91506147a682615964565b602082019050919050565b60006147be600f836153da565b91506147c98261598d565b602082019050919050565b60006147e16017836153da565b91506147ec826159b6565b602082019050919050565b60006148046015836153da565b915061480f826159df565b602082019050919050565b60006148276014836153da565b915061483282615a08565b602082019050919050565b600061484a600c836153da565b915061485582615a31565b602082019050919050565b600061486d601e836153da565b915061487882615a5a565b602082019050919050565b60006148906012836153da565b915061489b82615a83565b602082019050919050565b60006148b36013836153da565b91506148be82615aac565b602082019050919050565b60006148d66010836153da565b91506148e182615ad5565b602082019050919050565b60006148f9600f836153da565b915061490482615afe565b602082019050919050565b600061491c601b836153da565b915061492782615b27565b602082019050919050565b600061493f601a836153da565b915061494a82615b50565b602082019050919050565b6000614962600f836153da565b915061496d82615b79565b602082019050919050565b60006149856014836153da565b915061499082615ba2565b602082019050919050565b60006149a8600c836153da565b91506149b382615bcb565b602082019050919050565b60006149cb601d836153da565b91506149d682615bf4565b602082019050919050565b60006149ee6000836153cf565b91506149f982615c1d565b600082019050919050565b6000614a116044836153da565b9150614a1c82615c20565b606082019050919050565b6000614a346015836153da565b9150614a3f82615c95565b602082019050919050565b6000614a576021836153da565b9150614a6282615cbe565b604082019050919050565b6000614a7a601f836153da565b9150614a8582615d0d565b602082019050919050565b61022082016000820151614aa76000850182614d90565b506020820151614aba6020850182614d90565b506040820151614acd6040850182614d90565b506060820151614ae06060850182614d90565b506080820151614af36080850182614d90565b5060a0820151614b0660a0850182614d90565b5060c0820151614b1960c0850182614d90565b5060e0820151614b2c60e08501826146dd565b50610100820151614b416101008501826146dd565b50610120820151614b566101208501826146dd565b50610140820151614b6b6101408501826146dd565b50610160820151614b80610160850182614d90565b50610180820151614b95610180850182614d90565b506101a0820151614baa6101a0850182614761565b506101c0820151614bbf6101c0850182614761565b506101e0820151614bd46101e0850182614761565b50610200820151614be9610200850182614761565b50505050565b61022082016000820151614c066000850182614d90565b506020820151614c196020850182614d90565b506040820151614c2c6040850182614d90565b506060820151614c3f6060850182614d90565b506080820151614c526080850182614d90565b5060a0820151614c6560a0850182614d90565b5060c0820151614c7860c0850182614d90565b5060e0820151614c8b60e08501826146dd565b50610100820151614ca06101008501826146dd565b50610120820151614cb56101208501826146dd565b50610140820151614cca6101408501826146dd565b50610160820151614cdf610160850182614d90565b50610180820151614cf4610180850182614d90565b506101a0820151614d096101a0850182614761565b506101c0820151614d1e6101c0850182614761565b506101e0820151614d336101e0850182614761565b50610200820151614d48610200850182614761565b50505050565b606082016000820151614d646000850182614743565b506020820151614d776020850182614d90565b506040820151614d8a60408501826146dd565b50505050565b614d9981615782565b82525050565b614da881615782565b82525050565b6000614db9826149e1565b9150819050919050565b6000602082019050614dd860008301846145b4565b92915050565b6000604082019050614df360008301856145b4565b614e006020830184614d9f565b9392505050565b60006020820190508181036000830152614e2181846145c3565b905092915050565b60006040820190508181036000830152614e438185614621565b90508181036020830152614e57818461467f565b90509392505050565b6000602082019050614e7560008301846146ec565b92915050565b6000604082019050614e9060008301856146ec565b8181036020830152614ea281846146fb565b90509392505050565b6000602082019050614ec06000830184614734565b92915050565b6000606082019050614edb6000830186614752565b614ee86020830185614d9f565b614ef560408301846146ec565b949350505050565b6000604082019050614f126000830185614770565b614f1f6020830184614770565b9392505050565b6000602082019050614f3b600083018461477f565b92915050565b60006020820190508181036000830152614f5a8161478e565b9050919050565b60006020820190508181036000830152614f7a816147b1565b9050919050565b60006020820190508181036000830152614f9a816147d4565b9050919050565b60006020820190508181036000830152614fba816147f7565b9050919050565b60006020820190508181036000830152614fda8161481a565b9050919050565b60006020820190508181036000830152614ffa8161483d565b9050919050565b6000602082019050818103600083015261501a81614860565b9050919050565b6000602082019050818103600083015261503a81614883565b9050919050565b6000602082019050818103600083015261505a816148a6565b9050919050565b6000602082019050818103600083015261507a816148c9565b9050919050565b6000602082019050818103600083015261509a816148ec565b9050919050565b600060208201905081810360008301526150ba8161490f565b9050919050565b600060208201905081810360008301526150da81614932565b9050919050565b600060208201905081810360008301526150fa81614955565b9050919050565b6000602082019050818103600083015261511a81614978565b9050919050565b6000602082019050818103600083015261513a8161499b565b9050919050565b6000602082019050818103600083015261515a816149be565b9050919050565b6000602082019050818103600083015261517a81614a04565b9050919050565b6000602082019050818103600083015261519a81614a27565b9050919050565b600060208201905081810360008301526151ba81614a4a565b9050919050565b600060208201905081810360008301526151da81614a6d565b9050919050565b6000610220820190506151f76000830184614bef565b92915050565b60006020820190506152126000830184614d9f565b92915050565b600060408201905061522d6000830185614d9f565b61523a6020830184614d9f565b9392505050565b60006060820190506152566000830186614d9f565b6152636020830185614d9f565b6152706040830184614752565b949350505050565b600060808201905061528d6000830187614d9f565b61529a6020830186614d9f565b6152a76040830185614d9f565b6152b46060830184614d9f565b95945050505050565b60006152c76152d8565b90506152d3828261581d565b919050565b6000604051905090565b600067ffffffffffffffff8211156152fd576152fc615924565b5b602082029050919050565b6000819050602082019050919050565b6000819050602082019050919050565b6000819050602082019050919050565b600081519050919050565b600081519050919050565b600081519050919050565b600081519050919050565b6000602082019050919050565b6000602082019050919050565b6000602082019050919050565b600082825260208201905092915050565b600082825260208201905092915050565b600082825260208201905092915050565b600082825260208201905092915050565b600081905092915050565b600082825260208201905092915050565b60006153f682615782565b915061540183615782565b9250827fffffffffffffffffffffffffffffffffffffffffffffffffffffffffffffffff0382111561543657615435615897565b5b828201905092915050565b600061544c82615758565b915061545783615758565b925082615467576154666158c6565b5b600160000383147f8000000000000000000000000000000000000000000000000000000000000000831416156154a05761549f615897565b5b828205905092915050565b60006154b682615782565b91506154c183615782565b9250826154d1576154d06158c6565b5b828204905092915050565b60006154e782615758565b91506154f283615758565b9250827f7fffffffffffffffffffffffffffffffffffffffffffffffffffffffffffffff048211600084136000841316161561553157615530615897565b5b817f8000000000000000000000000000000000000000000000000000000000000000058312600084126000841316161561556e5761556d615897565b5b827f800000000000000000000000000000000000000000000000000000000000000005821260008413600084121616156155ab576155aa615897565b5b827f7fffffffffffffffffffffffffffffffffffffffffffffffffffffffffffffff05821260008412600084121616156155e8576155e7615897565b5b828202905092915050565b60006155fe82615782565b915061560983615782565b9250817fffffffffffffffffffffffffffffffffffffffffffffffffffffffffffffffff048311821515161561564257615641615897565b5b828202905092915050565b600061565882615758565b915061566383615758565b9250827f80000000000000000000000000000000000000000000000000000000000000000182126000841215161561569e5761569d615897565b5b827f7fffffffffffffffffffffffffffffffffffffffffffffffffffffffffffffff0182136000841216156156d6576156d5615897565b5b828203905092915050565b60006156ec82615782565b91506156f783615782565b92508282101561570a57615709615897565b5b828203905092915050565b600061572082615762565b9050919050565b60008115159050919050565b600061573e82615715565b9050919050565b600081905061575382615d36565b919050565b6000819050919050565b600073ffffffffffffffffffffffffffffffffffffffff82169050919050565b6000819050919050565b600069ffffffffffffffffffff82169050919050565b60006157ad826157b4565b9050919050565b60006157bf82615762565b9050919050565b60006157d182615745565b9050919050565b60006157e382615782565b9050919050565b60005b838110156158085780820151818401526020810190506157ed565b83811115615817576000848401525b50505050565b61582682615953565b810181811067ffffffffffffffff8211171561584557615844615924565b5b80604052505050565b600061585982615782565b91507fffffffffffffffffffffffffffffffffffffffffffffffffffffffffffffffff82141561588c5761588b615897565b5b600182019050919050565b7f4e487b7100000000000000000000000000000000000000000000000000000000600052601160045260246000fd5b7f4e487b7100000000000000000000000000000000000000000000000000000000600052601260045260246000fd5b7f4e487b7100000000000000000000000000000000000000000000000000000000600052602160045260246000fd5b7f4e487b7100000000000000000000000000000000000000000000000000000000600052604160045260246000fd5b6000601f19601f8301169050919050565b7f5061757361626c653a206e6f7420706175736564000000000000000000000000600082015250565b7f5472616e73666572206661696c65640000000000000000000000000000000000600082015250565b7f526f756e642068617320616c726561647920656e646564000000000000000000600082015250565b7f4d757374206d656574206d696e696d756d206265740000000000000000000000600082015250565b7f436f6e7472616374206e6f7420616c6c6f776564000000000000000000000000600082015250565b7f4e6f7420616e206f776e65720000000000000000000000000000000000000000600082015250565b7f526f756e642068617320616c7265616479206265656e20737461727465640000600082015250565b7f526577617264732063616c63756c617465640000000000000000000000000000600082015250565b7f526f756e6420686173206e6f7420656e64656400000000000000000000000000600082015250565b7f5061757361626c653a2070617573656400000000000000000000000000000000600082015250565b7f526f756e64206973206c6f636b65640000000000000000000000000000000000600082015250565b7f557365722063616e6e6f7420706c6163652062696420616761696e0000000000600082015250565b7f50726f787920636f6e7472616374206e6f7420616c6c6f776564000000000000600082015250565b7f416c726561647920636c61696d65640000000000000000000000000000000000600082015250565b7f42657474696e672074696d65206973206f766572000000000000000000000000600082015250565b7f43616e6e6f7420636c61696d0000000000000000000000000000000000000000600082015250565b7f67656e6573697320726f756e6420686173206e6f742073746172746564000000600082015250565b50565b7f416c6c2074686520726577617264732077656e7420746f20706f6f6c2061732060008201527f7072696365206368616e6765206f6620626f746820746f6b656e20617265206560208201527f7175616c00000000000000000000000000000000000000000000000000000000604082015250565b7f526f756e6420686173206e6f7420737461727465640000000000000000000000600082015250565b7f67656e6573697320726f756e642068617320616c72656164792073746172746560008201527f6400000000000000000000000000000000000000000000000000000000000000602082015250565b7f5265656e7472616e637947756172643a207265656e7472616e742063616c6c00600082015250565b60028110615d4757615d466158f5565b5b50565b615d5381615715565b8114615d5e57600080fd5b50565b615d6a81615733565b8114615d7557600080fd5b50565b615d8181615758565b8114615d8c57600080fd5b50565b615d9881615782565b8114615da357600080fd5b50565b615daf8161578c565b8114615dba57600080fd5b5056fea2646970667358221220dd7e009ba4fda06ff57c5de7bd8af707eaad11d10c81be58a4f7c6c74727c4eb64736f6c63430008040033",
  "linkReferences": {},
  "deployedLinkReferences": {}
}