{
  "_format": "hh-sol-artifact-1",
  "contractName": "CryproPairPricePredictionFactory",
  "sourceName": "contracts/crypto-preidction.sol",
  "abi": [
    {
      "inputs": [
        {
          "internalType": "address",
          "name": "_owner",
          "type": "address"
        }
      ],
      "stateMutability": "nonpayable",
      "type": "constructor"
    },
    {
      "anonymous": false,
      "inputs": [
        {
          "indexed": false,
          "internalType": "uint256",
          "name": "pairRound",
          "type": "uint256"
        },
        {
          "indexed": false,
          "internalType": "uint256",
          "name": "pair",
          "type": "uint256"
        }
      ],
      "name": "EndRound",
      "type": "event"
    },
    {
      "anonymous": false,
      "inputs": [
        {
          "indexed": false,
          "internalType": "uint256",
          "name": "",
          "type": "uint256"
        }
      ],
      "name": "FeesChanged",
      "type": "event"
    },
    {
      "anonymous": false,
      "inputs": [
        {
          "indexed": false,
          "internalType": "uint256",
          "name": "roundNumber",
          "type": "uint256"
        }
      ],
      "name": "Pause",
      "type": "event"
    },
    {
      "anonymous": false,
      "inputs": [
        {
          "indexed": false,
          "internalType": "address",
          "name": "account",
          "type": "address"
        }
      ],
      "name": "Paused",
      "type": "event"
    },
    {
      "anonymous": false,
      "inputs": [
        {
          "indexed": false,
          "internalType": "int256",
          "name": "",
          "type": "int256"
        },
        {
          "indexed": false,
          "internalType": "int256",
          "name": "",
          "type": "int256"
        }
      ],
      "name": "PercentageTokenChanges",
      "type": "event"
    },
    {
      "anonymous": false,
      "inputs": [
        {
          "indexed": false,
          "internalType": "address",
          "name": "",
          "type": "address"
        },
        {
          "indexed": false,
          "internalType": "uint256",
          "name": "",
          "type": "uint256"
        }
      ],
      "name": "Received",
      "type": "event"
    },
    {
      "anonymous": false,
      "inputs": [
        {
          "indexed": false,
          "internalType": "uint256",
          "name": "pair",
          "type": "uint256"
        },
        {
          "indexed": false,
          "internalType": "uint256",
          "name": "currentRound",
          "type": "uint256"
        },
        {
          "indexed": false,
          "internalType": "uint256",
          "name": "previousRound",
          "type": "uint256"
        },
        {
          "indexed": false,
          "internalType": "uint256",
          "name": "nextRound",
          "type": "uint256"
        }
      ],
      "name": "RoundExecution",
      "type": "event"
    },
    {
      "anonymous": false,
      "inputs": [
        {
          "indexed": false,
          "internalType": "uint256",
          "name": "pairRound",
          "type": "uint256"
        },
        {
          "indexed": false,
          "internalType": "uint256",
          "name": "pair",
          "type": "uint256"
        }
      ],
      "name": "StartRound",
      "type": "event"
    },
    {
      "anonymous": false,
      "inputs": [
        {
          "indexed": false,
          "internalType": "uint256",
          "name": "pairsActivated",
          "type": "uint256"
        }
      ],
      "name": "Unpause",
      "type": "event"
    },
    {
      "anonymous": false,
      "inputs": [
        {
          "indexed": false,
          "internalType": "address",
          "name": "account",
          "type": "address"
        }
      ],
      "name": "Unpaused",
      "type": "event"
    },
    {
      "inputs": [
        {
          "internalType": "address",
          "name": "to",
          "type": "address"
        },
        {
          "internalType": "uint256",
          "name": "value",
          "type": "uint256"
        }
      ],
      "name": "_safeTransfer",
      "outputs": [],
      "stateMutability": "nonpayable",
      "type": "function"
    },
    {
      "inputs": [],
      "name": "amountToBeTransfered",
      "outputs": [
        {
          "internalType": "uint256",
          "name": "",
          "type": "uint256"
        }
      ],
      "stateMutability": "view",
      "type": "function"
    },
    {
      "inputs": [
        {
          "internalType": "uint256",
          "name": "_fees",
          "type": "uint256"
        }
      ],
      "name": "changeFees",
      "outputs": [],
      "stateMutability": "nonpayable",
      "type": "function"
    },
    {
      "inputs": [
        {
          "internalType": "uint256",
          "name": "_minBet",
          "type": "uint256"
        }
      ],
      "name": "changeMinBet",
      "outputs": [],
      "stateMutability": "nonpayable",
      "type": "function"
    },
    {
      "inputs": [
        {
          "internalType": "bytes",
          "name": "checkData",
          "type": "bytes"
        }
      ],
      "name": "checkUpkeep",
      "outputs": [
        {
          "internalType": "bool",
          "name": "upkeepNeeded",
          "type": "bool"
        },
        {
          "internalType": "bytes",
          "name": "performData",
          "type": "bytes"
        }
      ],
      "stateMutability": "view",
      "type": "function"
    },
    {
      "inputs": [
        {
          "internalType": "uint256",
          "name": "_pairRound",
          "type": "uint256"
        },
        {
          "internalType": "uint256",
          "name": "_pair",
          "type": "uint256"
        }
      ],
      "name": "claimReward",
      "outputs": [],
      "stateMutability": "payable",
      "type": "function"
    },
    {
      "inputs": [
        {
          "internalType": "address",
          "name": "firstToken",
          "type": "address"
        },
        {
          "internalType": "address",
          "name": "secondToken",
          "type": "address"
        }
      ],
      "name": "createPredictionPairs",
      "outputs": [],
      "stateMutability": "nonpayable",
      "type": "function"
    },
    {
      "inputs": [],
      "name": "fees",
      "outputs": [
        {
          "internalType": "uint256",
          "name": "",
          "type": "uint256"
        }
      ],
      "stateMutability": "view",
      "type": "function"
    },
    {
      "inputs": [
        {
          "internalType": "uint256",
          "name": "_pairRound",
          "type": "uint256"
        },
        {
          "internalType": "uint256",
          "name": "_pair",
          "type": "uint256"
        }
      ],
      "name": "firstTokenBet",
      "outputs": [],
      "stateMutability": "payable",
      "type": "function"
    },
    {
      "inputs": [],
      "name": "getBlockTimeStamp",
      "outputs": [
        {
          "internalType": "uint256",
          "name": "",
          "type": "uint256"
        }
      ],
      "stateMutability": "view",
      "type": "function"
    },
    {
      "inputs": [
        {
          "internalType": "contract AggregatorV3Interface[2]",
          "name": "token",
          "type": "address[2]"
        }
      ],
      "name": "getLatestPrice",
      "outputs": [
        {
          "internalType": "int256",
          "name": "",
          "type": "int256"
        },
        {
          "internalType": "int256",
          "name": "",
          "type": "int256"
        }
      ],
      "stateMutability": "view",
      "type": "function"
    },
    {
      "inputs": [
        {
          "internalType": "uint256",
          "name": "_pair",
          "type": "uint256"
        }
      ],
      "name": "getPairRounds",
      "outputs": [
        {
          "components": [
            {
              "internalType": "uint256",
              "name": "pairNumber",
              "type": "uint256"
            },
            {
              "internalType": "uint256",
              "name": "poolAmount",
              "type": "uint256"
            },
            {
              "internalType": "uint256",
              "name": "firstTokenPoolAmount",
              "type": "uint256"
            },
            {
              "internalType": "uint256",
              "name": "secondTokenPoolAmount",
              "type": "uint256"
            },
            {
              "internalType": "uint256",
              "name": "poolTokenRewardAmount",
              "type": "uint256"
            },
            {
              "internalType": "uint256",
              "name": "poolTokenBaseAmount",
              "type": "uint256"
            },
            {
              "internalType": "uint256",
              "name": "roundNumber",
              "type": "uint256"
            },
            {
              "internalType": "bool",
              "name": "roundStart",
              "type": "bool"
            },
            {
              "internalType": "bool",
              "name": "roundEnded",
              "type": "bool"
            },
            {
              "internalType": "bool",
              "name": "roundLock",
              "type": "bool"
            },
            {
              "internalType": "bool",
              "name": "gotPaused",
              "type": "bool"
            },
            {
              "internalType": "uint256",
              "name": "startTimeStamp",
              "type": "uint256"
            },
            {
              "internalType": "uint256",
              "name": "endTimeStamp",
              "type": "uint256"
            },
            {
              "internalType": "int256",
              "name": "firstTokenPriceChange",
              "type": "int256"
            },
            {
              "internalType": "int256",
              "name": "secondTokenPriceChange",
              "type": "int256"
            },
            {
              "internalType": "int256",
              "name": "firstTokenPrice",
              "type": "int256"
            },
            {
              "internalType": "int256",
              "name": "secondTokenPrice",
              "type": "int256"
            }
          ],
          "internalType": "struct CryproPairPricePredictionFactory.Rounds[]",
          "name": "",
          "type": "tuple[]"
        }
      ],
      "stateMutability": "view",
      "type": "function"
    },
    {
      "inputs": [
        {
          "internalType": "uint256",
          "name": "_pairRound",
          "type": "uint256"
        },
        {
          "internalType": "uint256",
          "name": "_pair",
          "type": "uint256"
        }
      ],
      "name": "getRoundInfo",
      "outputs": [
        {
          "components": [
            {
              "internalType": "uint256",
              "name": "pairNumber",
              "type": "uint256"
            },
            {
              "internalType": "uint256",
              "name": "poolAmount",
              "type": "uint256"
            },
            {
              "internalType": "uint256",
              "name": "firstTokenPoolAmount",
              "type": "uint256"
            },
            {
              "internalType": "uint256",
              "name": "secondTokenPoolAmount",
              "type": "uint256"
            },
            {
              "internalType": "uint256",
              "name": "poolTokenRewardAmount",
              "type": "uint256"
            },
            {
              "internalType": "uint256",
              "name": "poolTokenBaseAmount",
              "type": "uint256"
            },
            {
              "internalType": "uint256",
              "name": "roundNumber",
              "type": "uint256"
            },
            {
              "internalType": "bool",
              "name": "roundStart",
              "type": "bool"
            },
            {
              "internalType": "bool",
              "name": "roundEnded",
              "type": "bool"
            },
            {
              "internalType": "bool",
              "name": "roundLock",
              "type": "bool"
            },
            {
              "internalType": "bool",
              "name": "gotPaused",
              "type": "bool"
            },
            {
              "internalType": "uint256",
              "name": "startTimeStamp",
              "type": "uint256"
            },
            {
              "internalType": "uint256",
              "name": "endTimeStamp",
              "type": "uint256"
            },
            {
              "internalType": "int256",
              "name": "firstTokenPriceChange",
              "type": "int256"
            },
            {
              "internalType": "int256",
              "name": "secondTokenPriceChange",
              "type": "int256"
            },
            {
              "internalType": "int256",
              "name": "firstTokenPrice",
              "type": "int256"
            },
            {
              "internalType": "int256",
              "name": "secondTokenPrice",
              "type": "int256"
            }
          ],
          "internalType": "struct CryproPairPricePredictionFactory.Rounds",
          "name": "",
          "type": "tuple"
        }
      ],
      "stateMutability": "view",
      "type": "function"
    },
    {
      "inputs": [],
      "name": "getTreauryAmount",
      "outputs": [],
      "stateMutability": "nonpayable",
      "type": "function"
    },
    {
      "inputs": [
        {
          "internalType": "uint256",
          "name": "_pair",
          "type": "uint256"
        }
      ],
      "name": "getUserRounds",
      "outputs": [
        {
          "components": [
            {
              "internalType": "enum CryproPairPricePredictionFactory.TokenSelection",
              "name": "tokenselected",
              "type": "uint8"
            },
            {
              "internalType": "uint256",
              "name": "amount",
              "type": "uint256"
            },
            {
              "internalType": "bool",
              "name": "claim",
              "type": "bool"
            }
          ],
          "internalType": "struct CryproPairPricePredictionFactory.biddingInfo[]",
          "name": "",
          "type": "tuple[]"
        },
        {
          "internalType": "uint256[]",
          "name": "",
          "type": "uint256[]"
        }
      ],
      "stateMutability": "view",
      "type": "function"
    },
    {
      "inputs": [
        {
          "internalType": "uint256",
          "name": "_pairRound",
          "type": "uint256"
        },
        {
          "internalType": "uint256",
          "name": "_pair",
          "type": "uint256"
        }
      ],
      "name": "gettokenPriceChanges",
      "outputs": [
        {
          "internalType": "int256",
          "name": "",
          "type": "int256"
        },
        {
          "internalType": "int256",
          "name": "",
          "type": "int256"
        }
      ],
      "stateMutability": "nonpayable",
      "type": "function"
    },
    {
      "inputs": [],
      "name": "hasRoundEnded",
      "outputs": [
        {
          "internalType": "bool",
          "name": "",
          "type": "bool"
        }
      ],
      "stateMutability": "view",
      "type": "function"
    },
    {
      "inputs": [],
      "name": "maxBet",
      "outputs": [
        {
          "internalType": "uint256",
          "name": "",
          "type": "uint256"
        }
      ],
      "stateMutability": "view",
      "type": "function"
    },
    {
      "inputs": [],
      "name": "minBet",
      "outputs": [
        {
          "internalType": "uint256",
          "name": "",
          "type": "uint256"
        }
      ],
      "stateMutability": "view",
      "type": "function"
    },
    {
      "inputs": [
        {
          "internalType": "uint256",
          "name": "",
          "type": "uint256"
        }
      ],
      "name": "pairGenesisRound",
      "outputs": [
        {
          "internalType": "bool",
          "name": "",
          "type": "bool"
        }
      ],
      "stateMutability": "view",
      "type": "function"
    },
    {
      "inputs": [
        {
          "internalType": "uint256",
          "name": "",
          "type": "uint256"
        }
      ],
      "name": "pairRounds",
      "outputs": [
        {
          "internalType": "uint256",
          "name": "",
          "type": "uint256"
        }
      ],
      "stateMutability": "view",
      "type": "function"
    },
    {
      "inputs": [
        {
          "internalType": "uint256",
          "name": "",
          "type": "uint256"
        },
        {
          "internalType": "uint256",
          "name": "",
          "type": "uint256"
        }
      ],
      "name": "pairs",
      "outputs": [
        {
          "internalType": "contract AggregatorV3Interface",
          "name": "",
          "type": "address"
        }
      ],
      "stateMutability": "view",
      "type": "function"
    },
    {
      "inputs": [],
      "name": "pairsCount",
      "outputs": [
        {
          "internalType": "uint256",
          "name": "",
          "type": "uint256"
        }
      ],
      "stateMutability": "view",
      "type": "function"
    },
    {
      "inputs": [
        {
          "internalType": "uint256",
          "name": "pair",
          "type": "uint256"
        }
      ],
      "name": "pause",
      "outputs": [],
      "stateMutability": "nonpayable",
      "type": "function"
    },
    {
      "inputs": [],
      "name": "paused",
      "outputs": [
        {
          "internalType": "bool",
          "name": "",
          "type": "bool"
        }
      ],
      "stateMutability": "view",
      "type": "function"
    },
    {
      "inputs": [
        {
          "internalType": "bytes",
          "name": "performData",
          "type": "bytes"
        }
      ],
      "name": "performUpkeep",
      "outputs": [],
      "stateMutability": "nonpayable",
      "type": "function"
    },
    {
      "inputs": [
        {
          "internalType": "uint256",
          "name": "_pair",
          "type": "uint256"
        }
      ],
      "name": "roundExecution",
      "outputs": [],
      "stateMutability": "nonpayable",
      "type": "function"
    },
    {
      "inputs": [],
      "name": "roundTime",
      "outputs": [
        {
          "internalType": "uint256",
          "name": "",
          "type": "uint256"
        }
      ],
      "stateMutability": "view",
      "type": "function"
    },
    {
      "inputs": [
        {
          "internalType": "uint256",
          "name": "_pairRound",
          "type": "uint256"
        },
        {
          "internalType": "uint256",
          "name": "_pair",
          "type": "uint256"
        }
      ],
      "name": "secondTokenBet",
      "outputs": [],
      "stateMutability": "payable",
      "type": "function"
    },
    {
      "inputs": [
        {
          "internalType": "uint256",
          "name": "_pair",
          "type": "uint256"
        }
      ],
      "name": "startGenesisRoundForThePair",
      "outputs": [],
      "stateMutability": "nonpayable",
      "type": "function"
    },
    {
      "inputs": [],
      "name": "treasuryAmount",
      "outputs": [
        {
          "internalType": "uint256",
          "name": "",
          "type": "uint256"
        }
      ],
      "stateMutability": "view",
      "type": "function"
    },
    {
      "inputs": [],
      "name": "unpause",
      "outputs": [],
      "stateMutability": "nonpayable",
      "type": "function"
    },
    {
      "inputs": [
        {
          "internalType": "uint256",
          "name": "minDeposit",
          "type": "uint256"
        },
        {
          "internalType": "uint256",
          "name": "maxDeposit",
          "type": "uint256"
        }
      ],
      "name": "updateMinMaxDepositAmount",
      "outputs": [],
      "stateMutability": "nonpayable",
      "type": "function"
    },
    {
      "inputs": [
        {
          "internalType": "address",
          "name": "newOwner",
          "type": "address"
        }
      ],
      "name": "updateOwner",
      "outputs": [],
      "stateMutability": "nonpayable",
      "type": "function"
    },
    {
      "inputs": [
        {
          "internalType": "uint256",
          "name": "",
          "type": "uint256"
        },
        {
          "internalType": "address",
          "name": "",
          "type": "address"
        },
        {
          "internalType": "uint256",
          "name": "",
          "type": "uint256"
        }
      ],
      "name": "userPlayedRounds",
      "outputs": [
        {
          "internalType": "uint256",
          "name": "",
          "type": "uint256"
        }
      ],
      "stateMutability": "view",
      "type": "function"
    },
    {
      "inputs": [
        {
          "internalType": "uint256",
          "name": "",
          "type": "uint256"
        },
        {
          "internalType": "uint256",
          "name": "",
          "type": "uint256"
        },
        {
          "internalType": "address",
          "name": "",
          "type": "address"
        }
      ],
      "name": "userRoundBids",
      "outputs": [
        {
          "internalType": "enum CryproPairPricePredictionFactory.TokenSelection",
          "name": "tokenselected",
          "type": "uint8"
        },
        {
          "internalType": "uint256",
          "name": "amount",
          "type": "uint256"
        },
        {
          "internalType": "bool",
          "name": "claim",
          "type": "bool"
        }
      ],
      "stateMutability": "view",
      "type": "function"
    },
    {
      "stateMutability": "payable",
      "type": "receive"
    }
  ],
  "bytecode": "0x60806040523480156200001157600080fd5b5060405162005e7638038062005e768339818101604052810190620000379190620000e4565b60008060006101000a81548160ff0219169083151502179055506001808190555080600260006101000a81548173ffffffffffffffffffffffffffffffffffffffff021916908373ffffffffffffffffffffffffffffffffffffffff16021790555060006003819055506000600681905550607860078190555061012c6008819055506402540be400600481905550506200015e565b600081519050620000de8162000144565b92915050565b600060208284031215620000f757600080fd5b60006200010784828501620000cd565b91505092915050565b60006200011d8262000124565b9050919050565b600073ffffffffffffffffffffffffffffffffffffffff82169050919050565b6200014f8162000110565b81146200015b57600080fd5b50565b615d08806200016e6000396000f3fe6080604052600436106102135760003560e01c8063880cdc3111610118578063ca49a543116100a0578063ee5f8c8f1161006f578063ee5f8c8f146107ef578063f198f54e1461081a578063f55267c614610857578063fa0b621114610880578063fa7af1f0146108ab57610253565b8063ca49a54314610734578063d411e8991461075f578063e8147a2514610788578063e8bacbb4146107b157610253565b8063a468b7c1116100e7578063a468b7c11461065b578063b81b2b7114610699578063b933137f146106c4578063c34641fa146106e0578063c4f8210e1461070b57610253565b8063880cdc311461059f5780638a9bb02a146105c85780639619367d146106055780639af1d35a1461063057610253565b8063580cb78d1161019b5780636e04ff0d1161016a5780636e04ff0d146104dc578063719719101461051a57806375dd50511461053157806377a0de4c1461055a57806386bb8f371461058357610253565b8063580cb78d1461040e5780635c975abb1461044b578063675b4ef1146104765780636cda375b146104b357610253565b806323462d0c116101e257806323462d0c1461033b5780632e5b216814610378578063368acb09146103a35780633f4ba83a146103ce5780634585e33b146103e557610253565b80630364ad7314610258578063121e190814610297578063136439dd146102d45780631ecc82b7146102fd57610253565b36610253577f88a5966d370b9919b20f3e2c13ff65706f196a4e32cc2c12bf57088f885258743334604051610249929190614d57565b60405180910390a1005b600080fd5b34801561026457600080fd5b5061027f600480360381019061027a919061442d565b6108c7565b60405161028e93929190614e3f565b60405180910390f35b3480156102a357600080fd5b506102be60048036038101906102b99190614379565b610925565b6040516102cb919061515b565b60405180910390f35b3480156102e057600080fd5b506102fb60048036038101906102f69190614379565b61093d565b005b34801561030957600080fd5b50610324600480360381019061031f91906143f1565b610c0c565b604051610332929190614e76565b60405180910390f35b34801561034757600080fd5b50610362600480360381019061035d91906143a2565b610d57565b60405161036f919061515b565b60405180910390f35b34801561038457600080fd5b5061038d610d95565b60405161039a919061515b565b60405180910390f35b3480156103af57600080fd5b506103b8610d9b565b6040516103c5919061515b565b60405180910390f35b3480156103da57600080fd5b506103e3610da1565b005b3480156103f157600080fd5b5061040c60048036038101906104079190614334565b610f0b565b005b34801561041a57600080fd5b5061043560048036038101906104309190614379565b610f19565b6040516104429190614d80565b60405180910390f35b34801561045757600080fd5b5061046061114b565b60405161046d9190614dd9565b60405180910390f35b34801561048257600080fd5b5061049d600480360381019061049891906143f1565b611161565b6040516104aa9190614e24565b60405180910390f35b3480156104bf57600080fd5b506104da60048036038101906104d59190614379565b6111a6565b005b3480156104e857600080fd5b5061050360048036038101906104fe9190614334565b611279565b604051610511929190614df4565b60405180910390f35b34801561052657600080fd5b5061052f61131e565b005b34801561053d57600080fd5b5061055860048036038101906105539190614293565b611411565b005b34801561056657600080fd5b50610581600480360381019061057c91906143f1565b6115db565b005b61059d600480360381019061059891906143f1565b61167d565b005b3480156105ab57600080fd5b506105c660048036038101906105c1919061426a565b611da4565b005b3480156105d457600080fd5b506105ef60048036038101906105ea91906143f1565b611e78565b6040516105fc919061513f565b60405180910390f35b34801561061157600080fd5b5061061a611fa6565b604051610627919061515b565b60405180910390f35b34801561063c57600080fd5b50610645611fac565b604051610652919061515b565b60405180910390f35b34801561066757600080fd5b50610682600480360381019061067d919061430b565b611fb2565b604051610690929190614e76565b60405180910390f35b3480156106a557600080fd5b506106ae61214a565b6040516106bb919061515b565b60405180910390f35b6106de60048036038101906106d991906143f1565b612150565b005b3480156106ec57600080fd5b506106f5612782565b604051610702919061515b565b60405180910390f35b34801561071757600080fd5b50610732600480360381019061072d91906142cf565b612788565b005b34801561074057600080fd5b50610749612839565b604051610756919061515b565b60405180910390f35b34801561076b57600080fd5b5061078660048036038101906107819190614379565b612841565b005b34801561079457600080fd5b506107af60048036038101906107aa9190614379565b6129f8565b005b3480156107bd57600080fd5b506107d860048036038101906107d39190614379565b612a92565b6040516107e6929190614da2565b60405180910390f35b3480156107fb57600080fd5b50610804612d85565b604051610811919061515b565b60405180910390f35b34801561082657600080fd5b50610841600480360381019061083c9190614379565b612d8b565b60405161084e9190614dd9565b60405180910390f35b34801561086357600080fd5b5061087e60048036038101906108799190614379565b612dab565b005b34801561088c57600080fd5b50610895612fc2565b6040516108a29190614dd9565b60405180910390f35b6108c560048036038101906108c091906143f1565b613019565b005b600c60205282600052604060002060205281600052604060002060205280600052604060002060009250925050508060000160009054906101000a900460ff16908060010154908060020160009054906101000a900460ff16905083565b600a6020528060005260406000206000915090505481565b61094561114b565b15610985576040517f08c379a000000000000000000000000000000000000000000000000000000000815260040161097c90614f9f565b60405180910390fd5b3373ffffffffffffffffffffffffffffffffffffffff16600260009054906101000a900473ffffffffffffffffffffffffffffffffffffffff1673ffffffffffffffffffffffffffffffffffffffff1614610a15576040517f08c379a0000000000000000000000000000000000000000000000000000000008152600401610a0c90614f3f565b60405180910390fd5b6000600190505b6003548111610bc9576000600a60008381526020019081526020016000205490506001600e6000848152602001908152602001600020600083815260200190815260200160002060070160036101000a81548160ff0219169083151502179055506000600e60008481526020019081526020016000206000838152602001908152602001600020600901819055506001600e6000848152602001908152602001600020600083815260200190815260200160002060070160016101000a81548160ff021916908315150217905550600e60008381526020019081526020016000206000600183610b0c9190615608565b815260200190815260200160002060070160019054906101000a900460ff16610bb5576000600e60008481526020019081526020016000206000600184610b539190615608565b8152602001908152602001600020600901819055506001600e60008481526020019081526020016000206000600184610b8c9190615608565b815260200190815260200160002060070160016101000a81548160ff0219169083151502179055505b508080610bc190615763565b915050610a1c565b50610bd261364b565b7f68b095021b1f40fe513109f513c66692f0b3219aee674a69f4efc57badb8201d81604051610c01919061515b565b60405180910390a150565b600080600080610c9f60096000878152602001908152602001600020600280602002604051908101604052809291908260028015610c95576020028201915b8160009054906101000a900473ffffffffffffffffffffffffffffffffffffffff1673ffffffffffffffffffffffffffffffffffffffff1681526020019060010190808311610c4b575b5050505050611fb2565b915091506000610cd6600e60008881526020019081526020016000206000898152602001908152602001600020600c0154846136ed565b90506000610d0b600e600089815260200190815260200160002060008a8152602001908152602001600020600d0154846136ed565b90507fa4393d92bc1fa01e1edb65f571aba9ce960fcadf3ddc9493d63a31e43f532f2f8484604051610d3e929190614e76565b60405180910390a1818195509550505050509250929050565b600d6020528260005260406000206020528160005260406000208181548110610d7f57600080fd5b9060005260206000200160009250925050505481565b60055481565b60065481565b610da961114b565b610de8576040517f08c379a0000000000000000000000000000000000000000000000000000000008152600401610ddf90614e9f565b60405180910390fd5b3373ffffffffffffffffffffffffffffffffffffffff16600260009054906101000a900473ffffffffffffffffffffffffffffffffffffffff1673ffffffffffffffffffffffffffffffffffffffff1614610e78576040517f08c379a0000000000000000000000000000000000000000000000000000000008152600401610e6f90614f3f565b60405180910390fd5b6000600190505b6003548111610ec7576000600b600083815260200190815260200160002060006101000a81548160ff0219169083151502179055508080610ebf90615763565b915050610e7f565b50610ed0613753565b7faaa520fdd7d2c83061d632fa017b0432407e798818af63ea908589fceda39ab7600354604051610f01919061515b565b60405180910390a1565b610f156001612841565b5050565b60606000600a600084815260200190815260200160002054905060008167ffffffffffffffff811115610f75577f4e487b7100000000000000000000000000000000000000000000000000000000600052604160045260246000fd5b604051908082528060200260200182016040528015610fae57816020015b610f9b614031565b815260200190600190039081610f935790505b5090506000600190505b82811161114057600e6000868152602001908152602001600020600082815260200190815260200160002060405180610220016040529081600082015481526020016001820154815260200160028201548152602001600382015481526020016004820154815260200160058201548152602001600682015481526020016007820160009054906101000a900460ff161515151581526020016007820160019054906101000a900460ff161515151581526020016007820160029054906101000a900460ff161515151581526020016007820160039054906101000a900460ff161515151581526020016008820154815260200160098201548152602001600a8201548152602001600b8201548152602001600c8201548152602001600d82015481525050826001836110eb9190615608565b81518110611122577f4e487b7100000000000000000000000000000000000000000000000000000000600052603260045260246000fd5b6020026020010181905250808061113890615763565b915050610fb8565b508092505050919050565b60008060009054906101000a900460ff16905090565b6009602052816000526040600020816002811061117d57600080fd5b016000915091509054906101000a900473ffffffffffffffffffffffffffffffffffffffff1681565b3373ffffffffffffffffffffffffffffffffffffffff16600260009054906101000a900473ffffffffffffffffffffffffffffffffffffffff1673ffffffffffffffffffffffffffffffffffffffff1614611236576040517f08c379a000000000000000000000000000000000000000000000000000000000815260040161122d90614f3f565b60405180910390fd5b806007819055507f3dda580d2b9d92da338ef46ec718e7b1dd0a2c505e3df4aa8d40360192a0f82260075460405161126e919061515b565b60405180910390a150565b600060606000600e60006001815260200190815260200160002060006001600a600060018152602001908152602001600020546112b69190615608565b8152602001908152602001600020600901549050428110925084848080601f016020809104026020016040519081016040528093929190818152602001838380828437600081840152601f19601f820116905080830192505050505050509150509250929050565b3373ffffffffffffffffffffffffffffffffffffffff16600260009054906101000a900473ffffffffffffffffffffffffffffffffffffffff1673ffffffffffffffffffffffffffffffffffffffff16146113ae576040517f08c379a00000000000000000000000000000000000000000000000000000000081526004016113a590614f3f565b60405180910390fd5b600260015414156113f4576040517f08c379a00000000000000000000000000000000000000000000000000000000081526004016113eb9061511f565b60405180910390fd5b600260018190555061140833600654612788565b60018081905550565b3373ffffffffffffffffffffffffffffffffffffffff16600260009054906101000a900473ffffffffffffffffffffffffffffffffffffffff1673ffffffffffffffffffffffffffffffffffffffff16146114a1576040517f08c379a000000000000000000000000000000000000000000000000000000000815260040161149890614f3f565b60405180910390fd5b6001600360008282546114b49190615312565b925050819055508160096000600354815260200190815260200160002060006002811061150a577f4e487b7100000000000000000000000000000000000000000000000000000000600052603260045260246000fd5b0160006101000a81548173ffffffffffffffffffffffffffffffffffffffff021916908373ffffffffffffffffffffffffffffffffffffffff16021790555080600960006003548152602001908152602001600020600160028110611598577f4e487b7100000000000000000000000000000000000000000000000000000000600052603260045260246000fd5b0160006101000a81548173ffffffffffffffffffffffffffffffffffffffff021916908373ffffffffffffffffffffffffffffffffffffffff1602179055505050565b3373ffffffffffffffffffffffffffffffffffffffff16600260009054906101000a900473ffffffffffffffffffffffffffffffffffffffff1673ffffffffffffffffffffffffffffffffffffffff161461166b576040517f08c379a000000000000000000000000000000000000000000000000000000000815260040161166290614f3f565b60405180910390fd5b81600481905550806005819055505050565b611686336137f4565b156116c6576040517f08c379a00000000000000000000000000000000000000000000000000000000081526004016116bd90614f1f565b60405180910390fd5b3273ffffffffffffffffffffffffffffffffffffffff163373ffffffffffffffffffffffffffffffffffffffff1614611734576040517f08c379a000000000000000000000000000000000000000000000000000000000815260040161172b90614fff565b60405180910390fd5b6002600154141561177a576040517f08c379a00000000000000000000000000000000000000000000000000000000081526004016117719061511f565b60405180910390fd5b600260018190555060011515600e6000838152602001908152602001600020600084815260200190815260200160002060070160019054906101000a900460ff161515146117fd576040517f08c379a00000000000000000000000000000000000000000000000000000000081526004016117f490614f7f565b60405180910390fd5b6000600e600083815260200190815260200160002060008481526020019081526020016000206004015411611867576040517f08c379a000000000000000000000000000000000000000000000000000000000815260040161185e906150bf565b60405180910390fd5b60001515600c6000838152602001908152602001600020600084815260200190815260200160002060003373ffffffffffffffffffffffffffffffffffffffff1673ffffffffffffffffffffffffffffffffffffffff16815260200190815260200160002060020160009054906101000a900460ff1615151461191f576040517f08c379a00000000000000000000000000000000000000000000000000000000081526004016119169061501f565b60405180910390fd5b6000600e6000838152602001908152602001600020600084815260200190815260200160002060405180610220016040529081600082015481526020016001820154815260200160028201548152602001600382015481526020016004820154815260200160058201548152602001600682015481526020016007820160009054906101000a900460ff161515151581526020016007820160019054906101000a900460ff161515151581526020016007820160029054906101000a900460ff161515151581526020016007820160039054906101000a900460ff161515151581526020016008820154815260200160098201548152602001600a8201548152602001600b8201548152602001600c8201548152602001600d820154815250509050806101c00151816101a00151138015611b3b575060006001811115611a8f577f4e487b7100000000000000000000000000000000000000000000000000000000600052602160045260246000fd5b600c6000848152602001908152602001600020600085815260200190815260200160002060003373ffffffffffffffffffffffffffffffffffffffff1673ffffffffffffffffffffffffffffffffffffffff16815260200190815260200160002060000160009054906101000a900460ff166001811115611b39577f4e487b7100000000000000000000000000000000000000000000000000000000600052602160045260246000fd5b145b80611c3b5750806101c00151816101a00151128015611c3a5750600180811115611b8e577f4e487b7100000000000000000000000000000000000000000000000000000000600052602160045260246000fd5b600c6000848152602001908152602001600020600085815260200190815260200160002060003373ffffffffffffffffffffffffffffffffffffffff1673ffffffffffffffffffffffffffffffffffffffff16815260200190815260200160002060000160009054906101000a900460ff166001811115611c38577f4e487b7100000000000000000000000000000000000000000000000000000000600052602160045260246000fd5b145b5b611c7a576040517f08c379a0000000000000000000000000000000000000000000000000000000008152600401611c719061505f565b60405180910390fd5b8060a001518160800151600c6000858152602001908152602001600020600086815260200190815260200160002060003373ffffffffffffffffffffffffffffffffffffffff1673ffffffffffffffffffffffffffffffffffffffff16815260200190815260200160002060010154611cf3919061551a565b611cfd91906153d2565b600f819055506001600c6000848152602001908152602001600020600085815260200190815260200160002060003373ffffffffffffffffffffffffffffffffffffffff1673ffffffffffffffffffffffffffffffffffffffff16815260200190815260200160002060020160006101000a81548160ff0219169083151502179055506000600f541115611d9857611d9733600f54612788565b5b50600180819055505050565b3373ffffffffffffffffffffffffffffffffffffffff16600260009054906101000a900473ffffffffffffffffffffffffffffffffffffffff1673ffffffffffffffffffffffffffffffffffffffff1614611e34576040517f08c379a0000000000000000000000000000000000000000000000000000000008152600401611e2b90614f3f565b60405180910390fd5b80600260006101000a81548173ffffffffffffffffffffffffffffffffffffffff021916908373ffffffffffffffffffffffffffffffffffffffff16021790555050565b611e80614031565b600e6000838152602001908152602001600020600084815260200190815260200160002060405180610220016040529081600082015481526020016001820154815260200160028201548152602001600382015481526020016004820154815260200160058201548152602001600682015481526020016007820160009054906101000a900460ff161515151581526020016007820160019054906101000a900460ff161515151581526020016007820160029054906101000a900460ff161515151581526020016007820160039054906101000a900460ff161515151581526020016008820154815260200160098201548152602001600a8201548152602001600b8201548152602001600c8201548152602001600d82015481525050905092915050565b60045481565b60075481565b600080600083600060028110611ff1577f4e487b7100000000000000000000000000000000000000000000000000000000600052603260045260246000fd5b602002015173ffffffffffffffffffffffffffffffffffffffff1663feaf968c6040518163ffffffff1660e01b815260040160a06040518083038186803b15801561203b57600080fd5b505afa15801561204f573d6000803e3d6000fd5b505050506040513d601f19601f82011682018060405250810190612073919061447c565b5050509150506000846001600281106120b5577f4e487b7100000000000000000000000000000000000000000000000000000000600052603260045260246000fd5b602002015173ffffffffffffffffffffffffffffffffffffffff1663feaf968c6040518163ffffffff1660e01b815260040160a06040518083038186803b1580156120ff57600080fd5b505afa158015612113573d6000803e3d6000fd5b505050506040513d601f19601f82011682018060405250810190612137919061447c565b5050509150508181935093505050915091565b60035481565b61215861114b565b15612198576040517f08c379a000000000000000000000000000000000000000000000000000000000815260040161218f90614f9f565b60405180910390fd5b818160011515600e6000838152602001908152602001600020600084815260200190815260200160002060070160009054906101000a900460ff16151514612215576040517f08c379a000000000000000000000000000000000000000000000000000000000815260040161220c906150df565b60405180910390fd5b60001515600e6000838152602001908152602001600020600084815260200190815260200160002060070160019054906101000a900460ff16151514612290576040517f08c379a000000000000000000000000000000000000000000000000000000000815260040161228790614f7f565b60405180910390fd5b60001515600e6000838152602001908152602001600020600084815260200190815260200160002060070160029054906101000a900460ff1615151461230b576040517f08c379a000000000000000000000000000000000000000000000000000000000815260040161230290614fbf565b60405180910390fd5b600454341015612350576040517f08c379a000000000000000000000000000000000000000000000000000000000815260040161234790614eff565b60405180910390fd5b6000600c6000838152602001908152602001600020600084815260200190815260200160002060003373ffffffffffffffffffffffffffffffffffffffff1673ffffffffffffffffffffffffffffffffffffffff16815260200190815260200160002060010154146123f7576040517f08c379a00000000000000000000000000000000000000000000000000000000081526004016123ee90614fdf565b60405180910390fd5b42600e60008381526020019081526020016000206000848152602001908152602001600020600901541015612461576040517f08c379a00000000000000000000000000000000000000000000000000000000081526004016124589061503f565b60405180910390fd5b61246a336137f4565b156124aa576040517f08c379a00000000000000000000000000000000000000000000000000000000081526004016124a190614f1f565b60405180910390fd5b3273ffffffffffffffffffffffffffffffffffffffff163373ffffffffffffffffffffffffffffffffffffffff1614612518576040517f08c379a000000000000000000000000000000000000000000000000000000000815260040161250f90614fff565b60405180910390fd5b6002600154141561255e576040517f08c379a00000000000000000000000000000000000000000000000000000000081526004016125559061511f565b60405180910390fd5b600260018190555034600c6000858152602001908152602001600020600086815260200190815260200160002060003373ffffffffffffffffffffffffffffffffffffffff1673ffffffffffffffffffffffffffffffffffffffff168152602001908152602001600020600101819055506000600c6000858152602001908152602001600020600086815260200190815260200160002060003373ffffffffffffffffffffffffffffffffffffffff1673ffffffffffffffffffffffffffffffffffffffff16815260200190815260200160002060000160006101000a81548160ff0219169083600181111561267d577f4e487b7100000000000000000000000000000000000000000000000000000000600052602160045260246000fd5b021790555034600e6000858152602001908152602001600020600086815260200190815260200160002060010160008282546126b99190615312565b9250508190555034600e6000858152602001908152602001600020600086815260200190815260200160002060020160008282546126f79190615312565b92505081905550600d600084815260200190815260200160002060003373ffffffffffffffffffffffffffffffffffffffff1673ffffffffffffffffffffffffffffffffffffffff1681526020019081526020016000208490806001815401808255809150506001900390600052602060002001600090919091909150556001808190555050505050565b600f5481565b60008273ffffffffffffffffffffffffffffffffffffffff16826040516127ae90614d27565b60006040518083038185875af1925050503d80600081146127eb576040519150601f19603f3d011682016040523d82523d6000602084013e6127f0565b606091505b5050905080612834576040517f08c379a000000000000000000000000000000000000000000000000000000000815260040161282b90614ebf565b60405180910390fd5b505050565b600042905090565b61284961114b565b15612889576040517f08c379a000000000000000000000000000000000000000000000000000000000815260040161288090614f9f565b60405180910390fd5b60011515600b600083815260200190815260200160002060009054906101000a900460ff161515146128f0576040517f08c379a00000000000000000000000000000000000000000000000000000000081526004016128e79061509f565b60405180910390fd5b6000600a600083815260200190815260200160002054905061291e6001826129189190615608565b83613807565b6001600e6000848152602001908152602001600020600083815260200190815260200160002060070160026101000a81548160ff02191690831515021790555061297460018261296e9190615312565b83613aa1565b6001600a600084815260200190815260200160002060008282546129989190615312565b925050819055507fb352bf6cd71f52e0afa92233b39b67b5b88f33595d886578f9c323dbd6997dd782826001846129cf9190615608565b6001856129dc9190615312565b6040516129ec949392919061519f565b60405180910390a15050565b3373ffffffffffffffffffffffffffffffffffffffff16600260009054906101000a900473ffffffffffffffffffffffffffffffffffffffff1673ffffffffffffffffffffffffffffffffffffffff1614612a88576040517f08c379a0000000000000000000000000000000000000000000000000000000008152600401612a7f90614f3f565b60405180910390fd5b8060048190555050565b6060806000600d600085815260200190815260200160002060003373ffffffffffffffffffffffffffffffffffffffff1673ffffffffffffffffffffffffffffffffffffffff168152602001908152602001600020805480602002602001604051908101604052809291908181526020018280548015612b3157602002820191906000526020600020905b815481526020019060010190808311612b1d575b5050505050905060008151905060008167ffffffffffffffff811115612b80577f4e487b7100000000000000000000000000000000000000000000000000000000600052604160045260246000fd5b604051908082528060200260200182016040528015612bb957816020015b612ba66140bd565b815260200190600190039081612b9e5790505b50905060005b82811015612d7657600c60008881526020019081526020016000206000858381518110612c15577f4e487b7100000000000000000000000000000000000000000000000000000000600052603260045260246000fd5b6020026020010151815260200190815260200160002060003373ffffffffffffffffffffffffffffffffffffffff1673ffffffffffffffffffffffffffffffffffffffff1681526020019081526020016000206040518060600160405290816000820160009054906101000a900460ff166001811115612cbe577f4e487b7100000000000000000000000000000000000000000000000000000000600052602160045260246000fd5b6001811115612cf6577f4e487b7100000000000000000000000000000000000000000000000000000000600052602160045260246000fd5b8152602001600182015481526020016002820160009054906101000a900460ff161515151581525050828281518110612d58577f4e487b7100000000000000000000000000000000000000000000000000000000600052603260045260246000fd5b60200260200101819052508080612d6e90615763565b915050612bbf565b50808394509450505050915091565b60085481565b600b6020528060005260406000206000915054906101000a900460ff1681565b612db361114b565b15612df3576040517f08c379a0000000000000000000000000000000000000000000000000000000008152600401612dea90614f9f565b60405180910390fd5b3373ffffffffffffffffffffffffffffffffffffffff16600260009054906101000a900473ffffffffffffffffffffffffffffffffffffffff1673ffffffffffffffffffffffffffffffffffffffff1614612e83576040517f08c379a0000000000000000000000000000000000000000000000000000000008152600401612e7a90614f3f565b60405180910390fd5b60001515600b600083815260200190815260200160002060009054906101000a900460ff16151514612eea576040517f08c379a0000000000000000000000000000000000000000000000000000000008152600401612ee1906150ff565b60405180910390fd5b6001600b600083815260200190815260200160002060006101000a81548160ff02191690831515021790555060006001600a600084815260200190815260200160002054612f389190615312565b9050612f448183613aa1565b6001600e6000848152602001908152602001600020600083815260200190815260200160002060070160026101000a81548160ff021916908315150217905550600181612f919190615312565b600a600084815260200190815260200160002081905550612fbe600182612fb89190615312565b83613aa1565b5050565b60008042600e60006001815260200190815260200160002060006001600a60006001815260200190815260200160002054612ffd9190615608565b8152602001908152602001600020600901541090508091505090565b61302161114b565b15613061576040517f08c379a000000000000000000000000000000000000000000000000000000000815260040161305890614f9f565b60405180910390fd5b818160011515600e6000838152602001908152602001600020600084815260200190815260200160002060070160009054906101000a900460ff161515146130de576040517f08c379a00000000000000000000000000000000000000000000000000000000081526004016130d5906150df565b60405180910390fd5b60001515600e6000838152602001908152602001600020600084815260200190815260200160002060070160019054906101000a900460ff16151514613159576040517f08c379a000000000000000000000000000000000000000000000000000000000815260040161315090614f7f565b60405180910390fd5b60001515600e6000838152602001908152602001600020600084815260200190815260200160002060070160029054906101000a900460ff161515146131d4576040517f08c379a00000000000000000000000000000000000000000000000000000000081526004016131cb90614fbf565b60405180910390fd5b600454341015613219576040517f08c379a000000000000000000000000000000000000000000000000000000000815260040161321090614eff565b60405180910390fd5b6000600c6000838152602001908152602001600020600084815260200190815260200160002060003373ffffffffffffffffffffffffffffffffffffffff1673ffffffffffffffffffffffffffffffffffffffff16815260200190815260200160002060010154146132c0576040517f08c379a00000000000000000000000000000000000000000000000000000000081526004016132b790614fdf565b60405180910390fd5b42600e6000838152602001908152602001600020600084815260200190815260200160002060090154101561332a576040517f08c379a00000000000000000000000000000000000000000000000000000000081526004016133219061503f565b60405180910390fd5b613333336137f4565b15613373576040517f08c379a000000000000000000000000000000000000000000000000000000000815260040161336a90614f1f565b60405180910390fd5b3273ffffffffffffffffffffffffffffffffffffffff163373ffffffffffffffffffffffffffffffffffffffff16146133e1576040517f08c379a00000000000000000000000000000000000000000000000000000000081526004016133d890614fff565b60405180910390fd5b60026001541415613427576040517f08c379a000000000000000000000000000000000000000000000000000000000815260040161341e9061511f565b60405180910390fd5b600260018190555034600c6000858152602001908152602001600020600086815260200190815260200160002060003373ffffffffffffffffffffffffffffffffffffffff1673ffffffffffffffffffffffffffffffffffffffff168152602001908152602001600020600101819055506001600c6000858152602001908152602001600020600086815260200190815260200160002060003373ffffffffffffffffffffffffffffffffffffffff1673ffffffffffffffffffffffffffffffffffffffff16815260200190815260200160002060000160006101000a81548160ff02191690836001811115613546577f4e487b7100000000000000000000000000000000000000000000000000000000600052602160045260246000fd5b021790555034600e6000858152602001908152602001600020600086815260200190815260200160002060010160008282546135829190615312565b9250508190555034600e6000858152602001908152602001600020600086815260200190815260200160002060030160008282546135c09190615312565b92505081905550600d600084815260200190815260200160002060003373ffffffffffffffffffffffffffffffffffffffff1673ffffffffffffffffffffffffffffffffffffffff1681526020019081526020016000208490806001815401808255809150506001900390600052602060002001600090919091909150556001808190555050505050565b61365361114b565b15613693576040517f08c379a000000000000000000000000000000000000000000000000000000000815260040161368a90614f9f565b60405180910390fd5b60016000806101000a81548160ff0219169083151502179055507f62e78cea01bee320cd4e420270b5ea74000d11b0c9f74754ebdbfc544b05a2586136d6613e3e565b6040516136e39190614d3c565b60405180910390a1565b60008183131561372457826305f5e10083856137099190615574565b6137139190615403565b61371d9190615368565b905061374d565b826305f5e10084846137369190615574565b6137409190615403565b61374a9190615368565b90505b92915050565b61375b61114b565b61379a576040517f08c379a000000000000000000000000000000000000000000000000000000000815260040161379190614e9f565b60405180910390fd5b60008060006101000a81548160ff0219169083151502179055507f5db9ee0a495bf2e6ff9c91a7834c1ba4fdd244a5e8aa4e537bd38aeae4b073aa6137dd613e3e565b6040516137ea9190614d3c565b60405180910390a1565b600080823b905060008111915050919050565b60011515600b600083815260200190815260200160002060009054906101000a900460ff1615151461386e576040517f08c379a00000000000000000000000000000000000000000000000000000000081526004016138659061509f565b60405180910390fd5b60001515600e6000838152602001908152602001600020600084815260200190815260200160002060070160019054906101000a900460ff161515146138e9576040517f08c379a00000000000000000000000000000000000000000000000000000000081526004016138e090614edf565b60405180910390fd5b6000600e600083815260200190815260200160002060008481526020019081526020016000206008015411613953576040517f08c379a000000000000000000000000000000000000000000000000000000000815260040161394a906150df565b60405180910390fd5b42600e6000838152602001908152602001600020600084815260200190815260200160002060090154106139bc576040517f08c379a00000000000000000000000000000000000000000000000000000000081526004016139b390614f7f565b60405180910390fd5b6001600e6000838152602001908152602001600020600084815260200190815260200160002060070160016101000a81548160ff021916908315150217905550620f82ee600e60008381526020019081526020016000206000848152602001908152602001600020600a01819055506213ee89600e60008381526020019081526020016000206000848152602001908152602001600020600b0181905550613a648282613e46565b7f3de62ea950fc2ed1ed823bb23086296729e73cdd05823251b76e36665ff267b58282604051613a95929190615176565b60405180910390a15050565b60001515600e6000838152602001908152602001600020600084815260200190815260200160002060070160009054906101000a900460ff16151514613b1c576040517f08c379a0000000000000000000000000000000000000000000000000000000008152600401613b139061507f565b60405180910390fd5b6001600e6000838152602001908152602001600020600084815260200190815260200160002060070160006101000a81548160ff021916908315150217905550600080613bec60096000858152602001908152602001600020600280602002604051908101604052809291908260028015613be2576020028201915b8160009054906101000a900473ffffffffffffffffffffffffffffffffffffffff1673ffffffffffffffffffffffffffffffffffffffff1681526020019060010190808311613b98575b5050505050611fb2565b9150915082600e600085815260200190815260200160002060008681526020019081526020016000206000018190555083600e600085815260200190815260200160002060008681526020019081526020016000206006018190555042600e60008581526020019081526020016000206000868152602001908152602001600020600801819055506002841415613cc85760085460085442613c8e9190615312565b613c989190615312565b600e6000858152602001908152602001600020600086815260200190815260200160002060090181905550613da7565b600284118015613d1c575060011515600e60008581526020019081526020016000206000600287613cf99190615608565b815260200190815260200160002060070160039054906101000a900460ff161515145b15613d6c5760085460085442613d329190615312565b613d3c9190615312565b600e6000858152602001908152602001600020600086815260200190815260200160002060090181905550613da6565b60085442613d7a9190615312565b600e60008581526020019081526020016000206000868152602001908152602001600020600901819055505b5b81600e60008581526020019081526020016000206000868152602001908152602001600020600c018190555080600e60008581526020019081526020016000206000868152602001908152602001600020600d01819055507f0e5543feb86a4cd302f2b88b26c42be2d1673013a34e1f98bd6d524dd3b4ab418484604051613e30929190615176565b60405180910390a150505050565b600033905090565b6000600e6000838152602001908152602001600020600084815260200190815260200160002060050154148015613ea457506000600e6000838152602001908152602001600020600084815260200190815260200160002060040154145b613ee3576040517f08c379a0000000000000000000000000000000000000000000000000000000008152600401613eda90614f5f565b60405180910390fd5b6000600e60008381526020019081526020016000206000848152602001908152602001600020905080600b015481600a01541315613f825760006127106007548360010154613f32919061551a565b613f3c91906153d2565b905081600201548260050181905550808260010154613f5b9190615608565b82600401819055508060066000828254613f759190615312565b925050819055505061402c565b80600b015481600a01541215613ff95760006127106007548360010154613fa9919061551a565b613fb391906153d2565b905081600301548260050181905550808260010154613fd29190615608565b82600401819055508060066000828254613fec9190615312565b925050819055505061402b565b60008160050181905550600081600401819055508060010154600660008282546140239190615312565b925050819055505b5b505050565b604051806102200160405280600081526020016000815260200160008152602001600081526020016000815260200160008152602001600081526020016000151581526020016000151581526020016000151581526020016000151581526020016000815260200160008152602001600081526020016000815260200160008152602001600081525090565b604051806060016040528060006001811115614102577f4e487b7100000000000000000000000000000000000000000000000000000000600052602160045260246000fd5b8152602001600081526020016000151581525090565b600061412b61412684615209565b6151e4565b9050808285602086028201111561414157600080fd5b60005b8581101561417157816141578882614201565b845260208401935060208301925050600181019050614144565b5050509392505050565b60008135905061418a81615c5f565b92915050565b600082601f8301126141a157600080fd5b60026141ae848285614118565b91505092915050565b60008083601f8401126141c957600080fd5b8235905067ffffffffffffffff8111156141e257600080fd5b6020830191508360018202830111156141fa57600080fd5b9250929050565b60008135905061421081615c76565b92915050565b60008151905061422581615c8d565b92915050565b60008135905061423a81615ca4565b92915050565b60008151905061424f81615ca4565b92915050565b60008151905061426481615cbb565b92915050565b60006020828403121561427c57600080fd5b600061428a8482850161417b565b91505092915050565b600080604083850312156142a657600080fd5b60006142b48582860161417b565b92505060206142c58582860161417b565b9150509250929050565b600080604083850312156142e257600080fd5b60006142f08582860161417b565b92505060206143018582860161422b565b9150509250929050565b60006040828403121561431d57600080fd5b600061432b84828501614190565b91505092915050565b6000806020838503121561434757600080fd5b600083013567ffffffffffffffff81111561436157600080fd5b61436d858286016141b7565b92509250509250929050565b60006020828403121561438b57600080fd5b60006143998482850161422b565b91505092915050565b6000806000606084860312156143b757600080fd5b60006143c58682870161422b565b93505060206143d68682870161417b565b92505060406143e78682870161422b565b9150509250925092565b6000806040838503121561440457600080fd5b60006144128582860161422b565b92505060206144238582860161422b565b9150509250929050565b60008060006060848603121561444257600080fd5b60006144508682870161422b565b93505060206144618682870161422b565b92505060406144728682870161417b565b9150509250925092565b600080600080600060a0868803121561449457600080fd5b60006144a288828901614255565b95505060206144b388828901614216565b94505060406144c488828901614240565b93505060606144d588828901614240565b92505060806144e688828901614255565b9150509295509295909350565b60006144ff8383614a09565b6102208301905092915050565b60006145188383614cc7565b60608301905092915050565b60006145308383614d09565b60208301905092915050565b6145458161563c565b82525050565b60006145568261525f565b61456081856152b2565b935061456b8361522f565b8060005b8381101561459c57815161458388826144f3565b975061458e8361528b565b92505060018101905061456f565b5085935050505092915050565b60006145b48261526a565b6145be81856152c3565b93506145c98361523f565b8060005b838110156145fa5781516145e1888261450c565b97506145ec83615298565b9250506001810190506145cd565b5085935050505092915050565b600061461282615275565b61461c81856152d4565b93506146278361524f565b8060005b8381101561465857815161463f8882614524565b975061464a836152a5565b92505060018101905061462b565b5085935050505092915050565b61466e8161564e565b82525050565b61467d8161564e565b82525050565b600061468e82615280565b61469881856152e5565b93506146a88185602086016156ff565b6146b181615868565b840191505092915050565b6146c5816156c9565b82525050565b6146d4816156ed565b82525050565b6146e3816156ed565b82525050565b6146f28161567f565b82525050565b6147018161567f565b82525050565b6000614714601483615301565b915061471f82615879565b602082019050919050565b6000614737600f83615301565b9150614742826158a2565b602082019050919050565b600061475a601783615301565b9150614765826158cb565b602082019050919050565b600061477d601583615301565b9150614788826158f4565b602082019050919050565b60006147a0601483615301565b91506147ab8261591d565b602082019050919050565b60006147c3600c83615301565b91506147ce82615946565b602082019050919050565b60006147e6601283615301565b91506147f18261596f565b602082019050919050565b6000614809601383615301565b915061481482615998565b602082019050919050565b600061482c601083615301565b9150614837826159c1565b602082019050919050565b600061484f600f83615301565b915061485a826159ea565b602082019050919050565b6000614872601b83615301565b915061487d82615a13565b602082019050919050565b6000614895601a83615301565b91506148a082615a3c565b602082019050919050565b60006148b8600f83615301565b91506148c382615a65565b602082019050919050565b60006148db601483615301565b91506148e682615a8e565b602082019050919050565b60006148fe600c83615301565b915061490982615ab7565b602082019050919050565b6000614921601983615301565b915061492c82615ae0565b602082019050919050565b6000614944601d83615301565b915061494f82615b09565b602082019050919050565b60006149676000836152f6565b915061497282615b32565b600082019050919050565b600061498a604483615301565b915061499582615b35565b606082019050919050565b60006149ad601583615301565b91506149b882615baa565b602082019050919050565b60006149d0602183615301565b91506149db82615bd3565b604082019050919050565b60006149f3601f83615301565b91506149fe82615c22565b602082019050919050565b61022082016000820151614a206000850182614d09565b506020820151614a336020850182614d09565b506040820151614a466040850182614d09565b506060820151614a596060850182614d09565b506080820151614a6c6080850182614d09565b5060a0820151614a7f60a0850182614d09565b5060c0820151614a9260c0850182614d09565b5060e0820151614aa560e0850182614665565b50610100820151614aba610100850182614665565b50610120820151614acf610120850182614665565b50610140820151614ae4610140850182614665565b50610160820151614af9610160850182614d09565b50610180820151614b0e610180850182614d09565b506101a0820151614b236101a08501826146e9565b506101c0820151614b386101c08501826146e9565b506101e0820151614b4d6101e08501826146e9565b50610200820151614b626102008501826146e9565b50505050565b61022082016000820151614b7f6000850182614d09565b506020820151614b926020850182614d09565b506040820151614ba56040850182614d09565b506060820151614bb86060850182614d09565b506080820151614bcb6080850182614d09565b5060a0820151614bde60a0850182614d09565b5060c0820151614bf160c0850182614d09565b5060e0820151614c0460e0850182614665565b50610100820151614c19610100850182614665565b50610120820151614c2e610120850182614665565b50610140820151614c43610140850182614665565b50610160820151614c58610160850182614d09565b50610180820151614c6d610180850182614d09565b506101a0820151614c826101a08501826146e9565b506101c0820151614c976101c08501826146e9565b506101e0820151614cac6101e08501826146e9565b50610200820151614cc16102008501826146e9565b50505050565b606082016000820151614cdd60008501826146cb565b506020820151614cf06020850182614d09565b506040820151614d036040850182614665565b50505050565b614d12816156a9565b82525050565b614d21816156a9565b82525050565b6000614d328261495a565b9150819050919050565b6000602082019050614d51600083018461453c565b92915050565b6000604082019050614d6c600083018561453c565b614d796020830184614d18565b9392505050565b60006020820190508181036000830152614d9a818461454b565b905092915050565b60006040820190508181036000830152614dbc81856145a9565b90508181036020830152614dd08184614607565b90509392505050565b6000602082019050614dee6000830184614674565b92915050565b6000604082019050614e096000830185614674565b8181036020830152614e1b8184614683565b90509392505050565b6000602082019050614e3960008301846146bc565b92915050565b6000606082019050614e5460008301866146da565b614e616020830185614d18565b614e6e6040830184614674565b949350505050565b6000604082019050614e8b60008301856146f8565b614e9860208301846146f8565b9392505050565b60006020820190508181036000830152614eb881614707565b9050919050565b60006020820190508181036000830152614ed88161472a565b9050919050565b60006020820190508181036000830152614ef88161474d565b9050919050565b60006020820190508181036000830152614f1881614770565b9050919050565b60006020820190508181036000830152614f3881614793565b9050919050565b60006020820190508181036000830152614f58816147b6565b9050919050565b60006020820190508181036000830152614f78816147d9565b9050919050565b60006020820190508181036000830152614f98816147fc565b9050919050565b60006020820190508181036000830152614fb88161481f565b9050919050565b60006020820190508181036000830152614fd881614842565b9050919050565b60006020820190508181036000830152614ff881614865565b9050919050565b6000602082019050818103600083015261501881614888565b9050919050565b60006020820190508181036000830152615038816148ab565b9050919050565b60006020820190508181036000830152615058816148ce565b9050919050565b60006020820190508181036000830152615078816148f1565b9050919050565b6000602082019050818103600083015261509881614914565b9050919050565b600060208201905081810360008301526150b881614937565b9050919050565b600060208201905081810360008301526150d88161497d565b9050919050565b600060208201905081810360008301526150f8816149a0565b9050919050565b60006020820190508181036000830152615118816149c3565b9050919050565b60006020820190508181036000830152615138816149e6565b9050919050565b6000610220820190506151556000830184614b68565b92915050565b60006020820190506151706000830184614d18565b92915050565b600060408201905061518b6000830185614d18565b6151986020830184614d18565b9392505050565b60006080820190506151b46000830187614d18565b6151c16020830186614d18565b6151ce6040830185614d18565b6151db6060830184614d18565b95945050505050565b60006151ee6151ff565b90506151fa8282615732565b919050565b6000604051905090565b600067ffffffffffffffff82111561522457615223615839565b5b602082029050919050565b6000819050602082019050919050565b6000819050602082019050919050565b6000819050602082019050919050565b600081519050919050565b600081519050919050565b600081519050919050565b600081519050919050565b6000602082019050919050565b6000602082019050919050565b6000602082019050919050565b600082825260208201905092915050565b600082825260208201905092915050565b600082825260208201905092915050565b600082825260208201905092915050565b600081905092915050565b600082825260208201905092915050565b600061531d826156a9565b9150615328836156a9565b9250827fffffffffffffffffffffffffffffffffffffffffffffffffffffffffffffffff0382111561535d5761535c6157ac565b5b828201905092915050565b60006153738261567f565b915061537e8361567f565b92508261538e5761538d6157db565b5b600160000383147f8000000000000000000000000000000000000000000000000000000000000000831416156153c7576153c66157ac565b5b828205905092915050565b60006153dd826156a9565b91506153e8836156a9565b9250826153f8576153f76157db565b5b828204905092915050565b600061540e8261567f565b91506154198361567f565b9250827f7fffffffffffffffffffffffffffffffffffffffffffffffffffffffffffffff0482116000841360008413161615615458576154576157ac565b5b817f80000000000000000000000000000000000000000000000000000000000000000583126000841260008413161615615495576154946157ac565b5b827f800000000000000000000000000000000000000000000000000000000000000005821260008413600084121616156154d2576154d16157ac565b5b827f7fffffffffffffffffffffffffffffffffffffffffffffffffffffffffffffff058212600084126000841216161561550f5761550e6157ac565b5b828202905092915050565b6000615525826156a9565b9150615530836156a9565b9250817fffffffffffffffffffffffffffffffffffffffffffffffffffffffffffffffff0483118215151615615569576155686157ac565b5b828202905092915050565b600061557f8261567f565b915061558a8361567f565b9250827f8000000000000000000000000000000000000000000000000000000000000000018212600084121516156155c5576155c46157ac565b5b827f7fffffffffffffffffffffffffffffffffffffffffffffffffffffffffffffff0182136000841216156155fd576155fc6157ac565b5b828203905092915050565b6000615613826156a9565b915061561e836156a9565b925082821015615631576156306157ac565b5b828203905092915050565b600061564782615689565b9050919050565b60008115159050919050565b60006156658261563c565b9050919050565b600081905061567a82615c4b565b919050565b6000819050919050565b600073ffffffffffffffffffffffffffffffffffffffff82169050919050565b6000819050919050565b600069ffffffffffffffffffff82169050919050565b60006156d4826156db565b9050919050565b60006156e682615689565b9050919050565b60006156f88261566c565b9050919050565b60005b8381101561571d578082015181840152602081019050615702565b8381111561572c576000848401525b50505050565b61573b82615868565b810181811067ffffffffffffffff8211171561575a57615759615839565b5b80604052505050565b600061576e826156a9565b91507fffffffffffffffffffffffffffffffffffffffffffffffffffffffffffffffff8214156157a1576157a06157ac565b5b600182019050919050565b7f4e487b7100000000000000000000000000000000000000000000000000000000600052601160045260246000fd5b7f4e487b7100000000000000000000000000000000000000000000000000000000600052601260045260246000fd5b7f4e487b7100000000000000000000000000000000000000000000000000000000600052602160045260246000fd5b7f4e487b7100000000000000000000000000000000000000000000000000000000600052604160045260246000fd5b6000601f19601f8301169050919050565b7f5061757361626c653a206e6f7420706175736564000000000000000000000000600082015250565b7f5472616e73666572206661696c65640000000000000000000000000000000000600082015250565b7f526f756e642068617320616c726561647920656e646564000000000000000000600082015250565b7f4d757374206d656574206d696e696d756d206265740000000000000000000000600082015250565b7f436f6e7472616374206e6f7420616c6c6f776564000000000000000000000000600082015250565b7f4e6f7420616e206f776e65720000000000000000000000000000000000000000600082015250565b7f526577617264732063616c63756c617465640000000000000000000000000000600082015250565b7f526f756e6420686173206e6f7420656e64656400000000000000000000000000600082015250565b7f5061757361626c653a2070617573656400000000000000000000000000000000600082015250565b7f526f756e64206973206c6f636b65640000000000000000000000000000000000600082015250565b7f557365722063616e6e6f7420706c6163652062696420616761696e0000000000600082015250565b7f50726f787920636f6e7472616374206e6f7420616c6c6f776564000000000000600082015250565b7f416c726561647920636c61696d65640000000000000000000000000000000000600082015250565b7f42657474696e672074696d65206973206f766572000000000000000000000000600082015250565b7f43616e6e6f7420636c61696d0000000000000000000000000000000000000000600082015250565b7f526f756e642068617320616c7265616479207374617274656400000000000000600082015250565b7f67656e6573697320726f756e6420686173206e6f742073746172746564000000600082015250565b50565b7f416c6c2074686520726577617264732077656e7420746f20706f6f6c2061732060008201527f7072696365206368616e6765206f6620626f746820746f6b656e20617265206560208201527f7175616c00000000000000000000000000000000000000000000000000000000604082015250565b7f526f756e6420686173206e6f7420737461727465640000000000000000000000600082015250565b7f67656e6573697320726f756e642068617320616c72656164792073746172746560008201527f6400000000000000000000000000000000000000000000000000000000000000602082015250565b7f5265656e7472616e637947756172643a207265656e7472616e742063616c6c00600082015250565b60028110615c5c57615c5b61580a565b5b50565b615c688161563c565b8114615c7357600080fd5b50565b615c7f8161565a565b8114615c8a57600080fd5b50565b615c968161567f565b8114615ca157600080fd5b50565b615cad816156a9565b8114615cb857600080fd5b50565b615cc4816156b3565b8114615ccf57600080fd5b5056fea264697066735822122000b5def28c4586c427b0388e498621d4839aa79bff53642f71474ebba74aed5664736f6c63430008040033",
  "linkReferences": {},
  "deployedLinkReferences": {}
}