{
  "_format": "hh-sol-artifact-1",
  "contractName": "CryproPairPricePredictionFactory",
  "sourceName": "contracts/crypto-prediction.sol",
  "abi": [
    {
      "inputs": [
        {
          "internalType": "address",
          "name": "_owner",
          "type": "address"
        }
      ],
      "stateMutability": "nonpayable",
      "type": "constructor"
    },
    {
      "anonymous": false,
      "inputs": [
        {
          "indexed": false,
          "internalType": "uint256",
          "name": "pairRound",
          "type": "uint256"
        },
        {
          "indexed": false,
          "internalType": "uint256",
          "name": "pair",
          "type": "uint256"
        }
      ],
      "name": "EndRound",
      "type": "event"
    },
    {
      "anonymous": false,
      "inputs": [
        {
          "indexed": false,
          "internalType": "uint256",
          "name": "",
          "type": "uint256"
        }
      ],
      "name": "FeesChanged",
      "type": "event"
    },
    {
      "anonymous": false,
      "inputs": [
        {
          "indexed": false,
          "internalType": "address",
          "name": "account",
          "type": "address"
        }
      ],
      "name": "Paused",
      "type": "event"
    },
    {
      "anonymous": false,
      "inputs": [
        {
          "indexed": false,
          "internalType": "int256",
          "name": "",
          "type": "int256"
        },
        {
          "indexed": false,
          "internalType": "int256",
          "name": "",
          "type": "int256"
        }
      ],
      "name": "PercentageTokenChanges",
      "type": "event"
    },
    {
      "anonymous": false,
      "inputs": [
        {
          "indexed": false,
          "internalType": "address",
          "name": "",
          "type": "address"
        },
        {
          "indexed": false,
          "internalType": "uint256",
          "name": "",
          "type": "uint256"
        }
      ],
      "name": "Received",
      "type": "event"
    },
    {
      "anonymous": false,
      "inputs": [
        {
          "indexed": false,
          "internalType": "uint256",
          "name": "pair",
          "type": "uint256"
        },
        {
          "indexed": false,
          "internalType": "uint256",
          "name": "currentRound",
          "type": "uint256"
        },
        {
          "indexed": false,
          "internalType": "uint256",
          "name": "previousRound",
          "type": "uint256"
        },
        {
          "indexed": false,
          "internalType": "uint256",
          "name": "nextRound",
          "type": "uint256"
        }
      ],
      "name": "RoundExecution",
      "type": "event"
    },
    {
      "anonymous": false,
      "inputs": [
        {
          "indexed": false,
          "internalType": "uint256",
          "name": "pairRound",
          "type": "uint256"
        },
        {
          "indexed": false,
          "internalType": "uint256",
          "name": "pair",
          "type": "uint256"
        }
      ],
      "name": "StartRound",
      "type": "event"
    },
    {
      "anonymous": false,
      "inputs": [
        {
          "indexed": false,
          "internalType": "address",
          "name": "account",
          "type": "address"
        }
      ],
      "name": "Unpaused",
      "type": "event"
    },
    {
      "inputs": [
        {
          "internalType": "address",
          "name": "to",
          "type": "address"
        },
        {
          "internalType": "uint256",
          "name": "value",
          "type": "uint256"
        }
      ],
      "name": "_safeTransfer",
      "outputs": [],
      "stateMutability": "nonpayable",
      "type": "function"
    },
    {
      "inputs": [],
      "name": "amountToBeTransfered",
      "outputs": [
        {
          "internalType": "uint256",
          "name": "",
          "type": "uint256"
        }
      ],
      "stateMutability": "view",
      "type": "function"
    },
    {
      "inputs": [
        {
          "internalType": "uint256",
          "name": "_fees",
          "type": "uint256"
        }
      ],
      "name": "changeFees",
      "outputs": [],
      "stateMutability": "nonpayable",
      "type": "function"
    },
    {
      "inputs": [
        {
          "internalType": "uint256",
          "name": "_minBet",
          "type": "uint256"
        }
      ],
      "name": "changeMinBet",
      "outputs": [],
      "stateMutability": "nonpayable",
      "type": "function"
    },
    {
      "inputs": [
        {
          "internalType": "bytes",
          "name": "checkData",
          "type": "bytes"
        }
      ],
      "name": "checkUpkeep",
      "outputs": [
        {
          "internalType": "bool",
          "name": "upkeepNeeded",
          "type": "bool"
        },
        {
          "internalType": "bytes",
          "name": "performData",
          "type": "bytes"
        }
      ],
      "stateMutability": "view",
      "type": "function"
    },
    {
      "inputs": [
        {
          "internalType": "uint256",
          "name": "_pairRound",
          "type": "uint256"
        },
        {
          "internalType": "uint256",
          "name": "_pair",
          "type": "uint256"
        }
      ],
      "name": "claimReward",
      "outputs": [],
      "stateMutability": "payable",
      "type": "function"
    },
    {
      "inputs": [
        {
          "internalType": "address",
          "name": "firstToken",
          "type": "address"
        },
        {
          "internalType": "address",
          "name": "secondToken",
          "type": "address"
        }
      ],
      "name": "createPredictionPairs",
      "outputs": [],
      "stateMutability": "nonpayable",
      "type": "function"
    },
    {
      "inputs": [],
      "name": "fees",
      "outputs": [
        {
          "internalType": "uint256",
          "name": "",
          "type": "uint256"
        }
      ],
      "stateMutability": "view",
      "type": "function"
    },
    {
      "inputs": [
        {
          "internalType": "uint256",
          "name": "_pairRound",
          "type": "uint256"
        },
        {
          "internalType": "uint256",
          "name": "_pair",
          "type": "uint256"
        }
      ],
      "name": "firstTokenBet",
      "outputs": [],
      "stateMutability": "payable",
      "type": "function"
    },
    {
      "inputs": [],
      "name": "getBlockTimeStamp",
      "outputs": [
        {
          "internalType": "uint256",
          "name": "",
          "type": "uint256"
        }
      ],
      "stateMutability": "view",
      "type": "function"
    },
    {
      "inputs": [
        {
          "internalType": "contract AggregatorV3Interface[2]",
          "name": "token",
          "type": "address[2]"
        }
      ],
      "name": "getLatestPrice",
      "outputs": [
        {
          "internalType": "int256",
          "name": "",
          "type": "int256"
        },
        {
          "internalType": "int256",
          "name": "",
          "type": "int256"
        }
      ],
      "stateMutability": "view",
      "type": "function"
    },
    {
      "inputs": [
        {
          "internalType": "uint256",
          "name": "_pair",
          "type": "uint256"
        }
      ],
      "name": "getPairRounds",
      "outputs": [
        {
          "components": [
            {
              "internalType": "uint256",
              "name": "pairNumber",
              "type": "uint256"
            },
            {
              "internalType": "uint256",
              "name": "poolAmount",
              "type": "uint256"
            },
            {
              "internalType": "uint256",
              "name": "firstTokenPoolAmount",
              "type": "uint256"
            },
            {
              "internalType": "uint256",
              "name": "secondTokenPoolAmount",
              "type": "uint256"
            },
            {
              "internalType": "uint256",
              "name": "poolTokenRewardAmount",
              "type": "uint256"
            },
            {
              "internalType": "uint256",
              "name": "poolTokenBaseAmount",
              "type": "uint256"
            },
            {
              "internalType": "uint256",
              "name": "roundNumber",
              "type": "uint256"
            },
            {
              "internalType": "bool",
              "name": "roundStart",
              "type": "bool"
            },
            {
              "internalType": "bool",
              "name": "roundEnded",
              "type": "bool"
            },
            {
              "internalType": "bool",
              "name": "roundLock",
              "type": "bool"
            },
            {
              "internalType": "uint256",
              "name": "startTimeStamp",
              "type": "uint256"
            },
            {
              "internalType": "uint256",
              "name": "endTimeStamp",
              "type": "uint256"
            },
            {
              "internalType": "int256",
              "name": "firstTokenPriceChange",
              "type": "int256"
            },
            {
              "internalType": "int256",
              "name": "secondTokenPriceChange",
              "type": "int256"
            },
            {
              "internalType": "int256",
              "name": "firstTokenPrice",
              "type": "int256"
            },
            {
              "internalType": "int256",
              "name": "secondTokenPrice",
              "type": "int256"
            }
          ],
          "internalType": "struct CryproPairPricePredictionFactory.Rounds[]",
          "name": "",
          "type": "tuple[]"
        }
      ],
      "stateMutability": "view",
      "type": "function"
    },
    {
      "inputs": [
        {
          "internalType": "uint256",
          "name": "_pairRound",
          "type": "uint256"
        },
        {
          "internalType": "uint256",
          "name": "_pair",
          "type": "uint256"
        }
      ],
      "name": "getRoundInfo",
      "outputs": [
        {
          "components": [
            {
              "internalType": "uint256",
              "name": "pairNumber",
              "type": "uint256"
            },
            {
              "internalType": "uint256",
              "name": "poolAmount",
              "type": "uint256"
            },
            {
              "internalType": "uint256",
              "name": "firstTokenPoolAmount",
              "type": "uint256"
            },
            {
              "internalType": "uint256",
              "name": "secondTokenPoolAmount",
              "type": "uint256"
            },
            {
              "internalType": "uint256",
              "name": "poolTokenRewardAmount",
              "type": "uint256"
            },
            {
              "internalType": "uint256",
              "name": "poolTokenBaseAmount",
              "type": "uint256"
            },
            {
              "internalType": "uint256",
              "name": "roundNumber",
              "type": "uint256"
            },
            {
              "internalType": "bool",
              "name": "roundStart",
              "type": "bool"
            },
            {
              "internalType": "bool",
              "name": "roundEnded",
              "type": "bool"
            },
            {
              "internalType": "bool",
              "name": "roundLock",
              "type": "bool"
            },
            {
              "internalType": "uint256",
              "name": "startTimeStamp",
              "type": "uint256"
            },
            {
              "internalType": "uint256",
              "name": "endTimeStamp",
              "type": "uint256"
            },
            {
              "internalType": "int256",
              "name": "firstTokenPriceChange",
              "type": "int256"
            },
            {
              "internalType": "int256",
              "name": "secondTokenPriceChange",
              "type": "int256"
            },
            {
              "internalType": "int256",
              "name": "firstTokenPrice",
              "type": "int256"
            },
            {
              "internalType": "int256",
              "name": "secondTokenPrice",
              "type": "int256"
            }
          ],
          "internalType": "struct CryproPairPricePredictionFactory.Rounds",
          "name": "",
          "type": "tuple"
        }
      ],
      "stateMutability": "view",
      "type": "function"
    },
    {
      "inputs": [
        {
          "internalType": "uint256",
          "name": "_pair",
          "type": "uint256"
        }
      ],
      "name": "getUserRounds",
      "outputs": [
        {
          "components": [
            {
              "internalType": "enum CryproPairPricePredictionFactory.TokenSelection",
              "name": "tokenselected",
              "type": "uint8"
            },
            {
              "internalType": "uint256",
              "name": "amount",
              "type": "uint256"
            },
            {
              "internalType": "bool",
              "name": "claim",
              "type": "bool"
            }
          ],
          "internalType": "struct CryproPairPricePredictionFactory.biddingInfo[]",
          "name": "",
          "type": "tuple[]"
        }
      ],
      "stateMutability": "view",
      "type": "function"
    },
    {
      "inputs": [
        {
          "internalType": "uint256",
          "name": "_pairRound",
          "type": "uint256"
        },
        {
          "internalType": "uint256",
          "name": "_pair",
          "type": "uint256"
        }
      ],
      "name": "gettokenPriceChanges",
      "outputs": [
        {
          "internalType": "int256",
          "name": "",
          "type": "int256"
        },
        {
          "internalType": "int256",
          "name": "",
          "type": "int256"
        }
      ],
      "stateMutability": "nonpayable",
      "type": "function"
    },
    {
      "inputs": [],
      "name": "hasRoundEnded",
      "outputs": [
        {
          "internalType": "bool",
          "name": "",
          "type": "bool"
        }
      ],
      "stateMutability": "view",
      "type": "function"
    },
    {
      "inputs": [],
      "name": "maxBet",
      "outputs": [
        {
          "internalType": "uint256",
          "name": "",
          "type": "uint256"
        }
      ],
      "stateMutability": "view",
      "type": "function"
    },
    {
      "inputs": [],
      "name": "minBet",
      "outputs": [
        {
          "internalType": "uint256",
          "name": "",
          "type": "uint256"
        }
      ],
      "stateMutability": "view",
      "type": "function"
    },
    {
      "inputs": [
        {
          "internalType": "uint256",
          "name": "",
          "type": "uint256"
        }
      ],
      "name": "pairGenesisRound",
      "outputs": [
        {
          "internalType": "bool",
          "name": "",
          "type": "bool"
        }
      ],
      "stateMutability": "view",
      "type": "function"
    },
    {
      "inputs": [
        {
          "internalType": "uint256",
          "name": "",
          "type": "uint256"
        }
      ],
      "name": "pairRounds",
      "outputs": [
        {
          "internalType": "uint256",
          "name": "",
          "type": "uint256"
        }
      ],
      "stateMutability": "view",
      "type": "function"
    },
    {
      "inputs": [
        {
          "internalType": "uint256",
          "name": "",
          "type": "uint256"
        },
        {
          "internalType": "uint256",
          "name": "",
          "type": "uint256"
        }
      ],
      "name": "pairs",
      "outputs": [
        {
          "internalType": "contract AggregatorV3Interface",
          "name": "",
          "type": "address"
        }
      ],
      "stateMutability": "view",
      "type": "function"
    },
    {
      "inputs": [],
      "name": "pairsCount",
      "outputs": [
        {
          "internalType": "uint256",
          "name": "",
          "type": "uint256"
        }
      ],
      "stateMutability": "view",
      "type": "function"
    },
    {
      "inputs": [],
      "name": "paused",
      "outputs": [
        {
          "internalType": "bool",
          "name": "",
          "type": "bool"
        }
      ],
      "stateMutability": "view",
      "type": "function"
    },
    {
      "inputs": [
        {
          "internalType": "bytes",
          "name": "performData",
          "type": "bytes"
        }
      ],
      "name": "performUpkeep",
      "outputs": [],
      "stateMutability": "nonpayable",
      "type": "function"
    },
    {
      "inputs": [
        {
          "internalType": "uint256",
          "name": "_pair",
          "type": "uint256"
        }
      ],
      "name": "roundExecution",
      "outputs": [],
      "stateMutability": "nonpayable",
      "type": "function"
    },
    {
      "inputs": [],
      "name": "roundTime",
      "outputs": [
        {
          "internalType": "uint256",
          "name": "",
          "type": "uint256"
        }
      ],
      "stateMutability": "view",
      "type": "function"
    },
    {
      "inputs": [
        {
          "internalType": "uint256",
          "name": "_pairRound",
          "type": "uint256"
        },
        {
          "internalType": "uint256",
          "name": "_pair",
          "type": "uint256"
        }
      ],
      "name": "secondTokenBet",
      "outputs": [],
      "stateMutability": "payable",
      "type": "function"
    },
    {
      "inputs": [
        {
          "internalType": "uint256",
          "name": "_pair",
          "type": "uint256"
        }
      ],
      "name": "startGenesisRoundForThePair",
      "outputs": [],
      "stateMutability": "nonpayable",
      "type": "function"
    },
    {
      "inputs": [],
      "name": "treasuryAmount",
      "outputs": [
        {
          "internalType": "uint256",
          "name": "",
          "type": "uint256"
        }
      ],
      "stateMutability": "view",
      "type": "function"
    },
    {
      "inputs": [
        {
          "internalType": "uint256",
          "name": "minDeposit",
          "type": "uint256"
        },
        {
          "internalType": "uint256",
          "name": "maxDeposit",
          "type": "uint256"
        }
      ],
      "name": "updateMinMaxDepositAmount",
      "outputs": [],
      "stateMutability": "nonpayable",
      "type": "function"
    },
    {
      "inputs": [
        {
          "internalType": "address",
          "name": "newOwner",
          "type": "address"
        }
      ],
      "name": "updateOwner",
      "outputs": [],
      "stateMutability": "nonpayable",
      "type": "function"
    },
    {
      "inputs": [
        {
          "internalType": "uint256",
          "name": "",
          "type": "uint256"
        },
        {
          "internalType": "address",
          "name": "",
          "type": "address"
        },
        {
          "internalType": "uint256",
          "name": "",
          "type": "uint256"
        }
      ],
      "name": "userPlayedRounds",
      "outputs": [
        {
          "internalType": "uint256",
          "name": "",
          "type": "uint256"
        }
      ],
      "stateMutability": "view",
      "type": "function"
    },
    {
      "inputs": [
        {
          "internalType": "uint256",
          "name": "",
          "type": "uint256"
        },
        {
          "internalType": "uint256",
          "name": "",
          "type": "uint256"
        },
        {
          "internalType": "address",
          "name": "",
          "type": "address"
        }
      ],
      "name": "userRoundBids",
      "outputs": [
        {
          "internalType": "enum CryproPairPricePredictionFactory.TokenSelection",
          "name": "tokenselected",
          "type": "uint8"
        },
        {
          "internalType": "uint256",
          "name": "amount",
          "type": "uint256"
        },
        {
          "internalType": "bool",
          "name": "claim",
          "type": "bool"
        }
      ],
      "stateMutability": "view",
      "type": "function"
    },
    {
      "stateMutability": "payable",
      "type": "receive"
    }
  ],
  "bytecode": "0x60806040523480156200001157600080fd5b5060405162005351380380620053518339818101604052810190620000379190620000e4565b60008060006101000a81548160ff0219169083151502179055506001808190555080600260006101000a81548173ffffffffffffffffffffffffffffffffffffffff021916908373ffffffffffffffffffffffffffffffffffffffff16021790555060006003819055506000600681905550607860078190555061012c6008819055506402540be400600481905550506200015e565b600081519050620000de8162000144565b92915050565b600060208284031215620000f757600080fd5b60006200010784828501620000cd565b91505092915050565b60006200011d8262000124565b9050919050565b600073ffffffffffffffffffffffffffffffffffffffff82169050919050565b6200014f8162000110565b81146200015b57600080fd5b50565b6151e3806200016e6000396000f3fe6080604052600436106101f25760003560e01c80638a9bb02a1161010d578063ca49a543116100a0578063ee5f8c8f1161006f578063ee5f8c8f14610776578063f198f54e146107a1578063f55267c6146107de578063fa0b621114610807578063fa7af1f01461083257610232565b8063ca49a543146106bc578063d411e899146106e7578063e8147a2514610710578063e8bacbb41461073957610232565b8063b81b2b71116100dc578063b81b2b7114610621578063b933137f1461064c578063c34641fa14610668578063c4f8210e1461069357610232565b80638a9bb02a146105505780639619367d1461058d5780639af1d35a146105b8578063a468b7c1146105e357610232565b80635c975abb1161018557806375dd50511161015457806375dd5051146104b957806377a0de4c146104e257806386bb8f371461050b578063880cdc311461052757610232565b80635c975abb146103ea578063675b4ef1146104155780636cda375b146104525780636e04ff0d1461047b57610232565b80632e5b2168116101c15780632e5b21681461032e578063368acb09146103595780634585e33b14610384578063580cb78d146103ad57610232565b80630364ad7314610237578063121e1908146102765780631ecc82b7146102b357806323462d0c146102f157610232565b36610232577f88a5966d370b9919b20f3e2c13ff65706f196a4e32cc2c12bf57088f885258743334604051610228929190614312565b60405180910390a1005b600080fd5b34801561024357600080fd5b5061025e60048036038101906102599190613ae9565b61084e565b60405161026d939291906143e5565b60405180910390f35b34801561028257600080fd5b5061029d60048036038101906102989190613a35565b6108ac565b6040516102aa91906146c1565b60405180910390f35b3480156102bf57600080fd5b506102da60048036038101906102d59190613aad565b6108c4565b6040516102e892919061441c565b60405180910390f35b3480156102fd57600080fd5b5061031860048036038101906103139190613a5e565b610a0f565b60405161032591906146c1565b60405180910390f35b34801561033a57600080fd5b50610343610a4d565b60405161035091906146c1565b60405180910390f35b34801561036557600080fd5b5061036e610a53565b60405161037b91906146c1565b60405180910390f35b34801561039057600080fd5b506103ab60048036038101906103a691906139f0565b610a59565b005b3480156103b957600080fd5b506103d460048036038101906103cf9190613a35565b610a67565b6040516103e1919061433b565b60405180910390f35b3480156103f657600080fd5b506103ff610c7e565b60405161040c919061437f565b60405180910390f35b34801561042157600080fd5b5061043c60048036038101906104379190613aad565b610c94565b60405161044991906143ca565b60405180910390f35b34801561045e57600080fd5b5061047960048036038101906104749190613a35565b610cd9565b005b34801561048757600080fd5b506104a2600480360381019061049d91906139f0565b610dac565b6040516104b092919061439a565b60405180910390f35b3480156104c557600080fd5b506104e060048036038101906104db919061394f565b610e51565b005b3480156104ee57600080fd5b5061050960048036038101906105049190613aad565b61101b565b005b61052560048036038101906105209190613aad565b6110bd565b005b34801561053357600080fd5b5061054e60048036038101906105499190613926565b6117c9565b005b34801561055c57600080fd5b5061057760048036038101906105729190613aad565b61189d565b60405161058491906146a5565b60405180910390f35b34801561059957600080fd5b506105a26119b0565b6040516105af91906146c1565b60405180910390f35b3480156105c457600080fd5b506105cd6119b6565b6040516105da91906146c1565b60405180910390f35b3480156105ef57600080fd5b5061060a600480360381019061060591906139c7565b6119bc565b60405161061892919061441c565b60405180910390f35b34801561062d57600080fd5b50610636611b54565b60405161064391906146c1565b60405180910390f35b61066660048036038101906106619190613aad565b611b5a565b005b34801561067457600080fd5b5061067d612144565b60405161068a91906146c1565b60405180910390f35b34801561069f57600080fd5b506106ba60048036038101906106b5919061398b565b61214a565b005b3480156106c857600080fd5b506106d16121fb565b6040516106de91906146c1565b60405180910390f35b3480156106f357600080fd5b5061070e60048036038101906107099190613a35565b612203565b005b34801561071c57600080fd5b5061073760048036038101906107329190613a35565b612372565b005b34801561074557600080fd5b50610760600480360381019061075b9190613a35565b61240c565b60405161076d919061435d565b60405180910390f35b34801561078257600080fd5b5061078b6126ca565b60405161079891906146c1565b60405180910390f35b3480156107ad57600080fd5b506107c860048036038101906107c39190613a35565b6126d0565b6040516107d5919061437f565b60405180910390f35b3480156107ea57600080fd5b5061080560048036038101906108009190613a35565b6126f0565b005b34801561081357600080fd5b5061081c6128bf565b604051610829919061437f565b60405180910390f35b61084c60048036038101906108479190613aad565b612916565b005b600c60205282600052604060002060205281600052604060002060205280600052604060002060009250925050508060000160009054906101000a900460ff16908060010154908060020160009054906101000a900460ff16905083565b600a6020528060005260406000206000915090505481565b6000806000806109576009600087815260200190815260200160002060028060200260405190810160405280929190826002801561094d576020028201915b8160009054906101000a900473ffffffffffffffffffffffffffffffffffffffff1673ffffffffffffffffffffffffffffffffffffffff1681526020019060010190808311610903575b50505050506119bc565b91509150600061098e600e60008881526020019081526020016000206000898152602001908152602001600020600c015484612f00565b905060006109c3600e600089815260200190815260200160002060008a8152602001908152602001600020600d015484612f00565b90507fa4393d92bc1fa01e1edb65f571aba9ce960fcadf3ddc9493d63a31e43f532f2f84846040516109f692919061441c565b60405180910390a1818195509550505050509250929050565b600d6020528260005260406000206020528160005260406000208181548110610a3757600080fd5b9060005260206000200160009250925050505481565b60055481565b60065481565b610a636001612203565b5050565b60606000600a600084815260200190815260200160002054905060008167ffffffffffffffff811115610ac3577f4e487b7100000000000000000000000000000000000000000000000000000000600052604160045260246000fd5b604051908082528060200260200182016040528015610afc57816020015b610ae96136f6565b815260200190600190039081610ae15790505b5090506000600190505b828111610c7357600e6000868152602001908152602001600020600082815260200190815260200160002060405180610200016040529081600082015481526020016001820154815260200160028201548152602001600382015481526020016004820154815260200160058201548152602001600682015481526020016007820160009054906101000a900460ff161515151581526020016007820160019054906101000a900460ff161515151581526020016007820160029054906101000a900460ff161515151581526020016008820154815260200160098201548152602001600a8201548152602001600b8201548152602001600c8201548152602001600d8201548152505082600183610c1e9190614b35565b81518110610c55577f4e487b7100000000000000000000000000000000000000000000000000000000600052603260045260246000fd5b60200260200101819052508080610c6b90614c90565b915050610b06565b508092505050919050565b60008060009054906101000a900460ff16905090565b60096020528160005260406000208160028110610cb057600080fd5b016000915091509054906101000a900473ffffffffffffffffffffffffffffffffffffffff1681565b3373ffffffffffffffffffffffffffffffffffffffff16600260009054906101000a900473ffffffffffffffffffffffffffffffffffffffff1673ffffffffffffffffffffffffffffffffffffffff1614610d69576040517f08c379a0000000000000000000000000000000000000000000000000000000008152600401610d60906144c5565b60405180910390fd5b806007819055507f3dda580d2b9d92da338ef46ec718e7b1dd0a2c505e3df4aa8d40360192a0f822600754604051610da191906146c1565b60405180910390a150565b600060606000600e60006001815260200190815260200160002060006001600a60006001815260200190815260200160002054610de99190614b35565b8152602001908152602001600020600901549050428110925084848080601f016020809104026020016040519081016040528093929190818152602001838380828437600081840152601f19601f820116905080830192505050505050509150509250929050565b3373ffffffffffffffffffffffffffffffffffffffff16600260009054906101000a900473ffffffffffffffffffffffffffffffffffffffff1673ffffffffffffffffffffffffffffffffffffffff1614610ee1576040517f08c379a0000000000000000000000000000000000000000000000000000000008152600401610ed8906144c5565b60405180910390fd5b600160036000828254610ef4919061483f565b9250508190555081600960006003548152602001908152602001600020600060028110610f4a577f4e487b7100000000000000000000000000000000000000000000000000000000600052603260045260246000fd5b0160006101000a81548173ffffffffffffffffffffffffffffffffffffffff021916908373ffffffffffffffffffffffffffffffffffffffff16021790555080600960006003548152602001908152602001600020600160028110610fd8577f4e487b7100000000000000000000000000000000000000000000000000000000600052603260045260246000fd5b0160006101000a81548173ffffffffffffffffffffffffffffffffffffffff021916908373ffffffffffffffffffffffffffffffffffffffff1602179055505050565b3373ffffffffffffffffffffffffffffffffffffffff16600260009054906101000a900473ffffffffffffffffffffffffffffffffffffffff1673ffffffffffffffffffffffffffffffffffffffff16146110ab576040517f08c379a00000000000000000000000000000000000000000000000000000000081526004016110a2906144c5565b60405180910390fd5b81600481905550806005819055505050565b6110c633612f66565b15611106576040517f08c379a00000000000000000000000000000000000000000000000000000000081526004016110fd906144a5565b60405180910390fd5b3273ffffffffffffffffffffffffffffffffffffffff163373ffffffffffffffffffffffffffffffffffffffff1614611174576040517f08c379a000000000000000000000000000000000000000000000000000000000815260040161116b90614565565b60405180910390fd5b600260015414156111ba576040517f08c379a00000000000000000000000000000000000000000000000000000000081526004016111b190614685565b60405180910390fd5b600260018190555060011515600e6000838152602001908152602001600020600084815260200190815260200160002060070160019054906101000a900460ff1615151461123d576040517f08c379a000000000000000000000000000000000000000000000000000000000815260040161123490614505565b60405180910390fd5b6000600e6000838152602001908152602001600020600084815260200190815260200160002060040154116112a7576040517f08c379a000000000000000000000000000000000000000000000000000000000815260040161129e90614625565b60405180910390fd5b60001515600c6000838152602001908152602001600020600084815260200190815260200160002060003373ffffffffffffffffffffffffffffffffffffffff1673ffffffffffffffffffffffffffffffffffffffff16815260200190815260200160002060020160009054906101000a900460ff1615151461135f576040517f08c379a000000000000000000000000000000000000000000000000000000000815260040161135690614585565b60405180910390fd5b6000600e6000838152602001908152602001600020600084815260200190815260200160002060405180610200016040529081600082015481526020016001820154815260200160028201548152602001600382015481526020016004820154815260200160058201548152602001600682015481526020016007820160009054906101000a900460ff161515151581526020016007820160019054906101000a900460ff161515151581526020016007820160029054906101000a900460ff161515151581526020016008820154815260200160098201548152602001600a8201548152602001600b8201548152602001600c8201548152602001600d820154815250509050806101a001518161018001511380156115605750600060018111156114b4577f4e487b7100000000000000000000000000000000000000000000000000000000600052602160045260246000fd5b600c6000848152602001908152602001600020600085815260200190815260200160002060003373ffffffffffffffffffffffffffffffffffffffff1673ffffffffffffffffffffffffffffffffffffffff16815260200190815260200160002060000160009054906101000a900460ff16600181111561155e577f4e487b7100000000000000000000000000000000000000000000000000000000600052602160045260246000fd5b145b806116605750806101a0015181610180015112801561165f57506001808111156115b3577f4e487b7100000000000000000000000000000000000000000000000000000000600052602160045260246000fd5b600c6000848152602001908152602001600020600085815260200190815260200160002060003373ffffffffffffffffffffffffffffffffffffffff1673ffffffffffffffffffffffffffffffffffffffff16815260200190815260200160002060000160009054906101000a900460ff16600181111561165d577f4e487b7100000000000000000000000000000000000000000000000000000000600052602160045260246000fd5b145b5b61169f576040517f08c379a0000000000000000000000000000000000000000000000000000000008152600401611696906145c5565b60405180910390fd5b8060a001518160800151600c6000858152602001908152602001600020600086815260200190815260200160002060003373ffffffffffffffffffffffffffffffffffffffff1673ffffffffffffffffffffffffffffffffffffffff168152602001908152602001600020600101546117189190614a47565b61172291906148ff565b600f819055506001600c6000848152602001908152602001600020600085815260200190815260200160002060003373ffffffffffffffffffffffffffffffffffffffff1673ffffffffffffffffffffffffffffffffffffffff16815260200190815260200160002060020160006101000a81548160ff0219169083151502179055506000600f5411156117bd576117bc33600f5461214a565b5b50600180819055505050565b3373ffffffffffffffffffffffffffffffffffffffff16600260009054906101000a900473ffffffffffffffffffffffffffffffffffffffff1673ffffffffffffffffffffffffffffffffffffffff1614611859576040517f08c379a0000000000000000000000000000000000000000000000000000000008152600401611850906144c5565b60405180910390fd5b80600260006101000a81548173ffffffffffffffffffffffffffffffffffffffff021916908373ffffffffffffffffffffffffffffffffffffffff16021790555050565b6118a56136f6565b600e6000838152602001908152602001600020600084815260200190815260200160002060405180610200016040529081600082015481526020016001820154815260200160028201548152602001600382015481526020016004820154815260200160058201548152602001600682015481526020016007820160009054906101000a900460ff161515151581526020016007820160019054906101000a900460ff161515151581526020016007820160029054906101000a900460ff161515151581526020016008820154815260200160098201548152602001600a8201548152602001600b8201548152602001600c8201548152602001600d82015481525050905092915050565b60045481565b60075481565b6000806000836000600281106119fb577f4e487b7100000000000000000000000000000000000000000000000000000000600052603260045260246000fd5b602002015173ffffffffffffffffffffffffffffffffffffffff1663feaf968c6040518163ffffffff1660e01b815260040160a06040518083038186803b158015611a4557600080fd5b505afa158015611a59573d6000803e3d6000fd5b505050506040513d601f19601f82011682018060405250810190611a7d9190613b38565b505050915050600084600160028110611abf577f4e487b7100000000000000000000000000000000000000000000000000000000600052603260045260246000fd5b602002015173ffffffffffffffffffffffffffffffffffffffff1663feaf968c6040518163ffffffff1660e01b815260040160a06040518083038186803b158015611b0957600080fd5b505afa158015611b1d573d6000803e3d6000fd5b505050506040513d601f19601f82011682018060405250810190611b419190613b38565b5050509150508181935093505050915091565b60035481565b818160011515600e6000838152602001908152602001600020600084815260200190815260200160002060070160009054906101000a900460ff16151514611bd7576040517f08c379a0000000000000000000000000000000000000000000000000000000008152600401611bce90614645565b60405180910390fd5b60001515600e6000838152602001908152602001600020600084815260200190815260200160002060070160019054906101000a900460ff16151514611c52576040517f08c379a0000000000000000000000000000000000000000000000000000000008152600401611c4990614505565b60405180910390fd5b60001515600e6000838152602001908152602001600020600084815260200190815260200160002060070160029054906101000a900460ff16151514611ccd576040517f08c379a0000000000000000000000000000000000000000000000000000000008152600401611cc490614525565b60405180910390fd5b600454341015611d12576040517f08c379a0000000000000000000000000000000000000000000000000000000008152600401611d0990614485565b60405180910390fd5b6000600c6000838152602001908152602001600020600084815260200190815260200160002060003373ffffffffffffffffffffffffffffffffffffffff1673ffffffffffffffffffffffffffffffffffffffff1681526020019081526020016000206001015414611db9576040517f08c379a0000000000000000000000000000000000000000000000000000000008152600401611db090614545565b60405180910390fd5b42600e60008381526020019081526020016000206000848152602001908152602001600020600901541015611e23576040517f08c379a0000000000000000000000000000000000000000000000000000000008152600401611e1a906145a5565b60405180910390fd5b611e2c33612f66565b15611e6c576040517f08c379a0000000000000000000000000000000000000000000000000000000008152600401611e63906144a5565b60405180910390fd5b3273ffffffffffffffffffffffffffffffffffffffff163373ffffffffffffffffffffffffffffffffffffffff1614611eda576040517f08c379a0000000000000000000000000000000000000000000000000000000008152600401611ed190614565565b60405180910390fd5b60026001541415611f20576040517f08c379a0000000000000000000000000000000000000000000000000000000008152600401611f1790614685565b60405180910390fd5b600260018190555034600c6000858152602001908152602001600020600086815260200190815260200160002060003373ffffffffffffffffffffffffffffffffffffffff1673ffffffffffffffffffffffffffffffffffffffff168152602001908152602001600020600101819055506000600c6000858152602001908152602001600020600086815260200190815260200160002060003373ffffffffffffffffffffffffffffffffffffffff1673ffffffffffffffffffffffffffffffffffffffff16815260200190815260200160002060000160006101000a81548160ff0219169083600181111561203f577f4e487b7100000000000000000000000000000000000000000000000000000000600052602160045260246000fd5b021790555034600e60008581526020019081526020016000206000868152602001908152602001600020600101600082825461207b919061483f565b9250508190555034600e6000858152602001908152602001600020600086815260200190815260200160002060020160008282546120b9919061483f565b92505081905550600d600084815260200190815260200160002060003373ffffffffffffffffffffffffffffffffffffffff1673ffffffffffffffffffffffffffffffffffffffff1681526020019081526020016000208490806001815401808255809150506001900390600052602060002001600090919091909150556001808190555050505050565b600f5481565b60008273ffffffffffffffffffffffffffffffffffffffff1682604051612170906142fd565b60006040518083038185875af1925050503d80600081146121ad576040519150601f19603f3d011682016040523d82523d6000602084013e6121b2565b606091505b50509050806121f6576040517f08c379a00000000000000000000000000000000000000000000000000000000081526004016121ed90614445565b60405180910390fd5b505050565b600042905090565b60011515600b600083815260200190815260200160002060009054906101000a900460ff1615151461226a576040517f08c379a000000000000000000000000000000000000000000000000000000000815260040161226190614605565b60405180910390fd5b6000600a60008381526020019081526020016000205490506122986001826122929190614b35565b83612f79565b6001600e6000848152602001908152602001600020600083815260200190815260200160002060070160026101000a81548160ff0219169083151502179055506122ee6001826122e8919061483f565b83613213565b6001600a60008481526020019081526020016000206000828254612312919061483f565b925050819055507fb352bf6cd71f52e0afa92233b39b67b5b88f33595d886578f9c323dbd6997dd782826001846123499190614b35565b600185612356919061483f565b6040516123669493929190614705565b60405180910390a15050565b3373ffffffffffffffffffffffffffffffffffffffff16600260009054906101000a900473ffffffffffffffffffffffffffffffffffffffff1673ffffffffffffffffffffffffffffffffffffffff1614612402576040517f08c379a00000000000000000000000000000000000000000000000000000000081526004016123f9906144c5565b60405180910390fd5b8060048190555050565b60606000600d600084815260200190815260200160002060003373ffffffffffffffffffffffffffffffffffffffff1673ffffffffffffffffffffffffffffffffffffffff1681526020019081526020016000208054806020026020016040519081016040528092919081815260200182805480156124aa57602002820191906000526020600020905b815481526020019060010190808311612496575b5050505050905060008151905060008167ffffffffffffffff8111156124f9577f4e487b7100000000000000000000000000000000000000000000000000000000600052604160045260246000fd5b60405190808252806020026020018201604052801561253257816020015b61251f613779565b8152602001906001900390816125175790505b5090506000600190505b8281116126be57600c6000878152602001908152602001600020600082815260200190815260200160002060003373ffffffffffffffffffffffffffffffffffffffff1673ffffffffffffffffffffffffffffffffffffffff1681526020019081526020016000206040518060600160405290816000820160009054906101000a900460ff1660018111156125fa577f4e487b7100000000000000000000000000000000000000000000000000000000600052602160045260246000fd5b6001811115612632577f4e487b7100000000000000000000000000000000000000000000000000000000600052602160045260246000fd5b8152602001600182015481526020016002820160009054906101000a900460ff161515151581525050826001836126699190614b35565b815181106126a0577f4e487b7100000000000000000000000000000000000000000000000000000000600052603260045260246000fd5b602002602001018190525080806126b690614c90565b91505061253c565b50809350505050919050565b60085481565b600b6020528060005260406000206000915054906101000a900460ff1681565b3373ffffffffffffffffffffffffffffffffffffffff16600260009054906101000a900473ffffffffffffffffffffffffffffffffffffffff1673ffffffffffffffffffffffffffffffffffffffff1614612780576040517f08c379a0000000000000000000000000000000000000000000000000000000008152600401612777906144c5565b60405180910390fd5b60001515600b600083815260200190815260200160002060009054906101000a900460ff161515146127e7576040517f08c379a00000000000000000000000000000000000000000000000000000000081526004016127de90614665565b60405180910390fd5b6001600b600083815260200190815260200160002060006101000a81548160ff02191690831515021790555060006001600a600084815260200190815260200160002054612835919061483f565b90506128418183613213565b6001600e6000848152602001908152602001600020600083815260200190815260200160002060070160026101000a81548160ff02191690831515021790555060018161288e919061483f565b600a6000848152602001908152602001600020819055506128bb6001826128b5919061483f565b83613213565b5050565b60008042600e60006001815260200190815260200160002060006001600a600060018152602001908152602001600020546128fa9190614b35565b8152602001908152602001600020600901541090508091505090565b818160011515600e6000838152602001908152602001600020600084815260200190815260200160002060070160009054906101000a900460ff16151514612993576040517f08c379a000000000000000000000000000000000000000000000000000000000815260040161298a90614645565b60405180910390fd5b60001515600e6000838152602001908152602001600020600084815260200190815260200160002060070160019054906101000a900460ff16151514612a0e576040517f08c379a0000000000000000000000000000000000000000000000000000000008152600401612a0590614505565b60405180910390fd5b60001515600e6000838152602001908152602001600020600084815260200190815260200160002060070160029054906101000a900460ff16151514612a89576040517f08c379a0000000000000000000000000000000000000000000000000000000008152600401612a8090614525565b60405180910390fd5b600454341015612ace576040517f08c379a0000000000000000000000000000000000000000000000000000000008152600401612ac590614485565b60405180910390fd5b6000600c6000838152602001908152602001600020600084815260200190815260200160002060003373ffffffffffffffffffffffffffffffffffffffff1673ffffffffffffffffffffffffffffffffffffffff1681526020019081526020016000206001015414612b75576040517f08c379a0000000000000000000000000000000000000000000000000000000008152600401612b6c90614545565b60405180910390fd5b42600e60008381526020019081526020016000206000848152602001908152602001600020600901541015612bdf576040517f08c379a0000000000000000000000000000000000000000000000000000000008152600401612bd6906145a5565b60405180910390fd5b612be833612f66565b15612c28576040517f08c379a0000000000000000000000000000000000000000000000000000000008152600401612c1f906144a5565b60405180910390fd5b3273ffffffffffffffffffffffffffffffffffffffff163373ffffffffffffffffffffffffffffffffffffffff1614612c96576040517f08c379a0000000000000000000000000000000000000000000000000000000008152600401612c8d90614565565b60405180910390fd5b60026001541415612cdc576040517f08c379a0000000000000000000000000000000000000000000000000000000008152600401612cd390614685565b60405180910390fd5b600260018190555034600c6000858152602001908152602001600020600086815260200190815260200160002060003373ffffffffffffffffffffffffffffffffffffffff1673ffffffffffffffffffffffffffffffffffffffff168152602001908152602001600020600101819055506001600c6000858152602001908152602001600020600086815260200190815260200160002060003373ffffffffffffffffffffffffffffffffffffffff1673ffffffffffffffffffffffffffffffffffffffff16815260200190815260200160002060000160006101000a81548160ff02191690836001811115612dfb577f4e487b7100000000000000000000000000000000000000000000000000000000600052602160045260246000fd5b021790555034600e600085815260200190815260200160002060008681526020019081526020016000206001016000828254612e37919061483f565b9250508190555034600e600085815260200190815260200160002060008681526020019081526020016000206003016000828254612e75919061483f565b92505081905550600d600084815260200190815260200160002060003373ffffffffffffffffffffffffffffffffffffffff1673ffffffffffffffffffffffffffffffffffffffff1681526020019081526020016000208490806001815401808255809150506001900390600052602060002001600090919091909150556001808190555050505050565b600081831315612f3757826305f5e1008385612f1c9190614aa1565b612f269190614930565b612f309190614895565b9050612f60565b826305f5e1008484612f499190614aa1565b612f539190614930565b612f5d9190614895565b90505b92915050565b600080823b905060008111915050919050565b60011515600b600083815260200190815260200160002060009054906101000a900460ff16151514612fe0576040517f08c379a0000000000000000000000000000000000000000000000000000000008152600401612fd790614605565b60405180910390fd5b60001515600e6000838152602001908152602001600020600084815260200190815260200160002060070160019054906101000a900460ff1615151461305b576040517f08c379a000000000000000000000000000000000000000000000000000000000815260040161305290614465565b60405180910390fd5b6000600e6000838152602001908152602001600020600084815260200190815260200160002060080154116130c5576040517f08c379a00000000000000000000000000000000000000000000000000000000081526004016130bc90614645565b60405180910390fd5b42600e60008381526020019081526020016000206000848152602001908152602001600020600901541061312e576040517f08c379a000000000000000000000000000000000000000000000000000000000815260040161312590614505565b60405180910390fd5b6001600e6000838152602001908152602001600020600084815260200190815260200160002060070160016101000a81548160ff021916908315150217905550620f82ee600e60008381526020019081526020016000206000848152602001908152602001600020600a01819055506213ee89600e60008381526020019081526020016000206000848152602001908152602001600020600b01819055506131d6828261350b565b7f3de62ea950fc2ed1ed823bb23086296729e73cdd05823251b76e36665ff267b582826040516132079291906146dc565b60405180910390a15050565b60001515600e6000838152602001908152602001600020600084815260200190815260200160002060070160009054906101000a900460ff1615151461328e576040517f08c379a0000000000000000000000000000000000000000000000000000000008152600401613285906145e5565b60405180910390fd5b6001600e6000838152602001908152602001600020600084815260200190815260200160002060070160006101000a81548160ff02191690831515021790555060008061335e60096000858152602001908152602001600020600280602002604051908101604052809291908260028015613354576020028201915b8160009054906101000a900473ffffffffffffffffffffffffffffffffffffffff1673ffffffffffffffffffffffffffffffffffffffff168152602001906001019080831161330a575b50505050506119bc565b9150915082600e600085815260200190815260200160002060008681526020019081526020016000206000018190555083600e600085815260200190815260200160002060008681526020019081526020016000206006018190555042600e6000858152602001908152602001600020600086815260200190815260200160002060080181905550600284141561343a5760085460085442613400919061483f565b61340a919061483f565b600e6000858152602001908152602001600020600086815260200190815260200160002060090181905550613474565b60085442613448919061483f565b600e60008581526020019081526020016000206000868152602001908152602001600020600901819055505b81600e60008581526020019081526020016000206000868152602001908152602001600020600c018190555080600e60008581526020019081526020016000206000868152602001908152602001600020600d01819055507f0e5543feb86a4cd302f2b88b26c42be2d1673013a34e1f98bd6d524dd3b4ab4184846040516134fd9291906146dc565b60405180910390a150505050565b6000600e600083815260200190815260200160002060008481526020019081526020016000206005015414801561356957506000600e6000838152602001908152602001600020600084815260200190815260200160002060040154145b6135a8576040517f08c379a000000000000000000000000000000000000000000000000000000000815260040161359f906144e5565b60405180910390fd5b6000600e60008381526020019081526020016000206000848152602001908152602001600020905080600b015481600a0154131561364757600061271060075483600101546135f79190614a47565b61360191906148ff565b9050816002015482600501819055508082600101546136209190614b35565b8260040181905550806006600082825461363a919061483f565b92505081905550506136f1565b80600b015481600a015412156136be576000612710600754836001015461366e9190614a47565b61367891906148ff565b9050816003015482600501819055508082600101546136979190614b35565b826004018190555080600660008282546136b1919061483f565b92505081905550506136f0565b60008160050181905550600081600401819055508060010154600660008282546136e8919061483f565b925050819055505b5b505050565b604051806102000160405280600081526020016000815260200160008152602001600081526020016000815260200160008152602001600081526020016000151581526020016000151581526020016000151581526020016000815260200160008152602001600081526020016000815260200160008152602001600081525090565b6040518060600160405280600060018111156137be577f4e487b7100000000000000000000000000000000000000000000000000000000600052602160045260246000fd5b8152602001600081526020016000151581525090565b60006137e76137e28461476f565b61474a565b905080828560208602820111156137fd57600080fd5b60005b8581101561382d578161381388826138bd565b845260208401935060208301925050600181019050613800565b5050509392505050565b6000813590506138468161513a565b92915050565b600082601f83011261385d57600080fd5b600261386a8482856137d4565b91505092915050565b60008083601f84011261388557600080fd5b8235905067ffffffffffffffff81111561389e57600080fd5b6020830191508360018202830111156138b657600080fd5b9250929050565b6000813590506138cc81615151565b92915050565b6000815190506138e181615168565b92915050565b6000813590506138f68161517f565b92915050565b60008151905061390b8161517f565b92915050565b60008151905061392081615196565b92915050565b60006020828403121561393857600080fd5b600061394684828501613837565b91505092915050565b6000806040838503121561396257600080fd5b600061397085828601613837565b925050602061398185828601613837565b9150509250929050565b6000806040838503121561399e57600080fd5b60006139ac85828601613837565b92505060206139bd858286016138e7565b9150509250929050565b6000604082840312156139d957600080fd5b60006139e78482850161384c565b91505092915050565b60008060208385031215613a0357600080fd5b600083013567ffffffffffffffff811115613a1d57600080fd5b613a2985828601613873565b92509250509250929050565b600060208284031215613a4757600080fd5b6000613a55848285016138e7565b91505092915050565b600080600060608486031215613a7357600080fd5b6000613a81868287016138e7565b9350506020613a9286828701613837565b9250506040613aa3868287016138e7565b9150509250925092565b60008060408385031215613ac057600080fd5b6000613ace858286016138e7565b9250506020613adf858286016138e7565b9150509250929050565b600080600060608486031215613afe57600080fd5b6000613b0c868287016138e7565b9350506020613b1d868287016138e7565b9250506040613b2e86828701613837565b9150509250925092565b600080600080600060a08688031215613b5057600080fd5b6000613b5e88828901613911565b9550506020613b6f888289016138d2565b9450506040613b80888289016138fc565b9350506060613b91888289016138fc565b9250506080613ba288828901613911565b9150509295509295909350565b6000613bbb8383614009565b6102008301905092915050565b6000613bd4838361429d565b60608301905092915050565b613be981614b69565b82525050565b6000613bfa826147b5565b613c0481856147f0565b9350613c0f83614795565b8060005b83811015613c40578151613c278882613baf565b9750613c32836147d6565b925050600181019050613c13565b5085935050505092915050565b6000613c58826147c0565b613c628185614801565b9350613c6d836147a5565b8060005b83811015613c9e578151613c858882613bc8565b9750613c90836147e3565b925050600181019050613c71565b5085935050505092915050565b613cb481614b7b565b82525050565b613cc381614b7b565b82525050565b6000613cd4826147cb565b613cde8185614812565b9350613cee818560208601614c2c565b613cf781614d95565b840191505092915050565b613d0b81614bf6565b82525050565b613d1a81614c1a565b82525050565b613d2981614c1a565b82525050565b613d3881614bac565b82525050565b613d4781614bac565b82525050565b6000613d5a600f8361482e565b9150613d6582614da6565b602082019050919050565b6000613d7d60178361482e565b9150613d8882614dcf565b602082019050919050565b6000613da060158361482e565b9150613dab82614df8565b602082019050919050565b6000613dc360148361482e565b9150613dce82614e21565b602082019050919050565b6000613de6600c8361482e565b9150613df182614e4a565b602082019050919050565b6000613e0960128361482e565b9150613e1482614e73565b602082019050919050565b6000613e2c60138361482e565b9150613e3782614e9c565b602082019050919050565b6000613e4f600f8361482e565b9150613e5a82614ec5565b602082019050919050565b6000613e72601b8361482e565b9150613e7d82614eee565b602082019050919050565b6000613e95601a8361482e565b9150613ea082614f17565b602082019050919050565b6000613eb8600f8361482e565b9150613ec382614f40565b602082019050919050565b6000613edb60148361482e565b9150613ee682614f69565b602082019050919050565b6000613efe600c8361482e565b9150613f0982614f92565b602082019050919050565b6000613f2160198361482e565b9150613f2c82614fbb565b602082019050919050565b6000613f44601d8361482e565b9150613f4f82614fe4565b602082019050919050565b6000613f67600083614823565b9150613f728261500d565b600082019050919050565b6000613f8a60448361482e565b9150613f9582615010565b606082019050919050565b6000613fad60158361482e565b9150613fb882615085565b602082019050919050565b6000613fd060218361482e565b9150613fdb826150ae565b604082019050919050565b6000613ff3601f8361482e565b9150613ffe826150fd565b602082019050919050565b6102008201600082015161402060008501826142df565b50602082015161403360208501826142df565b50604082015161404660408501826142df565b50606082015161405960608501826142df565b50608082015161406c60808501826142df565b5060a082015161407f60a08501826142df565b5060c082015161409260c08501826142df565b5060e08201516140a560e0850182613cab565b506101008201516140ba610100850182613cab565b506101208201516140cf610120850182613cab565b506101408201516140e46101408501826142df565b506101608201516140f96101608501826142df565b5061018082015161410e610180850182613d2f565b506101a08201516141236101a0850182613d2f565b506101c08201516141386101c0850182613d2f565b506101e082015161414d6101e0850182613d2f565b50505050565b6102008201600082015161416a60008501826142df565b50602082015161417d60208501826142df565b50604082015161419060408501826142df565b5060608201516141a360608501826142df565b5060808201516141b660808501826142df565b5060a08201516141c960a08501826142df565b5060c08201516141dc60c08501826142df565b5060e08201516141ef60e0850182613cab565b50610100820151614204610100850182613cab565b50610120820151614219610120850182613cab565b5061014082015161422e6101408501826142df565b506101608201516142436101608501826142df565b50610180820151614258610180850182613d2f565b506101a082015161426d6101a0850182613d2f565b506101c08201516142826101c0850182613d2f565b506101e08201516142976101e0850182613d2f565b50505050565b6060820160008201516142b36000850182613d11565b5060208201516142c660208501826142df565b5060408201516142d96040850182613cab565b50505050565b6142e881614bd6565b82525050565b6142f781614bd6565b82525050565b600061430882613f5a565b9150819050919050565b60006040820190506143276000830185613be0565b61433460208301846142ee565b9392505050565b600060208201905081810360008301526143558184613bef565b905092915050565b600060208201905081810360008301526143778184613c4d565b905092915050565b60006020820190506143946000830184613cba565b92915050565b60006040820190506143af6000830185613cba565b81810360208301526143c18184613cc9565b90509392505050565b60006020820190506143df6000830184613d02565b92915050565b60006060820190506143fa6000830186613d20565b61440760208301856142ee565b6144146040830184613cba565b949350505050565b60006040820190506144316000830185613d3e565b61443e6020830184613d3e565b9392505050565b6000602082019050818103600083015261445e81613d4d565b9050919050565b6000602082019050818103600083015261447e81613d70565b9050919050565b6000602082019050818103600083015261449e81613d93565b9050919050565b600060208201905081810360008301526144be81613db6565b9050919050565b600060208201905081810360008301526144de81613dd9565b9050919050565b600060208201905081810360008301526144fe81613dfc565b9050919050565b6000602082019050818103600083015261451e81613e1f565b9050919050565b6000602082019050818103600083015261453e81613e42565b9050919050565b6000602082019050818103600083015261455e81613e65565b9050919050565b6000602082019050818103600083015261457e81613e88565b9050919050565b6000602082019050818103600083015261459e81613eab565b9050919050565b600060208201905081810360008301526145be81613ece565b9050919050565b600060208201905081810360008301526145de81613ef1565b9050919050565b600060208201905081810360008301526145fe81613f14565b9050919050565b6000602082019050818103600083015261461e81613f37565b9050919050565b6000602082019050818103600083015261463e81613f7d565b9050919050565b6000602082019050818103600083015261465e81613fa0565b9050919050565b6000602082019050818103600083015261467e81613fc3565b9050919050565b6000602082019050818103600083015261469e81613fe6565b9050919050565b6000610200820190506146bb6000830184614153565b92915050565b60006020820190506146d660008301846142ee565b92915050565b60006040820190506146f160008301856142ee565b6146fe60208301846142ee565b9392505050565b600060808201905061471a60008301876142ee565b61472760208301866142ee565b61473460408301856142ee565b61474160608301846142ee565b95945050505050565b6000614754614765565b90506147608282614c5f565b919050565b6000604051905090565b600067ffffffffffffffff82111561478a57614789614d66565b5b602082029050919050565b6000819050602082019050919050565b6000819050602082019050919050565b600081519050919050565b600081519050919050565b600081519050919050565b6000602082019050919050565b6000602082019050919050565b600082825260208201905092915050565b600082825260208201905092915050565b600082825260208201905092915050565b600081905092915050565b600082825260208201905092915050565b600061484a82614bd6565b915061485583614bd6565b9250827fffffffffffffffffffffffffffffffffffffffffffffffffffffffffffffffff0382111561488a57614889614cd9565b5b828201905092915050565b60006148a082614bac565b91506148ab83614bac565b9250826148bb576148ba614d08565b5b600160000383147f8000000000000000000000000000000000000000000000000000000000000000831416156148f4576148f3614cd9565b5b828205905092915050565b600061490a82614bd6565b915061491583614bd6565b92508261492557614924614d08565b5b828204905092915050565b600061493b82614bac565b915061494683614bac565b9250827f7fffffffffffffffffffffffffffffffffffffffffffffffffffffffffffffff048211600084136000841316161561498557614984614cd9565b5b817f800000000000000000000000000000000000000000000000000000000000000005831260008412600084131616156149c2576149c1614cd9565b5b827f800000000000000000000000000000000000000000000000000000000000000005821260008413600084121616156149ff576149fe614cd9565b5b827f7fffffffffffffffffffffffffffffffffffffffffffffffffffffffffffffff0582126000841260008412161615614a3c57614a3b614cd9565b5b828202905092915050565b6000614a5282614bd6565b9150614a5d83614bd6565b9250817fffffffffffffffffffffffffffffffffffffffffffffffffffffffffffffffff0483118215151615614a9657614a95614cd9565b5b828202905092915050565b6000614aac82614bac565b9150614ab783614bac565b9250827f800000000000000000000000000000000000000000000000000000000000000001821260008412151615614af257614af1614cd9565b5b827f7fffffffffffffffffffffffffffffffffffffffffffffffffffffffffffffff018213600084121615614b2a57614b29614cd9565b5b828203905092915050565b6000614b4082614bd6565b9150614b4b83614bd6565b925082821015614b5e57614b5d614cd9565b5b828203905092915050565b6000614b7482614bb6565b9050919050565b60008115159050919050565b6000614b9282614b69565b9050919050565b6000819050614ba782615126565b919050565b6000819050919050565b600073ffffffffffffffffffffffffffffffffffffffff82169050919050565b6000819050919050565b600069ffffffffffffffffffff82169050919050565b6000614c0182614c08565b9050919050565b6000614c1382614bb6565b9050919050565b6000614c2582614b99565b9050919050565b60005b83811015614c4a578082015181840152602081019050614c2f565b83811115614c59576000848401525b50505050565b614c6882614d95565b810181811067ffffffffffffffff82111715614c8757614c86614d66565b5b80604052505050565b6000614c9b82614bd6565b91507fffffffffffffffffffffffffffffffffffffffffffffffffffffffffffffffff821415614cce57614ccd614cd9565b5b600182019050919050565b7f4e487b7100000000000000000000000000000000000000000000000000000000600052601160045260246000fd5b7f4e487b7100000000000000000000000000000000000000000000000000000000600052601260045260246000fd5b7f4e487b7100000000000000000000000000000000000000000000000000000000600052602160045260246000fd5b7f4e487b7100000000000000000000000000000000000000000000000000000000600052604160045260246000fd5b6000601f19601f8301169050919050565b7f5472616e73666572206661696c65640000000000000000000000000000000000600082015250565b7f526f756e642068617320616c726561647920656e646564000000000000000000600082015250565b7f4d757374206d656574206d696e696d756d206265740000000000000000000000600082015250565b7f436f6e7472616374206e6f7420616c6c6f776564000000000000000000000000600082015250565b7f4e6f7420616e206f776e65720000000000000000000000000000000000000000600082015250565b7f526577617264732063616c63756c617465640000000000000000000000000000600082015250565b7f526f756e6420686173206e6f7420656e64656400000000000000000000000000600082015250565b7f526f756e64206973206c6f636b65640000000000000000000000000000000000600082015250565b7f557365722063616e6e6f7420706c6163652062696420616761696e0000000000600082015250565b7f50726f787920636f6e7472616374206e6f7420616c6c6f776564000000000000600082015250565b7f416c726561647920636c61696d65640000000000000000000000000000000000600082015250565b7f42657474696e672074696d65206973206f766572000000000000000000000000600082015250565b7f43616e6e6f7420636c61696d0000000000000000000000000000000000000000600082015250565b7f526f756e642068617320616c7265616479207374617274656400000000000000600082015250565b7f67656e6573697320726f756e6420686173206e6f742073746172746564000000600082015250565b50565b7f416c6c2074686520726577617264732077656e7420746f20706f6f6c2061732060008201527f7072696365206368616e6765206f6620626f746820746f6b656e20617265206560208201527f7175616c00000000000000000000000000000000000000000000000000000000604082015250565b7f526f756e6420686173206e6f7420737461727465640000000000000000000000600082015250565b7f67656e6573697320726f756e642068617320616c72656164792073746172746560008201527f6400000000000000000000000000000000000000000000000000000000000000602082015250565b7f5265656e7472616e637947756172643a207265656e7472616e742063616c6c00600082015250565b6002811061513757615136614d37565b5b50565b61514381614b69565b811461514e57600080fd5b50565b61515a81614b87565b811461516557600080fd5b50565b61517181614bac565b811461517c57600080fd5b50565b61518881614bd6565b811461519357600080fd5b50565b61519f81614be0565b81146151aa57600080fd5b5056fea2646970667358221220805e7b08f555bf2e6089adc090d7f5b709b18230cb99066f209fd5ad40765ff764736f6c63430008040033",
  "linkReferences": {},
  "deployedLinkReferences": {}
}